:1020000000800020914400007944000079440000E1
:1020100000000000000000000000000000000000C0
:1020200000000000000000000000000079440000F3
:10203000000000000000000079440000E5440000BA
:10204000794400007944000079440000794400009C
:102050007944000079440000794400007D44000088
:10206000794400007944000079440000794400007C
:102070007944000079440000E943000079440000FD
:1020800079440000794400002D230000BD220000A7
:10209000DD2200007944000079440000794400000A
:1020A000794400007944000079440000794400003C
:1020B0000000000010B5064C2378002B07D1054B1B
:1020C000002B02D0044800E000BF0123237010BDA4
:1020D0003001002000000000C0B70000044B10B524
:1020E000002B03D00349044800E000BF10BDC046E8
:1020F0000000000034010020C0B7000010B504004B
:102100004068002801D008F033FE200010BD0A21ED
:10211000435E0200181E01D01B01D018704770B535
:102120000D00041E0FD0C168A9420CD0002D06D0AE
:10213000002904D0280008F0FBFE002803D020006E
:10214000FFF7E5FFEDE7200070BD030000208342AC
:1021500008D01A7A7F30824310000C2202430120FB
:102160001A72196070474A688B681032934202D223
:10217000002318007047103B8B60002BF8D042689A
:10218000002A08D0991A09115181002243605A810E
:102190001A72DA60EDE70360F7E770B528C904004A
:1021A000181E02D02900FFF7DEFF206065602000C6
:1021B00070BD00000C4A0D4B0D491A600A004B78A7
:1021C000DB09FCD10B4B0C4919605378DB09FCD1BE
:1021D0000A4B0B4919805178C909FCD1094919806A
:1021E0005378DB09FCD1704704300000080C004034
:1021F000000C0040040C004004070300020C0040E7
:102200001C4400001B440000C3220E4B920010B57A
:102210001A800D4A1000D37BDB09FCD180210B4BC7
:102220000903196001230A4C2178194321700949D7
:102230000C7823430B70084B1380C37BDB09FCD164
:1022400010BDC046183000420030004200E100E0FE
:102250000E3000420D30004222060000104A114BA1
:1022600030B51A80104A1000D37BDB09FCD18021E5
:10227000C524FF250D4B49031960A4001959A94332
:10228000195101230A4C21781943217009490C780E
:1022900023430B70084B1380C37BDB09FCD130BD9B
:1022A000083D0000183400420034004200E100E024
:1022B0000E3400420D34004222050000054B9A7B8B
:1022C000D20705D55B7BDB0702D50122024B1A70D2
:1022D0007047C046003000420E30004210B50E4B31
:1022E0009A7BD20716D55B7BDB0713D5FA200B4B05
:1022F00080001A6801321A601B68094A5843116845
:1023000005F070FF002902D10122064B1A7001224C
:10231000054B1A7010BDC046003400427402002004
:1023200068000020720200200E340042094B1B7826
:10233000002B0DD1084B9A7BD20709D55B7BDB07BD
:1023400006D5064B1B78002B02D00122044B1A70D5
:102350007047C04656010020002C00425501002065
:102360000E2C004210B50121102002F07BFB012150
:10237000112002F077FB0121142002F073FB0021F1
:10238000152002F06FFB01210F2002F06BFB0A20E9
:1023900002F046FAF8210F20890002F079FA0121B3
:1023A000122002F05FFB0121132002F05BFB0121F0
:1023B000002002F057FB0121002002F09FFB0121C9
:1023C000080002F04FFB0021012002F097FB0121E1
:1023D000022002F047FB0021022002F08FFB0021C7
:1023E000032002F03FFB0121042002F03BFB01210E
:1023F000052002F037FB0121062002F033FB01210A
:10240000072002F02FFB0121082002F02BFB012105
:10241000092002F027FB00210A2002F023FB002103
:102420000B2002F01FFB00210C2002F01BFB0021FF
:102430000D2002F017FB00210E2002F013FB10BD4F
:10244000124B00B51868042808D8114A127805F014
:1024500045FD030D12161A00002A01D0002208E0E3
:102460000C4A1278002A05D0012202E0002AF5D198
:1024700002221A6000BD002AF0D10322F9E7002AE7
:10248000ECD10422F5E7002AEED0E7E75001002066
:1024900056010020550100204006C00F70478006FD
:1024A000C00F7047F7B5154C0700200000250E003F
:1024B00001F00AFF6B465D711D71019A2000104901
:1024C00001F02AFF290041350720FF3502F016FBF5
:1024D0002B00013BFDD160212000394301F04CFF6E
:1024E0003100200001F048FF013DFDD1012107200E
:1024F00002F004FB200001F02BFFF7BD7802002062
:10250000808D5B00F7B5164C0700200001F0DCFE63
:1025100000266B46A0255E711E71019A20001149AC
:1025200001F0FAFE6D003100072002F0E7FA2B00FF
:10253000013BFDD140212000394301F01DFF310056
:10254000200001F019FF0600013DFDD10121072007
:1025500002F0D4FA200001F0FBFE3000FEBDC046C0
:1025600078020020808D5B00F8B50124234B244ABB
:102570003220DC661A6701F0F9FF2100200002F02A
:10258000BDFAC82001F0F2FF2100072002F0B6FAE0
:10259000962001F0EBFF0021022002F0AFFA0021AB
:1025A000080002F0ABFA962001F0E0FF21000020C5
:1025B00002F0A4FAFA20400001F0D8FF0024114EE6
:1025C000114DA15D605D0134FFF76CFF092CF6D160
:1025D0000024285DFFF796FF335D834209D00B4F3F
:1025E0000B49380002F084FB295D0A22380002F012
:1025F000CFFB0134092CECD1F8BDC0465C010020B2
:10260000020D0000550000204C0000201C05002099
:102610002EB1000003000020002B03D05A1E1340EF
:102620000130F9E7704710B50121022002F066FA87
:102630002023013BFDD10021022002F05FFA962306
:102640009B01013BFDD110BDF0B50026A02785B050
:10265000FFF7E9FF1D4D7F00280001F035FE02ABBA
:102660005E711E71039A2800194901F055FE310070
:10267000072002F043FA3B00013BFDD13021280046
:1026800001F07AFE3100280001F076FE3100019061
:10269000280001F071FE31000400280001F06CFEFA
:1026A0000C4906000C4802F039FB013FFDD1012125
:1026B000072002F023FA280001F04AFE019B2402C1
:1026C00018042043304305B0F0BDC0467802002016
:1026D000808D5B002BB100001C050020F7B50020A9
:1026E000FFF798FF0400FF20FFF794FF24187F20D6
:1026F000FFF790FF00261F2723180193019B9E429E
:102700001ADAFFF7A1FF030C0500DCB21B0611D596
:102710002000FFF7C4FE00280CD12000FFF7BCFE0C
:10272000002807D13C40ADB2044B192C00D9013C24
:1027300064001D530136E1E7F7BDC04638020020B2
:10274000F7B504000D00022902DC00242000FEBDC4
:10275000080008F021FA0B0080210200C9050020C2
:1027600004F0AEFA060020000F0008F015FA00226F
:10277000009001911C4B3000390007F073FE0200FD
:102780000B000098019905F05DFD0028DDD12300C4
:10279000681E0341DAD008F0FFF90F000B0080211A
:1027A00006000200C905002004F08AFA0090019199
:1027B000802132003B000020C90504F081FA00228C
:1027C000094B06000F000098019907F04BFE08F036
:1027D000ADF9204008F0E0F932003B0007F042FE7E
:1027E00008F0A4F90400B1E70000F03F0D4AD0B5AD
:1027F000136FD46E4343FA208000584308F0CCF99D
:10280000060020000F0008F0C7F90022064B07F071
:10281000B7FB02000B003000390006F0A7FF08F0FC
:1028200085F9D0BD5C0100200000DE4070B52A4D66
:102830002A4C2B8E00269BB22366688E80B206F04F
:1028400039FC08F0E3F90022254B06F08FFF08F071
:102850006DF96066A88E102180B2FFF771FFFFF757
:10286000C5FF0300FA20800058431E4BC01808F033
:1028700093F900221C4B06F079FF00221B4B06F057
:1028800059FC08F053F9A066E88E80B206F012FCFD
:1028900008F0BCF90022164B06F068FF08F046F974
:1028A000E066288F80B206F005FC08F0AFF9002240
:1028B0000B4B06F05BFF08F039F920677300E85A0C
:1028C000102180B2FFF73CFFFFF790FFB300013605
:1028D000E050182EF2D170BD380200205C010020BB
:1028E0000000A840C06FFDFF009881400000394003
:1028F0000000DE401F4B70B518681F4B1C6806F0C7
:102900008FFB211C06F0A8F91C4D041C2B68002B22
:102910001FD1201C08F07AF9194B1A4A05F092FCD5
:102920000223002813D10021201C05F0C5FC00283B
:1029300002D180231B06E418201C08F067F9104B15
:10294000104A05F075FC0023002800D101232B60FC
:102950000EE02B68012BDCD02E68022E08D108F087
:1029600055F9084A064B05F06DFC0028DBD02E60B7
:1029700070BDC04624020020D801002020020020A3
:1029800051B88E3FB81E85EB104A10B51168104B38
:10299000002908D0116801290DD119680D4A91420A
:1029A00006DD0D4A1A601968132001F071FF10BD91
:1029B0001A680132F6E71268022AF4D11A68002A6E
:1029C00001DC0022EEE71A68013AEBE72002002062
:1029D0001C020020FE030000FF0300001B4B70B52B
:1029E0001B781B4DDBB2002B29D01A4B18681A4BF1
:1029F00019682B68002B21D001DB032B01DD00239C
:102A00001DE006F029F98121C905061C05F054FCDA
:102A10000323002813D10021301C05F04DFC0124B4
:102A200000280ED08121301CC90505F03BFC002890
:102A300000D1041CE4B20223002C00D001232B603F
:102A400070BD0649301C05F041FCF0E74C01002048
:102A50000C0200202802002060000020000080C03E
:102A60002A4B70B518682A4905F012FC002805D0D9
:102A7000052002F06FF80121012800D10021052076
:102A800002F03CF8234B244C186803283BD805F08F
:102A900025FA021015290021042002F02FF8002346
:102AA0002360206805F01CFC0100122001F0F0FEFC
:102AB00070BD0021042002F021F8F2E7174D01213A
:102AC000042002F01BF82068291C05F0FFFB0028F9
:102AD00001D02560E5E7FE212068890505F018FC96
:102AE0002060DEE700250021042002F007F82068BE
:102AF000291C05F0D7FB0028EBD1FE2120688905B1
:102B000006F0AAF8ECE700221A60CAE728020020C3
:102B1000000048420C0200200802002000C07F4450
:102B2000012210B5034B010003481A7002F0D9FDD1
:102B300010BDC04654010020FC01002010B5006803
:102B4000FFF7EDFA10BD03000020834209D01A7A86
:102B50007F308243002905DB773802431A721960FF
:102B6000073870470A20494202431A72196009382F
:102B7000F7E770B5037A0D0016007F211A000400F4
:102B80000A4005D18B435F390B43037202604260F8
:102B90002022237A1340181E12D0281E10D029009C
:102BA0002068FFF7BCFA00280AD131002000FFF7A7
:102BB000DAFA002804D07F22037AC560134003723A
:102BC00070BD70B50D0004002800110010302A00FF
:102BD000FFF7CFFF002809D07F22037A93431A0022
:102BE0004023134303720023036043602060656049
:102BF000200070BD202210B5037A13401A1E02D0A7
:102C0000FFF79CFF0200100010BD10B5002801D096
:102C1000FFF794FF10BD437B002B06D183685A1C3D
:102C200082601B78037301234373007B704710B5E8
:102C300004002000FFF7EFFF0A2805D8092807D273
:102C4000002808D0012009E00D2801D02028F9D162
:102C500000236373EDE701235434237010BD70B576
:102C600004000D00FFF7D7FF0023A84201D16373D2
:102C70000133180070BD2F2815D90123392803D935
:102C80005E2803D97A2803D81800704740280AD94B
:102C900001235A28F8D9002301222D38C0B28242DC
:102CA0005B41DBB2F0E701232B28F4D1ECE77F2274
:102CB000D3B50300007A0C0010400638062831D83E
:102CC00005F00CF93D30313023300400186807F06E
:102CD0009DFF060060680F0007F05EFF0090019105
:102CE0000B0002003900300005F098FA0423002898
:102CF00009D1009A019B3000390005F0A3FA0300C6
:102D0000581E8341013323700CE019686368042264
:102D1000002B06DC5B428B4203DB023A8B4200DC79
:102D2000013A2270D3BD196862680223002AEADBE7
:102D3000DB189142E7D38A429B415B42E2E7196884
:102D40004B1E9941F0E707B5030000226946406831
:102D50000A700132D9680192FFF757FF002802D0AC
:102D60006946FFF7A4FF6B4618780EBDF7B50968F2
:102D70000F683C1E29D002684468944215D93D0072
:102D800013002E78B4465E1C01961E78664504D169
:102D9000002E08D00135019BF3E71D7801331A009E
:102DA000002DFAD1E9E7002A11D18D6882686B1CE9
:102DB000E31893420DD84360002C06D009682A001E
:102DC000200007F0DFFF002363552000FEBD140044
:102DD000FBE70024F9E737B500250400A8420ED030
:102DE0000191100001A9FFF7C1FF7F22237A9343CD
:102DF000A84206D07A3A1343237220600135280096
:102E00003EBD2372FBE737B500236A461370C3B299
:102E10007F280BD853706B460233013B187800288B
:102E200031D00A68541C0C601070F6E73F248022F1
:102E30006D4623405242134380096B7085B2C3B282
:102E40001F2D06D8403213436A4693706B460333F6
:102E5000E3E76D46234000041343800DAB70C3B21B
:102E60000F2805DC202252421343EB7001ABD4E75C
:102E70001C40102380115B4218436B462243EA70CA
:102E800028710533C9E737BDF7B505000027FFF7FF
:102E9000C2FE6F7301902800FFF7BDFE0024019A67
:102EA00003006C73824259D0A04204D101235435EF
:102EB00000202B70FEBD5C284BD12800FFF7ABFE35
:102EC0000028F3D0284B752839D104266C732800CC
:102ED000FFF7A1FE0028E9D0402806D83038C0B25C
:102EE0000F2806D954350223E2E7202398433738C8
:102EF000F5E700232401013E0443F6B2A4B26B734C
:102F00009E42E4D1A0239B01E318184A9BB293424E
:102F100002D8A405A70DBEE790239B01E3189BB23E
:102F20002000934206D880238005BC02800D2043F8
:102F30005B02C0182900FFF766FFACE702331A787E
:102F4000002ACFD09042F9D15B78002BCAD0002262
:102F50006A732A68511C296013709CE72B68012052
:102F60005A1C2A601C70A5E753B10000FF03000043
:102F7000036870B543600400FFF74DFE27280DD0AD
:102F800022280BD02000FFF746FE0500FFF773FE56
:102F9000061E09D102235434237003E02000FFF7FA
:102FA00073FF0600300070BD0023637323682000A8
:102FB0005A1C22601D70FFF72EFE0500FFF75BFE16
:102FC0000028F1D123685A1C22601870EAE700003B
:102FD000F8B50C1E0EDD002501260E4F344203D03D
:102FE000AB00D95905F006FD01356410EDB2002C97
:102FF000F4D1F8BD00250126074F4C42002CF8D033
:10300000344203D0AB00D95905F0F4FC013564100B
:10301000EDB2F3E7340000201C000020F7B5037880
:1030200004000E002B2B1CD02D2B1BD101270134AB
:1030300023781A00303A092A01D92E2B65D10020B5
:103040000A25454922781300303BDBB2092B0BD807
:10305000884212D8DA43684382420ED3C018013442
:10306000F0E701340027E3E7002A06D130600823A7
:10307000002F00D00233337147E00025374B9842D0
:1030800005D90A21013504F03DFF6DB2F6E723783A
:103090001A00303A092A03D801356DB20134F6E737
:1030A0002E2B0FD10A212E4A01342378303BDBB27C
:1030B000092B07D8904203D84843013D18186DB238
:1030C0000134F2E72022237800219343452B31D1AC
:1030D00063782D2B1AD12C3B0234019300212278E6
:1030E000303AD3B2092B21D80A23594351186A1810
:1030F000262A19DD019B0C22002B0ED00023002F65
:1031000001D080231B0633603271F7BD2B2B02D018
:1031100001340191E2E70234FBE7002F01D0114BAB
:10312000F1E7FF23DB05EEE70134D8E7019B002B35
:1031300000D049422378002BE7D16D1805F0BAFF83
:103140002900FFF745FF002F02D080231B06C0187F
:1031500030600C238FE7C04699999919FFFF7F00D3
:10316000CBCC0C00000080FFF0B585B005000C0052
:10317000FFF751FD002601900198F7B2FFF77BFDA4
:1031800000280ED00136402E0AD06A46002312795C
:103190006B73AB19DA742800FFF73DFD0190EBE784
:1031A0003F270026EB191E752B7D742B0CD17F2237
:1031B000237A93431A0006231343237201232360C7
:1031C000042F0DD101200FE0662B0FD17F22237A2F
:1031D000266093431A00062313432372052FF1D070
:1031E0000123002054352B7005B0F0BD6E2BE7D0C5
:1031F000280002AB190014301E71FFF70FFF02AB5D
:103200001B790A2B0BD00C2B11D0082B12D1029A50
:1032100022607F21227A8A4313432372D2E77F21DF
:10322000227A8A4313432372029B2360CAE7029ADD
:103230002260EEE7022354352B703000D4E7F8B556
:1032400004000D001F1CFFF7F2FC002802D100262D
:103250003000F8BD2000FFF7DEFC27285FD006D83D
:1032600022285CD029002000FFF77EFF55E05B2874
:1032700012D07B28F6D17F222B7A290093431A00A3
:10328000202313432B72002300222B606B6020004D
:103290003B1C00F056F840E07F222B7AFFB29343AC
:1032A0001A00402313432B7200232B606B609F4254
:1032B00003D1543405332370C9E763732000FFF74B
:1032C000B6FC061EC3D05D212000FFF7C8FC002815
:1032D000BED121692800FEF746FF011E02D15434F9
:1032E0000323E8E77B1E00222000FFF7A8FF002849
:1032F000ADD02000FFF79BFC0028A8D05D21200066
:10330000FFF7ADFC0028A3D12C212000FFF7A7FC7C
:103310000028DED1022354342370060098E7236886
:1033200020006360FFF7B0FD061E00D18FE77F220B
:1033300063682B602B7A93431A00042313432B7288
:1033400086E7F7B5DEB204000091002E04D1052314
:103350005434237000250DE000234373FFF767FC0E
:1033600001900028F6D07D212000FFF778FC051E93
:1033700035D0019D2800FEBD676800983900FFF731
:10338000DDFB00280DD121690098FEF7ECFE002836
:1033900002D15434032334E07F22037AC760134000
:1033A00003720100731E00222000FFF748FF00286F
:1033B000D0D02000FFF73BFC0028CBD07D2120009F
:1033C000FFF74DFC0028D4D12C212000FFF747FC4B
:1033D000002814D02000FFF72AFC0028BAD02000D3
:1033E000FFF7C6FD0028B5D02000FFF720FC00281D
:1033F000B0D03A212000FFF732FC0028BCD10223D4
:1034000054342370B6E707B5031E2ED07F22007A0E
:1034100010400438082828D804F060FD1010052753
:10342000052709272500186805F044FE05E01868FF
:1034300005F040FE80231B06C0180EBD18686A46C2
:10344000002369461371FFF7E9FD6B461B790A2BD0
:1034500006D000980C2BF0D0082B06D10098E3E79B
:10346000009B5842E0E71868E7E70020E5E7000026
:10347000F7B5037804000E002B2B1CD02D2B1BD18D
:103480000127013423781A00303A092A01D92E2B5A
:1034900065D100200A25454922781300303BDBB274
:1034A000092B0BD8884212D8DA43684382420ED3E4
:1034B000C0180134F0E701340027E3E7002A06D101
:1034C00030600823002F00D00233337147E000251D
:1034D000374B984205D90A21013504F013FD6DB22E
:1034E000F6E723781A00303A092A03D801356DB27D
:1034F0000134F6E72E2B0FD10A212E4A013423780E
:10350000303BDBB2092B07D8904203D84843013D3A
:1035100018186DB20134F2E720222378002193437A
:10352000452B31D163782D2B1AD12C3B02340193DA
:1035300000212278303AD3B2092B21D80A235943EB
:1035400051186A18262A19DD019B0C22002B0ED077
:103550000023002F01D080231B0633603271F7BD9A
:103560002B2B02D001340191E2E70234FBE7002F5C
:1035700001D0114BF1E7FF23DB05EEE70134D8E77B
:10358000019B002B00D049422378002BE7D16D1816
:1035900005F090FD2900FFF71BFD002F02D08023CE
:1035A0001B06C01830600C238FE7C0469999991903
:1035B000FFFF7F00CBCC0C00000080FF13B50300A1
:1035C0000020834218D07F22187A1040043808283F
:1035D0003ED804F083FC1212053D053D0A3D3B0038
:1035E0001868C343DB17184006E0802200201B68E0
:1035F0001206934200D8584216BD186800246B4644
:1036000069461C71FFF734FF6B461B790A2B05D006
:103610000C2B08D0082B1BD10098E2E78022009BDE
:1036200012062000E5E7009CCF21201C090604F0CB
:103630004DFE0028E0D09E21201CC90504F032FE7A
:103640000028D9D0201C05F0CBFCD5E71C68EBE79F
:103650000020D1E710B5006803685B68984710BD8B
:1036600070B5040008000D0007F074FC290002008A
:103670002000FFF7EFFF63681818606070BD10B599
:103680000400006803681B68984763681818606046
:1036900010BD000070B50D00040022212000FFF7CE
:1036A000EEFF2978002909D00A4B01351E78002E3B
:1036B000F4D05A788A4206D00233F7E7222120005C
:1036C000FFF7DDFF70BD5C212000FFF7D8FF310060
:1036D000E4E7C04655B100000623F7B50E1C07000D
:1036E00083725849301C04F0F1FD002844D00023B7
:1036F000142420250093544B311C185904F0D2FD9A
:10370000002809D0514B301C195905F073F9009B62
:10371000061CE81803B20093043C6D10231DEAD187
:1037200003340021301C04F0C7FD002828D0301CD1
:1037300007F06CFA464A474B04F07AFD00281FD088
:10374000A300019323061BD4434B019A311C9858C4
:1037500004F0B2FD00280AD03B4B019A301C995866
:1037600005F048F9009B061C581B03B20093019B0F
:103770006D10013C043BE4E7202505240090D0E7D0
:103780006B461B88301C3B8104F0AAFD0400334DBE
:1037900038600190019B092B0DD90A21280004F003
:1037A000B1FBBB7A0500013B0198BB720A2104F012
:1037B000A9FB0190EEE7200005F07CFC011C301C09
:1037C00005F04AFA061C280005F074FC011C301CA8
:1037D00005F010F9019004F083FD060005F06AFC85
:1037E000011C019805F038FA011C04F091FD04F069
:1037F00077FD8619AE4214D27E600A257E682900C4
:10380000300004F005FC00291AD10A243C57002C92
:1038100016DD2900300004F075FB013C7860BC72B5
:10382000ECE700237B60009B01343C60002BE4D07C
:10383000092CE2D918000123013038813B60DCE714
:103840003800FEBD8096184B340000201C0000207C
:10385000F168E388B5F8E43E0400002040420F0020
:1038600010B50400521AFFF7F5FE6368181860607F
:1038700010BDF0B5162407000D000A2687B06C4471
:103880002800310004F0C4FB013C303121702800D5
:10389000310004F037FB051EF2D116236B441A00E9
:1038A00021003800FFF7DCFF07B0F0BDF0B50400E1
:1038B0008DB0081C0D1C04F0E5FC002805D14F4913
:1038C0002000FFF7CDFE0DB0F0BD0021281C04F054
:1038D000D9FC002809D1291C281C04F019FD011C61
:1038E000281C04F0CFFC0028E9D10021281C04F09A
:1038F000CFFC002806D02D212000FFF7C0FE80233A
:103900001B06ED1803AF291C3800FFF7E5FE0399ED
:103910002000FFF7AEFF0A23FB560093002B24D0B4
:103920007E6801930AAD019B013D013B5BB20193AF
:1039300001330BD030000A2104F06AFB30312970CA
:1039400030000A2104F0DEFA0600ECE76B46197835
:103950002025CB432E22C94302A85B19C2540AABCF
:1039600059181A002000FFF77BFF0822BB5E002BCE
:103970001EDA262622492000FFF772FE0823FD5E8C
:1039800002AB6D42F61828000A2104F02BFC013E20
:103990003031317028000A2104F03EFB051EF2D1BF
:1039A000262302AA9B181A0031002000FFF758FFB7
:1039B0000822BB5E002B00DC85E76521200026265F
:1039C000FFF75DFE0823FD5E0A2702ABF61828000C
:1039D000390004F007FC013E303131702800390015
:1039E00004F01AFB05B2002DF1D1262302AA9B1880
:1039F0001A0031002000FFF733FF64E74BB10000ED
:103A000050B100007F2270B5037A05000C0013400E
:103A1000062B00D168E00BD8022B10D3032B52D811
:103A200006CD2000FFF716FE63681818606025E0D9
:103A30000C2B1FD005D8082B54D00A2B48D02F4967
:103A400057E0202B20D0402BF9D15B212000FFF73D
:103A500016FE2D68002D12D028002100FFF7D2FF9E
:103A60002800FEF754FB051E09D02C212000FFF78B
:103A700006FEEFE701682000FFF718FF70BD5D212B
:103A80002000FFF7FCFDF9E77B212000FFF7F7FDA1
:103A90002D68002D15D0E9682000FFF7FBFD3A21C5
:103AA0002000FFF7ECFD28002100FFF7ABFF280006
:103AB000FEF72DFB051E04D02C212000FFF7DFFDB3
:103AC000E7E77D21DCE701682000FFF7E3FDD5E7AC
:103AD00005682D212000FFF7D2FD29002000FFF707
:103AE000C8FECBE70168F9E703680549002B00D160
:103AF00004492000FFF7B4FDC0E7C0464BB1000009
:103B000064B1000069B10000F8B51C4E1C4F3000D4
:103B1000390001F0B3FD1B4C1B4D22002900300081
:103B200003F0C6F8194E1A49300001F0A7FD220033
:103B30002900300003F0BCF8164E3900300001F0C7
:103B40009DFD22002900300003F0B2F8AF20800074
:103B500007F004F9021E02D0AF239B00C2187F2198
:103B60000D4BDA601A611A7F58608A4398601A77A1
:103B70000A492200180003F09BF8F8BD2C0200202F
:103B800063B1000000000020E95500001002002091
:103B900038B00000FC010020DC010020FD20000006
:103BA000F0B599B06B4600AF7B60994D280001F0ED
:103BB00057FF0028F9D008260A222900B81901F079
:103BC000D3FA944CB919200001F09BFDB81901F00B
:103BD0000BFD280001F044FF00280AD18E49200087
:103BE00001F0D7FD0028F4D08C49280001F096F8A8
:103BF000EFE708260A222900B81901F0B5FA854C2A
:103C0000B919200001F07DFDB81901F0EDFC21008B
:103C1000280001F079F86946A36820005A1C9B1916
:103C2000DB08DB00CB1A9D460023694601F0BFFD8F
:103C30007B4C77366368221DA36023690820E3600C
:103C4000237FBA61B34323776B46BB6000235422C2
:103C5000FB606B4639188D183B612100002314313D
:103C60007B7500222B7038180A23FFF7E8FA2B78AF
:103C7000002B0CD13B7D002B09D0237F1E400C2E46
:103C800003D07D221340082B01D102232B702D7805
:103C9000002D15D12500143562492800FEF7AAFF32
:103CA000FFF78CFC604B614918602800FEF7A2FF0B
:103CB0005F492800FEF79EFF00281FD1050022E083
:103CC000534C5C49200001F008F8052D00D897E01E
:103CD000594D2900200001F021F808231C0029007B
:103CE000F81801F0CBFC3819FEF71AFF381901F06B
:103CF0007BFC7B689D46BD4619B0F0BD2022037A4F
:103D000013401D1EDAD14D4E28003100FEF77DFF15
:103D1000FFF779FB4A4B4B4918602800FEF775FF07
:103D2000FFF771FB484B494918602800FEF76DFF0B
:103D3000FFF744FC464B474918602800FEF765FF33
:103D4000FFF761FB444BFD601860231D3B61434B53
:103D50007B610823F818FEF7F6FF012854D0231DD5
:103D60003B613F4BFD607B610823F818FEF7EBFFDA
:103D7000012801D13B4B18703B492800FEF745FF55
:103D8000FFF71CFC394B3A49186020001430FEF74D
:103D900031FF041E05D02022037A13401C1E00D0E0
:103DA000040031002000FEF730FF002802D0314926
:103DB000FEF720FF23492000FEF727FF002802D04E
:103DC0002C49FEF717FF21492000FEF71EFF0028AF
:103DD00002D02849FEF70EFF1E492000FEF715FF0E
:103DE000002802D02349FEF705FF1F492000FEF7F7
:103DF0000CFF002800D17CE71E49FEF7FBFE78E7A8
:103E00001D4BAD00ED5864E71C4B1870A7E7C0468A
:103E10001C0500202C020020100200208BB00000A6
:103E2000DC01002049B000005801002091B00000E2
:103E30009DB00000A9B0000087B00000C4B0000031
:103E400060000020D0B00000D4010020D9B00000F4
:103E500064000020E3B00000D8010020F2B00000B0
:103E6000FDB000005601002007B1000068000020EE
:103E700013B1000026B1000020B000005501002061
:103E8000FA2110B50E4C8902200001F07BFE2000C3
:103E900001F07AFE0028FAD0FEF78CF9FEF7B4F9AB
:103EA000FEF7DCF9FEF75EFA62B6FEF75DFB0A206C
:103EB00000F0B6FC002000F0B9FCFFF771FE10BD69
:103EC0001C05002013B5134C200001F0C9FD00288B
:103ED0001EDD200001F000FEC0B2672818D10023CB
:103EE0000D486946143000940193FFF78BFD2000C4
:103EF00000F002FF200001F0B3FD0028FAD02000FE
:103F000001F0EAFD6428FAD10449200000F006FF20
:103F100013BDC0461C050020DC01002082B000005B
:103F2000F0B5B44B89B01D68042D00D95EE12800BE
:103F300003F0DEFF0500DE00F8004F015701AE4B35
:103F40001B78002B00D1B0E000210F2000F0D6FD3F
:103F50000021122000F09CFC0021132000F098FCAE
:103F60000021080000F0CAFD0021012000F0C6FD7C
:103F70000021022000F0C2FD0021042000F0BEFD5F
:103F80000021052000F0BAFD0021062000F0B6FD5A
:103F90000021082000F0B2FD0021092000F0AEFD54
:103FA0000022964B964C1A6000222600954B271D46
:103FB0001A6063687F32A36023691436E360237F4D
:103FC0009149934323773A003000FEF7D2FD8F4B9F
:103FD0001968FEF7B8FD884B8D491B783A00DBB2B3
:103FE00001933000002B58D0FEF7C3FD0121FEF7EE
:103FF000AAFD2000874B88491E78221DF6B2143096
:10400000002E4ED0FEF7B5FD0121FEF79CFD2000ED
:10401000261D320081491430FEF7ABFD3200804985
:10402000FEF7D9FE7F4A310002A8FEF7CAFD02A9B9
:1040300006A8FEF7B2F87C4BAA00D15806980135C5
:10404000FEF781FD1D2DF2D1784A211D04A8FEF74F
:10405000B8FD04A906A8FEF7A0F8754B06981968E4
:10406000FEF773F804A906A8FEF797F8714B0698B7
:104070001968FEF76AF804A906A8FEF78EF86E4BD9
:1040800006981968FEF75FFD6C4C2378002B2DD045
:10409000FFF718FF0023237028E0FEF76AFD01995F
:1040A000A5E7FEF766FD3100AFE7654B1B78002BF7
:1040B0001CD0644B6449186804F09CFC634904F00C
:1040C000C1FA04F08DFF01000F2000F0E1FB604B0E
:1040D0001D68186804F0A4FF041C280004F0A0FF69
:1040E000011C201C04F0B8FD514B186009B0F0BD54
:1040F000574B186804F094FF4D4B564A18603C200B
:1041000012681C68504304F08BFF211C04F0C0F8B7
:10411000002802D00122384B1A70FEF7DFFAFEF7B2
:1041200085FBE3E7364C7F2226006368271DA360EA
:1041300023691436E360237F3349934323773A009E
:104140003000FEF716FD314B1968FEF7FCFC2A4BD8
:104150002F491D783A00EDB23000002D31D0FEF726
:1041600008FD0121FEF7EFFC20002A4B2A491D78AB
:10417000221DEDB21430002D27D0FEF7FAFC0121EC
:10418000FEF7E1FC2000251D2A0024491430FEF72B
:10419000F0FC2A002249FEF71EFE2900214A02A84F
:1041A000FEF70FFD002502A906A8FDF7F6FF1E4B3E
:1041B000AA00D15806980135FEF7C5FC1D2DF2D195
:1041C00042E7FEF7D6FC2900CCE7FEF7D2FC290037
:1041D000D6E70123204C2370FEF742FCFEF7FEFBDE
:1041E00058E7FEF7D1FBFEF785FB7FE700221A6058
:1041F0007CE7C04650010020560100200802002044
:10420000DC0100201C02002044B000005801002006
:104210004CB000005401002056B0000061B0000016
:10422000FC0100206FB000005C01002078B00000AD
:10423000D001002028020020240200207202002069
:1042400055010020D401002000C07F4400404E45AD
:1042500074020020640000204C01002010B5FFF71C
:104260005FFEFEF7EDF810BD037D002B04D1437512
:10427000837583610133037570477FB5C36802ADF1
:1042800004000E0002916A608B4203D1028AAB885F
:104290009A4218D02000062229000C3006F072FD48
:1042A000206800F086FE6B79227AE179009320681D
:1042B000002300F01FFF20682979320000F04AFE39
:1042C000206800F06CFE7FBD70B518260400FFF773
:1042D000CBFF3300082120790D4D4343EB1859568D
:1042E00000F050FC33000821A0794343EB185956E5
:1042F00000F048FC082160794643AD19695600F08A
:1043000041FC044B200006CBFFF7B7FF70BDC04651
:10431000B0B10000B002002007B5437D00910192CA
:10432000002B07D09A070AD5EFF310835A42534166
:10433000837572B60099019AFFF79FFF07BDDB07EF
:10434000F8D58369014A9BB29360F3E700180040F7
:10435000437D002B05D09A0704D5837D002B00D028
:1043600062B67047DB07FCD58369024A9BB2D36013
:10437000F7E7C0460018004010B5006800F022FEC4
:1043800010BD0000104A114B1149136000235371F6
:104390001371104A104811601049D36091800921AF
:1043A00091710639537413741375D37111720C4AD9
:1043B00010600C48D36090801B20537413741375E5
:1043C0009071D37111727047B002002000093D0056
:1043D000F804002078020020040500200A080000EC
:1043E000940200201D1A000010B5024801F015F8D3
:1043F00010BDC046B802002013B51249124800F0A3
:104400001FFD1249124800F01BFD1249124800F02E
:1044100017FD1249124800F013FD1249124800F02E
:104420000FFD124C1249200000F00AFD01230193F8
:10443000023300930D220B3321000E4800F082FF5F
:1044400013BDC04600080042F4040020000C0042E6
:10445000F804002000100042FC0400200014004278
:104460000005002000180042040500200805002077
:10447000001C0042B8020020FEE70000034B10B50C
:104480001B68002B00D0984710BDC0460C050020CB
:1044900070B50F490F4CA14204D100F08FF800F025
:1044A000D3FBFEE70C4D00238D42F6D0CA18E81866
:1044B000A24205D3094B8242EFD00949002204E011
:1044C000006804331060F1E704C38B42FCD3E4E7D7
:1044D0000000002030010020C4B70000300100209F
:1044E000500B002010B500F066F8002801D100F054
:1044F00057F810BD014B18607047C0460C050020EE
:10450000014B18687047C04610050020F7B51348E6
:10451000012284461249134C8E68636805689B0E1D
:104520001340019288686268019F920E3A40674684
:104530003F6893420ED1BD420CD186420AD35B192B
:10454000FA254868AD00861B07486B437043000D91
:10455000C018FEBD3D0013000600E3E71005002073
:1045600010E000E000ED00E05555000070B5041EBD
:1045700010D0FFF7CBFF050000F01CF8FFF7C6FFD7
:10458000054B401B9842F7D9FA23013C9B00ED18DC
:10459000002CF3D170BDC046E70300007047000057
:1045A00010B5034A13680133136000F00DFC10BD11
:1045B0001005002070470020704700001E2270B5D3
:1045C00046484749436893431C3A134343600823D2
:1045D0008C6923438B61434C434B9C829C8A1443DC
:1045E0009C82DC681442FCD00124404A1470157887
:1045F000254203D055786DB2002DF8DB012494607C
:10460000547864B2002CFBDB394C5460547864B2AB
:10461000002CFBDB8224E4015480547864B2002C2B
:10462000FBDB02249C840E34DD682542FCD0314C37
:10463000DC621024DD682542FCD09D8C2E4C2C437E
:104640009C841024DD682542FCD002249D8C8026A9
:104650002C439C844024DD683542FCD0DD68254233
:10466000F9D01024DD682542FCD0002494605478F1
:1046700064B2002CFBDB214C5460547864B2002CF3
:10468000FBDB1C6A1E4D2C4080251C621C6AAC435F
:104690001C62032393601B4B536053785BB2002B67
:1046A000FBDB0023FF240B72174A4B728B72CB7219
:1046B000164B1A60164B174A1B6811689A065B0165
:1046C000C90E2340520F12020B431343124A1385A3
:1046D000802342681343436070BDC04600400041E0
:1046E000000400400C06000000080040000C0040E0
:1046F00001050100B905FF7D040A00000007030061
:10470000FFFCFFFF03060100006CDC0284000020B8
:10471000246080002060800000400042FA21314B7C
:1047200010B51868890003F0EDFB2F4B0138984253
:1047300056D82E492E4A4860C020136A00061B0234
:104740001B0A03431362002407238C600B60802143
:10475000136A09061B021B0A0B431362FC22254B3A
:10476000196A0A431A62FC22196A92010A431A6200
:10477000A022196AD2020A431A62200000210134E1
:1047800000F070F9162CF8D11B4B1C005A7852B26D
:10479000002AFBDB194A5A80194B1A00597EC909B5
:1047A0000129FBD0E421C90099803F21D970537EB3
:1047B000DB09012BFBD0C02300205B01136190704B
:1047C00000F034F863785BB2002BFBDB0D4B0E4A34
:1047D0006380D379DB09012BFBD04123537010BDDB
:1047E000FEE7C04684000020FFFFFF0010E000E06D
:1047F00000ED00E000040040000C00401E400000FE
:10480000004000422140000000480042914202D096
:1048100002D98A1AD0407047521A9040FBE7000034
:10482000014B18607047C04688000020164A00B54A
:104830001300517EC9090129FBD00138042816D87C
:104840001969124A0A400F211A615A788A4303F003
:1048500045FB0308060B0300110001220A435A70AE
:1048600000BD11000322F9E711000222F6E7F02350
:1048700011691B050B430F21136153788B431900FA
:1048800002230B435370EBE700400042FFFFFFF0B1
:1048900018234343F0B56A4A87B09B18DA680600CC
:1048A0000C000092920722D51B7C5BB2002B01D03A
:1048B000142B1AD1634B0A2219682000FFF7A6FFB8
:1048C000614A1300D179C9090129FBD08005800D07
:1048D0001081DA79D209012AFBD0022219780A4321
:1048E0001A70DA79D209012AFBD007B0F0BD082787
:1048F000009A544D3A40019200D191E012229B5E01
:104900002968200010220193FFF780FF019B05001A
:104910001F126B461C79009B0421DB0600D4052185
:10492000300000F02FF9494BBA00D658484BDA5DF9
:10493000002A54D10132DA5546490F3202A806F056
:1049400021FA02AA7B009B5A8022D2011A43424BD1
:104950005A805A78D209012AFBD0022297421BD9E9
:10496000338893433380F37BDB09FCD132884033B7
:1049700013433380F37BDB09FCD10C34ADB264000C
:10498000A553F37BDB09FCD1328802331343338018
:10499000F37BDB09FCD1A8E7336893432F4A3360EC
:1049A0001300B1681142FCD10222F16B0A43F26399
:1049B000B2681A42FCD11034A40034196560B268A0
:1049C0001A42FCD1264A3264B2681A42FCD1022251
:1049D00031680A433260B2681A42FCD185E7022F7F
:1049E00007D90C34ADB26400A553F37BDB09FCD1CD
:1049F0007BE70223727913437371184B1A00B16875
:104A00001942FCD11C34A400A551B3681342FCD157
:104A1000022331790B433371B3681342FCD164E74D
:104A2000012100F01FF829683A002000FFF7EEFE90
:104A300001997F2800D90121300000F05FF854E788
:104A4000B0B1000088000020004800426C00002047
:104A50001405002010B50000000C0040FF0F7F007F
:104A6000FFFF0000182330B51D0004004543082057
:104A7000204A55192856013014D0032912D80800AD
:104A80006343D156D31803F029FA02280E1B586845
:104A9000CB010221184A9B181A18403211700122CA
:104AA00082405A6030BD5868CB010621124A9B18DB
:104AB0001A1840321170012282405A609A61F1E75F
:104AC0005868CB0106210C4A9B181A184032117005
:104AD000012282405A605A61E4E75868CB01022102
:104AE000054A9B181A1840321170012282409A60C0
:104AF000D8E7C046B0B10000004400411823F0B52B
:104B000008245843114A13181C5701341BD001269E
:104B100035005F688356BD400D4ADB019A189068E6
:104B200005420BD10C00601E8441D219403210782E
:104B300034400336A400B04320431070044A9B184D
:104B4000002901D15D61F0BD9D61FCE7B0B10000BD
:104B500000440041182310B50824434307490020AE
:104B6000CA181457013408D05B560549DB015B189D
:104B7000186A5368D8400123184010BDB0B1000036
:104B80000044004118224243F8B52C4E0300B218ED
:104B9000127A52B2140001320ED0481C00240C28A4
:104BA0000AD803F09BF9071F1F1F1F1F1F1F1F0B92
:104BB0000B0B0B00012464422000F8BD092905D12C
:104BC00000211800FFF74EFF0024F5E70A2901D164
:104BD0000839F6E700240B29EED10A391800FFF74F
:104BE00041FFE9E718225343F218556801202C00D1
:104BF000F356134ADB016E089B18C9B204409E1994
:104C0000002C0DD00F243036327809012240114398
:104C1000C9B25B19317040331A7810431870D3E76A
:104C200032000F27303216785B19BE4331431170C2
:104C300040331A7810431870BEE7C046B0B1000088
:104C4000004400417047000010B5FFF767FD06F013
:104C500061F8FFF7F7FF0120FFF788FC084C200000
:104C600001F0B8FA200001F063FBFFF709F9FFF744
:104C7000F5FA044B002BFAD000E000BFF7E7C0467E
:104C80008405002000000000F7B506000D000C00B0
:104C90008B180193019B671B9C4207D033682178D6
:104CA0001B683000984701340028F3D13800FEBD5E
:104CB00070B5040008000D0006F04CF923680200EE
:104CC00029005B682000984770BD10B50B1E02D00C
:104CD000FFF7EEFF0300180010BD10B5FFF7F5FF5A
:104CE00010BD10B503688A685B680968984710BDF5
:104CF00010B5FFF7EAFF10BD10B50249FFF7D8FF66
:104D000010BDC04620B5000070B50500FFF7E9FFF3
:104D100004002800FFF7F0FF201870BD70B50400F4
:104D2000FFF7D3FF05002000FFF7E6FF401970BD35
:104D3000F0B58BB06B461500002205330600DA771C
:104D40000800012D00D80A2509AC290003F060F9FC
:104D5000CAB2130037330700DBB2092902D81300A7
:104D60003033DBB2013C2370002FEED12100300044
:104D7000FFF7ABFF0BB0F0BD10B5002A04D10368FC
:104D8000C9B21B68984710BDD2B2FFF7D1FFFAE74E
:104D900070B50400FFF7F0FF05002000FFF7ACFF3F
:104DA000401970BD10B50400FFF7F8FB014B1C6003
:104DB00010BDC0468C0000200122024B52421A60F6
:104DC0007047C0468C000020164A10B51368591C65
:104DD00026D0013B1360002B22D172B6124B134A2E
:104DE0000433934213D9124A01211000147D0C425E
:104DF000FCD02021148BFF319B085B0021431183E1
:104E0000D3610C4B13800123027D1A42FCD0BFF307
:104E10004F8F094B094ADA60BFF34F8FC046FDE759
:104E200010BDC0468C0000200020000003020000DE
:104E30000040004102A5FFFF00ED00E00400FA057C
:104E4000016070479446F0B59E1E721E9641624600
:104E5000056892072F6836063A4332432A600725D1
:104E600005AC24780068A40129402143426800244D
:104E7000022B00D05C03114321434160F0BD30B5EB
:104E8000C0250368AD031C6812052A402243C024D4
:104E90000904A40221401143196003685A681443AD
:104EA0005C6030BD0123026811680B431360036826
:104EB0001A68D207FCD4DA69D207F9D47047022302
:104EC000026811680B4313600268D3699B07FCD426
:104ED000704703681A7ED20702D41A7E9207FCD567
:104EE0007047002203685A8370470368187E4007A2
:104EF000C00F70470368187EC0097047802302689E
:104F00005B42117E0B43137670470368588B800712
:104F1000C00F704702230268518B0B4353837047C5
:104F20000368187EC007C00F70470368188DC0B2B1
:104F3000704703681A7ED207FCD589B20120198513
:104F40007047012203689A757047012203681A7539
:104F50007047000070B5012604684B0833403140AB
:104F6000256809075B070B432B4323600468510046
:104F7000034802F0C7FF0138C0B2207370BDC046BD
:104F8000006CDC020123026811680B4313600368A4
:104F90001A68D207FCD4DA69D207F9D47047022321
:104FA000026811680B4313600268D3699B07FCD445
:104FB00070470368DA699207FCD402211A688A43B1
:104FC0001A6070470268936A5B0A5B021943916238
:104FD00003681A7E5207FCD5986AC0B27047000079
:104FE0000368214A30B593422FD0204A93422FD0F4
:104FF0001F4A93422FD01F4A93422FD01E4A9342FA
:105000002FD01E4A93421FD10E23192201210325BE
:1050100099401B48C024016099082B40AB40FC35E7
:105020009D4089000918A4000859A843C0259D4047
:105030002B0003430B518023DB011A43114B5A8091
:105040005A7852B2002AFBDB30BD09231422DDE777
:105050000A231522DAE70B231622D7E70C2317229F
:10506000D4E70D231822D1E700080042000C0042CB
:10507000001000420014004200180042001C0042D0
:1050800000E100E0000C0040F8B504000F0016003D
:105090001D00FFF7A5FF2000FFF704FF1C21BB0048
:1050A0000B4071072268090C0B43136084232268AC
:1050B0009375012F1AD11021012E00D008390C4B05
:1050C00069431868C00002F01DFF072221680240F2
:1050D0008B895203DB04DB0C13438B8122680304AE
:1050E0009089DB0C400B400318439081F8BDC0460B
:1050F00084000020F7B50600019308AB1F780D006F
:105100001400FFF73FFF3000FFF76AFFC0222405BD
:1051100092031440BA070C2717433C43C0270722C9
:10512000BF022D0433683D4025431D60019B31685B
:1051300013401A0080239B0213434B60F7BD10B548
:105140000400FFF7DDF9E060236820005B69984701
:10515000002808DAFFF7D4F9E368C01AA368984278
:10516000F2D30120404210BD70B50D000949040082
:10517000160000F083FA2800FFF7E1FF002806DBA5
:10518000864204D0C1B2200000F0DCFAF3E7200030
:1051900070BDC04663B100000120704710B50368C0
:1051A000014A1B6A984710BD130400000300FC333A
:1051B000D9699A69914203D0DB69C018007D7047B4
:1051C00001204042FBE710B504000069FFF76AFECA
:1051D00022000023FC329361D36186229200A4183E
:1051E0006360A36010BDF02001403039484248415F
:1051F0007047F0231B011940802306209B00994231
:105200000AD00133FF330130994205D080230238A0
:105210005B00994200D0002070470F200140002021
:10522000012903D00239481E8141481C7047000003
:105230008923F0B5182685B002919B000400C05C5C
:10524000330008214343324D1700EB185956FFF73E
:1052500099FC304B0821E05C33004343EB1859566E
:10526000FFF790FC2C4BE25C0393022A09D1113327
:10527000E05CFF2805D008214643AE197156FFF7C0
:1052800081FC8A26B600A05DFF2819D00121FFF716
:10529000E9FB1822A35D21495A43AB56AD18DB0147
:1052A00058188B21890060501D4901225B188C2100
:1052B0008900635069688A408D21890062501A60B4
:1052C0000122029B11002069FFF7DEFE3900200059
:1052D000FFF78FFF390005002000FFF79EFF390020
:1052E00006002000FFF77FFF3300009029002069AF
:1052F0000122FFF7A7FD0B4B2069E25C039BE15CF9
:10530000FFF7BDFD2069FFF7DAFD05B0F0BDC0462F
:10531000B0B100002502000027020000184400413F
:105320001444004126020000802210B504005200FF
:10533000002105F030FD23000022FC335A602000DC
:105340009A6010BDF7B51D0008AB1B7804000093F0
:1053500009AB1B781600019300234360FA239B00DE
:105360008360114B0F00083303601430FFF7DCFF3C
:1053700020001D30FF30FFF7D7FF89236A469B00CE
:105380002761E654094B1278E554094B2000E2549A
:105390006A46084B1279E2548A22293BFF3B92006D
:1053A000A3541032A354FEBD24B500002502000012
:1053B00026020000270200000300FC3358689B68A7
:1053C000C01A01D50130FF30704710B5040020002D
:1053D0001D30FF30FFF7F0FF0028F8D12069FFF7FC
:1053E00078FD10BD10B51430FFF7E6FF10BD0300C7
:1053F000FC3359689A68914204DB5A689868801AAD
:10540000FF30704798685B68C01A0138F9E710B53B
:105410001D30FF30FFF7EBFF10BD10B50400006931
:10542000FFF773FD002805D02069FFF77EFD206996
:10543000FFF770FD2069FFF758FD002820D0206994
:10544000FFF773FD2200FC329369D1690133DBB2AF
:105450008B4203D091696118087593618A239B0080
:10546000E35CFF2B0CD020001430FFF7C0FF0928AD
:1054700006DC8B238D229B009200E358A2581A6011
:105480002069FFF74DFD00281AD020001D30FF30A5
:10549000FFF792FF002822D086239B00E31899682B
:1054A0005A68914218D08E219A684900A218515C1E
:1054B0009A680132D2B29A60C9B22069FFF739FD09
:1054C0002069FFF717FD002805D02069FFF716FDBA
:1054D0002069FFF706FD10BD01214942ECE7206974
:1054E000FFF733FDECE7000070B5040000690D0024
:1054F000FFF716FD00283ED1FF2686239B00E31808
:105500005A689968013232408A4223D1EFF31083FE
:10551000DB0710D41E4B5B68DB05DB0DEDD0103BC9
:105520005BB2002B10DA0F221340083B9B08194A8C
:105530009B009B181B682069FFF7F2FC0028DCD059
:105540002000FFF76AFFD8E79B08C033124A9B0090
:105550009B58F0E75A68013216409A68964205D087
:105560008E215A684900A21855545E602069FFF7E1
:10557000E8FC012070BD20001D30FF30FFF71CFF4C
:105580000028B9D129002069FFF7D3FCF1E7C04614
:1055900000ED00E01CED00E000E100E0030070B56C
:1055A000FC33D9699A69040091421AD0DA698218E9
:1055B000157DDA690132D2B2DA618A239B00E35C9D
:1055C000FF2B0CD020001430FFF711FF0A2806DD56
:1055D0008C238D229B009200E358A2581A60280069
:1055E00070BD01256D42E8E710B504000068002891
:1055F00001D005F0BDFB200010BD10B5040000680F
:10560000002801D005F0B4FB00232360A360636091
:1056100010BD70B504000D000068013105F06CFC90
:10562000031E01D0012028C470BD036810B504001A
:10563000002B04D043688B4201D3012010BD200011
:10564000FFF7E7FF0028F9D0A368002BF5D1226807
:105650001370F2E770B50E00110004001500FFF79B
:10566000E4FF002804D12000FFF7C7FF200070BD31
:10567000A5603100206805F065FCF7E7002370B5F0
:1056800004000D00036043608360994207D0080066
:1056900005F060FC290002002000FFF7DBFF20007E
:1056A00070BD70B5050000680C0000280FD00968B7
:1056B00000290AD06B68A268934206D305F042FC29
:1056C000A368AB600023A36070BD05F051FB2368A5
:1056D0002B6063686B60A368AB600023236063602A
:1056E000F1E710B50B000400884205D009680029D5
:1056F00004D09A68FFF7AEFF200010BDFFF77DFFD2
:10570000FAE710B50400884201D0FFF7CAFF200075
:1057100010BDF8B504000F1E02D100263000F8BD00
:105720000126002AFAD08368D5182900FFF77DFFEB
:105730000028F2D02368A2683900981805F002FC0E
:10574000A560EBE707B5002201AB19705A7019008C
:105750000132FFF7DEFF0EBD026810B50B68002AAC
:1057600013D0002B0CD181681800002907D01078C5
:1057700005E089681000002901D01878404210BD6A
:105780001900100005F0D4FBF9E7002BF1D1180047
:10579000F5E7826810B594468A680023944504D1E1
:1057A000FFF7DAFF43424341DBB2180010BD70B58A
:1057B0000D00002A06D0002904D084689C4202D83B
:1057C00000230B7070BD013AE41A944200D9140012
:1057D00001682200C918280005F0C3FB00232B55DF
:1057E000F0E70020704770B50F26CB1D013902008D
:1057F0003240D5B22C0000093034092A00DD0734CC
:105800001C70013B8B42F2D170BD000010B50C0042
:105810000B4B1868FFF7E7FF21000A4B08311868A7
:10582000FFF7E1FF2100084B10311868FFF7DBFF9D
:105830002100064B18311868FFF7D5FF202010BD56
:105840000CA0800040A0800044A0800048A0800000
:1058500008B4024B9C46103808BC60470D58000045
:1058600070473F20704713B56B460268D971073304
:10587000546819000122A04716BD000070B50A2621
:105880000B7892B06E44023305000B703C2200216D
:10589000300005F080FA394801AC069038482421E0
:1058A0000790062020776846364AA1742281364A3E
:1058B000364BA281FD3AFF3A8018C17768462339FA
:1058C0000630C17768460730C17702A8C177072044
:1058D000F277032608316944C87703A9CE771021EF
:1058E0002B366E443170092621851F3169440E70B4
:1058F0000CA9053E0E7033212380022369440B70EE
:1059000006360DA90E7022493536A1863B216E441C
:10591000307010A86274E27702703D3269446A44C4
:105920000B70137040210022E37023716371A37325
:1059300041336B44218719705A702B7DC039A37095
:10594000A37263770133DBB2A3776A7D0B200D006E
:1059500068441543C5773120684403703A23501CCE
:105960006B441870412302320A436B441A702100C1
:105970004222084800F070FF12B070BD10010424EC
:10598000020605240904000001020000080B0000C3
:10599000070500008405002008B4024B9C4610381F
:1059A00008BC60477D58000070B5027D0B790C0083
:1059B00000259A420BD10B784E78A12B09D1212ECC
:1059C00005D107221F49204800F046FF0135280075
:1059D00070BD212BFBD1202E2BD1072219491A484B
:1059E00000F07CFE174B1A785978090211439A7817
:1059F00012041143DA7812060A439621C9008A423A
:105A00001DD1DB79DB071AD4FA20FFF7CBF900218F
:105A10000D4801F02DF80125232ED8D1E378A27886
:105A20001B021343094A00210748136001F020F8C4
:105A3000CDE7222EEFD18A78024BDA71D2E7FFF759
:105A4000BBF9E4E7940000208405002090000020CA
:105A500008B4024B9C46103808BC6047A9590000A6
:105A600010B5417D006A013100F070FD034B1B68E9
:105A700001335A1E9341181810BDC0469C000020E7
:105A800010B5417D006A023100F076FD10BD10B501
:105A9000417D006A023100F03DFD10BD70B50D0082
:105AA000417D0400130002312A00006A00F02AFE42
:105AB000002801D10123636070BD000010B5054CC2
:105AC00023685A1C04D103685B699847030020606F
:105AD000180010BD9C000020074A0300106810B594
:105AE000411C03D001235B42136010BD597D186A2D
:105AF000013100F0B7FDF8E79C000020704700205E
:105B000070470000FA239B0010B583600F4B002202
:105B1000C3820300283383610D4B04004260C261DD
:105B20001800443323610830631D21622060DA7756
:105B30008323A362813BE3628033236300F0C2F8D6
:105B40002100103100F092F8200010BD0302000087
:105B500058B50000022110B5094B1A68437D5B015E
:105B6000D318FF339C7A21439972437D0133DBB212
:105B70005B01D3180122FF33997A0A439A7210BD50
:105B80003C0A00207047000010B5FEF7B9FCF42372
:105B9000FF330024984207D9044B0A20DC79631EA6
:105BA0009C41E4B2FEF7E2FC200010BD940000200E
:105BB00010B502490248FFF7A5FF10BD840500207B
:105BC0001C05002070B50E0000254468002C0BD089
:105BD000236831005B6820009847002802DB2D18FD
:105BE000E468F3E701256D42280070BD70B50D0033
:105BF0004468002C08D0236829009B68200098473F
:105C0000002802D1E468F4E7200070BD70B50D00F3
:105C100000264468002C09D02368290020001B6955
:105C2000984736182D18F6B2E468F3E730002C7068
:105C300070BD70B50D004468002C08D023682900A1
:105C40001B6820009847002802D1E468F4E7200090
:105C500070BD70B50D004468002C06D0236820008C
:105C6000DB6829009847E468F6E770BDF0B58C79E9
:105C7000457803002A190020072A1FDC5A6882424F
:105C800016D159601A78C8790A7112184D711A70B4
:105C900000220B4DD0B284420FD98F6858789600FD
:105CA000F75986000130775101325870F2E702004F
:105CB000D0680028FBD1D160E4E70120F0BDC046E8
:105CC0005C0500200121064A10B5136805480B4009
:105CD00004D18024640004804360116010BDC0467C
:105CE0005005002054050020704710B5040000F056
:105CF000DBFF200010BD0000F0B5822919D1C3B22E
:105D0000294D5A01AA189169284C80010C40C021E4
:105D1000890521439161264908334018702150615B
:105D200028685B011A5C8A43110030220A431A5426
:105D3000F0BD0029FCD1C026C1B21B4C4B01E318B9
:105D40009A681A4DB6052A4032439A60194A800172
:105D500082185A600A000727246808325201115D30
:105D6000B9430F000121394311559F6910493D4046
:105D700040182E439E6158617020115D81430800D8
:105D800010210143115599680B48A2180840802141
:105D90004903014399609968890B890399604023FD
:105DA00011790B431371C3E73C0A0020FFFFFF8FFB
:105DB000B005002070070020FF3F00F0EFF31083D4
:105DC00003600123436072B670470368002B02D161
:105DD00062B6BFF36F8F7047F7B50600FC36B36944
:105DE0000400002B18D1B2277F00C55D6846FFF77D
:105DF000E5FF019BEDB2013B02D3E55DEDB2FAE7B1
:105E000068460193FFF7E1FF002D01D10020FEBDA0
:105E1000706E336EC01AFAE76846FFF7CFFFD822DC
:105E20000025019B5200013B02D3A55CEDB2FAE7CD
:105E300068460193FFF7C9FF002DE7D0D6235B002A
:105E4000E058043BE358E5E710B54468FC3043698B
:105E50000B48DBB25A01A218916808330840802130
:105E600049030143916091685B01890B890391604B
:105E70002268D318402219790A431A7110BDC0460E
:105E8000FF3F00F0F7B50500FC356B694268DBB2F7
:105E9000190004000831106849014118C979C9077F
:105EA00011D55B01D21893689B049B0C0CD1200088
:105EB000FFF7CAFF63681A686B69DBB208335B01DE
:105EC000D3187F22DA71F7BDE969002923D16B6607
:105ED000230001266933FF33EE6168465360B22721
:105EE000FFF76CFF7F00B221019BFF31013B5A1C81
:105EF00038D0D822E6555200A25C581ED2B2625465
:105F0000625C8446002A04D120000193FFF79CFFC5
:105F1000E9E76346EBE7D621490063500023EB61D4
:105F200023001D33FF3353606846D826FFF746FF32
:105F300001277600B221019BFF31013B5A1C11D091
:105F4000B222A7555200A25C581ED2B26254625CC3
:105F50008446002A04D120000193FFF775FFE9E78A
:105F60006346EBE768460193FFF72FFFA2E7F7B51B
:105F7000060068463400FFF721FF0027FF22019B3F
:105F8000FC34013B0DD3E0682169884204DBE768FB
:105F90002069D71B3F18F4E72769E1687F1A013FA2
:105FA000EFE768460193FFF710FFA3696846002BEF
:105FB00052D1FFF703FFB221019B4900013B5A1C5C
:105FC0000CD0755C5A1EEDB2002D05D168460193C8
:105FD000FFF7FBFE2800FEBD1300F0E768460193C3
:105FE0000025FFF7F2FEFF22236EBD4214D0616E42
:105FF000994211D9591CF3182166FF33587FE36881
:1060000021690133C0B213408B4203D0E16871189B
:106010000872E3600135E7E7626E9A42DAD1002345
:1060200023660133A3616846B224FFF7C7FE64000C
:10603000B2220021019BFF32013B581CC6D03155D2
:10604000B05C5F1E002805D0B15430000193FFF70B
:10605000FBFEEDE73B00F0E7FFF7B0FED821019B28
:106060004900013B5A1C06D0755C5A1EEDB2002D4A
:10607000ACD01300F6E768460193FFF7A6FED623DF
:10608000D4225B0000259C465200B358BD4203D089
:1060900061467158994220D86246B2589A4299D1C5
:1060A000D42200235200B3506846A361D824FFF7DE
:1060B00085FE6400B2220021019BFF32013B581C87
:1060C00000D183E73155B05C5F1E002819D0B15470
:1060D00030000193FFF7B8FEECE7591CB150FF21E7
:1060E000F3186933FF331878E368C0B201330B400B
:1060F00021698B4203D0E16871180872E3600135B1
:10610000C3E73B00DBE710B50400FFF730FF2300D7
:10611000FC331969DA68914203D01B69E418207ACC
:1061200010BD01204042FBE710B50400FC34FFF72E
:106130001EFFE0682369C01A01D50130FF3010BD91
:10614000F0B585B0019200910500FFF710FF02A89D
:10615000FFF734FE01200024FF26039B40425A1E15
:10616000531C1FD02B00FC3301998C4218D2D968E4
:106170001F69C91B01D50131FF31002910D01969F0
:10618000DF688C460100BC4506D019691F69691893
:1061900001373740097A1F61009F39550134E3E721
:1061A000013ADDE702A80392FFF70FFE200005B0D9
:1061B000F0BD37B56B46DC1D00230D002370FFF7E3
:1061C00081FD2100FFF7FEFC2B681818286020785D
:1061D0003EBD00002023F7B5474A0500D1690F20D6
:1061E0000B43D361012245490B7813430B70444B99
:1061F00019788143197006211C782143197041498F
:106200000C7822430A701A7802401A7060221978BA
:106210000A431A703C4B3D4A5A805F78FF09FCD113
:106220003B48FEF767F901233A4C3B4E22683000A9
:1062300011780B43137080223900520004F0ABFD3B
:1062400022689378DB07FCD456621F26334B1B6809
:10625000590B980C9B01314030405B0FB14200D18B
:1062600005211F2800D10238072B00D1043B314003
:106270008901178D01912A4930400F400199394316
:106280001185118D0700B143080038431085118D29
:106290001803244B7F260B4003430C20138508234F
:1062A000D17881430B430321D3702268D3788B4389
:1062B00001390B43D37022681378334013700423E1
:1062C00022681678334313702268C1241389A4000E
:1062D00083431548138103591B021B0A0351802372
:1062E0000360137811481943012311702B700021AA
:1062F000FFF748FCF7BDC046000400405844004189
:106300003C44004159440041000C0040064000005C
:10631000816C00003C0A0020400A002024608000BC
:106320003FF8FFFFFF8FFFFF00E100E01C050020AA
:106330000078002810D00121084B1B681A898A4375
:106340001A810822198B0A431A830422198B0A43E3
:106350001A830022024B1A607047C0463C0A002094
:10636000340A002010B50F4A93699B0B9B0393617D
:1063700013680222FF331A729879823A02439A71A3
:106380001A7A9207FCD57F24074A2140937A0800A5
:10639000A3431900802301439172917A5B420B431E
:1063A000937210BD3C0A00200050004110B50C0053
:1063B000FFF788FC2100FFF73CFC002804D1034ACA
:1063C00093699B0B9B03936110BDC0463C0A002060
:1063D000F7B50D00832A19D1CBB2404C5A01A2184F
:1063E00091693F48AD010840C02189050143916191
:1063F0003C4920686D187021083355615B011A5CB7
:106400008A43110040220A431A54F7BD022A5FD181
:10641000354B8A00D058002802D003685B69984742
:10642000DA20400000F03CFC802204002B4E2F4B71
:106430004660036052000021083004F0ACFC2200EA
:10644000B2210023FC324900D36055611361136609
:106450009361D36153666354443163500431635094
:1064600004316354B221FF316354FF202B000340F9
:106470005901019371188F68194BAD003B40C0273B
:10648000BF051F438F600727019B366808335B01F8
:10649000995DB9430F000321394399552300516990
:1064A000666801401D334901FF3371184B60636812
:1064B00052691B68024052019B1801221B18997AED
:1064C00020000A439A72FFF7BFFC074BEC509CE791
:1064D00011002800FFF710FC97E7C0463C0A002097
:1064E000FFFFFF8FB005002088050020B8B5000031
:1064F00070B505000124064BA200D258002A06D030
:10650000210028000134FFF763FF0A2CF3D170BD8E
:106510005C0500200B4BCAB20B488901C918530116
:10652000C318596199690832890B89039961036815
:1065300052019A180223D3715179823B0B43537154
:106540007047C046B00500203C0A0020084B8A0076
:10655000D05810B5002803D003689B68984710BD39
:10656000C9B2044B4901591888688004800CF6E7C9
:10657000880500203C0A002010B50C00FFF7E6FF5C
:1065800000280CD0064BE4B21B68083464011C19C7
:10659000802362795B42134363710223E37110BD70
:1065A0003C0A0020F0B51C002A4B85B01B68070090
:1065B0000D000292002B4AD0274B8A00D0580028A9
:1065C00008D0036822005B68029998470400200005
:1065D00005B0F0BD3800FFF7B9FF844204D92900A7
:1065E0003800FFF7B3FF04000121EBB21B4E039309
:1065F0005B010193F21893689B0B9B039360019AD4
:10660000336802989B18FF335A7A0A435A72144B24
:10661000A901C918220004F0B5FB002CD7D029002D
:106620003800FFF793FF0028D1D14021039B326847
:1066300008335B01D3181879014319710121D9710D
:10664000019BD318FF339A7A0A439A72BFE7012459
:106650006442BCE7340A0020880500203C0A002080
:106660007007002013B56B46DC1D22000123FFF7E5
:1066700099FF012801D1207816BD01204042FBE797
:1066800070B5CBB2124A13485C018901891802190E
:1066900051609168104D08330D4080214903294312
:1066A000402591609168890B8903916001685A01C6
:1066B0008A1816793543157195796D06FCD55B01FD
:1066C000C918CB79DB07FCD500198068C0B270BD52
:1066D000700700203C0A0020FF3F00F070B50D005D
:1066E00000211400FFF7CCFFA04200D920000023B6
:1066F0000349A34203D0CA5CEA540133F9E770BDF1
:1067000070070020F0B51E003A4B85B01B680F00E3
:106710000192002B35D08023DB019E4231D8002529
:10672000354B8A01D3180293002E2CD0334B1B68B3
:106730000393FF233B401C0000930834039B640138
:106740001C19A379DB0921D02D4B2E49186801F0C3
:10675000D9FB2D4B1721584301F0D4FB2B4BE27989
:10676000920713D4DA5D002A01D10138F7D2012251
:10677000DA55009B5A01214B9B189A69920B9203A0
:106780009A6101256D42280005B0F0BD00221F4B23
:106790003400DA553F2E09D9009B40245A01174B8B
:1067A0009B188022996912060A439A612200019976
:1067B000029804F0E7FA009BA1045A010F4B890CE0
:1067C0009B18029A2D195A619A69361B920B9203F3
:1067D0000A439A61009B039A08335B01D318022293
:1067E000DA715979823A0A435A71019B1B19019354
:1067F0009AE7C046340A0020B00500203C0A002079
:106800008400002040420F0070110100A505002007
:1068100070B50D001C000D4BAE01F61811003000D4
:10682000220004F0AFFAEDB209496D014D196E6115
:10683000AB69084A20001340AB61AB69A2049B0B13
:10684000920C9B031343AB6170BDC046B0050020A2
:106850003C0A0020FF3F00F0F7B5104B01901B7879
:106860000F001500002B0CD10D4B16001C78002CCE
:1068700009D00C4E0C4834882018641904F082FAB0
:1068800034802800FEBD002EFBD03A1933000021D1
:106890000198FFF7BDFF2418361AF4E730090020ED
:1068A000310A0020320A002031090020F8B50F001B
:1068B00016000024012A26D9100004F04FFA050022
:1068C000380004F047FB0323022201304000287007
:1068D0006B7096420DD9397800290AD0531CDBB26F
:1068E0000137A9549E4203D00232EC54D2B2F0E7F1
:1068F000320029000548FFF7AFFF441EA041C4B293
:10690000280004F035FA2000F8BDC04684050020B8
:10691000F0B50024012685B0184B0F0069461E70A3
:1069200005000094FFF745FC154B01A90B806A3B5D
:10693000FF3BCB715A330B72009B8C7109334B8038
:106940000E4B4E7108711C703A00092F0FD00D4F7D
:1069500009223E700C4E280000943480FFF77CFF23
:1069600069462800FFF725FC328808493C7028005A
:10697000FFF772FF012005B0F0BDC04630090020CE
:1069800009020000310A0020320A002031090020EB
:1069900070B5CE7892B005000C00022E0BD18B7929
:1069A000C9792E4809021943FFF7B2FF411E8841F9
:1069B000C0B212B070BDFFF785F92100FFF716F9DC
:1069C000002803D0C117081AC00FF2E7012E0ED11C
:1069D000E279A37912021A432149112A3CD8D2B292
:1069E000002A39D02800FFF737FF0120E1E7032E06
:1069F000DFD1A378002B28D0022B08D1E279A3792C
:106A0000120218491A432800FFF750FFD1E7012B63
:106A100005D1E279A37912021A431349F3E7032B54
:106A2000C7D10100412201A804F0B5F9FFF74AF9E6
:106A300001A9FFF7EBF8002805D0E279A37912024B
:106A40001A4301A9DFE70378FFDEE279A379120296
:106A50001A430649032AC2D90A78C3E784050020ED
:106A6000F4B50000D4B50000E8B50000E4B50000BE
:106A7000CBB204495B01C9188B699B0B9B038B61EB
:106A80007047C0463C0A002037B5050048780C0026
:106A90000B2810D801F022FA061B0F2B0F4045617E
:106AA000494C5A5D097801AA002906D102231180B8
:106AB0002800FFF7ADFE01203EBD00231380284BC8
:106AC0001B78012B00D1137002230021F0E78A7894
:106AD0000023012A03D101AA1380224BF0E7204AA8
:106AE0001370214A93699B0B9B039361E3E78C78B6
:106AF000012C06D100211B4B01AA1C701170230030
:106B0000D6E70120002CD7D1154B174A187093698E
:106B10009B0B9B039361CFE789782800FFF722FC4A
:106B2000C9E72800FFF734FFC6E701230F4ACCE787
:106B30000B780020DB06BFD12800FFF7D9FCA27834
:106B40000A4B0B481A60FFF705F8CAE70123094A08
:106B5000BBE78A78074B1A60C3E70020ACE7C04662
:106B6000A4050020AC0500203C0A0020340A0020C7
:106B70001C050020380A00203B4BF7B51E780500A5
:106B8000002E5FD1394C23689A8B12070DD508224D
:106B900031009A833000FFF7AFF810222368FF33EB
:106BA000997A0A439A72324B1E6023689A8B520775
:106BB00001D504229A83FF331A7A920603D5202244
:106BC000597A0A435A721A7AD20623D569460800BE
:106BD000284AC0CAC0C0A268920B9203A260402299
:106BE000587902435A7160230A7828001A422AD140
:106BF000FFF74AFF2368FF33002827D080229979C6
:106C000052420A439A711A7A520603D54022597A9F
:106C10000A435A727F2601252368FF331E722F0014
:106C2000236808377F01DB19DB79002B07D0124B73
:106C3000AA00D05800280DD003681B68984701357A
:106C4000082DECD1F7BDFFF7B1FBD3E720210B4AAC
:106C50009171D8E7FFF736F82900FEF7FAFF2368AD
:106C6000DF19FE71EBE7C046310A00203C0A002024
:106C7000340A00207007002088050020FF500041E2
:106C800010B50248FFF778FF10BDC046840500200C
:106C9000014B024A1A6070473C0A00200050004134
:106CA00010B504F05BF810BD10B504F061F810BD2C
:106CB0000B0010B50100180004F018F810BD00001A
:106CC000F0B557464E46DE464546E0B58FB01D004E
:106CD00006000F00140000F0ADF9CE4B00900191BA
:106CE0009A461B785BB2994601333ED022002B00B6
:106CF0002000290003F0FEFE8346002835D1320033
:106D00003B003000390003F0F5FE0022039000281C
:106D100000D06FE000233000390001F079FA00283C
:106D20002CD0002200232000290001F071FA8346B4
:106D3000002800D192E004AB984601234246049318
:106D4000B54B53604346039A1C615D611A629E60B5
:106D5000DF604246002300249361D4614B46002B40
:106D600067D00023AD4C00930194009801990FB0B7
:106D70003CBC90469946A246AB46F0BD00980199AE
:106D800000F09AFF8146002800D19AE0009801990E
:106D90000022002301F03CFA0028E6D03000390040
:106DA00000F08AFF0028E0D02000290000F084FFD6
:106DB0000028DAD004AB9846042342460493964B4D
:106DC0001461556153600023002413620023936112
:106DD000D46153461B789660D7605BB2022B04D017
:106DE000404600F073FF002829D103F08DFF2223D5
:106DF000036024E000232000290001F009FA0028A4
:106E0000B3D004AB9846012342460493824B4146DB
:106E1000536043465A461A6200229E60DF601C613E
:106E20005D617E4B8A61CB61009201934B46022BE0
:106E30009BD0404600F04AFF002800D18AE043463C
:106E40001B6A002B04D003F05FFF43461B6A0360FC
:106E50004346DC699B690093019486E72000290082
:106E600000F02AFF002800D17FE700220023200045
:106E7000290001F0D3F9002800D176E704AB984649
:106E8000012342460493644B536043465A469E6036
:106E9000DF601A621C615D6153461B785BB2002B98
:106EA0005DD0002042465E499061D161022B5BD1EA
:106EB00003F02AFF2123036043461B6A002BC7D03F
:106EC000C1E73000390000F0F7FE002800D15DE78F
:106ED0002000290000F0F0FE002800D156E70098BD
:106EE000019953461B7802005BB29B460B0003F0EE
:106EF00001FE04AB9846002862D103234246049366
:106F0000454B14615561536010629660D760454BE4
:106F100020002900002203F033F85B4604000D0036
:106F2000002B27D1E02241463F4B12068A61CB61FC
:106F3000300000220023390001F070F900282AD126
:106F4000404600F0C3FE0028B6D103F0DDFE222348
:106F50000360B1E703F0D8FE212303606FE74246E8
:106F6000002300249361D461404600F0AFFE002866
:106F7000A2D19DE7002241462C4B30008A61CB61B3
:106F800000220023390001F049F9002835D15B4681
:106F9000022BDAD0D4E72000290000F09FFE220067
:106FA0002B0001F035F9002805D1E022204B120614
:106FB00041468A61CB6153461B785BB29B46E6E74C
:106FC000012342460493144B536043464A469E6055
:106FD000DF601A621C615D615B46002BBFD000233D
:106FE00000221900100002F0C1FB43469861D961EC
:106FF0005B46022B00D15BE7B6E72000290000F0DA
:107000006DFE22002B0001F003F90028D3D10022ED
:10701000034BCDE7A000002008B600000000F03FC1
:107020000000F0FF0000E03FFFFFEF470000F07FAF
:10703000FFFFEFC7F0B55746DE464E4645465C00BB
:107040006408E0B598461F00230093B083468A4643
:10705000160013430CD07D4B4D00029181466D0804
:107060009D4212DD7A4B9C465B4665441D4361D1CF
:107070000023784C009301940098019913B03CBC14
:1070800090469946A246AB46F0BD9D4250D09C42E8
:10709000E8DC6E4B9C426BD0002304935346002BDC
:1070A00069DB002A10D1694B9C424CD0694B9C4251
:1070B00000D1A3E08023DB05984500D1BCE0664BFE
:1070C000984501D100F0D6FB5846514600F0F0FD3E
:1070D0004B4600900191002B07D1002D67D05346FD
:1070E0005C4A9B009B08934261D05346DB0F013BF7
:1070F00099464A46049B134300D190E0574B9C426B
:1071000000DCBBE0564B9C4201DC00F010FC554B10
:107110009D4201DC00F004FC4346002B23DD524A73
:10712000524B1000190002F02BFF00900191A3E7D1
:10713000002805D04E4800F0CBFD009001919BE760
:10714000AC42F7DCA5E75A46414BEB18134300D19C
:107150008EE7444B9D4200DC99E34346009601973D
:10716000002B00DB88E7002300240093019483E7D1
:10717000002A91D076E73F4B9C423CDC394B9C4245
:107180008FDD3D4923158C466344142B00DCB2E3AC
:107190003421CB1A3100D94008009840904200D0E9
:1071A0007FE70123194001335B1A049379E74346D3
:1071B000002B07DA009A019B0020264902F0D6FA3C
:1071C00000900191029B002B00DB55E7204B9C4671
:1071D000049B65441D4301D100F00EFC049B012B70
:1071E00000D049E7009C019D8021220009066B1810
:1071F0000092019340E70223049352E75846514618
:10720000434600900191002B00DB35E75A46534678
:107210000020104902F0AAFA009001912CE75A468A
:1072200053465846514603F01DF902000B0002F088
:107230009DFA009001911FE75A4653465846514621
:1072400002F09EFE0090019116E7C0460000F07F1C
:10725000000010C00000F03F0000E03F0000E041EF
:107260000000F043FFFFEF3F9C7500883CE4377E51
:107270000CB60000FFFF3F4301FCFFFFE44B002280
:107280009D420ADC009801990022E24B02F078FE50
:1072900035220D00009001915242DF492B158C469A
:1072A000634498462D03DD4CDD4B2D0B90442C435D
:1072B0009D420ADDDB4B9D4201DC00F001FC012315
:1072C0009C46D94BE0449C466444002200230E9225
:1072D0000F931092119300220025D04B0692079332
:1072E00000980199069A079B21000890099103F0E4
:1072F000B9F8069A079B0A900B910898099901F032
:1073000019FF02000B000020C44902F02FFA0A0006
:10731000010013000C910D9202000A980B9902F0E3
:107320002FFE0A0001001300029103920022009236
:107330000193802364109B05234380242403A446E7
:1073400000206344591904000D0002000B0000984E
:10735000019902F015FE02000B000A980B9903F048
:1073600081F8069A079B0A900B912000290003F0F0
:1073700079F802000B000898099903F073F8009A55
:10738000019B02F0FDFD02000B000A980B9903F02F
:1073900069F80C9A0D9B02F0F3FD029C039D089086
:1073A000099122002B002000290002F0E9FD0400D1
:1073B0000D009E4A9E4B02F0E3FD9E4A9E4B01F05B
:1073C000B9FE22002B0002F0DBFD9C4A9C4B01F031
:1073D000B1FE22002B0002F0D3FD9A4A9A4B01F035
:1073E000A9FE22002B0002F0CBFD984A984B01F039
:1073F000A1FE22002B0002F0C3FD964A964B01F03D
:1074000099FE2200069007912B002000290002F02F
:10741000B7FD02000B000698079902F0B1FD009A33
:10742000019B04000D000298039901F083FE089A65
:10743000099B02F0A5FD22002B0001F07BFE009CC1
:10744000019D0A900B9122002B002000290002F0E0
:1074500097FD0022814B04000D0001F06BFE0A9A9B
:107460000B9B01F067FE00220B0011001A00069131
:1074700007920A000098019902F082FD00220C9008
:107480000D9106980799754B02F0ECFF22002B0036
:1074900002F0E8FF02000B000A980B9902F0E2FFED
:1074A000029A039B02F06CFD069A079B04000D00F4
:1074B0000898099902F064FD02000B0020002900E1
:1074C00001F038FE04000D0002000B000C980D992D
:1074D00001F030FE00221000E022614B1206009005
:1074E000019102F04DFD0C9A0D9B029003910098C2
:1074F000019902F0B7FF02000B002000290002F002
:10750000B1FF584A564B02F03BFD574A04000D00AC
:1075100000980199554B02F033FD02000B0020004A
:10752000290001F007FE109A119B01F003FE06905E
:107530000791404603F030FB069A079B04000D00BC
:107540000298039901F0F6FD0E9A0F9B01F0F2FDEF
:1075500022002B0001F0EEFD002022002B00009005
:10756000019102F07FFF0E9A0F9B02F07BFF029ABF
:10757000039B02F077FF02000B000698079902F0C8
:1075800071FF069007914A46049B013B134300D1CB
:1075900088E10023214C0293039400223B00300039
:1075A0003900140002F05EFF009A019B02F0E8FC33
:1075B00032003B00049005910698079902F0E0FC28
:1075C00002000B000498059901F0B4FD3D0006008F
:1075D0000F000098019922002B000496059702F0F5
:1075E000CFFC02000B00300039000092019301F043
:1075F000A1FD1F4B04000D008B460200994200DCE8
:1076000055E11C4BCB18034300D0FBE134E0C046EE
:10761000FFFF0F000000404301FCFFFF0000F03FB0
:107620008E98030079B60B000000F0FFEF4E454A3C
:10763000287ECA3F65DBC9934A86CD3F01411DA91B
:107640006074D13F4D268F515555D53FFFAB6FDB51
:10765000B66DDB3F033333333333E33F0000084081
:1076600009C7EE3FFD033ADCF5015B14E02F3EBE97
:10767000FFFF8F40000070BF04980599E84AE94B6E
:1076800001F058FD009A019B06000F002000290020
:1076900002F0E8FE02000B003000390000F0D2FDDD
:1076A000AA46002800D0ADE18024DF4A5346944624
:1076B000640322001B1563441A411300DB495B4439
:1076C0005A001E001B038C461B0B23431424520D2F
:1076D000D74D62441541A21A134199465B46AE4309
:1076E00000203100002B02DA4B465B429946020033
:1076F0000B000098019902F0B5FE4B461B05009067
:107700000191020098460B000498059901F012FDC2
:107710000D0000240022C74B2000290002F030FC9D
:10772000009A019B069007912000290002F09AFE22
:1077300002000B000498059902F094FEBE4ABF4B6C
:1077400002F01EFCBE4A06000F00BE4B20002900BE
:1077500002F016FC02000B003000390001F0EAFCD8
:1077600004000D0002000B000698079901F0E2FCEE
:10777000069A079B06000F0002F074FE02000B0041
:107780002000290002F06EFE3200009001913B00C3
:107790003000390002F0F4FB04000D00AA4AAB4BA4
:1077A00002F0EEFBAA4AAB4B02F05CFE22002B007B
:1077B00002F0E6FBA84AA94B01F0BCFC22002B001A
:1077C00002F0DEFBA64AA74B02F04CFE22002B0083
:1077D00002F0D6FBA44AA54B01F0ACFC22002B0022
:1077E00002F0CEFB02000B003000390002F03AFE3E
:1077F00004000D0002000B003000390002F0C0FB55
:107800008023049005910022DB052000290002F06E
:1078100029FE02000B000498059901F0A7FF009AC9
:10782000019B04000D003000390002F0A9FB009A12
:10783000019B01F07FFC02000B002000290002F0F8
:1078400011FE32003B0002F00DFE02000B00002092
:10785000874902F007FE43465B181A15002A00DC30
:107860003FE11900029A039B02F08AFB009001910C
:10787000FFF702FC5346002B01DAFFF725FC5846C0
:10788000514600F03DF900900191FFF7F5FB4346AA
:10789000002B00DB67E480231B06FB180096019396
:1078A000FFF7EAFB0023734C0293039475E64B0049
:1078B0005B089A46704B9A4500DCF9E06F4B5B44DD
:1078C0001A430AD1009A019B02F0CCFD049A059B51
:1078D00000F0C2FC002800D1E6E602980399684A4D
:1078E000684B02F04DFB664A664B02F049FB009084
:1078F0000191FFF7C1FB002A01D0FFF7E5FB14322D
:10790000D31A22001A4111009940A14201D0FFF779
:10791000CDFB01231A40DB189B1A0493FFF7C6FB2B
:107920004346002B01DBFFF71EFCFFF7F8FB564B2D
:107930009D42F5DD4E4B9D4201DDFFF7EDFB0098CA
:10794000019900224A4B02F08DFDC0224F4BD20517
:1079500004000D0002F014FB4D4A029003914D4BC0
:107960002000290002F00CFB0022009001914A4BFC
:107970002000290002F004FB02000B0047484849A0
:1079800002F070FD22002B0002F0FAFA02000B0058
:107990000020444902F066FD2200069007912B006A
:1079A0002000290002F0ECFA02000B00069807996B
:1079B00002F0E6FA1A4A354B02F0E2FA02000B0036
:1079C0000098019902F04EFD02000B0004000D002A
:1079D0000298039901F0AEFB029A039B00200090ED
:1079E000019102F03FFD02000B002000290002F08F
:1079F00039FD06900791C6E50098019902000B0039
:107A0000FFF711FC284A294B0298039902F0B8FAB3
:107A1000254A264B02F0B4FA00900191FFF72CFBA7
:107A2000FE822B654715973C02FCFFFF01FCFFFF20
:107A3000FFFF0F00432EE63FEF39FAFE422EE63FEE
:107A4000396CA80C615C20BED0A4BE726937663E5A
:107A5000F16BD2C541BDBB3E2CDE25AF6A56113F4E
:107A600093BDBE166CC1663F3E5555555555C53F35
:107A70000000F03F0000F0BFFFCB904000346F3FAC
:107A800059F3F8C21F6EA501FEFFEF3F4715F73F00
:107A900044DF5DF80BAE543E0000D03F55555555C0
:107AA0005555D53F0000E03F9C7500883CE4377E8B
:107AB00000220E4B904691469A4500DC29E6F3E5FC
:107AC00080220B4BD2050E920F930A4A0A4B802557
:107AD000109211930022094BED0206920793FFF7D3
