:102000000080002001290000E9280000E9280000E4
:1020100000000000000000000000000000000000C0
:10202000000000000000000000000000E92800009F
:102030000000000000000000E92800005529000011
:10204000E9280000E9280000E9280000E92800004C
:10205000E9280000E9280000E9280000ED28000038
:10206000E9280000E9280000E9280000E92800002C
:10207000E9280000E928000059280000E9280000AC
:10208000E9280000E92800000D2400009123000049
:10209000C9230000E9280000E9280000E928000021
:1020A000E9280000E9280000E9280000E9280000EC
:1020B0000000000010B5064C2378002B07D1054B1B
:1020C000002B02D0044800E000BF0123237010BDA4
:1020D000100200200000000088570000044B10B5DB
:1020E000002B03D00349044800E000BF10BDC046E8
:1020F0000000000014020020885700007047000014
:10210000FA2170B5284C4900200000F047FB00215F
:10211000200000F0A5FA002809D00221200000F0DC
:102120005DFA200000F092FA200000F0AEFA0521DE
:10213000200000F04EFA200000F03EFB1B4A1C4B32
:102140001C491A600A004B78DB09FCD11A4B1B4969
:1021500019605378DB09FCD1194B1A491980517861
:10216000C909FCD1184919805578ED09FCD1FA212B
:102170002000490000F012FB2900200000F070FA56
:10218000002809D00421200000F028FA200000F0E7
:102190005DFA200000F079FA0521200000F019FA1C
:1021A000200000F009FB70BD300200200430000068
:1021B000080C0040000C0040040C00400407030021
:1021C000020C00401C4400001B440000C3221C4BB6
:1021D000920070B51A801B4A1000D37BDB09FCD13A
:1021E0008021194B090319600123184C21781943E8
:1021F000217017490C7823430B70164B1380C57B55
:10220000ED09FCD1FA21144C4900200000F0C6FA77
:102210002900200000F024FA002809D00121200024
:1022200000F0DCF9200000F011FA200000F02DFA97
:102230000521200000F0CDF9200000F0BDFA70BDAE
:10224000183000420030004200E100E00E30004251
:102250000D30004222060000300200201F4A204BB1
:1022600070B51A801F4A1000D37BDB09FCD1802196
:10227000C524FF251C4B49031960A4001959A94323
:1022800019510123194C21781943217018490C78F0
:1022900023430B70174B1380C57BED09FCD1FA214A
:1022A000154C4900200000F079FA2900200000F0C8
:1022B000D7F9002809D00321200000F08FF9200071
:1022C00000F0C4F9200000F0E0F90521200000F042
:1022D00080F9200000F070FA70BDC046083D000093
:1022E000183400420034004200E100E00E340042A5
:1022F0000D34004222050000300200201C4A1D4B14
:1023000070B51A801C4A1000D37BDB09FCD18021F8
:102310001A4BC90219600123194C21781943217005
:1023200018490C7823430B70174B1380C57BED09BC
:10233000FCD1FA21154C4900200000F02FFA2900A9
:10234000200000F08DF9002809D00521200000F0C0
:1023500045F9200000F07AF9200000F096F90521F7
:10236000200000F036F9200000F026FA70BDC046CB
:10237000410F0000182C0042002C004200E100E058
:102380000E2C00420D2C00422207000030020020DB
:1023900010B50B4B9A7BD2070ED55B7BDB070BD5B9
:1023A000102000F08BFD002807D10121103000F033
:1023B00059FD0122034B1A7010BD00211020F6E7D1
:1023C000003000420E30004210B50D4B9A7BD20710
:1023D00012D55B7BDB070FD50A4A11201368013346
:1023E000136000F06BFD012807D10021103000F0D0
:1023F00039FD0122044B1A7010BD01211120F6E7AE
:10240000003400422C0200200E34004210B5154B5F
:102410009A7BD20721D55B7BDB071ED5152000F008
:1024200069FC114C01000A22200000F082FE0F49D5
:10243000200000F006FE0E4B0A221968200000F072
:102440005EFE142000F03AFD012807D10021133070
:1024500000F008FD0122074B1A7010BD0121142065
:10246000F6E7C046002C0042D4040020E0510000F2
:102470002C0200200E2C004210B50121102000F08B
:10248000A5FC0121112000F0A1FC0121142000F085
:102490009DFC0021152000F099FC01210F2000F087
:1024A00095FC0121122000F091FC0121132000F085
:1024B0008DFC0121002000F089FC0121080000F0C2
:1024C00085FC0121022000F081FC0021032000F0A6
:1024D0007DFC0121042000F079FC0121052000F0A1
:1024E00075FC0121062000F071FC0121082000F09C
:1024F0006DFC0121092000F069FC00210A2000F098
:1025000065FC00210B2000F061FC00210C2000F094
:102510005DFC00210D2000F059FC00210E2000F090
:1025200055FC10BD70B51F4C1F49200000F0BCF8D1
:10253000E1212000490200F0A9F80121200000F06B
:102540008FF81A4D00280AD01949280000F079FDAB
:1025500020000A2100F03DF8200000F096F800214C
:102560002000012200F064F90121200000F078F839
:10257000002806D00F49280000F063FD200000F07D
:1025800084F8FFF7BDFDFFF7B9FEFFF71FFEFFF769
:1025900065FEFFF771FF62B6E1212800490201F0F4
:1025A0002DFB70BD30020020B80B0000D4040020C9
:1025B000FE5100000F52000070B50C0000F0D8F979
:1025C0000500241800F0D4F9854201D88442F9D2DC
:1025D00070BD10B50122FFF7EFFF10BDF8B5060082
:1025E0000F0000F0C5F90500144C1549200000F05B
:1025F00028FD0A223900200000F097FD1149200033
:1026000000F01FFD29000A22200000F082FD0E4F7D
:102610002000390000F015FDB3680A22E91A2000F5
:1026200000F077FD3900200000F00BFDB168F36881
:102630000A22C91A200000F06CFDF8BDD404002065
:102640002B520000325200003452000010B50249F3
:10265000024800F007FD10BD24520000D404002001
:1026600010B5040000290BD100F082F96368C01A8C
:10267000312805D832210122091A2000FFF79CFFDA
:1026800000F076F96060012010BD7047FA2010B5A7
:102690000C00800000F0A2F92100024801F0AEFA1F
:1026A00010BDC046D4040020002310B5436443602D
:1026B000994201D0FFF78DFF10BD000070B50500F5
:1026C0000E0000F055F90A4C68600A49200000F03D
:1026D000B8FC0A223100200000F027FD0649200046
:1026E00000F0C0FC28003221FFF773FF70BDC04628
:1026F000D4040020165200001D5200000022034B9B
:102700009A60DA601A615A617047C0463002002050
:1027100010B5024801F01CFAC0B210BDD40400206C
:1027200073B51D4C0600200001F004FAC0B2642805
:1027300030D13000FFF7ECFF200001F009FA00254E
:10274000C3B201A83A2B07D04355200001F000FA8C
:102750000135EDB2C3B2F4E702F05CFB05002000E6
:1027600001F0F6F9C1B23039012902D8280000F091
:1027700079FB200001F0ECF9C0B20A2801D00D2845
:10278000F7D1200001F0D6F9C0B20A2802D13000FA
:10279000FFF7BEFF73BDC046D4040020002310B570
:1027A000436183680161C360040000F0E1F8A06048
:1027B0002000FFF7B5FF10BD10B50400FFF7B0FF14
:1027C00000F0D6F8A06010BDF7B50191037E0500BA
:1027D0006320002B08D0154EFF27300001F07CF954
:1027E000C0B2002801D16520FEBD300001F074F9AF
:1027F000C0B20028F7D0300001F0AAF904003C4034
:10280000682C08D009DC582C0DD0632CEDD101992F
:102810002800FFF753FF6320E6E7712CFBD0762CEE
:10282000E3D1C0B2E0E700232B76F4E7D404002024
:1028300070B50400150000290CD001230376002197
:102840002000FFF7C1FF632804D001212000FFF71B
:10285000C0FEF4E7257670BD10B5024800F017FF02
:1028600010BDC0467802002013B51249124800F08E
:10287000B9FC1249124800F0B5FC1249124800F0A8
:10288000B1FC1249124800F0ADFC1249124800F0A8
:10289000A9FC124C1249200000F0A4FC0123019372
:1028A000023300930D220B3321000E4800F084FE0A
:1028B00013BDC04600080042B4040020000C0042D2
:1028C000B804002000100042BC04002000140042A4
:1028D000C004002000180042C4040020C8040020E6
:1028E000001C004278020020FEE70000034B10B5F8
:1028F0001B68002B00D0984710BDC046CC040020B8
:1029000070B50F490F4CA14204D100F08FF800F0D0
:102910004FFBFEE70C4D00238D42F6D0CA18E81895
:10292000A24205D3094B8242EFD00949002204E0BC
:10293000006804331060F1E704C38B42FCD3E4E782
:1029400000000020100200208C5700001002002020
:10295000080B002010B500F066F8002801D100F047
:1029600057F810BD014B18607047C046CC040020DA
:10297000014B18687047C046D0040020F7B51348D3
:10298000012284461249134C8E68636805689B0EC9
:102990001340019288686268019F920E3A40674630
:1029A0003F6893420ED1BD420CD186420AD35B19D7
:1029B000FA254868AD00861B07486B437043000D3D
:1029C000C018FEBD3D0013000600E3E7D004002060
:1029D00010E000E000ED00E05555000070B5041E69
:1029E00010D0FFF7CBFF050000F01CF8FFF7C6FF83
:1029F000054B401B9842F7D9FA23013C9B00ED1888
:102A0000002CF3D170BDC046E70300007047000002
:102A100010B5034A13680133136000F0A7FB10BD23
:102A2000D004002070470020704700001E2270B5BF
:102A300046484749436893431C3A1343436008237D
:102A40008C6923438B61434C434B9C829C8A144387
:102A50009C82DC681442FCD00124404A1470157832
:102A6000254203D055786DB2002DF8DB0124946027
:102A7000547864B2002CFBDB394C5460547864B257
:102A8000002CFBDB8224E4015480547864B2002CD7
:102A9000FBDB02249C840E34DD682542FCD0314CE3
:102AA000DC621024DD682542FCD09D8C2E4C2C432A
:102AB0009C841024DD682542FCD002249D8C802655
:102AC0002C439C844024DD683542FCD0DD682542DF
:102AD000F9D01024DD682542FCD00024946054789D
:102AE00064B2002CFBDB214C5460547864B2002C9F
:102AF000FBDB1C6A1E4D2C4080251C621C6AAC430B
:102B00001C62032393601B4B536053785BB2002B12
:102B1000FBDB0023FF240B72174A4B728B72CB72C4
:102B2000164B1A60164B174A1B6811689A065B0110
:102B3000C90E2340520F12020B431343124A13854E
:102B4000802342681343436070BDC046004000418B
:102B5000000400400C06000000080040000C00408B
:102B600001050100B905FF7D040A0000000703000C
:102B7000FFFCFFFF03060100006CDC0200000020E8
:102B8000246080002060800000400042FA21314B28
:102B900010B51868890002F0B1F82F4B013898423F
:102BA00056D82E492E4A4860C020136A00061B02E0
:102BB0001B0A03431362002407238C600B608021EF
:102BC000136A09061B021B0A0B431362FC22254BE6
:102BD000196A0A431A62FC22196A92010A431A62AC
:102BE000A022196AD2020A431A622000002101348D
:102BF00000F0ECF8162CF8D11B4B1C005A7852B29E
:102C0000002AFBDB194A5A80194B1A00597EC90960
:102C10000129FBD0E421C90099803F21D970537E5E
:102C2000DB09012BFBD0C02300205B0113619070F6
:102C300000F02EF863785BB2002BFBDB0D4B0E4AE5
:102C40006380D379DB09012BFBD04123537010BD86
:102C5000FEE7C04600000020FFFFFF0010E000E09C
:102C600000ED00E000040040000C00401E400000A9
:102C7000004000422140000000480042914202D042
:102C800002D98A1AD0407047521A9040FBE70000E0
:102C9000164A00B51300517EC9090129FBD001383D
:102CA000042816D81969124A0A400F211A615A7865
:102CB0008A4302F019F80308060B030011000122F1
:102CC0000A435A7000BD11000322F9E711000222E5
:102CD000F6E7F02311691B050B430F2113615378AD
:102CE0008B43190002230B435370EBE70040004273
:102CF000FFFFFFF010B504000E2800D80F340121AB
:102D0000200000F0F3F81823102163432A4CE41844
:102D10006156002901D014290DD1284B1800DA7909
:102D2000D209012AFBD002241A78A2431A70C3796F
:102D3000DB09012BFBD022480300427ED209012A85
:102D4000FBD01F2402692140A2430A4302615A7E3C
:102D5000D209012AFBD0022219780A431A705A7E3E
:102D6000D209012AFBD00222197B0A431A731A7E68
:102D7000D207FCD501221A765A7ED209012AFBD04D
:102D80000222197B0A431A731A7ED207FCD5588B8C
:102D900080B25A7ED209012AFBD002211A788A43D6
:102DA0001A705A7ED209012AFBD0064B1A68064BCC
:102DB0001968FFF763FF10BD385200000048004259
:102DC000004000420800002004000020182330B515
:102DD0001D00040045430820204A5519285601309B
:102DE00014D0032912D808006343D156D31801F038
:102DF0007BFF02280E1B5868CB010221184A9B1842
:102E00001A1840321170012282405A6030BD586851
:102E1000CB010621124A9B181A1840321170012268
:102E200082405A609A61F1E75868CB0106210C4A4A
:102E30009B181A1840321170012282405A605A6160
:102E4000E4E75868CB010221054A9B181A18403262
:102E50001170012282409A60D8E7C04638520000C3
:102E6000004400411823F0B508245843114A1318B0
:102E70001C5701341BD0012635005F688356BD40C6
:102E80000D4ADB019A18906805420BD10C00601EB8
:102E90008441D2194032107834400336A400B04344
:102EA00020431070044A9B18002901D15D61F0BDD8
:102EB0009D61FCE73852000000440041182310B522
:102EC0000824434307490020CA181457013408D086
:102ED0005B560549DB015B18186A5368D84001232B
:102EE000184010BD385200000044004118224243EF
:102EF000F8B52C4E0300B218127A52B21400013207
:102F00000ED0481C00240C280AD801F0EDFE071F43
:102F10001F1F1F1F1F1F1F0B0B0B0B0001246442E1
:102F20002000F8BD092905D100211800FFF74EFF48
:102F30000024F5E70A2901D10839F6E700240B2916
:102F4000EED10A391800FFF741FFE9E71822534391
:102F5000F218556801202C00F356134ADB016E0865
:102F60009B18C9B204409E19002C0DD00F24303696
:102F70003278090122401143C9B25B1931704033E4
:102F80001A7810431870D3E732000F2730321678C2
:102F90005B19BE433143117040331A7810431870E7
:102FA000BEE7C046385200000044004170470000B0
:102FB00010B5FFF7EBFD01F033FFFFF7F7FF01203E
:102FC000FFF70CFD084C200001F02CF9200001F067
:102FD000CBF9FFF7A7FAFFF791F8044B002BFAD0D3
:102FE00000E000BFF7E7C0463C05002000000000FD
:102FF000F7B506000D000C008B180193019B671BB1
:103000009C4207D0336821781B6830009847013410
:103010000028F3D13800FEBD70B5040008000D0093
:1030200002F018F82368020029005B682000984726
:1030300070BD10B50B1E02D0FFF7EEFF03001800A5
:1030400010BD10B5FFF7F5FF10BD10B503681B6884
:10305000984710BD10B50249FFF7DEFF10BDC0460E
:103060009855000070B50400FFF7E3FF050020004D
:10307000FFF7F0FF401970BDF0B58BB06B4615003F
:10308000002205330600DA770800012D00D80A2552
:1030900009AC290001F0B8FECAB2130037330700AB
:1030A000DBB2092902D813003033DBB2013C2370B4
:1030B000002FEED121003000FFF7BBFF0BB0F0BDB9
:1030C000F8B506000C00151E04D10368C9B21B68D0
:1030D0009847F8BD0A2A0CD100290BDA2D21FFF7F9
:1030E000B4FF614207002A003000FFF7C5FF38181F
:1030F000EFE7D2B221003000FFF7BEFFE9E770B57D
:103100000400FFF7DDFF05002000FFF7A3FF4019D3
:1031100070BD10B5002A04D10368C9B21B68984776
:1031200010BDD2B2FFF7A8FFFAE710B5FFF7F1FF25
:1031300010BD70B50500FFF7ECFF04002800FFF795
:1031400089FF201870BD000010B50400FFF75EFC79
:10315000014B1C6010BDC0460C0000200122024B38
:1031600052421A607047C0460C000020164A10B543
:103170001368591C26D0013B1360002B22D172B674
:10318000124B134A0433934213D9124A01211000FF
:10319000147D0C42FCD02021148BFF319B085B0076
:1031A00021431183D3610C4B13800123027D1A420A
:1031B000FCD0BFF34F8F094B094ADA60BFF34F8F42
:1031C000C046FDE710BDC0460C00002000200000F6
:1031D000030200000040004102A5FFFF00ED00E0F7
:1031E0000400FA05016070479446F0B59E1E721EF9
:1031F00096416246056892072F6836063A43324385
:103200002A60072505AC24780068A40129402143E1
:1032100042680024022B00D05C031143214341602B
:10322000F0BD30B5C0250368AD031C6812052A4007
:103230002243C0240904A4022140114319600368F9
:103240005A6814435C6030BD0123026811680B4367
:10325000136003681A68D207FCD4DA69D207F9D47C
:1032600070470223026811680B4313600268D36938
:103270009B07FCD4704703681A7ED20702D41A7EDB
:103280009207FCD57047002203685A837047036891
:10329000187E4007C00F70470368187EC00970474A
:1032A000802302685B42117E0B43137670470368EC
:1032B000588B8007C00F704702230268518B0B4365
:1032C000538370470368187EC007C00F70470368B8
:1032D000188DC0B2704703681A7ED207FCD589B238
:1032E000012019857047012203689A7570470122F1
:1032F00003681A75704700000368214A30B593428D
:103300002FD0204A93422FD01F4A93422FD01F4ADA
:1033100093422FD01E4A93422FD01E4A93421FD170
:103320000E2319220121032599401B48C024016066
:1033300099082B40AB40FC359D4089000918A4003A
:103340000859A843C0259D402B0003430B518023FF
:10335000DB011A43114B5A805A7852B2002AFBDB28
:1033600030BD09231422DDE70A231522DAE70B23F7
:103370001622D7E70C231722D4E70D231822D1E712
:1033800000080042000C00420010004200140042FD
:1033900000180042001C004200E100E0000C004068
:1033A000F8B504000F0016001D00FFF7A5FF200070
:1033B000FFF74AFF1C21BB000B4071072268090C74
:1033C0000B431360842322689375012F1AD11021B7
:1033D000012E00D008390C4B69431868C00001F079
:1033E0008DFC0722216802408B895203DB04DB0C31
:1033F00013438B81226803049089DB0C400B40034C
:1034000018439081F8BDC04600000020012070479D
:1034100010B50368014A1B6A984710BD13040000E9
:103420000300FC33D9699A69914203D0DB69C01863
:10343000007D704701204042FBE710B504000069A1
:10344000FFF702FF22000023FC329361D361862242
:103450009200A4186360A36010BDF02001403039D1
:10346000484248417047F0231B0119408023062041
:103470009B0099420AD00133FF330130994205D0B5
:10348000802302385B00994200D0002070470F2053
:1034900001400020012903D00239481E8141481C07
:1034A000704700008923F0B5182685B002919B0073
:1034B0000400C05C330008214343324D1700EB1871
:1034C0005956FFF713FD304B0821E05C33004343AE
:1034D000EB185956FFF70AFD2C4BE25C0393022AC6
:1034E00009D11133E05CFF2805D008214643AE190D
:1034F0007156FFF7FBFC8A26B600A05DFF2819D0A5
:103500000121FFF763FC1822A35D21495A43AB5602
:10351000AD18DB0158188B21890060501D4901222C
:103520005B188C218900635069688A408D2189006D
:1035300062501A600122029B11002069FFF730FFE0
:1035400039002000FFF78FFF390005002000FFF74A
:103550009EFF390006002000FFF77FFF3300009038
:10356000290020690122FFF73FFE0B4B2069E25C36
:10357000039BE15CFFF755FE2069FFF772FE05B083
:10358000F0BDC046385200002502000027020000AE
:10359000184400411444004126020000802210B566
:1035A00004005200002101F092FC23000022FC33B1
:1035B0005A6020009A6010BDF7B51D0008AB1B785B
:1035C0000400009309AB1B781600019300234360AD
:1035D000FA239B008360114B0F0008330360143003
:1035E000FFF7DCFF20001D30FF30FFF7D7FF8923F6
:1035F0006A469B002761E654094B1278E554094B53
:103600002000E2546A46084B1279E2548A22293B90
:10361000FF3B9200A3541032A354FEBD9C55000002
:103620002502000026020000270200000300FC33F0
:1036300058689B68C01A01D50130FF30704710B53B
:10364000040020001D30FF30FFF7F0FF0028F8D104
:103650002069FFF710FE10BD10B51430FFF7E6FF2C
:1036600010BD0300FC3359689A68914204DB5A6824
:103670009868801AFF30704798685B68C01A0138F4
:10368000F9E710B51D30FF30FFF7EBFF10BD10B5A7
:1036900004000069FFF70BFE002805D02069FFF742
:1036A00016FE2069FFF708FE2069FFF7F0FD0028ED
:1036B00020D02069FFF70BFE2200FC329369D1690C
:1036C0000133DBB28B4203D09169611808759361B5
:1036D0008A239B00E35CFF2B0CD020001430FFF703
:1036E000C0FF092806DC8B238D229B009200E35843
:1036F000A2581A602069FFF7E5FD00281AD02000C3
:103700001D30FF30FFF792FF002822D086239B0058
:10371000E31899685A68914218D08E219A68490036
:10372000A218515C9A680132D2B29A60C9B220697B
:10373000FFF7D1FD2069FFF7AFFD002805D0206914
:10374000FFF7AEFD2069FFF79EFD10BD0121494244
:10375000ECE72069FFF7CBFDECE7000070B5040053
:1037600000690D00FFF7AEFD00283ED1FF2686233D
:103770009B00E3185A689968013232408A4223D18B
:10378000EFF31083DB0710D41E4B5B68DB05DB0D0A
:10379000EDD0103B5BB2002B10DA0F221340083B38
:1037A0009B08194A9B009B181B682069FFF78AFD3C
:1037B0000028DCD02000FFF76AFFD8E79B08C03361
:1037C000124A9B009B58F0E75A68013216409A68EB
:1037D000964205D08E215A684900A21855545E6061
:1037E0002069FFF780FD012070BD20001D30FF30F3
:1037F000FFF71CFF0028B9D129002069FFF76BFDF6
:10380000F1E7C04600ED00E01CED00E000E100E063
:10381000030070B5FC33D9699A69040091421AD04B
:10382000DA698218157DDA690132D2B2DA618A2347
:103830009B00E35CFF2B0CD020001430FFF711FF3E
:103840000A2806DD8C238D229B009200E358A258A3
:103850001A60280070BD01256D42E8E7002070471E
:1038600070B50F26CB1D013902003240D5B22C00B5
:1038700000093034092A00DD07341C70013B8B42FB
:10388000F2D170BD10B50C000B4B1868FFF7E8FFC4
:1038900021000A4B08311868FFF7E2FF2100084BAE
:1038A00010311868FFF7DCFF2100064B183118684B
:1038B000FFF7D6FF202010BD0CA0800040A08000A4
:1038C00044A0800048A0800008B4024B9C461038F9
:1038D00008BC60478538000070473F20704713B52B
:1038E0006B460268D9710733546819000122A0475A
:1038F00016BD000070B50A260B7892B06E440233F4
:1039000005000B703C220021300001F0E0FA39483C
:1039100001AC06903848242107900620207768469D
:10392000364AA1742281364A364BA281FD3AFF3ACB
:103930008018C177684623390630C177684607305A
:10394000C17702A8C1770720F277032608316944BE
:10395000C87703A9CE7710212B366E443170092623
:1039600021851F3169440E700CA9053E0E7033216C
:103970002380022369440B7006360DA90E7022497C
:103980003536A1863B216E44307010A86274E27710
:1039900002703D3269446A440B701370402100226A
:1039A000E37023716371A37341336B4421871970F2
:1039B0005A702B7DC039A370A37263770133DBB2D9
:1039C000A3776A7D0B200D0068441543C57731202D
:1039D000684403703A23501C6B4418704123023230
:1039E0000A436B441A7021004222084800F050FF3D
:1039F00012B070BD10010424020605240904000061
:103A000001020000080B0000070500003C05002033
:103A100008B4024B9C46103808BC6047F5380000DB
:103A200070B5027D0B790C0000259A420BD10B7802
:103A30004E78A12B09D1212E05D107221F492048FC
:103A400000F026FF0135280070BD212BFBD1202E70
:103A50002BD1072219491A4800F05CFE174B1A783F
:103A60005978090211439A7812041143DA78120640
:103A70000A439621C9008A421DD1DB79DB071AD49B
:103A8000FA20FFF761FB00210D4801F00DF8012538
:103A9000232ED8D1E378A2781B021343094A0021D0
:103AA0000748136001F000F8CDE7222EEFD18A78A5
:103AB000024BDA71D2E7FFF751FBE4E71400002074
:103AC0003C0500201000002008B4024B9C46103832
:103AD00008BC6047213A000010B5417D006A013101
:103AE00000F050FD034B1B6801335A1E9341181818
:103AF00010BDC0461C00002010B5417D006A023197
:103B000000F056FD10BD10B5417D006A023100F095
:103B10001DFD10BD70B50D00417D04001300023184
:103B20002A00006A00F00AFE002801D10123636028
:103B300070BD000010B5054C23685A1C04D1036801
:103B40005B69984703002060180010BD1C0000202E
:103B5000074A0300106810B5411C03D001235B42E3
:103B6000136010BD597D186A013100F097FDF8E728
:103B70001C0000207047002070470000FA239B00C3
:103B800010B583600F4B0022C3820300283383618A
:103B90000D4B04004260C2611800443323610830B9
:103BA000631D21622060DA778323A362813BE36295
:103BB0008033236300F0AEF82100103100F07EF86E
:103BC000200010BD03020000D0550000022110B5F6
:103BD000094B1A68437D5B01D318FF339C7A21435C
:103BE0009972437D0133DBB25B01D3180122FF33AD
:103BF000997A0A439A7210BDF409002070470000B8
:103C000010B502490248FFF7B9FF10BD3C0500207E
:103C1000D404002070B50E0000254468002C0BD0A1
:103C2000236831005B6820009847002802DB2D18CC
:103C3000E468F3E701256D42280070BD70B50D0002
:103C40004468002C08D0236829009B68200098470E
:103C5000002802D1E468F4E7200070BD70B50D00C3
:103C600000264468002C09D02368290020001B6925
:103C7000984736182D18F6B2E468F3E730002C7038
:103C800070BD70B50D004468002C08D02368290071
:103C90001B6820009847002802D1E468F4E7200060
:103CA00070BD70B50D004468002C06D0236820005C
:103CB000DB6829009847E468F6E770BDF0B58C79B9
:103CC000457803002A190020072A1FDC5A6882421F
:103CD00016D159601A78C8790A7112184D711A7084
:103CE00000220B4DD0B284420FD98F6858789600CD
:103CF000F75986000130775101325870F2E702001F
:103D0000D0680028FBD1D160E4E70120F0BDC046B7
:103D1000140500200121064A10B5136805480B4020
:103D200004D18024640004804360116010BDC0464B
:103D3000080500200C050020704710B5040000F0B5
:103D4000CFFF200010BD0000F0B5822919D1C3B209
:103D5000294D5A01AA189169284C80010C40C021B4
:103D6000890521439161264908334018702150612B
:103D700028685B011A5C8A43110030220A431A54F6
:103D8000F0BD0029FCD1C026C1B21B4C4B01E31889
:103D90009A681A4DB6052A4032439A60194A800142
:103DA00082185A600A000727246808325201115D00
:103DB000B9430F000121394311559F6910493D4016
:103DC00040182E439E6158617020115D81430800A8
:103DD00010210143115599680B48A2180840802111
:103DE0004903014399609968890B890399604023CD
:103DF00011790B431371C3E7F4090020FFFFFF8F14
:103E00006805002028070020FF3F00F0EFF3108333
:103E100003600123436072B670470368002B02D130
:103E200062B6BFF36F8F7047F7B50600FC36B36913
:103E30000400002B18D1B2277F00C55D6846FFF74C
:103E4000E5FF019BEDB2013B02D3E55DEDB2FAE780
:103E500068460193FFF7E1FF002D01D10020FEBD70
:103E6000706E336EC01AFAE76846FFF7CFFFD822AC
:103E70000025019B5200013B02D3A55CEDB2FAE79D
:103E800068460193FFF7C9FF002DE7D0D6235B00FA
:103E9000E058043BE358E5E710B54468FC3043695B
:103EA0000B48DBB25A01A218916808330840802100
:103EB00049030143916091685B01890B890391601B
:103EC0002268D318402219790A431A7110BDC046DE
:103ED000FF3F00F0F7B50500FC356B694268DBB2C7
:103EE000190004000831106849014118C979C9074F
:103EF00011D55B01D21893689B049B0C0CD1200058
:103F0000FFF7CAFF63681A686B69DBB208335B01AD
:103F1000D3187F22DA71F7BDE969002923D16B66D6
:103F2000230001266933FF33EE6168465360B227F0
:103F3000FFF76CFF7F00B221019BFF31013B5A1C50
:103F400038D0D822E6555200A25C581ED2B2625434
:103F5000625C8446002A04D120000193FFF79CFF95
:103F6000E9E76346EBE7D621490063500023EB61A4
:103F700023001D33FF3353606846D826FFF746FF02
:103F800001277600B221019BFF31013B5A1C11D061
:103F9000B222A7555200A25C581ED2B26254625C93
:103FA0008446002A04D120000193FFF775FFE9E75A
:103FB0006346EBE768460193FFF72FFFA2E7F7B5EB
:103FC000060068463400FFF721FF0027FF22019B0F
:103FD000FC34013B0DD3E0682169884204DBE768CB
:103FE0002069D71B3F18F4E72769E1687F1A013F72
:103FF000EFE768460193FFF710FFA3696846002BBF
:1040000052D1FFF703FFB221019B4900013B5A1C2B
:104010000CD0755C5A1EEDB2002D05D16846019397
:10402000FFF7FBFE2800FEBD1300F0E76846019392
:104030000025FFF7F2FEFF22236EBD4214D0616E11
:10404000994211D9591CF3182166FF33587FE36850
:1040500021690133C0B213408B4203D0E16871186B
:104060000872E3600135E7E7626E9A42DAD1002315
:1040700023660133A3616846B224FFF7C7FE6400DC
:10408000B2220021019BFF32013B581CC6D03155A2
:10409000B05C5F1E002805D0B15430000193FFF7DB
:1040A000FBFEEDE73B00F0E7FFF7B0FED821019BF8
:1040B0004900013B5A1C06D0755C5A1EEDB2002D1A
:1040C000ACD01300F6E768460193FFF7A6FED623AF
:1040D000D4225B0000259C465200B358BD4203D059
:1040E00061467158994220D86246B2589A4299D195
:1040F000D42200235200B3506846A361D824FFF7AE
:1041000085FE6400B2220021019BFF32013B581C56
:1041100000D183E73155B05C5F1E002819D0B1543F
:1041200030000193FFF7B8FEECE7591CB150FF21B6
:10413000F3186933FF331878E368C0B201330B40DA
:1041400021698B4203D0E16871180872E360013580
:10415000C3E73B00DBE710B50400FFF730FF2300A7
:10416000FC331969DA68914203D01B69E418207A9C
:1041700010BD01204042FBE710B50400FC34FFF7FE
:104180001EFFE0682369C01A01D50130FF3010BD61
:10419000F0B585B0019200910500FFF710FF02A86D
:1041A000FFF734FE01200024FF26039B40425A1EE5
:1041B000531C1FD02B00FC3301998C4218D2D968B4
:1041C0001F69C91B01D50131FF31002910D01969C0
:1041D000DF688C460100BC4506D019691F69691863
:1041E00001373740097A1F61009F39550134E3E7F1
:1041F000013ADDE702A80392FFF70FFE200005B0A9
:10420000F0BD37B56B46DC1D00230D002370FFF7B2
:1042100081FD2100FFF7FEFC2B681818286020782C
:104220003EBD00002023F7B5414A0500D1690F20AB
:104230000B43D36101223F490B7813430B703E4B74
:1042400019788143197006211C78214319703B4964
:104250000C7822430A701A7802401A70602219788A
:104260000A431A70364B374A5A805F78FF09FCD1EF
:104270003548FEF777FB0123344C354E2268300079
:1042800011780B43137080223900520000F01FFE9A
:1042900022689378DB07FCD456621F262D4B1B68DF
:1042A000590B980C9B01314030405B0FB14200D15B
:1042B00005211F2800D10238072B00D1043B3140D3
:1042C0008901178D0191244930400F4001993943EC
:1042D0001185118D0700B143080038431085118DF9
:1042E00018031E4B0B407F21034313851378C12015
:1042F0000B40137004232268800011780B430C21BB
:104300001370226813898B43154913810B581B02C4
:104310001B0A0B5080230B6011787E3B0B431370FC
:10432000012300212B700F48FFF768FCF7BDC04642
:1043300000040040584400413C44004159440041BD
:10434000000C004006400000B94C0000F4090020B9
:10435000F8090020246080003FF8FFFFFF8FFFFF77
:1043600000E100E0D40400200078002810D00121F2
:10437000084B1B681A898A431A810822198B0A4341
:104380001A830422198B0A431A830022024B1A60F3
:104390007047C046F4090020EC09002010B50F4A10
:1043A00093699B0B9B03936113680222FF331A727C
:1043B0009879823A02439A711A7A9207FCD57F243F
:1043C000074A2140937A0800A34319008023014340
:1043D0009172917A5B420B43937210BDF4090020F5
:1043E0000050004110B50C00FFF794FC2100FFF7CE
:1043F00048FC002804D1034A93699B0B9B039361FB
:1044000010BDC046F4090020F7B50D00832A19D16C
:10441000CBB2404C5A01A21891693F48AD01084007
:10442000C0218905014391613C4920686D187021C4
:10443000083355615B011A5C8A43110040220A432C
:104440001A54F7BD022A5FD1354B8A00D058002894
:1044500002D003685B699847DA20400000F03CFC1A
:10446000802204002B4E2F4B466003605200002137
:10447000083000F02CFD2200B2210023FC3249005C
:10448000D3605561136113669361D36153666354BE
:10449000443163500431635004316354B221FF311D
:1044A0006354FF202B0003405901019371188F685A
:1044B000194BAD003B40C027BF051F438F60072746
:1044C000019B366808335B01995DB9430F000321F6
:1044D0003943995523005169666801401D334901EC
:1044E000FF3371184B60636852691B6802405201C8
:1044F0009B1801221B18997A20000A439A72FFF731
:10450000CBFC074BEC509CE711002800FFF71CFC8C
:1045100097E7C046F4090020FFFFFF8F68050020E1
:10452000400500203056000070B505000124064B00
:10453000A200D258002A06D0210028000134FFF73B
:1045400063FF0A2CF3D170BD140500200B4BCAB2D7
:104550000B488901C9185301C31859619969083278
:10456000890B89039961036852019A180223D37158
:104570005179823B0B4353717047C0466805002058
:10458000F4090020084B8A00D05810B5002803D049
:1045900003689B68984710BDC9B2044B490159187C
:1045A00088688004800CF6E740050020F4090020AC
:1045B00010B50C00FFF7E6FF00280CD0064BE4B264
:1045C0001B68083464011C19802362795B42134321
:1045D00063710223E37110BDF4090020F0B51C00E3
:1045E0002A4B85B01B6807000D000292002B4AD0B1
:1045F000274B8A00D058002808D0036822005B6847
:10460000029998470400200005B0F0BD3800FFF77C
:10461000B9FF844204D929003800FFF7B3FF040032
:104620000121EBB21B4E03935B010193F2189368D7
:104630009B0B9B039360019A336802989B18FF338E
:104640005A7A0A435A72144BA901C918220000F081
:1046500035FC002CD7D029003800FFF793FF002845
:10466000D1D14021039B326808335B01D3181879FC
:10467000014319710121D971019BD318FF339A7A33
:104680000A439A72BFE701246442BCE7EC090020A8
:1046900040050020F40900202807002013B56B46D0
:1046A000DC1D22000123FFF799FF012801D12078AA
:1046B00016BD01204042FBE770B5CBB2124A134849
:1046C0005C0189018918021951609168104D083305
:1046D0000D40802149032943402591609168890B51
:1046E0008903916001685A018A181679354315715A
:1046F00095796D06FCD55B01C918CB79DB07FCD534
:1047000000198068C0B270BD28070020F40900209D
:10471000FF3F00F070B50D0000211400FFF7CCFF43
:10472000A04200D9200000230349A34203D0CA5C61
:10473000EA540133F9E770BD28070020F0B51E00E8
:104740003A4B85B01B680F000192002B35D08023B7
:10475000DB019E4231D80025354B8A01D3180293E4
:10476000002E2CD0334B1B680393FF233B401C00CF
:1047700000930834039B64011C19A379DB0921D041
:104780002D4B2E49186800F0B9FA2D4B17215843CC
:1047900000F0B4FA2B4BE279920713D4DA5D002AC9
:1047A00001D10138F7D20122DA55009B5A01214B81
:1047B0009B189A69920B92039A6101256D42280019
:1047C00005B0F0BD00221F4B3400DA553F2E09D949
:1047D000009B40245A01174B9B18802299691206AE
:1047E0000A439A6122000199029800F067FB009B3E
:1047F000A1045A010F4B890C9B18029A2D195A617A
:104800009A69361B920B92030A439A61009B039AA2
:1048100008335B01D3180222DA715979823A0A43CC
:104820005A71019B1B1901939AE7C046EC090020BD
:1048300068050020F40900200000002040420F001D
:10484000701101005D05002070B50D001C000D4BBE
:10485000AE01F61811003000220000F02FFBEDB27F
:1048600009496D014D196E61AB69084A200013407A
:10487000AB61AB69A2049B0B920C9B031343AB612E
:1048800070BDC04668050020F4090020FF3F00F01D
:10489000F7B5104B01901B780F001500002B0CD1C1
:1048A0000D4B16001C78002C09D00C4E0C48348897
:1048B0002018641900F002FB34802800FEBD002E91
:1048C000FBD03A19330000210198FFF7BDFF2418EF
:1048D000361AF4E7E8080020E9090020EA09002078
:1048E000E9080020F8B50F0016000024012A26D997
:1048F000100000F0BDFA0500380000F0ABFB032308
:1049000002220130400028706B7096420DD9397830
:1049100000290AD0531CDBB20137A9549E4203D0B0
:104920000232EC54D2B2F0E7320029000548FFF71A
:10493000AFFF441EA041C4B2280000F0A3FA20003B
:10494000F8BDC0463C050020F0B50024012685B026
:10495000184B0F0069461E7005000094FFF751FCCC
:10496000154B01A90B806A3BFF3BCB715A330B728D
:10497000009B8C7109334B800E4B4E7108711C707B
:104980003A00092F0FD00D4F09223E700C4E28001F
:1049900000943480FFF77CFF69462800FFF731FC64
:1049A000328808493C702800FFF772FF012005B0EB
:1049B000F0BDC046E808002009020000E909002017
:1049C000EA090020E908002070B5CE7892B0050011
:1049D0000C00022E0BD18B79C9792E48090219439C
:1049E000FFF7B2FF411E8841C0B212B070BDFFF7A1
:1049F00091F92100FFF722F9002803D0C117081A06
:104A0000C00FF2E7012E0ED1E279A37912021A4308
:104A10002149112A3CD8D2B2002A39D02800FFF708
:104A200037FF0120E1E7032EDFD1A378002B28D048
:104A3000022B08D1E279A379120218491A432800FF
:104A4000FFF750FFD1E7012B05D1E279A3791202DC
:104A50001A431349F3E7032BC7D10100412201A8F0
:104A600000F035FAFFF756F901A9FFF7F7F800282B
:104A700005D0E279A37912021A4301A9DFE703788E
:104A8000FFDEE279A37912021A430649032AC2D94A
:104A90000A78C3E73C0500206C5600004C56000025
:104AA000605600005C560000CBB204495B01C91897
:104AB0008B699B0B9B038B617047C046F4090020F8
:104AC00037B5050048780C000B2810D800F00CF919
:104AD000061B0F2B0F404561494C5A5D097801AA0E
:104AE000002906D1022311802800FFF7ADFE012026
:104AF0003EBD00231380284B1B78012B00D113707F
:104B000002230021F0E78A780023012A03D101AAB9
:104B10001380224BF0E7204A1370214A93699B0BC4
:104B20009B039361E3E78C78012C06D100211B4B9A
:104B300001AA1C7011702300D6E70120002CD7D1E8
:104B4000154B174A187093699B0B9B039361CFE732
:104B500089782800FFF722FCC9E72800FFF734FF17
:104B6000C6E701230F4ACCE70B780020DB06BFD154
:104B70002800FFF7D9FCA2780A4B0B481A60FFF710
:104B800025F8CAE70123094ABBE78A78074B1A6070
:104B9000C3E70020ACE7C0465C05002064050020A8
:104BA000F4090020EC090020D4040020F0090020C2
:104BB0003B4BF7B51E780500002E5FD1394C2368BA
:104BC0009A8B12070DD5082231009A833000FFF727
:104BD000BBF810222368FF33997A0A439A72324B4A
:104BE0001E6023689A8B520701D504229A83FF33F3
:104BF0001A7A920603D52022597A0A435A721A7AEF
:104C0000D20623D569460800284AC0CAC0C0A26897
:104C1000920B9203A2604022587902435A7160239A
:104C20000A7828001A422AD1FFF74AFF2368FF3387
:104C3000002827D08022997952420A439A711A7A21
:104C4000520603D54022597A0A435A727F2601251B
:104C50002368FF331E722F00236808377F01DB199A
:104C6000DB79002B07D0124BAA00D05800280DD0BA
:104C700003681B6898470135082DECD1F7BDFFF795
:104C8000B1FBD3E720210B4A9171D8E7FFF742F837
:104C90002900FFF706F82368DF19FE71EBE7C0462D
:104CA000E9090020F4090020EC0900202807002071
:104CB00040050020FF50004110B50248FFF778FF83
:104CC00010BDC0463C050020014B024A1A607047E7
:104CD000F40900200050004110B500F0C9F810BDE3
:104CE00010B500F0CFF810BD02B471464908490074
:104CF000095C49008E4402BC7047C046002243084C
:104D00008B4274D303098B425FD3030A8B4244D393
:104D1000030B8B4228D3030C8B420DD3FF220902D5
:104D200012BA030C8B4202D31212090265D0030B94
:104D30008B4219D300E0090AC30B8B4201D3CB038A
:104D4000C01A5241830B8B4201D38B03C01A5241CC
:104D5000430B8B4201D34B03C01A5241030B8B42CE
:104D600001D30B03C01A5241C30A8B4201D3CB02B9
:104D7000C01A5241830A8B4201D38B02C01A52419E
:104D8000430A8B4201D34B02C01A5241030A8B42A1
:104D900001D30B02C01A5241CDD2C3098B4201D3B9
:104DA000CB01C01A524183098B4201D38B01C01A37
:104DB000524143098B4201D34B01C01A52410309AE
:104DC0008B4201D30B01C01A5241C3088B4201D35D
:104DD000CB00C01A524183088B4201D38B00C01A0A
:104DE000524143088B4201D34B00C01A5241411A31
:104DF00000D20146524110467047FFE701B500203E
:104E000000F006F802BDC0460029F7D076E77047EB
:104E10007047C04610B50A22002100F0A5F910BD68
:104E200070B500260C4D0D4C641BA410A64209D190
:104E3000002600F0C9F90A4D0A4C641BA410A642D2
:104E400005D170BDB300EB5898470136EEE7B300CB
:104E5000EB5898470136F2E7F0010020F0010020FE
:104E6000F001002004020020EC30006870470000D0
:104E700010B5034B0100186800F07CF810BDC04667
:104E80002000002010B5034B0100186800F028F83E
:104E900010BDC0462000002082B0002900D101A929
:104EA000101E06D0002B06D013780B601078431E1E
:104EB000984102B0704702204042FAE7002310B543
:104EC0009A4200D110BDCC5CC4540133F8E7030012
:104ED0001218934200D1704719700133F9E70000AE
:104EE00070B50500002910D00C1F2368002B00DAD4
:104EF000E418280000F058F91D4A1368002B05D16A
:104F000063601460280000F050F970BDA34209D915
:104F1000216860188342F3D118685B6841182160EA
:104F2000EEE713005A68002A01D0A242F9D91968A5
:104F30005818A0420BD120680918581819608242ED
:104F4000E0D110685268411819605A60DAE7A0424F
:104F500002D90C232B60D5E721686018824203D167
:104F6000106852684118216062605C60CAE7C04600
:104F7000F80A0020032370B5CD1C9D4308350600B8
:104F80000C2D1ED20C25A9421DD8300000F00CF9C2
:104F9000254A14682100002919D1244C2368002BCC
:104FA00003D1300000F044F820602900300000F008
:104FB0003FF8431C2BD10C233000336000F0F5F890
:104FC00003E0002DDFDA0C233360002070BD0B6896
:104FD0005B1B19D40B2B03D90B60CC18256003E0A5
:104FE0004B688C420DD11360300000F0DEF82000D9
:104FF00007220B30231D9043C31AE7D05A42E250D8
:10500000E4E763600C00EFE70C004968C3E70323A3
:10501000C41C9C43A042E1D0211A300000F008F8E3
:10502000431CDBD1C7E7C046F80A0020FC0A002079
:10503000002370B5064C05000800236000F0B6F8A8
:10504000431C03D12368002B00D02B6070BDC046E9
:10505000040B00200023C25C0133002AFBD1581E40
:1050600070470000F0B51F000E0087B00590019159
:1050700002920C983478FFF7F7FE08220019437863
:10508000751C134036D12D2C36D1B51C74780126F1
:10509000002F62D0102F09D1302C07D120222B787D
:1050A0009343582B54D110276C7802352D4B39007F
:1050B000F31818000393FFF7A7FE049101210023C2
:1050C000494202008C4618002100303909291AD8BB
:1050D0000C00A74223DD591C09D06346824206D347
:1050E00002D10499A14202DB0123784320182C78D5
:1050F0000135E9E72E00BCE72B2C01D01E00C7E7E5
:10510000B51C7478FAE721004139192901D8373CD8
:10511000DFE721006139192901D8573CD9E75A1C2A
:1051200008D1059A23331360029B0398002B09D101
:1051300007B0F0BD002E00D04042029A002AF7D0FE
:10514000002B01D06B1E0193029B019A1A60EFE7BE
:105150003024002FAAD10827A8E7302C9ED00A2798
:10516000A4E7C046FFFFFF7F37B51300064A0500DE
:105170001068046A002C00D1044C0A000094290035
:10518000FFF770FF3EBDC0462000002084000020D5
:105190000B1E04D0FF2A04D98A2303608B3B18001E
:1051A00070470A700123FAE770477047044A136892
:1051B000002B00D1034B1818106018007047C04630
:1051C000000B0020080B0020F8B5C046F8BC08BC56
:1051D0009E467047F8B5C046F8BC08BC9E4670476E
:1051E00043757272656E7420746573742074696D92
:1051F0006520696E207365636F6E64732000564D81
:105200004450565F317C315F564D4450560A00562B
:105210004D4450525F00564D4450435F005F564D21
:10522000445043005F564D44504500564D44504550
:105230005F003A323A000000000000001600000053
:10524000080000001C000000FF000004000406002D
:105250000000000017000000080000001C00000013
:10526000FF00010401040700000000000A00000024
:10527000080000001C000000120000010001FF00F7
:10528000000000000B000000080000001C000000EF
:10529000130001010101FF00010000000A000000ED
:1052A000080000001C000000FF00000500050A00C7
:1052B000010000000B000000080000001C000000BE
:1052C000FF00010501050B000000000014000000B4
:1052D000080000002C000000FF0002000200040093
:1052E0000000000015000000080000002C00000075
:1052F000FF00030003000500000000001000000094
:10530000020000001C000000FF000002000200007C
:105310000000000011000000020000000400000076
:10532000FF00FFFFFFFF010000000000130000006E
:10533000020000001C000000FF0001030103FF0049
:105340000000000008000000030000001C00000036
:105350001000000000001000000000000900000024
:1053600003000000040000001100FFFFFFFFFF002A
:10537000010000001700000003000000040000000E
:10538000FF00FFFFFFFFFF0001000000160000000C
:105390000300000004000000FF00FFFFFFFFFF000C
:1053A00000000000020000000100000006000000F4
:1053B0000000FFFFFFFFFF000100000002000000EF
:1053C00001000000040000000A00FFFFFFFF0200D0
:1053D00001000000030000000100000004000000C4
:1053E0000B00FFFFFFFF03000000000004000000AF
:1053F000010000001C000000040000000000FF008D
:105400000000000005000000010000001C0000007A
:10541000050001000100FF00000000000600000080
:1054200001000000040000000600FFFFFFFFFF0076
:105430000000000007000000010000000400000060
:105440000700FFFFFFFFFF00000000001800000042
:105450000600000000000000FF00FFFFFFFFFF004C
:10546000000000001900000006000000000000001D
:10547000FF00FFFFFFFFFF00000000001200000020
:105480000800000004000000FF00FFFFFFFFFF0016
:1054900000000000030000000800000004000000FD
:1054A000FF00FFFFFFFFFF00000000000C000000F6
:1054B0000300000000000000FF00FFFFFFFFFF00EF
:1054C000000000000D0000000300000000000000CC
:1054D000FF00FFFFFFFFFF00000000000E000000C4
:1054E0000800000000000000FF00FFFFFFFFFF00BA
:1054F000000000000F00000003000000000000009A
:10550000FF00FFFFFFFFFF00000000001B00000086
:105510000800000000000000FF00FFFFFFFFFF0089
:10552000000000001C000000080000000000000057
:10553000FF00FFFFFFFFFF00010000000800000068
:105540000800000000000000FF00FFFFFFFFFF0059
:105550000100000009000000080000000000000039
:10556000FF00FFFFFFFF0900000000000000000037
:105570000800000000000000FF00FFFFFFFFFF0029
:105580000000000001000000080000000000000012
:10559000FF00FFFFFFFFFF000D0A000000000000FA
:1055A000000000005D370000F12F0000833600008E
:1055B0003F36000059360000113800002134000049
:1055C00011340000A53400003B3400000D3400000D
:1055D0000000000000000000DF380000153B000064
:1055E000DB380000F93A0000D93A0000513B0000D6
:1055F000353B0000073B0000F53800005D38000037
:10560000213A000085380000D9380000F0FFFFFF84
:1056100000000000C93A0000113A0000773B00008A
:10562000753B0000C93800000000000000000000C9
:10563000D53E000091410000794100005741000033
:10564000393D00003B3D0000293E00004172647579
:10565000696E6F204D4B5231303030000403090425
:1056600041726475696E6F204C4C43001201000258
:10567000EF02014041234E80000101020301504F1F
:10568000534958002E0000202020202020202020D8
:1056900028282828282020202020202020202020E2
:1056A0002020202020202088101010101010101012
:1056B0001010101010101004040404040404040456
:1056C00004101010101010104141414141410101DE
:1056D00001010101010101010101010101010101BA
:1056E00001011010101010104242424242420202C8
:1056F000020202020202020202020202020202028A
:105700000202101010102000000000000000000035
:105710000000000000000000000000000000000089
:105720000000000000000000000000000000000079
:105730000000000000000000000000000000000069
:105740000000000000000000000000000000000059
:105750000000000000000000000000000000000049
:105760000000000000000000000000000000000039
:105770000000000000000000000000000000000029
:0C5780000000000000000000000000001D
:10578C0040420F000A0000000A000000FFFFFFFF6C
:10579C00FFFFFFFF00C2010000000800FFFFFFFF3A
:1057AC0024000020000000000000000000000000A9
:1057BC0000000000000000000000000000000000DD
:1057CC0000000000000000000000000000000000CD
:1057DC0000000000000000000000000000000000BD
:1057EC0000000000000000000000000000000000AD
:1057FC00000000000000000000000000000000009D
:10580C000000000043000000000000000000000049
:10581C00000000000000000000000000000000007C
:10582C000000000043000000000000000000000029
:10583C00000000000000000000000000000000005C
:10584C000000000043000000000000000000000009
:10585C00000000000000000000000000000000003C
:10586C0000000000430000000000000000000000E9
:10587C00000000000000000000000000000000001C
:10588C0000000000430000000000000000000000C9
:10589C0000000000000000000000000000000000FC
:1058AC0000000000430000000000000000000000A9
:1058BC0000000000000000000000000000000000DC
:1058CC000000000043000000000000000000000089
:1058DC0000000000000000000000000000000000BC
:1058EC000000000091510000994E000000000000E3
:1058FC0086560000845600009A5500009A55000008
:10590C009A5500009A5500009A5500009A550000CF
:10591C009A5500009A5500009A550000FFFFFFFFB2
:10592C00FFFFFFFFFFFFFFFFFFFF000001004153E0
:10593C004349490000000000000000000000000086
:10594C0000000000000000000000000000004153B7
:10595C004349490000000000000000000000000066
:10596C00000000000000000000000000000000002B
:10597C00DD200000FD26000069280000013C00002D
:10598C00C94C0000B5200000000000000000000021
:0400000300002901CF
�  
  �                                          	  M  �L#x +�K +�H � �##p�\       �  �K +�HI � �Hh +�K + ИG��F    �  `   X       JKx )	�Ix	xAɲp� I@�ax1ɲpx�)�x	)	�Ix@B��px	xAɲpxx�Bр"KR�apGx           D A��i���h$�C`�i#B��h#C`h����i#B���i�@B��KC`�iZ���#�C`���i���h"C`�  @~����pG  ~#Q��B�B�B��@B�B��B�K"p ���pG�Fy   p�h��!�2B&Ѐ ���r#Sp@!K�qPq^hM� .@�C^`^i5@(CXaH`Ha]hH(@�%�(CX`Xh��X` #Qq#q�z��  ��� yp��  �����     �? � #qCqK`�`x"CppG�F�  8�6K !�i 
C�a4K$xCp2K"x�Cpx!Cp/Ix Cpx
@px`!
Cp+K+JZ�ZxR� *��)K!x
Cp�x���&HhQ"@�B �!@��"I)@!C�h�
@* �"�!
@�C"C�h!�
@�B �"
@�J@
C�x"
@px!H
CpXb�!�C��!�C� !�"�F�8�  @XD A<D AYD A  @@   P A$`� ?��������  ��J_��Xi'@ @03�@��"Yh
CZ`	�/{�AK��8"���H5BaRi����
CZaYiJ
@Zak�"�qYy�"RB
CZqk��y��� ���    �? ���N3x +�KJdZl��ZdXlJ@Zd�#[ �\@ C�T#3pH'�7�]#@�KZl���B�\l��"I��#�U #3p � ��z   �  �   �? ��0�y " ) �"C�qpG  K�0Zi��Za#r�y�#[BC�qz���pG�F�  �#[BCɲ�rpGp��#"[ �TKJ\l�!@�CF%\d�5@$DUM0&d�%m FU]k@)C�%Ycm �!AU	Mc�%m DU\o"@Zg�#[ �Tp��F�  �����   X  K[x[� +��pG  @K�h���pG�F  @��*K"Yh�C"CY`'K(I����
C���h'#L;B��#M#�`����"Kk`�����#�k��������"�C������K�b������JC��������C���h��K�hZ�� $�����`����Kk`����KJ�!Z`J	j  
Cb"�``���F @ A  @    @ ��}
    � ��   � ����
���������JH8��B�JK�B�
�
L�B�� #��B���X3
`�� ���B�� !�����    \   �  \   �  8�0Kh2!�.J`ٲ )�,Jx"@+J
�h+I�B�`�`)I9 )��`"h����"�C%J�`K[hG��:�b� �� �O� K�"R�`KJZ`J�!j	  
Cb "�`"`�h �GK (�"px *�   �� ����x +�� ��� (��  �~� ������F      8 @�  5�sH�  � � D A� ��  {   ����� �����KL#`��n� !h��\� � P A  p��� ��@ jF#0Sppv#�:xZ  )�(iF #����@�p��B��hF�R3��  ���Jhx�I'�7 8rpSx�H�Np�x3��x3�	C3�y�K�Qy�	C��y�I��y�C
�@"zq�O:x�O8xC�H�FbE ��� ܀!I �B �n�	܁* ђ�* ѕ�* �d��#[ �B ��� �X��#� �B �W�K�B �O�R�#�Bi���#� �B"Ј#�BiР#� �B �@� ����1�(h������;�K�B �/� �1�K�B ��K�B �)�3�kq"�3�
+��"(h�B�
���~I�3�
+��C"(h�B�
���yI�3�
+ ��3�۲+� +�+ ���
�(hҲpI�"�oI �5�;�"(h�B�:������
�(hiIҲ�����3� +q���� ������)�"��aI #�(h"��^I "
��P"@\Jp� 0@��( ���x�3[��y *Л ����(h"���"�CNJɲp�!@�1� ) У�� ) џ��) ٛ�x�3[� *� "Zq��!Yq���#�C<KҲp�"
@�2� * Ѐ�� * �|��* �x�x +��3[��y�j�� "3[�q�3[��y_]��@"3[��q�"3[���3[��y�J��"3[�q�3[��y�=�� "3[��q�"3[�q0��F�   }   �   �   �   �       !   �!  !"  �     �  �  �  ~   |   �"(h�B�
���I #���� ����� !�������FH   �K"��h��	� ��F  �KlF4h!"��C� x��F  �L ���  �B�"hH#�3�\#@�  �Jh#"���� �  p�L 
���� #�B� h1*���p�  ��L ���� #'4�B
� ,�)"8h����$-��3���F  ��GKd"���F�   (�KJ`Kp� (�JK`pG�  0  �   |  0�
I��	x )*�*� h�*� � � xR ��;��B�!@	)�0%)C �71p 	;���0#px#Kp
 ��p
 �pK2h�h�I	h�h�����0��F�   �  r����J`h���ChGpG�F�  K� *��:���K� *��:���pG�F�   �   𵑰��J1�1�Q�Q�`�`��K�H�hz%RR� RX�I`�h��bC`�I $
`�J`�L%p�L�M#h(i@!�G (��Kd"��K "`�K`�K�M�O`*h;h�B�ҼKhx�* ��#* ���N3x +бK�Ih"�h��-��KxS+<�;h*h�BٮH2*`��Khh1`�N�B�2` �3`�H2h h� ���3h)hZ*`�Jh�`�Jp+h;+`�Kh:`�K�Jxh�B
�"h�H� h�i�G (ВKd"��F��R+
ъH�J#h hh[i��Gd"�K
�O+фK�Jhhpx�H+рK�Jhh�p�W+�|K�Jhh`h�o+�xK!h�h+�uK~Hh!�`����W�w+�oKyHh!h`��G+�uKh��	�wKh���b�uKx + �>�fK hh�G8�T+�#3paKhd�N+�3x +�]KcIh"�h���� #3p"�V+W�#hdI�h"��y�#hbI�h"��s�aM#h)�h"��l�#h^I�h
"��f�#h)�h"��`�KOLMXI #9`+`:(h^`x� +�h3`��>N*h3h�h��G�3hJI�h"��A��)`JI9`:JhX`x +�7Kh2`��3h*h�h��,�3h�h3I"��3JX+�$N&M6hh*h� �B
�MX�a8H(�M(}���[�� K4Ih�h��Y+y�hK1I *�h`l�MhhkhN�%�C�s` *a�*KM+�N3}��� #
M-h���B�$MN5�F�B�Н FY3NQ��   @ AD  <  8  �  4  �  H  �   ,  0  @  �   p  �  �  (  �   �  �   L  u  N  �  P  \  ���e  �   D������?N5}��՝ I@���<K<Ih�h.�Z+/�:Khh &��B�(x1 ��5��1K4Ih"�h��y�#"2@6	01	* �1 �jF�T;��#h��h"��d�#h'I�h"��^�%Kz"p%K "`$Kx�B-�K#Ih"�h��M�%�09ȲK	(�h*C`�A9)�h7:1�a9)�hW:
C�,*�
Jh`�I
p "`
Kh2`Kh2�� @ A�  i  �  m  o  4  �  �   s  @  0  �K x$CpK"x�Cpx!CpIx Cpx
@px !
CpK!j
CbKJZ�ZxR� *���"HI���`�J #pJpJpJpJpJp�JD A5D AKD A  @  @@    B*�  �  #  �  �  $  !  ���H��_� ��F  BK~@�pG�F  B����� (��H��P���F  B����� #�B�����#;ZBSA�p�
F�B� x����4��(p������ p �
X@K@ �Z	H@��pG�F�  �� $&�B �����K��x� +�1����
K� *�Jx* )��j)p�/��9�4����0 � ��!  �  "  �>N�� "�2p<K�B�"�:I�p#BЀ4�C��~�3x�� +� %5p��v�3x���B6�C(�q(S�(��# � ��U� ���R� ��%�C����L�� '�$J� +�!I�	x )����=�9���y�= -�� 
����1�����.���>�3x +
�5p��;	x���3�����(� ��3۲�1 ��<� ,�� ������K%p � %(��!  "  �  �8L�� #�#p�B�#�4J�4Jd&pC ����2O���� (� /�?�� /�> .��M�%����#x +8����(�(=� ����9��!0�����!���#x� +�����������#x?��+
���B�3x�B��Crx۲�B� ���� #� �����"x *� &&p�+��k�2ݲ���J #p&0��!  �  "   5 � #�B��\�T3�����B�p3��pG #�\3 *��XpG���F����FpG���F����FpG	Arduino LLC Arduino MKR1000    @A#N               @   �            �  �  �  �    �  �  v   Apr 11 2019 13:09:51 X

 Y

 Z #

 > 2.0    %  A  ]  �  �  �  �  [Arduino:XYZ]   !B c0�@�P�`�p�)�J�k���������1s2R"�R�B�r�b9��{�Z��Ӝ�����b$C4 �d�t�D�Tj�K�(�	������ō�S6r&0�v�f�V�F[�z��8�����׼��H�X�h�x@a(#8���َ��H�i�
�+��Z�J�z�jqP
3:*���˿���y�X�;���l�|�L�\",<`A�������*��h�I��~�n�^�N>2.Qp���������:�Y�x�����ʱ��-�N�o�� �0� P%@Fpg`������ڳ=���^���"�25BRwbVr�˥����n�O�,�
��4�$��ftGd$TDۧ������_�~��<��&�6��WfvvF4VL�m��/�ș鉊���DXeHx'h���8�(}�\�?����؛����uJTZ7jz�
��*�:.��l�Mͪ����ɍ&|ld\EL�<�,���>�]�|ߛ���ُ��n6~UNt^�.�>��        	C  �2	    $ $ $ $ � �	 
   �@  @    �    i   A       