:1020000000800020D55D0000BD5D0000BD5D0000CA
:1020100000000000000000000000000000000000C0
:10202000000000000000000000000000BD5D000096
:102030000000000000000000BD5D0000295E0000FF
:10204000BD5D0000BD5D0000BD5D0000BD5D000028
:10205000BD5D0000BD5D0000BD5D0000C15D000014
:10206000BD5D0000BD5D0000BD5D0000BD5D000008
:10207000BD5D0000BD5D00002D5D0000BD5D000088
:10208000BD5D0000BD5D0000012C0000B52B00000F
:10209000D52B0000BD5D0000BD5D0000BD5D0000F2
:1020A000BD5D0000BD5D0000BD5D0000BD5D0000C8
:1020B0000000000010B5064C2378002B07D1054B1B
:1020C000002B02D0044800E000BF0123237010BDA4
:1020D000A00200200000000070160100044B10B5A3
:1020E000002B03D00349044800E000BF10BDC046E8
:1020F00000000000A40200207016010010B50400CA
:102100006068002804D04368636004F08DFAF7E744
:10211000200010BD10B504004068002801D00AF06E
:10212000B7FD200010BD0A21435E0200181E01D039
:102130001B01D018704710B50023884207D0984281
:1021400007D00133002902D00BF032FB0300180046
:1021500010BD01235B42FAE770B50D00041E09D0E3
:10216000C1682800FFF7E7FF002803D02000FFF731
:10217000DAFFF3E7200070BD03000020834208D09F
:102180001A7A7F30824310000C22024301201A7217
:10219000196070474A688B681032934202D200235C
:1021A00018007047103B8B60002BF8D04268002A63
:1021B00008D0991A09115181002243605A811A727C
:1021C000DA60EDE70360F7E770B528C90400181E70
:1021D00002D02900FFF7DEFF20606560200070BD9F
:1021E00070B505000E1E15D00468002C04D0200028
:1021F000FFF799FF86420ED13000FFF794FF002CC5
:102200000BD0031E02D0031B1B111BB263810028DD
:1022100000D16C6070BD0400E7E72860F7E70000BC
:102220001FB50122094B010001A81A7004F079FFC3
:10223000074901A804F0F1FF0100064804F0A7FFD8
:1022400001A804F0C3FE05B000BDC0466005002033
:1022500060160100CC03002010B501210F2004F00E
:10226000C9F830490F2003F0DBFF0121122004F0F0
:10227000C1F80021122003F0D3FF0121132004F044
:10228000B9F80021132003F0CBFF0121002004F056
:10229000B1F80121002004F0F9F80121080004F050
:1022A000A9F80021012004F0F1F80121022004F036
:1022B000A1F80021022004F0E9F80021032004F035
:1022C00099F80121042004F095F80121052004F07B
:1022D00091F80121062004F08DF80121072004F077
:1022E00089F80121102004F085F80121082004F06C
:1022F00081F80121092004F07DF800210A2004F072
:1023000079F800210B2004F075F800210C2004F06E
:1023100071F800210D2004F06DF800210E2004F06A
:1023200069F810BDFF030000F7B5154C0700200049
:1023300002F032FE00266B4620255E711E71019A66
:102340002000104902F050FE3100072004F09EF8F2
:102350002B00013BFDD140212000394302F074FEE7
:102360003100200002F070FE0600013DFDD1012188
:10237000072004F08BF8200002F052FE3000FEBD72
:102380007005002008E43B0010B50120FFF7CCFFEA
:102390000323184010BD000010B5FFF7F5FF01380A
:1023A000C0B2022803D8034B8000C05810BD0248B9
:1023B000FCE7C0462005010079AE0B444006C00F83
:1023C00070478006C00F7047F7B5154C0700200016
:1023D00000250E0002F0E0FD6B465D711D71019A53
:1023E0002000104902F000FE29000720203504F0EB
:1023F0004DF82B00013BFDD160212000394302F054
:1024000023FE3100200002F01FFE013DFDD101211D
:10241000072004F03BF8200002F002FEF7BDC046A2
:102420007005002008E43B0073B5124D060028003B
:1024300002F0B2FD00246B465C711C71019A280009
:102440000D4902F0D1FD21000720203404F01EF8D0
:102450002300013BFDD13100280002F0F5FD013CD5
:10246000FDD10121072004F011F8280002F0D8FD69
:1024700073BDC0467005002008E43B00F0B500269F
:10248000202785B08020FFF7CFFF1B4D280002F0EA
:1024900083FD02AB5E711E71039A2800174902F09A
:1024A000A3FD3100072003F0F1FF3B00013BFDD10C
:1024B0003021280002F0C8FD3100280002F0C4FDE0
:1024C00031000190280002F0BFFD31000400280017
:1024D00002F0BAFD0600013FFDD10121072003F003
:1024E000D5FF280002F09CFD019B24021804204324
:1024F000304305B0F0BDC0467005002008E43B0045
:1025000003000020002B03D05A1E13400130F9E7CE
:1025100070470000F0B58BB00700FFF73DFF051CCA
:102520000020FFF7EDFF0400FF20FFF7E9FF24186C
:102530007F20FFF7E5FF2318281C029307F07CFD9E
:1025400001903020019B0321584307F087FB0026B0
:102550000390029B9E423CDAFFF790FF040CE4B22A
:1025600005002000FFF72DFFE30917D0002817D141
:102570002000FFF723FF002824D11F23ADB21C4009
:10258000192C01D9144BE4186400E553019B002B6E
:1025900002D0039B013BFDD10136DAE7002811D0C0
:1025A0000E4904A804F05CFD04A907A804F0B9FDD5
:1025B00007A8FFF735FE07A804F008FD04A804F0FB
:1025C00005FDE3E72000FFF7F9FE0028DED004490F
:1025D000E7E70BB0F0BDC046FFFFFF7F2C05010011
:1025E0004D050100F7B504000D00022902DC0024AE
:1025F0002000FEBD08000AF099F90B0080210200BE
:10260000C905002006F008FA060020000F000AF0B5
:102610008DF90022009001911C4B3000390009F027
:10262000EBFD02000B000098019907F0B7FC0028B1
:10263000DDD12300681E0341DAD00AF077F90F00DC
:102640000B00802106000200C905002006F0E4F915
:1026500000900191802132003B000020C90506F066
:10266000DBF90022094B06000F000098019909F0E0
:10267000C3FD0AF025F920400AF058F932003B006A
:1026800009F0BAFD0AF01CF90400B1E70000F03FC0
:1026900070B514001D000600002200232000290050
:1026A00007F062FC002801D0134C144D002204985E
:1026B0000599002307F058FC002803D00022104B96
:1026C0000492059330000AF031F922002B0009F042
:1026D00021FB00220B4B09F01DFB00220D00040022
:1026E00004980599084B09F015FB02000B00200027
:1026F000290008F005FF70BDB81E85EB51B80A40EF
:102700000000F03F00408F400000DE40F0B50500C3
:1027100087B0C08E0C000F0008F096FB0AF072F92B
:102720000022374B08F0ECFED83738607960288FEC
:1027300008F08AFB0AF066F926000022314B08F007
:10274000DFFEE03630607160288E0AF029F9203E05
:1027500030607160688E08F077FB0AF053F9002250
:10276000284B08F0CDFEB060F1601021A88EFFF775
:1027700039FF254B1A00E03211685268D8330291B4
:1027800003921A685B6800920193029A039BFFF719
:102790007FFF00221D4B09F0BDFA00221C4B09F0FF
:1027A0002BFD00221B4B08F0ABFE00221A4B08F059
:1027B0008BFB3061716100267300E85A1021FFF72E
:1027C00011FF10210290288EFFF70CFF2300E03349
:1027D0001A685B6804920593029B181A3A687B6832
:1027E00000920193049A059BFFF752FFF300E31850
:1027F000013618605960182EDED107B0F0BDC04612
:102800000000DE400000A840C002002000408F40D1
:1028100000820441009881400000394010B51E49F3
:10282000041C07F0E1FB00280AD01C49201C08F01A
:10283000DDF81B4907F0D0FD002107F033FC10BD87
:102840001549201C07F0EEFB002816D01549201C66
:1028500007F0D4FB002810D00F49201C08F0C6F860
:102860000AF0D0F8104A114B08F04AFE0022104B33
:1028700008F02AFB0AF018F9E1E7201C0AF0C2F878
:1028800000220C4B09F0B8FC074A0B4B08F038FE4D
:1028900000220A4BECE7C0460080BB440000FA432C
:1028A000000020410010DB44333333333333244002
:1028B0000000594000629B403333254000405F4098
:1028C00070B50022002304000D0007F04DFB002826
:1028D0001CD10022104B2000290007F045FB0028E6
:1028E00016D10E4A0E4B2000290007F03DFB0028B0
:1028F00010D100220B4B2000290009F07DFC0022A2
:10290000094B08F0FDFD0AF0CFF870BD0020FCE790
:102910000648FAE70648F8E70034A7401F85EB5160
:10292000B81ED53F00C8994000002B40000020424F
:10293000000020C2F0B5374D00202B003649D833B7
:10294000186059602B0035493548E03318605960EC
:1029500087B0322003F0ACFA0121080003F096FDA5
:10296000C82003F0A5FA0121072003F08FFD96206F
:1029700003F09EFA0021022003F088FD00210800E8
:1029800003F084FD962003F093FA0121002003F068
:102990007DFDFA20400003F08BFA0024214B224EEB
:1029A000E15CA05D0134FFF70FFD092CF6D1002496
:1029B000375D3800FFF7B8FC1A4B1B5D834214D01B
:1029C0001A49684604F04CFB3900684604F0EFFBF6
:1029D000694603A804F0A5FB03A8FFF721FC03A8A0
:1029E00004F0F4FA684604F0F1FA0134092CDFD15E
:1029F000043C0F4E013C3000FFF78CFD29003000F5
:102A0000FFF784FE0A2003F053FA002CF1D107B03F
:102A1000F0BDC046C00200200000F03F51B80A409F
:102A2000B81E85EB4C000020D7060100BA06010055
:102A3000200500200C4A0D4B0D491A600A004B7806
:102A4000DB09FCD10B4B0C4919605378DB09FCD135
:102A50000A4B0B4919805178C909FCD109491980E1
:102A60005378DB09FCD1704704300000080C0040AB
:102A7000000C0040040C004004070300020C00405E
:102A80001C4400001B440000C3220E4B920010B5F2
:102A90001A800D4A1000D37BDB09FCD180210B4B3F
:102AA0000903196001230A4C21781943217009494F
:102AB0000C7823430B70084B1380C37BDB09FCD1DC
:102AC00010BDC046183000420030004200E100E076
:102AD0000E3000420D30004222060000104A114B19
:102AE00030B51A80104A1000D37BDB09FCD180215D
:102AF000C524FF250D4B49031960A4001959A943AA
:102B0000195101230A4C21781943217009490C7885
:102B100023430B70084B1380C37BDB09FCD130BD12
:102B2000083D0000183400420034004200E100E09B
:102B30000E3400420D34004222050000154B10B542
:102B40001868154907F020FEEA21890507F01CFEE8
:102B5000FE21890507F04AFF08F00CF90F4B104AD7
:102B600080B218801000D37BDB09FCD180210D4B93
:102B7000C902196001230C4C2178194321700B49BB
:102B80000C7823430B700A4B1380C37BDB09FCD109
:102B900010BDC0466400002000007A44182C00429A
:102BA000002C004200E100E00E2C00420D2C0042FF
:102BB00022070000054B9A7BD20705D55B7BDB071C
:102BC00002D50122024B1A707047C0460030004205
:102BD0000E300042074B9A7BD20709D55B7BDB079F
:102BE00006D5054A1368013313600122034B1A709E
:102BF0007047C046003400426C0500200E3400428D
:102C0000064B9A7BD20707D55B7BDB0704D50123F4
:102C1000034A1370034A13707047C046002C0042E9
:102C20005A0500200E2C004270B50123002803D065
:102C300001DB032802DD0023180070BD881A08F0AC
:102C4000B9F80F49051C07F0E3F903230028F3D175
:102C50000021281C07F0DCF9012400280BD00849CA
:102C6000281C07F0CBF9002800D1041CE4B2634211
:102C700063410133E0E70349281C07F0D3F9F2E789
:102C800000002040000020C070B504000D00312A73
:102C900005DC052003F026FC0121012800D10021DC
:102CA000052003F0F3FB032C27D8200006F0C2FF19
:102CB000020C121C0021042003F0E8FB210012206A
:102CC00003F0AEFA200070BD0021042003F0DEFB0B
:102CD0002C00F3E70121042003F0D8FB084B6C1C07
:102CE0009D42EBDD074CE9E700240021042003F0BE
:102CF000CDFBA542E2DD6C1EE0E70024DEE7C04626
:102D0000FE030000FF03000010B50C00002805D0F2
:102D1000012809D1094B99420CDC01342100132010
:102D200003F07EFA200010BD0228F7D1002903DD50
:102D3000013CF3E7024CF1E70024EFE7FE0300005B
:102D4000FF03000010B50400FA20800003F0B0F883
:102D50000021200002F0C6FA0449200002F0F4FA33
:102D6000002802D1200002F0A3FC10BD90A40000B6
:102D7000F0B589B00EAB0E00170006CB1B780091A2
:102D80000192144904000393002504F069F9BD423F
:102D90001CDA210005A804F0C4F900980199EB00A1
:102DA000F3181A685B6808F0B5FF02000B0005A86D
:102DB00004F05DFA039904F044FA0100200004F0E5
:102DC000A0F905A804F002F90135E0E7200009B0F8
:102DD000F0BDC046F8060100F0B587B000930CAB1B
:102DE0001B780E001149040017000193002504F020
:102DF00037F9BD4216DA210003A804F092F9AB00BE
:102E0000F158009B03A8594304F026FA019904F0F5
:102E100018FA0100200004F074F903A804F0D6F8B1
:102E20000135E6E7200007B0F0BDC046F806010016
:102E3000F0B50500002489B00EAB0091019206CBDD
:102E4000029103921F78019B9C4223DA39002800EB
:102E500004F06CFA00220300290005A804F098FA97
:102E600005A804F0E2FA009BE6009E19029A039B73
:102E700008F046FB306071603900280004F056FA13
:102E80000021421C280004F0A7FA05A804F09EF8CF
:102E90000134D8E709B0F0BDF0B5050017000024F3
:102EA00087B001930CAB1E780091BC4220DA310050
:102EB000280004F03BFA00220300290003A804F0D4
:102EC00067FA03A804F0A8FA019906F0C7FE009B70
:102ED000A20098503100280004F028FA0021421C7A
:102EE000280004F079FA03A804F070F80134DCE754
:102EF00007B0F0BD00B5002A0FD1042805D806F0B0
:102F000099FE060E030A08000322100000BD0029E6
:102F1000FBD00122F9E70422F7E70022F5E70222BD
:102F2000F3E710B50068FFF717F910BD70B5066834
:102F300004000D000820002E09D103F06DFB46604F
:102F400005606060A06023680133236070BD03F0FA
:102F500063FB0023A26843600560506023616368DF
:102F6000A060E360EFE770B50C0088B01E000CAB0A
:102F7000050003CB1B78009001910293210005A866
:102F8000FFF7F6FE0C21280002F0DEF90123040011
:102F9000010005AA280002F05DFA0028F2D0210005
:102FA0003000FFF7C3FF05A804F010F808B070BDAB
:102FB00070B586B005000AA81E0008C80078009009
:102FC00003A8FFF709FF0C21280002F0BDF9012337
:102FD0000400010003AA280002F03CFA0028F2D005
:102FE00021003000FFF7A2FF03A803F0EFFF06B0B7
:102FF00070BD03000020834209D01A7A7F308243DB
:10300000002905DB773802431A72196007387047C8
:103010000A20494202431A7219600938F7E7036926
:103020008B4203DD002303614368C36003698B4265
:1030300008DA0268934205DAC26801335268036114
:10304000C260F3E770470000F0B58FB014AB0D001D
:10305000160006CB179C1B78070007932368049182
:103060000592002B26D0189A9A4223DA124908A812
:1030700003F0F6FF20001899FFF7D1FFE168002365
:1030800008AA0968380002F083F908A90BA804F01F
:1030900048F8079B320002932900049B059C0BA86B
:1030A00000930194FFF7C4FE0BA803F08FFF08A85C
:1030B00003F08CFF0FB0F0BDF806010070B50025DD
:1030C00001680400A9420FDD01290FD00239FFF782
:1030D000A6FFE6687068056803F0A6FA002373602F
:1030E0002368A660013B2360280070BD4068056826
:1030F00003F09AFA00236360A360F4E7F0B51600CA
:10310000282289B004AFBA1812783C6BF860BA6014
:10311000FD6A79601800029209F008FC00900191A4
:10312000230032007968F868FFF71DFF23689D428D
:1031300040D16B467B60214BA8009D4201D9012004
:10314000404203F06DFA236862689C4600239C4568
:1031500005DD16689900465052680133F7E76A4664
:10316000AB000A33DB08DB00D31A9D4604A900221A
:103170000B00AE1E04C3002E02DB04C3013EFAE7BF
:103180000023AB4204DA9A00865801338E50F8E7E8
:10319000BB682A000193012300937B6BF868FFF75B
:1031A00007FF2368002B03DD2000FFF787FFF8E708
:1031B0007B689D46BD4605B0F0BDC046FEFFFF1FC3
:1031C000F0B58BB01E0010AB1B78119C03932368E5
:1031D000070002911500002B23D0129A9A4220DAA0
:1031E000114904A803F03CFF12992000FFF717FFD4
:1031F000E168002304AA0968380002F0C9F804A9AC
:1032000007A803F08EFF039B2A0000930299330066
:1032100007A8FFF741FE07A803F0D8FE04A803F0B3
:10322000D5FE0BB0F0BDC046F8060100202210B557
:10323000037A13401A1E02D0FFF773FE020010003B
:1032400010BD10B5002801D0FFF76BFE10BD437B09
:10325000002B06D183685A1C82601B7803730123FC
:103260004373007B704710B504002000FFF7EFFFA9
:103270000A2805D8092807D2002808D0012009E02B
:103280000D2801D02028F9D100236373EDE7012335
:103290005434237010BD70B504000D00FFF7D7FF44
:1032A0000023A84201D163730133180070BD2F2899
:1032B00015D90123392803D95E2803D97A2803D8E0
:1032C0001800704740280AD901235A28F8D900234A
:1032D00001222D38C0B282425B41DBB2F0E701230C
:1032E0002B28F4D1ECE77F22D3B50300007A0C0041
:1032F00010400638062831D806F09CFC3D303130AD
:1033000023300400186809F07DFB060060680F0098
:1033100009F00CFB009001910B0002003900300015
:1033200006F028FE0423002809D1009A019B3000F2
:10333000390006F033FE0300581E83410133237029
:103340000CE0196863680422002B06DC5B428B42A8
:1033500003DB023A8B4200DC013A2270D3BD1968CC
:1033600062680223002AEADBDB189142E7D38A4233
:103370009B415B42E2E719684B1E9941F0E707B5B4
:1033800003000022694640680A700132D968019240
:10339000FFF757FF002802D06946FFF7A4FF6B46EE
:1033A0001878013843425841C0B20EBDF7B50968DC
:1033B0000F683C1E29D002684468944215D93D002C
:1033C00013002E78B4465E1C01961E78664504D123
:1033D000002E08D00135019BF3E71D7801331A0058
:1033E000002DFAD1E9E7002A11D18D6882686B1CA3
:1033F000E31893420DD84360002C06D009682A00D8
:10340000200009F061FC002363552000FEBD14007C
:10341000FBE70024F9E7F0B5037A85B00F000192CD
:103420007F211A0005000A4005D18B435F390B4309
:1034300003720260426020222B7A1340181E2AD0A9
:103440003E68301E27D02C68002C19D0E16830006F
:10345000FEF771FE002811D02000FEF764FE040084
:10346000F2E703A901980397FFF7A0FF00280DD00A
:103470008023227A5B4213432372E06020000AE03B
:1034800001992800FEF786FE041EEAD128002100DB
:10349000FEF7A6FE002005B0F0BD70B50D000400DB
:1034A0002800110010302A00FFF7B5FF002809D0CE
:1034B0007F22037A93431A004023134303720023AD
:1034C0000360436020606560200070BDF0B59FB070
:1034D00001900F0005A8DD491E0003F0C1FDDC4985
:1034E00008A803F0BDFDDB490BA803F0B9FDDA49DC
:1034F0000EA803F0B5FDD94911A803F0B1FDD849D4
:1035000014A803F0ADFD7F22D64C05A9636817A867
:10351000A3602369251DE360237F9343237703F092
:1035200000FE17A91BA81A9503F0FBFD17A803F0CE
:103530004DFD1A981A9A1BA91030FFF76CFF0199DC
:10354000FFF757FD1BA803F041FD08A917A8002F9E
:1035500000D1BAE003F0E5FD17A91BA81A9503F006
:10356000E0FD17A803F032FD1A981BA910301A9A33
:10357000FFF751FF0121FFF73CFD1BA803F026FDDB
:103580000BA917A8002E00D1B1E003F0CAFD043446
:1035900017A91BA81A9403F0C4FD17A803F016FD81
:1035A0001A981BA910301A9AFFF735FF0121FFF76F
:1035B00020FD1BA803F00AFD0EA917A803F0B1FD1A
:1035C000A84C17A9231D1BA81A9303F0AAFD17A83E
:1035D00003F0FCFC1A9E1BA9300032001030FFF7EC
:1035E0001AFF051E0FD0249B02A930000293FFF79B
:1035F000DDFE7F222B7A9343002800D18AE07A3ABD
:1036000013432B7228601BA803F0E0FC237F7F216B
:103610001A000A4005D18B435F390B43237762615F
:10362000A2612022237F1340181E13D08E4D6069A3
:103630002900FEF791FD00280CD1211D1434200033
:10364000FEF7A8FD2600041E66D101003000FEF73B
:10365000C7FD20002A99FFF7CCFC00242A9B9C423E
:1036600000DBDFE00A2221001AA803F018FD1AA9E6
:1036700011A803F08CFD1AA803F0A8FC0A2221006F
:103680001AA803F00CFD1AA914A803F080FD1AA8CB
:1036900003F09CFC734911AA043103A8FFF7FDFE57
:1036A0000825299B9D423DDA03A91AA8FEF78CFD47
:1036B000289AEB00D3181868596809F0F5F9011C2D
:1036C0001A98FEF759FD0135EBE703F02AFD17A91B
:1036D0001BA81A9503F025FD17A803F077FC1A988C
:1036E0001BA910301A9AFFF796FE390043E703F042
:1036F00018FD043417A91BA81A9403F012FD17A88B
:1037000003F064FC1A981BA910301A9AFFF783FE85
:1037100031004CE72B7276E77F22037AC5601340B5
:10372000037296E74F4914AA043117A8FFF7B5FEB4
:1037300017A91AA8FEF748FD25991A98FEF71CFD4F
:1037400017A91AA8FEF740FD26991A98FEF714FD4E
:1037500017A91AA8FEF738FD27991A98FEF70CFD4D
:103760000A2221001AA803F09AFC1AA905A803F05E
:1037700008FE010005A803F049FE1AA803F026FC84
:103780000A2221001AA803F08AFC1AA908A803F04B
:10379000F8FD010008A803F039FE1AA803F016FC92
:1037A0000A2221001AA803F07AFC1AA90BA803F038
:1037B000E8FD01000BA803F029FE1AA803F006FC9F
:1037C0000A2221001AA803F06AFC1AA90EA803F025
:1037D000D8FD01000EA803F019FE1AA803F0F6FBAD
:1037E0000A2221001AA803F05AFC1AA911A803F012
:1037F000C8FD010011A803F009FE1AA803F0E6FBBA
:103800000A2221001AA803F04AFC1AA914A803F0FE
:10381000B8FD010014A803F0F9FD1AA803F0D6FBC7
:1038200001341BE714A803F0D1FB11A803F0CEFB71
:103830000EA803F0CBFB0BA803F0C8FB08A803F00D
:10384000C5FB05A803F0C2FB1FB0F0BDB805010021
:10385000C0050100CA050100D5050100E30501000E
:10386000EC050100AC030020F605010037B500238C
:103870006A461370C3B27F280BD853706B4602336D
:10388000013B1878002831D00A68541C0C60107075
:10389000F6E73F2480226D462340524213438009BD
:1038A0006B7085B2C3B21F2D06D8403213436A46EF
:1038B00093706B460333E3E76D46234000041343E4
:1038C000800DAB70C3B20F2805DC20225242134397
:1038D000EB7001ABD4E71C40102380115B4218430E
:1038E0006B462243EA7028710533C9E737BD0000F3
:1038F000F7B505000027FFF7AAFC6F7301902800B9
:10390000FFF7A5FC0024019A03006C73824259D092
:10391000A04204D10123543500202B70FEBD5C2849
:103920004BD12800FFF793FC0028F3D0284B7528D3
:1039300039D104266C732800FFF789FC0028E9D0F0
:10394000402806D83038C0B20F2806D95435022393
:10395000E2E7202398433738F5E700232401013EAE
:103960000443F6B2A4B26B739E42E4D1A0239B0140
:10397000E318184A9BB2934202D8A405A70DBEE7EC
:1039800090239B01E3189BB22000934206D880232A
:103990008005BC02800D20435B02C0182900FFF7A0
:1039A00065FFACE702331A78002ACFD09042F9D1F4
:1039B0005B78002BCAD000226A732A68511C2960E8
:1039C00013709CE72B6801205A1C2A601C70A5E725
:1039D000E8060100FF030000036870B543600400BF
:1039E000FFF735FC27280DD022280BD02000FFF749
:1039F0002EFC0500FFF75BFC061E09D102235434A0
:103A0000237003E02000FFF773FF0600300070BD55
:103A100000236373236820005A1C22601D70FFF787
:103A200016FC0500FFF743FC0028F1D123685A1C5F
:103A300022601870EAE70000F8B50C1E0EDD0025C4
:103A400001260E4F344203D0AB00D95906F09CFE3C
:103A500001356410EDB2002CF4D1F8BD002501262B
:103A6000074F4C42002CF8D0344203D0AB00D95958
:103A700006F08AFE01356410EDB2F3E73400002051
:103A80001C000020F7B5037804000E002B2B1CD07F
:103A90002D2B1BD10127013423781A00303A092A33
:103AA00001D92E2B65D100200A2545492278130023
:103AB000303BDBB2092B0BD8884212D8DA4368437B
:103AC00082420ED3C0180134F0E701340027E3E747
:103AD000002A06D130600823002F00D00233337152
:103AE00047E00025374B984205D90A21013506F0F9
:103AF000B5F86DB2F6E723781A00303A092A03D8F0
:103B000001356DB20134F6E72E2B0FD10A212E4A72
:103B100001342378303BDBB2092B07D8904203D81D
:103B20004843013D18186DB20134F2E72022237892
:103B300000219343452B31D163782D2B1AD12C3B97
:103B40000234019300212278303AD3B2092B21D8D4
:103B50000A23594351186A18262A19DD019B0C22A1
:103B6000002B0ED00023002F01D080231B063360D2
:103B70003271F7BD2B2B02D001340191E2E7023400
:103B8000FBE7002F01D0114BF1E7FF23DB05EEE748
:103B90000134D8E7019B002B00D049422378002B49
:103BA000E7D16D1807F050F92900FFF745FF002F06
:103BB00002D080231B06C01830600C238FE7C0465C
:103BC00099999919FFFF7F00CBCC0C00000080FF72
:103BD000F0B585B005000C00FFF739FB0026019019
:103BE0000198F7B2FFF763FB00280ED00136402E94
:103BF0000AD06A46002312796B73AB19DA74280075
:103C0000FFF725FB0190EBE73F270026EB191E7518
:103C10002B7D742B0CD17F22237A93431A00062329
:103C20001343237201232360042F0DD101200FE0E1
:103C3000662B0FD17F22237A266093431A00062336
:103C400013432372052FF1D00123002054352B702C
:103C500005B0F0BD6E2BE7D0280002AB1900143080
:103C60001E71FFF70FFF02AB1B790A2B0BD00C2B39
:103C700011D0082B12D1029A22607F21227A8A4326
:103C800013432372D2E77F21227A8A43134323729C
:103C9000029B2360CAE7029A2260EEE702235435B2
:103CA0002B703000D4E7F8B504000D001F1CFFF79F
:103CB000DAFA002802D100263000F8BD2000FFF714
:103CC000C6FA27285FD006D822285CD02900200019
:103CD000FFF77EFF55E05B2812D07B28F6D17F22CC
:103CE0002B7A290093431A00202313432B720023BD
:103CF00000222B606B6020003B1C00F056F840E077
:103D00007F222B7AFFB293431A00402313432B7276
:103D100000232B606B609F4203D154340533237022
:103D2000C9E763732000FFF79EFA061EC3D05D212A
:103D30002000FFF7B0FA0028BED121692800FEF765
:103D400029FA011E02D154340323E8E77B1E002226
:103D50002000FFF7A8FF0028ADD02000FFF783FA6E
:103D60000028A8D05D212000FFF795FA0028A3D1F4
:103D70002C212000FFF78FFA0028DED102235434D3
:103D80002370060098E7236820006360FFF7B0FD0A
:103D9000061E00D18FE77F2263682B602B7A934346
:103DA0001A00042313432B7286E7F7B5DEB2040032
:103DB0000091002E04D105235434237000250DE01A
:103DC00000234373FFF74FFA01900028F6D07D21BE
:103DD0002000FFF760FA051E35D0019D2800FEBDCA
:103DE000676800983900FFF79CF800280DD1216919
:103DF0000098FEF7CFF9002802D15434032334E0B1
:103E00007F22037AC760134003720100731E0022F1
:103E10002000FFF748FF0028D0D02000FFF723FA4A
:103E20000028CBD07D212000FFF735FA0028D4D11F
:103E30002C212000FFF72FFA002814D02000FFF7D4
:103E400012FA0028BAD02000FFF7C6FD0028B5D02E
:103E50002000FFF708FA0028B0D03A212000FFF731
:103E60001AFA0028BCD1022354342370B6E707B5F0
:103E7000031E2ED07F22007A10400438082828D84C
:103E800005F0D8FE1010052705270927250018681A
:103E900006F0DAFF05E0186806F0D6FF80231B065F
:103EA000C0180EBD18686A46002369461371FFF7F3
:103EB000E9FD6B461B790A2B06D000980C2BF0D03D
:103EC000082B06D10098E3E7009B5842E0E718680A
:103ED000E7E70020E5E70000F7B5037804000E00EF
:103EE0002B2B1CD02D2B1BD10127013423781A003A
:103EF000303A092A01D92E2B65D100200A254549DF
:103F000022781300303BDBB2092B0BD8884212D841
:103F1000DA43684382420ED3C0180134F0E701341B
:103F20000027E3E7002A06D130600823002F00D0E5
:103F30000233337147E00025374B984205D90A21F7
:103F4000013505F08BFE6DB2F6E723781A00303AA2
:103F5000092A03D801356DB20134F6E72E2B0FD1B3
:103F60000A212E4A01342378303BDBB2092B07D8D3
:103F7000904203D84843013D18186DB20134F2E76E
:103F80002022237800219343452B31D163782D2BB8
:103F90001AD12C3B0234019300212278303AD3B25B
:103FA000092B21D80A23594351186A18262A19DDEA
:103FB000019B0C22002B0ED00023002F01D0802368
:103FC0001B0633603271F7BD2B2B02D001340191F7
:103FD000E2E70234FBE7002F01D0114BF1E7FF23AA
:103FE000DB05EEE70134D8E7019B002B00D0494206
:103FF0002378002BE7D16D1806F026FF2900FFF784
:104000001BFD002F02D080231B06C01830600C233C
:104010008FE7C04699999919FFFF7F00CBCC0C0020
:10402000000080FF13B503000020834218D07F22D8
:10403000187A1040043808283ED805F0FBFD12120B
:10404000053D053D0A3D3B001868C343DB1718409A
:1040500006E0802200201B681206934200D85842D6
:1040600016BD186800246B4669461C71FFF734FFC3
:104070006B461B790A2B05D00C2B08D0082B1BD1C3
:104080000098E2E78022009B12062000E5E7009CF2
:10409000CF21201C090605F0C5FF0028E0D09E2195
:1040A000201CC90505F0AAFF0028D9D0201C06F065
:1040B00061FED5E71C68EBE70020D1E710B500688A
:1040C00003685B68984710BD70B5040008000D00D8
:1040D00009F080FB290002002000FFF7EFFF636872
:1040E0001818606070BD10B50400006803681B6894
:1040F000984763681818606010BD000070B50D0027
:10410000040022212000FFF7EEFF2978002909D0C2
:104110000A4B01351E78002EF4D05A788A4206D018
:104120000233F7E722212000FFF7DDFF70BD5C219D
:104130002000FFF7D8FF3100E4E7C046EA0601009F
:104140000623F7B50E1C070083725849301C05F092
:1041500069FF002844D00023142420250093544BE9
:10416000311C185905F04AFF002809D0514B301C6A
:10417000195906F009FB009B061CE81803B20093CE
:10418000043C6D10231DEAD103340021301C05F0DE
:104190003FFF002828D0301C08F034FC464A474B2B
:1041A00005F0F2FE00281FD0A300019323061BD4C4
:1041B000434B019A311C985805F02AFF00280AD079
:1041C0003B4B019A301C995806F0DEFA009B061C06
:1041D000581B03B20093019B6D10013C043BE4E7C4
:1041E000202505240090D0E76B461B88301C3B81BE
:1041F00005F022FF0400334D38600190019B092B2C
:104200000DD90A21280005F029FDBB7A0500013BE4
:104210000198BB720A2105F021FD0190EEE7200014
:1042200006F012FE011C301C06F0E0FB061C280004
:1042300006F00AFE011C301C06F0A6FA019005F0FB
:10424000FBFE060006F000FE011C019806F0CEFB06
:10425000011C05F027FF05F0EFFE8619AE4214D2CF
:104260007E600A257E682900300005F07DFD00296A
:104270001AD10A243C57002C16DD2900300005F025
:10428000EDFC013C7860BC72ECE700237B60009B96
:1042900001343C60002BE4D0092CE2D91800012342
:1042A000013038813B60DCE73800FEBD8096184B5A
:1042B000340000201C000020F168E388B5F8E43EDB
:1042C0000400002040420F0010B50400521AFFF70E
:1042D000F5FE63681818606010BDF0B5162407007D
:1042E0000D000A2687B06C442800310005F03CFD23
:1042F000013C303121702800310005F0AFFC051E73
:10430000F2D116236B441A0021003800FFF7DCFFBE
:1043100007B0F0BDF0B504008DB0081C0D1C05F011
:104320005DFE002805D14F492000FFF7CDFE0DB0FE
:10433000F0BD0021281C05F051FE002809D1291CE0
:10434000281C05F0AFFE011C281C05F047FE0028C4
:10435000E9D10021281C05F047FE002806D02D21B8
:104360002000FFF7C0FE80231B06ED1803AF291CB9
:104370003800FFF7E5FE03992000FFF7AEFF0A23A0
:10438000FB560093002B24D07E6801930AAD019B5D
:10439000013D013B5BB2019301330BD030000A2198
:1043A00005F0E2FC3031297030000A2105F056FC9E
:1043B0000600ECE76B4619782025CB432E22C94333
:1043C00002A85B19C2540AAB59181A002000FFF763
:1043D0007BFF0822BB5E002B1EDA26262249200026
:1043E000FFF772FE0823FD5E02AB6D42F61828004F
:1043F0000A2105F0A3FD013E3031317028000A2169
:1044000005F0B6FC051EF2D1262302AA9B181A005D
:1044100031002000FFF758FF0822BB5E002B00DCB4
:1044200085E7652120002626FFF75DFE0823FD5E57
:104430000A2702ABF6182800390005F07FFD013E7F
:10444000303131702800390005F092FC05B2002DA2
:10445000F1D1262302AA9B181A0031002000FFF791
:1044600033FF64E7E0060100E50601007F2270B536
:10447000037A05000C001340062B00D168E00BD82E
:10448000022B10D3032B52D806CD2000FFF716FEC7
:1044900063681818606025E00C2B1FD005D8082B26
:1044A00054D00A2B48D02F4957E0202B20D0402B46
:1044B000F9D15B212000FFF716FE2D68002D12D0E8
:1044C00028002100FFF7D2FF2800FDF72CFE051E73
:1044D00009D02C212000FFF706FEEFE7016820003D
:1044E000FFF718FF70BD5D212000FFF7FCFDF9E725
:1044F0007B212000FFF7F7FD2D68002D15D0E9681E
:104500002000FFF7FBFD3A212000FFF7ECFD28001B
:104510002100FFF7ABFF2800FDF705FE051E04D0C4
:104520002C212000FFF7DFFDE7E77D21DCE70168B4
:104530002000FFF7E3FDD5E705682D212000FFF7F8
:10454000D2FD29002000FFF7C8FECBE70168F9E79C
:1045500003680549002B00D104492000FFF7B4FD92
:10456000C0E7C046E0060100F9060100FE060100B2
:1045700070B51D4C1D49200002F072FD1C4D1D49F7
:104580002A00200004F040FAC820800008F076FBE2
:10459000021E02D0C8239B00C2187F210024164BA4
:1045A000DA601A611A7F58608A4398601A77180097
:1045B0002A00124904F028FA114E12482A0031004C
:1045C00004604460846004F01FFA0F482A00310040
:1045D00004604460846004F017FA0C4A10210C480F
:1045E00000F02EFE70BDC046CC030020F80601008E
:1045F00000000020CD6F0000AC030020152100005A
:10460000FD2000000C050020E804002070050020BB
:10461000D8030020F0B508249FB06B4600AFAF4927
:1046200038197B6002F01CFD0C233A19AC49D018F4
:1046300002F016FDAB4C200003F040F80028F9D042
:1046400008261823BA19D51821000A22280002F0DA
:104650007DFA2900B81902F06EFD280002F0B6FCC0
:10466000200003F02BF8002810D108220C23B918E1
:10467000C918B81802F023FE0028F1D09A4920008A
:1046800002F030F8142001F013FCE9E708260A22B2
:104690002100280002F05AFA2900B81902F04BFD57
:1046A000280002F093FCB919200002F011F86946C5
:1046B0003B69B8195A1C9B19DB08DB00CB1A9D46D5
:1046C0000023694602F009FE7F22884CB91963680D
:1046D0002800A3602369E360237F934323776B461D
:1046E0003B6200237B626B46221DBB622A616C2207
:1046F00000238E1821006B731431337000220A23BB
:10470000FFF7D1FA3378002B0DD12B7B002B0AD089
:104710007F22237F1A400C2A03D07D221340082BCE
:1047200001D1022333703378002B15D125001435C5
:104730006F492800FEF77AFDFFF774FC6D4B6E4958
:1047400018602800FEF772FD6C492800FEF76EFD28
:10475000002822D1050025E06949052B02D8694AC5
:104760009B009958082518247B19181902F078FC29
:104770007B191819FDF754FD7B19181902F026FC56
:104780000C237A19D01802F021FC781902F01EFCD3
:104790007B689D46BD461FB0F0BD2022037A1340C2
:1047A0001D1ED7D1584E28003100FEF74AFDFFF7F5
:1047B0005EFB564B564918602800FEF742FDFFF796
:1047C00056FB544B544918602800FEF73AFDFFF79A
:1047D00029FC524B524918602800FEF732FDFFF7C2
:1047E00046FB504B08221860231DBB624E4BBA1883
:1047F000FB621823D0187D62FEF7C1FD002869D145
:10480000231DBB62494B0822FB621823BA18D0183B
:104810007D62FEF7B4FD002802D00122444B1A70DD
:1048200044492800FEF70DFDFFF721FB424B08220B
:104830001860231DBB62414BBA18FB621823D018C5
:104840007D62FEF79CFD002802D001223C4B1A70CD
:1048500020003C491430FEF7E9FC041E05D020225C
:10486000037A13401C1E00D0040031002000FEF724
:10487000E8FC002802D03449FEF7D8FC2449200087
:10488000FEF7DFFC002802D02F49FEF7CFFC2249BB
:104890002000FEF7D6FC002802D02B49FEF7C6FC0C
:1048A0001F492000FEF7CDFC002802D02649FEF764
:1048B000BDFC20492000FEF7C4FC002802D022499C
:1048C000FEF7B4FC08240C233A19D01802F07EFB42
:1048D00038195BE701221D4B1A7091E7F8060100B9
:1048E0000F060100180800201B060100AC03002081
:1048F000BD05010064050020210601002D06010010
:104900000B06010008050100390601005C000020CB
:1049100045060100580000204E06010060000020FE
:1049200058060100A8030020670601007206010076
:10493000690500207C060100640000208806010053
:10494000E404002098060100AB0601006805002081
:1049500010B50A2001F02CFC0A2001F003FC052010
:1049600001F02CFCFDF778FCFA20800001F0A0FAA1
:10497000154B1B78002B04D00323144A91780B436A
:104980009370FDF7D7FF1248FEF7DCF9FA21114CBE
:104990008902200002F024FF200002F02DFF0028F1
:1049A000FAD0FFF737FE200002F01CFFFEF742F8B6
:1049B000FEF7C4F8FEF768F8FEF790F862B600223A
:1049C000054B1A6010BDC046E40400204C000020D6
:1049D000D8030020180800206C05002013B5FA2128
:1049E0000D4C8902200002F0FBFE00230B486946B3
:1049F000143001930094FFF739FD200002F06EFEA1
:104A000001220749200002F077FE200002F066FE36
:104A1000200002F0E7FE13BD18080020AC030020C0
:104A200015110100F0B59BB008AF3A616A467B6191
:104A3000CB000833D31A9D4608AB3B623B6E0E0099
:104A40009B003B600023B8617B62BB6E1B68FB610F
:104A5000FA697B6A934200DB90E06B466A467B60B2
:104A60003B68396E0A33DB08DB00D31A9D4608AC7D
:104A700000222300023904C3002902DB04C30139E8
:104A8000FAE77B6A21000293BB6E01937B69009376
:104A90003A6E0123B869FEF793FB00237B63BB6387
:104AA000FB637B6B002B06DD28220C23BA18D01881
:104AB000FEF704FBF5E72500503528220C2302CC35
:104AC000BA18D018FEF732FAAC42F6D100242822E8
:104AD0000C23BA18D0187B6B9C4248DA04940390DC
:104AE0007B690293386907F021FF00900191320041
:104AF000396AB869FEF7A8FA0023FB61FB69B34283
:104B000030DA514B51491B68FB60514B1B78DBB2CB
:104B1000BB60504B1D782823F81802F002FB4E4B67
:104B2000EDB218680123059606933B6A04930023AF
:104B30000393029306F03EF92823FA18019000929D
:104B4000BA6800212B00F868FEF7C0FC2823F8188B
:104B500002F03CFAFFF742FF642001F0A9F9FB697B
:104B60000133CAE73D4801F0A1FD0134AFE7FDF78D
:104B7000C5FA7B689D467B6A013365E700247B6E3E
:104B80001B687B629C425BDA04947B6E03937B69B7
:104B90000293386907F0CAFE009001913200396A29
:104BA000B869FEF751FA2D4D2D49280001F074FD2A
:104BB0000A222100280001F0E2FD2800294901F025
:104BC0006BFD0025B54236DA1F4B28221B68B8184A
:104BD0007B621F4B1D491B780135DBB2FB611D4B0E
:104BE0001B78DBB2FB600C23C01802F09AFA01229A
:104BF000194B18680023069205963A6A03930492AB
:104C0000029306F0D7F828220C23B918CA1801908D
:104C100000920021FB68FA69786AFEF757FC2822A7
:104C20000C23BA18D01802F0D1F9FFF7D7FE642090
:104C300001F03EF9C6E7094801F038FD01349EE76E
:104C4000BD4613B0F0BDC04664050020CC03002073
:104C500068050020600500206C0500201808002071
:104C6000B0060100D3060100F0B591B0042856D873
:104C700004F0EAFF05006A007F00D000FE00864CC9
:104C80002378002B4DD0FDF7E7FA844D2B78002BCD
:104C900012D08349834801F025FD834BFA22029309
:104CA000824B9200019314231D21009380481833F6
:104CB000FFF7B8FE00232B707E4B7F491F687F4BA8
:104CC00025781B780DACDBB209937D4B20001E7854
:104CD00002F027FA01217B4B7B4A18687B4BEDB22F
:104CE0001B68126806911C31059179490392049161
:104CF000029306F05FF8F6B2330001900094099A2F
:104D000029003800FEF7E2FB200002F05FF9714C49
:104D10002378002B03D0FFF761FE0023237011B02E
:104D2000F0BD664B1B78002BF9D06B4B6B491868B4
:104D300005F02AFD6A4905F04FFB06F01BF801005B
:104D40000F2001F06DFAEAE7564C6649200001F0A9
:104D5000C9FC5C4B1A68644B1B689A4202DB012257
:104D60004D4B1A70FDF778FA6049200001F0BAFC4B
:104D7000D5E74A4B1C78E4B2002C15D0494C5C496D
:104D8000200001F0AFFC484B51490393474B1D22D3
:104D900002931423019318330093FA2344489B0091
:104DA000FEF7ACF95349E0E74A4F3B78002BB6D009
:104DB000404B0DAD1B6840490993374B28001E78C6
:104DC0003E4BF6B21B78DBB20A933D4B1B78DBB24D
:104DD0000B9302F0A6F901213A4B3B4A18683B4B72
:104DE0001B68126806911C310591394903920491A0
:104DF000029305F0DFFF0B9B0A9A310001900095AA
:104E00000998FEF763FB280002F0E0F8FFF7E6FDE3
:104E10003C7084E72E4B986CD96C07F045FEFDF78B
:104E2000FDFC2A4C344D20602B6827680993334BD6
:104E3000186805F09FFF0600381C05F09BFF320044
:104E400001000998FDF7F0FE28602E682C4D2F68B0
:104E5000206805F08FFF0400381C05F08BFF22004E
:104E600001003000FDF710FF05F0A4FF286056E7B1
:104E7000174B186C596CFDF723FD134D214C224E36
:104E8000286020683168FDF73FFF306023682B6899
:104E90002B680023236042E769050020E40400201A
:104EA0006B05010018080020E80400200C05002014
:104EB000D803002064050020CC03002068050020F2
:104EC000600500206C050020040500200805002076
:104ED000C00200205A0500205800002000C07F4476
:104EE00000600B458405010060000020950501006D
:104EF000A5050100AC050100DC0400205C000020D9
:104F0000E0040020FC0400200005002010B5074B41
:104F1000074C20681978074BC9B21A78D2B2FDF74E
:104F2000E9FF20602068FFF79FFE10BD68050020A4
:104F30005C05002069050020037D002B04D143752A
:104F4000837583610133037570477FB5C36802AD14
:104F500004000E0002916A608B4203D1028AAB8882
:104F60009A4218D02000062229000C3007F0ACFE2F
:104F7000206801F010FD6B79227AE17900932068B6
:104F8000002301F0A9FD20682979320001F0D4FC4A
:104F9000206801F0F6FC7FBD70B518260400FFF70D
:104FA000CBFF3300082120790D4D4343EB185956B0
:104FB00001F0B0FA33000821A0794343EB185956A9
:104FC00001F0A8FA082160794643AD19695601F04D
:104FD000A1FA044B200006CBFFF7B7FF70BDC04617
:104FE000A40D0100A805002007B5437D00910192A2
:104FF000002B07D09A070AD5EFF310835A4253418A
:10500000837572B60099019AFFF79FFF07BDDB0712
:10501000F8D58369014A9BB29360F3E7001800401A
:10502000437D002B05D09A0704D5837D002B00D04B
:1050300062B67047DB07FCD58369024A9BB2D36036
:10504000F7E7C0460018004010B5006801F0ACFC5E
:1050500010BD70B506000C008D18AC4206D021784A
:105060003000FFF7F1FF20700134F6E770BD00005B
:10507000104A114B11491360002353711371104AE8
:10508000104811601049D36091800921917106394F
:10509000537413741375D37111720C4A10600C4859
:1050A000D36090801B205374137413759071D37167
:1050B00011727047A805002000093D00F407002088
:1050C00070050020000800200A0800008C05002060
:1050D0001D1A00007047000010B5054C054920005E
:1050E00001F0CFFA0449200001F0E8FA10BDC046F3
:1050F000180800207F0C0100B20C010070B50600FA
:105100000D003170002A14D02C4C14294CD8080002
:1051100004F090FD0B181A1C1E24262C3236381071
:10512000343A3C3E4042444648002549200001F0C4
:10513000C5FA70BD2349200001F0C0FA3000FFF726
:10514000CBFFF6E72049F1E72049F4E72049EDE7F6
:105150002049200001F0B2FA1F49E7E71F49E5E7BF
:105160001F49200001F0AAFA1E49E4E71E49200069
:1051700001F0A4FA1D49D9E71D49D7E71D49D5E734
:105180001D49D3E71D49D6E71D49CFE71D49CDE7A6
:105190001D49CBE71D49C9E71D49C7E71D49C5E7BB
:1051A0001D49C3E71D49C1E71D49200001F086FAEA
:1051B00004239D43022DC1D0BBE7C0461808002040
:1051C000420701006107010092070100D1070100B9
:1051D0000F080100A4080100B2080100E208010064
:1051E0002C0901004E09010091090100B4090100D8
:1051F000EE0901003D0A01007A0A01009E0A010041
:10520000C40A0100E80A01000D0B0100310B010086
:10521000570B0100A10B0100EE0B01003D0C01003A
:10522000710C010010B5034A0349044803F0ECFB7C
:1052300010BDC04600000020D5500000B005002081
:10524000F8B5254B1600FF22036000230D00522104
:1052500042748274C2740275421C437103710372FA
:1052600043778377C377D3772A3211700531517032
:1052700000220400194F8367C367026339001222BA
:105280009C3007F021FD2000390048221431B03055
:1052900007F01AFD2000390009225C31F83007F0D0
:1052A00013FD3900A01C6531FF30032207F00CFD0F
:1052B0000B4BE6609E420CD10A23280063752574CF
:1052C000012101F097F8207C012101F0DFF8200096
:1052D000F8BD0B23F1E7C04600093D003C0D01007D
:1052E0007005002070B5437D04000D000B2B02D02B
:1052F000C068FFF751FE237A002B07D11B22627092
:10530000643A2370A270E370237163712900200056
:1053100000F054FC0500200000F010FB00232000EA
:10532000A37700F005FC280070BD000010B5054C07
:105330002378002904D01900012200F0DFFC237833
:10534000180010BDB005002070B50A000D00416FB7
:10535000040000F0DDF90126002801D1002070BD15
:105360002A00616F200000F04FFA031E606F0CD11D
:10537000E36B28186067A0679842F1D3631CDA7F5B
:10538000002AEBD16267DE77EAE72D186567E6E76A
:10539000F0B589B000AFB9603A607B600A000023C5
:1053A0000321040000F02EFB002804D10026300069
:1053B000BD4609B0F0BD7B680B21002B00D1032155
:1053C0000026200000F0F0F9350023002B33197877
:1053D0000022200000F03CFAB04008360543202EA1
:1053E000F3D1200000F0AAFA6A46EB1DDB08DB00CF
:1053F000B968D31A9D4604312A002000FB6000F0F2
:1054000087F90028D2D01249200000F0B7FA061E12
:10541000CCD07B680B21002B00D10321200000F0B1
:10542000C3F92B00FA680321200000F017FA2000CE
:10543000142400F083FAF968381901F011FE3919C3
:10544000386801F078FE381901F0C0FDAFE7C046BA
:1054500000CA9A3BF0B58BB09668050010006A460A
:1054600000AFBB60731C7B620733DB08DB00D31A21
:105470009D467B61721C00230C00694601F02DFFE4
:10548000280000F06DFA3862002802D000233B6249
:1054900076E004222100280000F03AF90028F5D037
:1054A000721D2100280000F0AFF90028EED07F49DE
:1054B000280000F063FA0028E8D00121280000F05D
:1054C00083FA0028E2D00221280000F06DF93E6A3C
:1054D0007A6A2B00F2402C33FB61D2B21978280093
:1054E000083600F0B5F9202EF2D10121287C00F019
:1054F000CDFF280000F022FA231D7A6A1900280047
:105500003B6100F005F90028C0D06849280000F090
:1055100035FA0028BAD00121280000F055FA386287
:105520000028B3D08023E4B25B001C1B7A6AA4B2CB
:10553000944229D3287C002100F0A8FFFB690222B5
:105540001978280000F084F9280000F005F90024FB
:105550007B6A9C420AD27B6928001A5D2B002C339F
:105560001978013400F074F9A4B2F1E7287C012124
:1055700000F08CFFBB68002B52D1280000F0DEF950
:10558000BD46386A0BB0F0BDBA8C7B60FA61002270
:10559000BA61FB69BE8BA34200D9261C287C00217E
:1055A00000F074FF2B002C3319780222280000F041
:1055B0004FF9280000F0D0F87B69BA69B6B29C18A0
:1055C000A319FB60FB68A34208D02B002C33227880
:1055D0001978280000F03CF90134F3E7287C012118
:1055E00000F054FFAB6F31499B19AB67BB692800D2
:1055F0009B199BB2BB61FB699E1BB3B2FB6100F0C0
:10560000BDF9002800D141E70121280000F0DCF9B4
:10561000002800D13AE7FB697C68002BB9D1A9E7E3
:105620006B4622492800FB6100F0A8F93862002887
:1056300038D06A463B69287CAB677B6A0021073318
:10564000DB08DB00D31A9D4600F020FF2B002C3333
:1056500019780322280000F0FBF828006E4600F0BD
:105660007BF800247B6A9C420AD22B002B331978EA
:105670000022280000F0ECF830550134E4B2F1E7E4
:10568000280000F05BF900237A6A934207D27A6916
:10569000F15CD25C914205D10133DBB2F4E7FB69E6
:1056A0009D466DE7FB699D46F0E6C04600CA9A3B01
:1056B00070B5040000F054F9002802D0002528003D
:1056C00070BD0F49200000F059F90028F6D00121E3
:1056D000200000F079F9051EF0D023006533197819
:1056E000200000F061F8200000F028F901262000D9
:1056F00000F0BFF83042FAD1200000F01FF9DEE7D9
:1057000000CA9A3B10B5C068FFF79EFC10BD0000B0
:10571000F8B50F00002105001600FFF707FEF7237C
:1057200003400020032B08D0EC6B844206D10948CB
:1057300022000121FFF7E2FC2000F8BDBE19B442AF
:1057400004D8361BEE67AF670120F6E70023EB674E
:10575000F9E7C046B005002010B5C37F0400002B58
:1057600004D003007B331978FFF7CCFF23007A3392
:1057700019782000FFF7C6FF23007933197820003D
:10578000FFF7C0FF2300783319782000FFF7BAFF36
:10579000012010BD10B5040001684268C068FFF721
:1057A00023FC0120607710BD70B5437F04000D001D
:1057B000002B01D1FFF7EEFF207C002100F066FEF8
:1057C0000B2D15D005D8022D09D0032D07D02900A7
:1057D00016E0522D03D0D82D01D0202DF7D129006D
:1057E0002000FFF78FFF2000FFF7B6FF012070BDFC
:1057F00029002000FFF786FF2000FFF7ADFFEE2114
:105800002000FFF77FFFF1E770B5032104001600C9
:105810000025FFF7C9FFB54212D00021E068FFF76D
:1058200013FCFF280AD0207C012100F02FFE07483E
:1058300000220721FFF762FC002070BD0135EAE776
:10584000207C012100F022FE0120F6E7B0050020B7
:1058500010B51100C068FFF7F7FB10BD023920B585
:105860001500012904D81A002900C068FFF7F1FBD0
:1058700020BD70B504000521FFF796FF0021E06808
:10588000FFF7E2FB251DE877207C012100F0FEFDFB
:10589000E87F70BD70B504001521FFF785FF00217A
:1058A000E068FFF7D1FBA51DE877207C012100F01F
:1058B000EDFDE87F70BD000070B506000124FFF724
:1058C000E9FF20420ED1B7213000FFF76DFF307C99
:1058D000210000F0DBFD3000FFF7DCFF2040051E5B
:1058E00002D0F477200070BD02000D210248FFF7BE
:1058F00005FC2C00F6E7C046B005002070B5050099
:105900000124FFF7C7FF204212D0E9212800FFF74A
:105910004BFF287C210000F0B9FD2800FFF7BAFFFB
:10592000204007D000220E210348FFF7E7FB0024A8
:10593000200070BDE877FBE7B005002010B504003B
:105940000121007C00F0A2FDE37F002B02D02000AB
:10595000FFF7D4FFE068FFF763FB0023637710BD18
:1059600010B5847F002C04D000220F210248FFF7DD
:10597000C5FB200010BDC046B0050020F8B50600EC
:105980000C002023013BFDD100F062FA0127050045
:105990003000FFF76EFF331DDB7F3B4201D101205A
:1059A000F8BD00F055FA401BA042F1D300F050FAC8
:1059B000401BA042F3D3034800220421FFF79EFBC3
:1059C0000020EDE7B005002070B504000D000621B1
:1059D000FFF7EAFE207C012100F058FD2000FFF7D0
:1059E00048FF0224044009D1002D05D022000621E1
:1059F0000348FFF783FB2500280070BD0125FBE766
:105A0000B0050020F8B51E00030037331B780400F2
:105A10000F001500EF2B14D0022F1BD0EF2F37D023
:105A20002000FFF79DFF002812D13200290020003E
:105A3000FFF76EFE00280BD01B492000FFF79EFFEA
:105A400007E01A4B9A42E7D9FFF736FF0028E3D167
:105A50000020F8BD2000FFF783FF0028F8D13200B6
:105A600029002000FFF754FE0028F1D03200290061
:105A70002000FFF7C9FE0028EAD00B492000FFF7FD
:105A80007DFF0028E4D001212000FFF79DFFE0E723
:105A90002000FFF765FF0028DAD13200290020003E
:105AA000FFF736FEE7E7C04600CA9A3BFFFFFF005C
:105AB00010B504000421FFF777FE207C012100F0DF
:105AC000E5FC012010BD000070B517490400FFF788
:105AD00055FF051E25D09F212000FFF765FE2600FB
:105AE0000021E068FFF7B0FA373630700021E06837
:105AF000FFF7AAFA2300383318700021E068FFF797
:105B0000A3FA230039331870207C012100F0BEFC79
:105B10003478002C05D122000B210448FFF7EEFA5F
:105B20002500280070BDC04600CA9A3BB005002081
:105B3000030070B538331B780400252B1CD1FFF708
:105B400098FE231DDD7F3C23502120009D43FFF75D
:105B50002BFE207C012100F099FC01212000FFF7A1
:105B600023FE29002000FFF7CDFD207C012100F05D
:105B70008DFC0125280070BD0125262BFAD10E4988
:105B8000FFF7FCFE051EF5D001212000FFF71CFFEA
:105B9000A023013BFDD198212000FFF705FE207CCA
:105BA000012100F073FCC8239B00013BFDD12000C4
:105BB000FFF77EFFDEE7C04600CA9A3B0200F8B559
:105BC000012364321370103A1370083A1370083AC4
:105BD00013700300202245331A7032321A72863253
:105BE0001A74414B00228364404B05000365404B0F
:105BF0006535836503005C331A7060232B703D4B61
:105C000004008366030001327233FF321A800E00F3
:105C1000FFF75AFF2300A21C37331978FF32C13334
:105C20001878884227D12300012235331A702300C7
:105C300022003833FF321B789078984205D0D07814
:105C4000984202D012799A4201D1C7232B702300C7
:105C500035331D78002D32D027003937C22911D1B4
:105C60003B78132B0BD0142B1BD00022022122488F
:105C7000FFF744FA06E001339342D1D1D7E78023FE
:105C8000DB03E36300233A7819009C31615C9142A5
:105C90000AD12C339B001B593434A3600123237099
:105CA00012E080231B04ECE70133122BECD1E36BF1
:105CB000002B08D1002E0FD0E6633434EFE73634E2
:105CC0002578002D02D001252800F8BD2A000221E8
:105CD0000948FFF713FAF7E7320003210648FFF7F8
:105CE0000DFA3500F0E7C04600CA9A3B0050D6DCFA
:105CF000004059730000DD0EB005002010B50248C9
:105D0000FFF7FCF910BDC046B00500207047000049
:105D100010B5034A0349044802F076FE10BDC046A0
:105D2000000000200D5D0000B105002010B5024804
:105D300001F065F810BDC046B405002013B5124946
:105D4000124800F06FFD1249124800F06BFD124935
:105D5000124800F067FD1249124800F063FD124935
:105D6000124800F05FFD124C1249200000F05AFD6D
:105D700001230193023300930D220B3321000E48BF
:105D800000F0D2FF13BDC04600080042F00700201B
:105D9000000C0042F407002000100042F807002029
:105DA00000140042FC0700200018004200080020F8
:105DB00004080020001C0042B4050020FEE700009B
:105DC000034B10B51B68002B00D0984710BDC04690
:105DD0000808002070B50F490F4CA14204D100F013
:105DE0008FF800F0F9FBFEE70C4D00238D42F6D052
:105DF000CA18E818A24205D3094B8242EFD00949DC
:105E0000002204E0006804331060F1E704C38B4211
:105E1000FCD3E4E700000020A0020020741601007B
:105E2000A00200204C0E002010B500F066F80028FB
:105E300001D100F057F810BD014B18607047C04603
:105E400008080020014B18687047C0460C08002065
:105E5000F7B51348012284461249134C8E686368D3
:105E600005689B0E1340019288686268019F920E3C
:105E70003A4067463F6893420ED1BD420CD18642FC
:105E80000AD35B19FA254868AD00861B07486B43A7
:105E90007043000DC018FEBD3D0013000600E3E78F
:105EA0000C08002010E000E000ED00E05555000077
:105EB00070B5041E10D0FFF7CBFF050000F01CF8F2
:105EC000FFF7C6FF054B401B9842F7D9FA23013C68
:105ED0009B00ED18002CF3D170BDC046E703000015
:105EE0007047000010B5034A13680133136000F0D7
:105EF0005DFC10BD0C0800207047002070470000BA
:105F00001E2270B546484749436893431C3A1343E1
:105F1000436008238C6923438B61434C434B9C8231
:105F20009C8A14439C82DC681442FCD00124404AC1
:105F300014701578254203D055786DB2002DF8DB2A
:105F400001249460547864B2002CFBDB394C54601B
:105F5000547864B2002CFBDB8224E4015480547832
:105F600064B2002CFBDB02249C840E34DD682542E5
:105F7000FCD0314CDC621024DD682542FCD09D8CC5
:105F80002E4C2C439C841024DD682542FCD0022436
:105F90009D8C80262C439C844024DD683542FCD0B7
:105FA000DD682542F9D01024DD682542FCD00024AC
:105FB0009460547864B2002CFBDB214C546054781C
:105FC00064B2002CFBDB1C6A1E4D2C4080251C6239
:105FD0001C6AAC431C62032393601B4B53605378D1
:105FE0005BB2002BFBDB0023FF240B72174A4B72C2
:105FF0008B72CB72164B1A60164B174A1B681168CE
:106000009A065B01C90E2340520F12020B43134341
:10601000124A1385802342681343436070BDC04613
:1060200000400041000400400C0600000008004051
:10603000000C004001050100B905FF7D040A0000C5
:1060400000070300FFFCFFFF03060100006CDC02F9
:10605000800000202460800020608000004000421A
:10606000FA21314B10B51868890003F0F7FD2F4B6A
:106070000138984256D82E492E4A4860C020136AEB
:1060800000061B021B0A03431362002407238C60D3
:106090000B608021136A09061B021B0A0B43136263
:1060A000FC22254B196A0A431A62FC22196A9201E2
:1060B0000A431A62A022196AD2020A431A62200015
:1060C0000021013400F096F9162CF8D11B4B1C006E
:1060D0005A7852B2002AFBDB194A5A80194B1A002F
:1060E000597EC9090129FBD0E421C90099803F21CB
:1060F000D970537EDB09012BFBD0C02300205B014C
:106100001361907000F05AF863785BB2002BFBDBF0
:106110000D4B0E4A6380D379DB09012BFBD0412361
:10612000537010BDFEE7C04680000020FFFFFF0057
:1061300010E000E000ED00E000040040000C004032
:106140001E40000000400042214000000048004284
:10615000914202D002D98A1AD0407047521A904018
:10616000FBE700000F4B302218600F490F4B0A2845
:1061700009DD988890439880243A0A605A7ED209B3
:10618000012AFBD07047082806DD9888904320221A
:1061900002439A800A22F0E7988802439A800822F4
:1061A000EBE7C04688000020840000200040004249
:1061B000014B18607047C0468C000020164A00B59D
:1061C0001300517EC9090129FBD00138042816D8D3
:1061D0001969124A0A400F211A615A788A4303F05A
:1061E00029FD0308060B0300110001220A435A701F
:1061F00000BD11000322F9E711000222F6E7F023A7
:1062000011691B050B430F21136153788B43190050
:1062100002230B435370EBE700400042FFFFFFF007
:1062200018234343F0B56A4A87B09B18DA68060022
:106230000C000092920722D51B7C5BB2002B01D090
:10624000142B1AD1634B0A2219682000FFF780FF34
:10625000614A1300D179C9090129FBD08005800D5D
:106260001081DA79D209012AFBD0022219780A4377
:106270001A70DA79D209012AFBD007B0F0BD0827DD
:10628000009A544D3A40019200D191E012229B5E57
:106290002968200010220193FFF75AFF019B050097
:1062A0001F126B461C79009B0421DB0600D40521DC
:1062B000300000F02FF9494BBA00D658484BDA5D50
:1062C000002A54D10132DA5546490F3202A806F0AD
:1062D000FBFC02AA7B009B5A8022D2011A43424B4C
:1062E0005A805A78D209012AFBD0022297421BD940
:1062F000338893433380F37BDB09FCD1328840330E
:1063000013433380F37BDB09FCD10C34ADB2640062
:10631000A553F37BDB09FCD132880233134333806E
:10632000F37BDB09FCD1A8E7336893432F4A336042
:106330001300B1681142FCD10222F16B0A43F263EF
:10634000B2681A42FCD11034A40034196560B268F6
:106350001A42FCD1264A3264B2681A42FCD10222A7
:1063600031680A433260B2681A42FCD185E7022FD5
:1063700007D90C34ADB26400A553F37BDB09FCD123
:106380007BE70223727913437371184B1A00B168CB
:106390001942FCD11C34A400A551B3681342FCD1AE
:1063A000022331790B433371B3681342FCD164E7A4
:1063B000012100F01FF829683A002000FFF7C8FE0D
:1063C00001997F2800D90121300000F05FF854E7DF
:1063D000A40D01008C00002000480042680000204D
:1063E0001008002004110100000C0040FF0F7F0086
:1063F000FFFF0000182330B51D00040045430820AE
:10640000204A55192856013014D0032912D8080003
:106410006343D156D31803F00DFC02280E1B5868B5
:10642000CB010221184A9B181A1840321170012220
:1064300082405A6030BD5868CB010621124A9B1831
:106440001A1840321170012282405A609A61F1E7B5
:106450005868CB0106210C4A9B181A18403211705B
:10646000012282405A605A61E4E75868CB01022158
:10647000054A9B181A1840321170012282409A6016
:10648000D8E7C046A40D0100004400411823F0B530
:1064900008245843114A13181C5701341BD00126F5
:1064A00035005F688356BD400D4ADB019A1890683D
:1064B00005420BD10C00601E8441D2194032107885
:1064C00034400336A400B04320431070044A9B18A4
:1064D000002901D15D61F0BD9D61FCE7A40D0100C3
:1064E00000440041182310B5082443430749002005
:1064F000CA181457013408D05B560549DB015B18F4
:10650000186A5368D8400123184010BDA40D01003B
:106510000044004118224243F8B52C4E0300B21843
:10652000127A52B2140001320ED0481C00240C28FA
:106530000AD803F07FFB071F1F1F1F1F1F1F1F0B02
:106540000B0B0B00012464422000F8BD092905D182
:1065500000211800FFF74EFF0024F5E70A2901D1BA
:106560000839F6E700240B29EED10A391800FFF7A5
:1065700041FFE9E718225343F218556801202C0027
:10658000F356134ADB016E089B18C9B204409E19EA
:10659000002C0DD00F2430363278090122401143EF
:1065A000C9B25B19317040331A7810431870D3E7C1
:1065B00032000F27303216785B19BE433143117019
:1065C00040331A7810431870BEE7C046A40D01008E
:1065D000004400417047000010B5FFF741FD06F090
:1065E00025FBFFF7F7FF0120FFF762FC084C2000B6
:1065F00001F028FC200001F0D3FCFEF7A9F9FEF71A
:1066000085FC044B002BFAD000E000BFF7E7C04642
:10661000800800200000000010B506F02FFB10BD20
:1066200010B506F02BFB10BD10B506F031FB10BD08
:10663000F7B506000D000C008B180193019B671B3A
:106640009C4207D0336821781B683000984701349A
:106650000028F3D13800FEBD70B5040008000D001D
:1066600007F0B8F82368020029005B68200098470B
:1066700070BD10B50B1E02D0FFF7EEFF030018002F
:1066800010BD10B5FFF7F5FF10BD10B503688A689F
:106690005B680968984710BD10B5FFF7EAFF10BDA9
:1066A00010B503681B68984710BD000010B502497B
:1066B000FFF7D2FF10BDC0461411010070B50400F1
:1066C000FFF7D7FF05002000FFF7F0FF401970BD6E
:1066D00070B50500FFF7D9FF04002800FFF7E6FFBB
:1066E000201870BD70B50400FFF7C3FF050020003F
:1066F000FFF7DCFF401970BDF0B58BB06B4615009D
:10670000002205330600DA770800012D00D80A259B
:1067100009AC290003F028FBCAB213003733070085
:10672000DBB2092902D813003033DBB2013C2370FD
:10673000002FEED121003000FFF79BFF0BB0F0BD22
:10674000F8B506000C00151E04D10368C9B21B6819
:106750009847F8BD0A2A0CD100290BDA2D21FFF742
:106760009FFF614207002A003000FFF7C5FF38187D
:10677000EFE7D2B221003000FFF7BEFFE9E710B526
:10678000FFF7DEFF10BD000010B50400FFF7A8FB07
:10679000014B1C6010BDC046900000200122024B3E
:1067A00052421A607047C04690000020164A10B549
:1067B0001368591C26D0013B1360002B22D172B6FE
:1067C000124B134A0433934213D9124A0121100089
:1067D000147D0C42FCD02021148BFF319B085B0000
:1067E00021431183D3610C4B13800123027D1A4294
:1067F000FCD0BFF34F8F094B094ADA60BFF34F8FCC
:10680000C046FDE710BDC0469000002000200000FB
:10681000030200000040004102A5FFFF00ED00E080
:106820000400FA05016070479446F0B59E1E721E82
:1068300096416246056892072F6836063A4332430E
:106840002A60072505AC24780068A401294021436B
:1068500042680024022B00D05C03114321434160B5
:10686000F0BD30B5C0250368AD031C6812052A4091
:106870002243C0240904A402214011431960036883
:106880005A6814435C6030BD0123026811680B43F1
:10689000136003681A68D207FCD4DA69D207F9D406
:1068A00070470223026811680B4313600268D369C2
:1068B0009B07FCD4704703681A7ED20702D41A7E65
:1068C0009207FCD57047002203685A83704703681B
:1068D000187E4007C00F70470368187EC0097047D4
:1068E000802302685B42117E0B4313767047036876
:1068F000588B8007C00F704702230268518B0B43EF
:10690000538370470368187EC007C00F7047036841
:10691000188DC0B2704703681A7ED207FCD589B2C1
:10692000012019857047012203689A75704701227A
:1069300003681A757047000070B5012604684B089B
:1069400033403140256809075B070B432B43236025
:1069500004685100034803F081F90138C0B2207384
:1069600070BDC046006CDC020123026811680B4355
:10697000136003681A68D207FCD4DA69D207F9D425
:1069800070470223026811680B4313600268D369E1
:106990009B07FCD470470368DA699207FCD4022194
:1069A0001A688A431A6070470268936A5B0A5B023E
:1069B0001943916203681A7E5207FCD5986AC0B2E7
:1069C000704700000368214A30B593422FD0204A17
:1069D00093422FD01F4A93422FD01F4A93422FD069
:1069E0001E4A93422FD01E4A93421FD10E231922D2
:1069F0000121032599401B48C024016099082B40C0
:106A0000AB40FC359D4089000918A4000859A843F3
:106A1000C0259D402B0003430B518023DB011A430B
:106A2000114B5A805A7852B2002AFBDB30BD092341
:106A30001422DDE70A231522DAE70B231622D7E713
:106A40000C231722D4E70D231822D1E700080042B7
:106A5000000C0042001000420014004200180042E6
:106A6000001C004200E100E0000C0040F8B504000A
:106A70000F0016001D00FFF7A5FF2000FFF704FF21
:106A80001C21BB000B4071072268090C0B431360EB
:106A9000842322689375012F1AD11021012E00D072
:106AA00008390C4B69431868C00003F0D7F8072277
:106AB000216802408B895203DB04DB0C13438B817A
:106AC000226803049089DB0C400B4003184390813B
:106AD000F8BDC04680000020F7B50600019308AB62
:106AE0001F780D001400FFF73FFF3000FFF76AFF2B
:106AF000C022240592031440BA070C2717433C43D5
:106B0000C0270722BF022D0433683D4025431D6086
:106B1000019B316813401A0080239B0213434B6092
:106B2000F7BD10B50400FFF78DF9E0602368200081
:106B30005B699847002808DAFFF784F9E368C01A10
:106B4000A3689842F2D30120404210BD70B50D00F9
:106B500009490400160000F083FA2800FFF7E1FF5E
:106B6000002806DB864204D0C1B2200000F015FBED
:106B7000F3E7200070BDC046F80601000120704711
:106B800010B50368014A1B6A984710BD1304000042
:106B90000300FC33D9699A69914203D0DB69C018BC
:106BA000007D704701204042FBE710B504000069FA
:106BB000FFF76AFE22000023FC329361D361862234
:106BC0009200A4186360A36010BDF020014030392A
:106BD000484248417047F0231B011940802306209A
:106BE0009B0099420AD00133FF330130994205D00E
:106BF000802302385B00994200D0002070470F20AC
:106C000001400020012903D00239481E8141481C5F
:106C1000704700008923F0B5182685B002919B00CB
:106C20000400C05C330008214343324D1700EB18C9
:106C30005956FFF76FFC304B0821E05C33004343AB
:106C4000EB185956FFF766FC2C4BE25C0393022AC3
:106C500009D11133E05CFF2805D008214643AE1965
:106C60007156FFF757FC8A26B600A05DFF2819D0A1
:106C70000121FFF7BFFB1822A35D21495A43AB5600
:106C8000AD18DB0158188B21890060501D49012285
:106C90005B188C218900635069688A408D218900C6
:106CA00062501A600122029B11002069FFF7DEFE8C
:106CB00039002000FFF78FFF390005002000FFF7A3
:106CC0009EFF390006002000FFF77FFF3300009091
:106CD000290020690122FFF7A7FD0B4B2069E25C28
:106CE000039BE15CFFF7BDFD2069FFF7DAFD05B00E
:106CF000F0BDC046A40D01002502000027020000DF
:106D0000184400411444004126020000802210B5BE
:106D100004005200002105F0F3FF23000022FC33A1
:106D20005A6020009A6010BDF7B51D0008AB1B78B3
:106D30000400009309AB1B78160001930023436005
:106D4000FA239B008360114B0F000833036014305B
:106D5000FFF7DCFF20001D30FF30FFF7D7FF89234E
:106D60006A469B002761E654094B1278E554094BAB
:106D70002000E2546A46084B1279E2548A22293BE9
:106D8000FF3B9200A3541032A354FEBD1811010022
:106D90002502000026020000270200000300FC3349
:106DA00058689B68C01A01D50130FF30704710B594
:106DB000040020001D30FF30FFF7F0FF0028F8D15D
:106DC0002069FFF778FD10BD10B51430FFF7E6FF1E
:106DD00010BD0300FC3359689A68914204DB5A687D
:106DE0009868801AFF30704798685B68C01A01384D
:106DF000F9E710B51D30FF30FFF7EBFF10BD10B500
:106E000004000069FFF773FD002805D02069FFF733
:106E10007EFD2069FFF770FD2069FFF758FD00280F
:106E200020D02069FFF773FD2200FC329369D169FD
:106E30000133DBB28B4203D091696118087593610D
:106E40008A239B00E35CFF2B0CD020001430FFF75B
:106E5000C0FF092806DC8B238D229B009200E3589B
:106E6000A2581A602069FFF74DFD00281AD02000B3
:106E70001D30FF30FFF792FF002822D086239B00B1
:106E8000E31899685A68914218D08E219A6849008F
:106E9000A218515C9A680132D2B29A60C9B22069D4
:106EA000FFF739FD2069FFF717FD002805D020699D
:106EB000FFF716FD2069FFF706FD10BD01214942CD
:106EC000ECE72069FFF733FDECE7000070B5040044
:106ED00000690D00FFF716FD00283ED1FF2686232E
:106EE0009B00E3185A689968013232408A4223D1E4
:106EF000EFF31083DB0710D41E4B5B68DB05DB0D63
:106F0000EDD0103B5BB2002B10DA0F221340083B90
:106F10009B08194A9B009B181B682069FFF7F2FC2D
:106F20000028DCD02000FFF76AFFD8E79B08C033B9
:106F3000124A9B009B58F0E75A68013216409A6843
:106F4000964205D08E215A684900A21855545E60B9
:106F50002069FFF7E8FC012070BD20001D30FF30E4
:106F6000FFF71CFF0028B9D129002069FFF7D3FCE7
:106F7000F1E7C04600ED00E01CED00E000E100E0BC
:106F8000030070B5FC33D9699A69040091421AD0A4
:106F9000DA698218157DDA690132D2B2DA618A23A0
:106FA0009B00E35CFF2B0CD020001430FFF711FF97
:106FB0000A2806DD8C238D229B009200E358A258FC
:106FC0001A60280070BD01256D42E8E710B5040085
:106FD0000068002801D005F05BFE200010BD10B550
:106FE00004000068002801D005F052FE0023236051
:106FF000A360636010BD70B504000D00006801312E
:1070000006F08CFB031E01D0012028C470BD03686C
:1070100010B50400002B04D043688B4201D301203B
:1070200010BD2000FFF7E7FF0028F9D0A368002B70
:10703000F5D122681370F2E770B50E00110004005C
:107040001500FFF7E4FF002804D12000FFF7C7FF79
:10705000200070BDA5603100206806F0B3FBF7E7A3
:10706000002370B504000D00036043608360994203
:1070700007D0080006F0AEFB290002002000FFF751
:10708000DBFF200070BD70B5050008000C0006F0A5
:10709000A1FB210002002800FFF7CEFF70BD10B554
:1070A000002304008AB023606360A360080001A984
:1070B00001F067FC200001A9FFF7E5FF20000AB0FE
:1070C00010BD70B5050000680C0000280FD00968DD
:1070D00000290AD06B68A268934206D306F072FBBF
:1070E000A368AB600023A36070BD05F0D1FD2368E9
:1070F0002B6063686B60A368AB60002323606360F0
:10710000F1E710B50B000400884205D0096800299A
:1071100004D09A68FFF790FF200010BDFFF75FFFD3
:10712000FAE7002310B50400036043608360FFF7B3
:10713000E8FF200010BD10B50400884201D0FFF721
:10714000C0FF200010BD10B50400002903D0FFF7D8
:107150009AFF200010BDFFF742FFFAE7F8B50400E0
:107160000F1E02D100263000F8BD0126002AFAD0F9
:107170008368D5182900FFF74AFF0028F2D023685A
:10718000A2683900981806F01DFBA560EBE710B562
:107190008A680968FFF7E2FF10BD07B5002201AB5E
:1071A00019705A7019000132FFF7D8FF0EBD13B5E0
:1071B0000A220400080001A901F0E3FB01A806F07F
:1071C00009FB01A902002000FFF7C8FF16BD1FB58B
:1071D00004000A220800694601F0D7FB684606F061
:1071E000F9FA694602002000FFF7B8FF04B010BDAD
:1071F00030B589B0190003AB0500009310000223DD
:10720000042201F0EDFB040006F0E4FA2100020084
:107210002800FFF7A3FF09B030BD70B504000D1EB4
:1072200004D12000FFF7DBFE200070BD080006F04F
:10723000D1FA290002002000FFF790FF0028F0D0CB
:10724000F2E710B50400FFF7A8FF002802D12000E4
:10725000FFF7C5FE200010BD10B50400FFF7B7FF13
:10726000002802D12000FFF7BAFE200010BD10B5A3
:107270000400FFF7BDFF002802D12000FFF7AFFE9A
:10728000200010BD026810B50B68002A13D0002B37
:107290000CD181681800002907D0107805E08968B2
:1072A0001000002901D01878404210BD19001000CC
:1072B00006F07EFAF9E7002BF1D11800F5E78268B5
:1072C00010B594468A680023944504D1FFF7DAFF8D
:1072D00043424341DBB2180010BD70B50D00002AD7
:1072E00006D0002904D084689C4202D800230B7089
:1072F00070BD013AE41A944200D9140001682200DA
:10730000C918280006F07EFA00232B55F0E78368A1
:1073100010B5934207D90468A01806F03BFA00287C
:1073200001D0001B10BD01204042FBE710B5002238
:10733000FFF7EDFF10BDF7B515008A680F00002AB2
:107340001BD08368002B18D09A4216D8AB4200D8C5
:107350005D1E066801243000731964420193019B8D
:1073600098420CD8396806F061FA002807D0831BD0
:10737000AB4200D81C000130F1E701246442200038
:10738000FEBD10B583688A689A1AFFF7D4FF10BD56
:10739000F7B50E00019014001D009A4201D92C008F
:1073A00015000C490198FFF75BFEB768A7420ED99C
:1073B000AF4200D92F00002233680198DB191D78F5
:1073C0001A7033681919FFF7BEFE3368DD5501984E
:1073D000FEBDC046F806010070B5856804008D4208
:1073E00013D9002A11D06B1A934200D913002068D8
:1073F000ED1ACB18C3186A1A4018A560190006F0D8
:1074000001FA00212268A368D15470BD012210B591
:107410005242FFF7E1FF10BD0368002010B5834220
:1074200002D0180005F0E7FB10BD006810B5002879
:1074300002D005F0DBFB10BD00200021FBE700209F
:10744000704770B50F26CB1D013902003240D5B20E
:107450002C0000093034092A00DD07341C70013B80
:107460008B42F2D170BD000010B50C000B4B1868B8
:10747000FFF7E7FF21000A4B08311868FFF7E1FF2B
:107480002100084B10311868FFF7DBFF2100064B85
:1074900018311868FFF7D5FF202010BD0CA0800020
:1074A00040A0800044A0800048A0800008B4024BA7
:1074B0009C46103808BC60476974000070473F2044
:1074C000704713B56B460268D971073354681900C9
:1074D0000122A04716BD000070B50A260B7892B0B5
:1074E0006E44023305000B703C220021300005F091
:1074F00007FC394801AC0690384824210790062043
:1075000020776846364AA1742281364A364BA281DA
:10751000FD3AFF3A8018C177684623390630C177B3
:1075200068460730C17702A8C1770720F2770326A3
:1075300008316944C87703A9CE7710212B366E44F1
:107540003170092621851F3169440E700CA9053E52
:107550000E7033212380022369440B7006360DA977
:107560000E7022493536A1863B216E44307010A83A
:107570006274E27702703D3269446A440B701370A2
:1075800040210022E37023716371A37341336B4484
:10759000218719705A702B7DC039A370A37263774D
:1075A0000133DBB2A3776A7D0B200D0068441543DD
:1075B000C5773120684403703A23501C6B4418701F
:1075C000412302320A436B441A70210042220848C8
:1075D00000F07AFF12B070BD1001042402060524E9
:1075E0000904000001020000080B0000070500006C
:1075F0008008002008B4024B9C46103808BC604745
:10760000D974000070B5027D0B790C0000259A42F8
:107610000BD10B784E78A12B09D1212E05D1072251
:107620001F49204800F050FF0135280070BD212B74
:10763000FBD1202E2BD1072219491A4800F086FED3
:10764000174B1A785978090211439A78120411439A
:10765000DA7812060A439621C9008A421DD1DB79E5
:10766000DB071AD4FA20FFF78FF800210D4801F04C
:1076700037F80125232ED8D1E378A2781B021343D3
:10768000094A00210748136001F02AF8CDE7222EAD
:10769000EFD18A78024BDA71D2E7FFF77FF8E4E79F
:1076A00098000020800800209400002008B4024BBD
:1076B0009C46103808BC60470576000010B5417D37
:1076C000006A013100F07AFD034B1B6801335A1E3A
:1076D0009341181810BDC046A000002010B5417D90
:1076E000006A023100F080FD10BD10B5417D006AD6
:1076F000023100F047FD10BD70B50D00417D040062
:10770000130002312A00006A00F034FE002801D183
:107710000123636070BD000010B5054C23685A1C3E
:1077200004D103685B69984703002060180010BD0E
:10773000A0000020074A0300106810B5411C03D0C8
:1077400001235B42136010BD597D186A013100F0BE
:10775000C1FDF8E7A000002070470020704700003E
:10776000FA239B0010B583600F4B0022C3820300F5
:10777000283383610D4B04004260C261180044331A
:1077800023610830631D21622060DA778323A362BE
:10779000813BE3628033236300F0CCF82100103199
:1077A00000F09CF8200010BD030200004C11010005
:1077B000022110B5094B1A68437D5B01D318FF33D2
:1077C0009C7A21439972437D0133DBB25B01D3186C
:1077D0000122FF33997A0A439A7210BD380D0020B6
:1077E0007047000010B508220021024805F088FA11
:1077F00010BDC0469800002010B5FEF723FBF4230F
:10780000FF330024984207D9044B0A20DC79631E19
:107810009C41E4B2FEF74CFB200010BD9800002014
:1078200010B502490248FFF79BFF10BD80080020F9
:107830001808002070B50E0000254468002C0BD0FD
:10784000236831005B6820009847002802DB2D1870
:10785000E468F3E701256D42280070BD70B50D00A6
:107860004468002C08D0236829009B6820009847B2
:10787000002802D1E468F4E7200070BD70B50D0067
:1078800000264468002C09D02368290020001B69C9
:10789000984736182D18F6B2E468F3E730002C70DC
:1078A00070BD70B50D004468002C08D02368290015
:1078B0001B6820009847002802D1E468F4E7200004
:1078C00070BD70B50D004468002C06D02368200000
:1078D000DB6829009847E468F6E770BDF0B58C795D
:1078E000457803002A190020072A1FDC5A688242C3
:1078F00016D159601A78C8790A7112184D711A7028
:1079000000220B4DD0B284420FD98F685878960070
:10791000F75986000130775101325870F2E70200C2
:10792000D0680028FBD1D160E4E70120F0BDC0465B
:10793000580800200121064A10B5136805480B407D
:1079400004D18024640004804360116010BDC046EF
:107950004C08002050080020704710B50400FEF7C6
:1079600063FE200010BD0000F0B5822919D1C3B21A
:10797000294D5A01AA189169284C80010C40C02158
:1079800089052143916126490833401870215061CF
:1079900028685B011A5C8A43110030220A431A549A
:1079A000F0BD0029FCD1C026C1B21B4C4B01E3182D
:1079B0009A681A4DB6052A4032439A60194A8001E6
:1079C00082185A600A000727246808325201115DA4
:1079D000B9430F000121394311559F6910493D40BA
:1079E00040182E439E6158617020115D814308004C
:1079F00010210143115599680B48A21808408021B5
:107A00004903014399609968890B89039960402370
:107A100011790B431371C3E7380D0020FFFFFF8F6F
:107A2000AC0800206C0A0020FF3F00F0EFF3108349
:107A300003600123436072B670470368002B02D1D4
:107A400062B6BFF36F8F7047F7B50600FC36B369B7
:107A50000400002B18D1B2277F00C55D6846FFF7F0
:107A6000E5FF019BEDB2013B02D3E55DEDB2FAE724
:107A700068460193FFF7E1FF002D01D10020FEBD14
:107A8000706E336EC01AFAE76846FFF7CFFFD82250
:107A90000025019B5200013B02D3A55CEDB2FAE741
:107AA00068460193FFF7C9FF002DE7D0D6235B009E
:107AB000E058043BE358E5E710B54468FC304369FF
:107AC0000B48DBB25A01A2189168083308408021A4
:107AD00049030143916091685B01890B89039160BF
