:1020000000800020914900007949000079490000D2
:1020100000000000000000000000000000000000C0
:1020200000000000000000000000000079490000EE
:10203000000000000000000079490000E5490000B0
:102040007949000079490000794900007949000088
:102050007949000079490000794900007D49000074
:102060007949000079490000794900007949000068
:102070007949000079490000E948000079490000E9
:102080007949000079490000E12B0000952B000000
:10209000B52B00007949000079490000794900001A
:1020A0007949000079490000794900007949000028
:1020B0000000000010B5064C2378002B07D1054B1B
:1020C000002B02D0044800E000BF0123237010BDA4
:1020D000300100200000000030C00000044B10B5AB
:1020E000002B03D00349044800E000BF10BDC046E8
:1020F000000000003401002030C0000010B50400D2
:102100004068002801D009F027FA200010BD0A21FC
:10211000435E0200181E01D01B01D018704710B595
:102120000023884207D0984207D00133002902D00B
:1021300009F0F2FA0300180010BD01235B42FAE730
:1021400070B50D00041E09D0C1682800FFF7E7FF35
:10215000002803D02000FFF7DAFFF3E7200070BD6E
:1021600003000020834208D01A7A7F308243100097
:102170000C22024301201A72196070474A688B686A
:102180001032934202D2002318007047103B8B603C
:10219000002BF8D04268002A08D0991A0911518101
:1021A000002243605A811A72DA60EDE70360F7E7B4
:1021B00070B528C90400181E02D02900FFF7DEFF01
:1021C00020606560200070BD70B505000E1E15D042
:1021D0000468002C04D02000FFF799FF86420ED13E
:1021E0003000FFF794FF002C0BD0031E02D0031B1E
:1021F0001B111BB26381002800D16C6070BD04000C
:10220000E7E72860F7E700001FB50122094B01004E
:1022100001A81A7003F0F7FC074901A803F03EFD7E
:102220000100064803F01AFD01A803F041FC05B0C7
:1022300000BDC046C4020020AEB900005C02002010
:1022400010B501210F2002F0B3FE2E490F2002F03D
:10225000C5FD0121122002F0ABFE0021122002F088
:10226000BDFD0121132002F0A3FE0021132002F086
:10227000B5FD0121002002F09BFE0121002002F0AB
:10228000E3FE0121080002F093FE0021012002F08C
:10229000DBFE0121022002F08BFE0021022002F071
:1022A000D3FE0021032002F083FE0121042002F06E
:1022B0007FFE0121052002F07BFE0121062002F0B5
:1022C00077FE0121072002F073FE0121082002F0B1
:1022D0006FFE0121092002F06BFE00210A2002F0AE
:1022E00067FE00210B2002F063FE00210C2002F0AB
:1022F0005FFE00210D2002F05BFE00210E2002F0A7
:1023000057FE10BDFF030000F7B5154C0700200075
:1023100002F05AFA00266B4620255E711E71019A62
:102320002000104902F078FA3100072002F08CFEFC
:102330002B00013BFDD140212000394302F09CFAE3
:102340003100200002F098FA0600013DFDD1012184
:10235000072002F079FE200002F07AFA3000FEBD7C
:10236000D402002008E43B0010B50120FFF7CCFFA9
:102370000323184010BD000010B5FFF7F5FF01382A
:10238000C0B2022803D8034B8000C05810BD0248D9
:10239000FCE7C04650B8000079AE0B444006C00FC1
:1023A00070478006C00F7047F7B5154C0700200036
:1023B00000250E0002F008FA6B465D711D71019A4E
:1023C0002000104902F028FA29000720203502F0E9
:1023D0003BFE2B00013BFDD160212000394302F080
:1023E0004BFA3100200002F047FA013DFDD10121F6
:1023F000072002F029FE200002F02AFAF7BDC046AD
:10240000D402002008E43B0073B5124D06002800FA
:1024100002F0DAF900246B465C711C71019A280005
:102420000D4902F0F9F921000720203402F00CFEDA
:102430002300013BFDD13100280002F01DFA013CD0
:10244000FDD10121072002F0FFFD280002F000FA73
:1024500073BDC046D402002008E43B00F0B500265E
:10246000202785B08020FFF7CFFF1B4D280002F00A
:10247000ABF902AB5E711E71039A2800174902F096
:10248000CBF93100072002F0DFFD3B00013BFDD11D
:102490003021280002F0F0F93100280002F0ECF9B8
:1024A00031000190280002F0E7F931000400280013
:1024B00002F0E2F90600013FFDD10121072002F000
:1024C000C3FD280002F0C4F9019B24021804204334
:1024D000304305B0F0BDC046D402002008E43B0004
:1024E00003000020002B03D05A1E13400130F9E7EF
:1024F00070470000F0B58BB00700FFF73DFF051CEB
:102500000020FFF7EDFF0400FF20FFF7E9FF24188C
:102510007F20FFF7E5FF2318281C029306F01EFA20
:1025200001903020019B0321584306F029F8002632
:102530000390029B9E423CDAFFF790FF040CE4B24A
:1025400005002000FFF72DFFE30917D0002817D161
:102550002000FFF723FF002824D11F23ADB21C4029
:10256000192C01D9144BE4186400E553019B002B8E
:1025700002D0039B013BFDD10136DAE7002811D0E0
:102580000E4904A803F0DEFA04A907A803F03BFBF8
:1025900007A8FFF739FE07A803F08AFA04A803F09A
:1025A00087FAE3E72000FFF7F9FE0028DED00449B0
:1025B000E7E70BB0F0BDC046FFFFFF7F5CB800004F
:1025C0007DB80000F7B504000D00022902DC0024EC
:1025D0002000FEBD080008F01DFE0B008021020057
:1025E000C905002004F0B4FE060020000F0008F02A
:1025F00011FE0022009001911C4B3000390008F0C0
:102600006FFA02000B000098019906F059F90028B2
:10261000DDD12300681E0341DAD008F0FBFD0F0076
:102620000B00802106000200C905002004F090FE86
:1026300000900191802132003B000020C90504F088
:1026400087FE0022094B06000F000098019908F050
:1026500047FA08F0A9FD204008F0DCFD32003B00FD
:1026600008F03EFA08F0A0FD0400B1E70000F03FDA
:1026700070B514001D000600002200232000290070
:1026800006F004F9002801D0134C144D00220498E0
:102690000599002306F0FAF8002803D00022104B19
:1026A00004920593300008F0B5FD22002B0007F0DE
:1026B000A5FF00220B4B07F0A1FF00220D00040034
:1026C00004980599084B07F099FF02000B002000C1
:1026D000290007F089FB70BDB81E85EB51B80A4090
:1026E0000000F03F00408F400000DE40F0B50500E4
:1026F00087B0C08E0C000F0007F01AF808F0F6FD46
:102700000022374B07F070FBD83738607960288F8C
:1027100007F00EF808F0EAFD26000022314B07F022
:1027200063FBE03630607160288E08F0ADFD203E1E
:1027300030607160688E06F0FBFF08F0D7FD002264
:10274000284B07F051FBB060F1601021A88EFFF715
:1027500039FF254B1A00E03211685268D8330291D4
:1027600003921A685B6800920193029A039BFFF739
:102770007FFF00221D4B07F041FF00221C4B08F099
:10278000AFF900221B4B07F02FFB00221A4B07F07A
:102790000FF83061716100267300E85A1021FFF7CD
:1027A00011FF10210290288EFFF70CFF2300E03369
:1027B0001A685B6804920593029B181A3A687B6852
:1027C00000920193049A059BFFF752FFF300E31870
:1027D000013618605960182EDED107B0F0BDC04632
:1027E0000000DE400000A8405001002000408F4063
:1027F00000820441009881400000394010B51E4914
:10280000041C06F083F800280AD01C49201C06F09E
:1028100061FD1B4906F054FA002106F0B7F810BD1F
:102820001549201C06F090F8002816D01549201CE8
:1028300006F076F8002810D00F49201C06F04AFD5B
:1028400008F054FD104A114B07F0CEFA0022104B4D
:1028500006F0AEFF08F09CFDE1E7201C08F046FD05
:1028600000220C4B08F03CF9074A0B4B07F0BCFA6E
:1028700000220A4BECE7C0460080BB440000FA434C
:10288000000020410010DB44333333333333244022
:102890000000594000629B403333254000405F40B8
:1028A00070B50022002304000D0005F0EFFF0028A2
:1028B0001CD10022104B2000290005F0E7FF002862
:1028C00016D10E4A0E4B2000290005F0DFFF00282C
:1028D00010D100220B4B2000290008F001F9002242
:1028E000094B07F081FA08F053FD70BD0020FCE7AA
:1028F0000648FAE70648F8E70034A7401F85EB5181
:10290000B81ED53F00C8994000002B40000020426F
:10291000000020C2F0B5374D00202B003649D833D7
:10292000186059602B0035493548E033186059600C
:1029300087B0322002F09AF80121080002F084FBEF
:10294000C82002F093F80121072002F07DFB9620B9
:1029500002F08CF80021022002F076FB0021080032
:1029600002F072FB962002F081F80121002002F0B3
:102970006BFBFA20400002F079F80024214B224E34
:10298000E15CA05D0134FFF70FFD092CF6D10024B6
:10299000375D3800FFF7B8FC1A4B1B5D834214D03B
:1029A0001A49684603F0CEF83900684603F066F924
:1029B000694603A803F027F903A8FFF725FC03A83D
:1029C00003F076F8684603F073F80134092CDFD180
:1029D000043C0F4E013C3000FFF78CFD2900300015
:1029E000FFF784FE0A2002F041F8002CF1D107B075
:1029F000F0BDC046500100200000F03F51B80A4031
:102A0000B81E85EB4C000020B0B9000093B900005F
:102A1000840200200C4A0D4B0D491A600A004B78C5
:102A2000DB09FCD10B4B0C4919605378DB09FCD155
:102A30000A4B0B4919805178C909FCD10949198001
:102A40005378DB09FCD1704704300000080C0040CB
:102A5000000C0040040C004004070300020C00407E
:102A60001C4400001B440000C3220E4B920010B512
:102A70001A800D4A1000D37BDB09FCD180210B4B5F
:102A80000903196001230A4C21781943217009496F
:102A90000C7823430B70084B1380C37BDB09FCD1FC
:102AA00010BDC046183000420030004200E100E096
:102AB0000E3000420D30004222060000104A114B39
:102AC00030B51A80104A1000D37BDB09FCD180217D
:102AD000C524FF250D4B49031960A4001959A943CA
:102AE000195101230A4C21781943217009490C78A6
:102AF00023430B70084B1380C37BDB09FCD130BD33
:102B0000083D0000183400420034004200E100E0BB
:102B10000E3400420D34004222050000154B10B562
:102B20001868154906F0A4FAEA21890506F0A0FA0A
:102B3000FE21890506F0CEFB06F090FD0F4B104AF2
:102B400080B218801000D37BDB09FCD180210D4BB3
:102B5000C902196001230C4C2178194321700B49DB
:102B60000C7823430B700A4B1380C37BDB09FCD129
:102B700010BDC0466400002000007A44182C0042BA
:102B8000002C004200E100E00E2C00420D2C00421F
:102B900022070000054B9A7BD20705D55B7BDB073C
:102BA00002D50122024B1A707047C0460030004225
:102BB0000E300042074B9A7BD20709D55B7BDB07BF
:102BC00006D5054A1368013313600122034B1A70BE
:102BD0007047C04600340042D00200200E3400424C
:102BE000064B9A7BD20707D55B7BDB0704D5012315
:102BF000034A1370034A13707047C046002C00420A
:102C0000BE0200200E2C004270B50123002803D024
:102C100001DB032802DD0023180070BD881A06F0CE
:102C20003DFD0F49051C05F085FE03230028F3D167
:102C30000021281C05F07EFE012400280BD0084945
:102C4000281C05F06DFE002800D1041CE4B263428C
:102C500063410133E0E70349281C05F075FEF2E704
:102C600000002040000020C070B504000D00312A93
:102C700005DC052002F014FA0121012800D1002111
:102C8000052002F0E1F9032C27D8200005F06EFCA6
:102C9000020C121C0021042002F0D6F9210012209F
:102CA00002F09CF8200070BD0021042002F0CCF955
:102CB0002C00F3E70121042002F0C6F9084B6C1C3C
:102CC0009D42EBDD074CE9E700240021042002F0DF
:102CD000BBF9A542E2DD6C1EE0E70024DEE7C0465A
:102CE000FE030000FF03000010B50C00002805D013
:102CF000012809D1094B99420CDC01342100132031
:102D000002F06CF8200010BD0228F7D1002903DD85
:102D1000013CF3E7024CF1E70024EFE7FE0300007B
:102D2000FF03000000B5002A0FD1042805D805F0E4
:102D30001DFC060E030A08000322100000BD002936
:102D4000FBD00122F9E70422F7E70022F5E702228F
:102D5000F3E710B50068FFF7F3F910BD030000209A
:102D6000834209D01A7A7F308243002905DB773805
:102D700002431A721960073870470A204942024319
:102D80001A7219600938F7E7202210B5037A134048
:102D90001A1E02D0FFF7DDFF0200100010BD10B5B3
:102DA000002801D0FFF7D5FF10BD437B002B06D1D3
:102DB00083685A1C82601B78037301234373007B72
:102DC000704710B504002000FFF7EFFF0A2805D870
:102DD000092807D2002808D0012009E00D2801D0D9
:102DE0002028F9D100236373EDE7012354342370C5
:102DF00010BD70B504000D00FFF7D7FF0023A842F7
:102E000001D163730133180070BD2F2815D9012338
:102E1000392803D95E2803D97A2803D818007047C7
:102E200040280AD901235A28F8D9002301222D3835
:102E3000C0B282425B41DBB2F0E701232B28F4D120
:102E4000ECE77F22D3B50300007A0C00104006386F
:102E5000062831D805F08AFB3D303130233004009C
:102E6000186808F043FA060060680F0008F0D2F90D
:102E7000009001910B0002003900300005F00CFDBC
:102E80000423002809D1009A019B3000390005F085
:102E900017FD0300581E8341013323700CE01968AD
:102EA00063680422002B06DC5B428B4203DB023AA0
:102EB0008B4200DC013A2270D3BD1968626802239C
:102EC000002AEADBDB189142E7D38A429B415B424E
:102ED000E2E719684B1E9941F0E707B503000022AD
:102EE000694640680A700132D9680192FFF757FFBE
:102EF000002802D06946FFF7A4FF6B461878013816
:102F000043425841C0B20EBDF7B509680F683C1E78
:102F100029D002684468944215D93D0013002E78E8
:102F2000B4465E1C01961E78664504D1002E08D07A
:102F30000135019BF3E71D7801331A00002DFAD10A
:102F4000E9E7002A11D18D6882686B1CE31893426F
:102F50000DD84360002C06D009682A00200008F034
:102F600005FB002363552000FEBD1400FBE7002491
:102F7000F9E7F0B5037A85B00F0001927F211A00BE
:102F800005000A4005D18B435F390B430372026091
:102F9000426020222B7A1340181E2AD03E68301E31
:102FA00027D02C68002C19D0E1683000FFF7B7F863
:102FB000002811D02000FFF7AAF80400F2E703A9C7
:102FC00001980397FFF7A0FF00280DD08023227AF5
:102FD0005B4213432372E06020000AE0019928005D
:102FE000FFF7CCF8041EEAD128002100FFF7ECF827
:102FF000002005B0F0BD70B50D00040028001100E0
:1030000010302A00FFF7B5FF002809D07F22037A8D
:1030100093431A0040231343037200230360436069
:1030200020606560200070BDF0B59FB001900F007A
:1030300005A8DB491E0002F085FDDA4908A802F068
:1030400081FDD9490BA802F07DFDD8490EA802F0F8
:1030500079FDD74911A802F075FDD64914A802F0F0
:1030600071FD7F22D44C05A9636817A8A36023696A
:10307000251DE360237F9343237702F0C4FD17A946
:103080001BA81A9502F0BFFD17A802F011FD1A98AF
:103090001A9A1BA91030FFF76CFF0199FFF75EFE2B
:1030A0001BA802F005FD08A917A8002F00D136E1E2
:1030B00002F0A9FD17A91BA81A9502F0A4FD17A8F4
:1030C00002F0F6FC1A981BA910301A9AFFF751FF6C
:1030D0000121FFF743FE1BA802F0EAFC0BA917A889
:1030E000002E00D12DE102F08EFD043417A91BA89B
:1030F0001A9402F088FD17A802F0DAFC1A981BA9AE
:1031000010301A9AFFF735FF0121FFF727FE1BA8A1
:1031100002F0CEFC0EA917A802F075FDA64D17A966
:103120002B1D1BA81A9302F06EFD17A802F0C0FC1D
:103130001A9F1BA938003A001030FFF71AFF041E2F
:103140000FD0249B02A938000293FFF7DDFE7F22F7
:10315000237A9343002800D106E17A3A134323727D
:1031600020601BA802F0A4FC2B7F7F211A000A40DC
:1031700005D18B435F390B432B776A61AA6120220B
:103180002B7F1340181E13D08C4F68693900FEF74F
:10319000D7FF00280CD1291D14352800FEF7EEFFBB
:1031A000041E00D0E2E001002800FFF70DF8200027
:1031B0002999FFF7D3FD0024299B9C4200DBDBE02B
:1031C0000A2221001AA802F0DCFC1AA911A802F0B8
:1031D00045FD1AA802F06CFC0A2221001AA802F090
:1031E000D0FC1AA914A802F039FD1AA802F060FC5C
:1031F000714911AA043103A8FFF7FDFE259D259F03
:103200004035E83703A91AA8FEF7D2FF03CD08F02E
:10321000BFF8011C1A98FEF7A3FFBD42F2D1664920
:1032200014AA043117A8FFF7E6FE17A91AA8FEF79B
:10323000BFFF26991A98FEF793FF17A91AA8FEF761
:10324000B7FF27991A98FEF78BFF17A91AA8FEF760
:10325000AFFF28991A98FEF783FF0A2221001AA8C7
:1032600002F08FFC1AA905A802F097FD010005A83D
:1032700002F0B4FD1AA802F01BFC0A2221001AA8D1
:1032800002F07FFC1AA908A802F087FD010008A837
:1032900002F0A4FD1AA802F00BFC0A2221001AA8D1
:1032A00002F06FFC1AA90BA802F077FD01000BA831
:1032B00002F094FD1AA802F0FBFB0A2221001AA8D2
:1032C00002F05FFC1AA90EA802F067FD01000EA82B
:1032D00002F084FD1AA802F0EBFB0A2221001AA8D2
:1032E00002F04FFC1AA911A802F057FD010011A825
:1032F00002F074FD1AA802F0DBFB0A2221001AA8D2
:1033000002F03FFC1AA914A802F047FD010014A81E
:1033100002F064FD1AA802F0CBFB01344CE702F086
:1033200072FC17A91BA81A9502F06DFC17A802F0F1
:10333000BFFB1A981BA910301A9AFFF71AFE390022
:10334000C7E602F060FC043417A91BA81A9402F027
:103350005AFC17A802F0ACFB1A981BA910301A9A55
:10336000FFF707FE3100D0E62372FAE67F22037AE8
:10337000C760134003721AE714A802F099FB11A862
:1033800002F096FB0EA802F093FB0BA802F090FB54
:1033900008A802F08DFB05A802F08AFB1FB0F0BD63
:1033A0009BB80000A3B80000ADB80000B8B800009A
:1033B000C6B80000CFB800003C020020D9B8000019
:1033C00037B500236A461370C3B27F280BD85370F9
:1033D0006B460233013B1878002831D00A68541C30
:1033E0000C601070F6E73F2480226D462340524265
:1033F000134380096B7085B2C3B21F2D06D84032CB
:1034000013436A4693706B460333E3E76D462340EC
:1034100000041343800DAB70C3B20F2805DC2022DB
:1034200052421343EB7001ABD4E71C4010238011D0
:103430005B4218436B462243EA7028710533C9E7A3
:1034400037BD0000F7B505000027FFF7AEFC6F732E
:1034500001902800FFF7A9FC0024019A03006C7377
:10346000824259D0A04204D10123543500202B7050
:10347000FEBD5C284BD12800FFF797FC0028F3D055
:10348000284B752839D104266C732800FFF78DFC72
:103490000028E9D0402806D83038C0B20F2806D915
:1034A00054350223E2E7202398433738F5E7002319
:1034B0002401013E0443F6B2A4B26B739E42E4D1F0
:1034C000A0239B01E318184A9BB2934202D8A4059B
:1034D000A70DBEE790239B01E3189BB22000934207
:1034E00006D880238005BC02800D20435B02C018F3
:1034F0002900FFF765FFACE702331A78002ACFD026
:103500009042F9D15B78002BCAD000226A732A68F6
:10351000511C296013709CE72B6801205A1C2A60FB
:103520001C70A5E7C1B90000FF030000036870B577
:1035300043600400FFF739FC27280DD022280BD068
:103540002000FFF732FC0500FFF75FFC061E09D1E3
:1035500002235434237003E02000FFF773FF0600BA
:10356000300070BD00236373236820005A1C226062
:103570001D70FFF71AFC0500FFF747FC0028F1D18A
:1035800023685A1C22601870EAE70000F8B50C1E88
:103590000EDD002501260E4F344203D0AB00D95971
:1035A00005F066FD01356410EDB2002CF4D1F8BDD4
:1035B00000250126074F4C42002CF8D0344203D09E
:1035C000AB00D95905F054FD01356410EDB2F3E7B5
:1035D000340000201C000020F7B5037804000E0022
:1035E0002B2B1CD02D2B1BD10127013423781A0043
:1035F000303A092A01D92E2B65D100200A254549E8
:1036000022781300303BDBB2092B0BD8884212D84A
:10361000DA43684382420ED3C0180134F0E7013424
:103620000027E3E7002A06D130600823002F00D0EE
:103630000233337147E00025374B984205D90A2100
:10364000013504F09DFF6DB2F6E723781A00303A99
:10365000092A03D801356DB20134F6E72E2B0FD1BC
:103660000A212E4A01342378303BDBB2092B07D8DC
:10367000904203D84843013D18186DB20134F2E777
:103680002022237800219343452B31D163782D2BC1
:103690001AD12C3B0234019300212278303AD3B264
:1036A000092B21D80A23594351186A18262A19DDF3
:1036B000019B0C22002B0ED00023002F01D0802371
:1036C0001B0633603271F7BD2B2B02D00134019100
:1036D000E2E70234FBE7002F01D0114BF1E7FF23B3
:1036E000DB05EEE70134D8E7019B002B00D049420F
:1036F0002378002BE7D16D1806F01AF82900FFF7A0
:1037000045FF002F02D080231B06C01830600C2319
:103710008FE7C04699999919FFFF7F00CBCC0C0029
:10372000000080FFF0B585B005000C00FFF73DFB01
:10373000002601900198F7B2FFF767FB00280ED032
:103740000136402E0AD06A46002312796B73AB19FA
:10375000DA742800FFF729FB0190EBE73F270026EA
:10376000EB191E752B7D742B0CD17F22237A93438A
:103770001A0006231343237201232360042F0DD163
:1037800001200FE0662B0FD17F22237A266093431E
:103790001A00062313432372052FF1D001230020C2
:1037A00054352B7005B0F0BD6E2BE7D0280002AB6E
:1037B000190014301E71FFF70FFF02AB1B790A2BA3
:1037C0000BD00C2B11D0082B12D1029A22607F2132
:1037D000227A8A4313432372D2E77F21227A8A43D3
:1037E00013432372029B2360CAE7029A2260EEE72A
:1037F000022354352B703000D4E7F8B504000D00D7
:103800001F1CFFF7DEFA002802D100263000F8BDA9
:103810002000FFF7CAFA27285FD006D822285CD0FC
:1038200029002000FFF77EFF55E05B2812D07B289F
:10383000F6D17F222B7A290093431A0020231343C9
:103840002B72002300222B606B6020003B1C00F0D9
:1038500056F840E07F222B7AFFB293431A004023B0
:1038600013432B7200232B606B609F4203D15434AF
:1038700005332370C9E763732000FFF7A2FA061E21
:10388000C3D05D212000FFF7B4FA0028BED1216922
:103890002800FEF773FC011E02D154340323E8E72D
:1038A0007B1E00222000FFF7A8FF0028ADD02000DB
:1038B000FFF787FA0028A8D05D212000FFF799FACA
:1038C0000028A3D12C212000FFF793FA0028DED195
:1038D000022354342370060098E7236820006360B5
:1038E000FFF7B0FD061E00D18FE77F2263682B60D3
:1038F0002B7A93431A00042313432B7286E7F7B500
:10390000DEB204000091002E04D10523543423704C
:1039100000250DE000234373FFF753FA01900028C0
:10392000F6D07D212000FFF764FA051E35D0019DF9
:103930002800FEBD676800983900FFF70AFA0028E2
:103940000DD121690098FEF719FC002802D15434EA
:10395000032334E07F22037AC7601340037201001F
:10396000731E00222000FFF748FF0028D0D020005F
:10397000FFF727FA0028CBD07D212000FFF739FA86
:103980000028D4D12C212000FFF733FA002814D0CE
:103990002000FFF716FA0028BAD02000FFF7C6FD76
:1039A0000028B5D02000FFF70CFA0028B0D03A214B
:1039B0002000FFF71EFA0028BCD1022354342370E4
:1039C000B6E707B5031E2ED07F22007A10400438D8
:1039D000082828D804F0CAFD101005270527092754
:1039E0002500186805F0A4FE05E0186805F0A0FEA3
:1039F00080231B06C0180EBD18686A46002369465E
:103A00001371FFF7E9FD6B461B790A2B06D000986E
:103A10000C2BF0D0082B06D10098E3E7009B58420E
:103A2000E0E71868E7E70020E5E70000F7B503786E
:103A300004000E002B2B1CD02D2B1BD10127013491
:103A400023781A00303A092A01D92E2B65D100209B
:103A50000A25454922781300303BDBB2092B0BD8ED
:103A6000884212D8DA43684382420ED3C018013428
:103A7000F0E701340027E3E7002A06D1306008238D
:103A8000002F00D00233337147E00025374B9842B6
:103A900005D90A21013504F073FD6DB2F6E72378EC
:103AA0001A00303A092A03D801356DB20134F6E71D
:103AB0002E2B0FD10A212E4A01342378303BDBB262
:103AC000092B07D8904203D84843013D18186DB21E
:103AD0000134F2E72022237800219343452B31D192
:103AE00063782D2B1AD12C3B0234019300212278CC
:103AF000303AD3B2092B21D80A23594351186A18F6
:103B0000262A19DD019B0C22002B0ED00023002F4A
:103B100001D080231B0633603271F7BD2B2B02D0FE
:103B200001340191E2E70234FBE7002F01D0114B91
:103B3000F1E7FF23DB05EEE70134D8E7019B002B1B
:103B400000D049422378002BE7D16D1805F0F0FD35
:103B50002900FFF71BFD002F02D080231B06C01891
:103B600030600C238FE7C04699999919FFFF7F00B9
:103B7000CBCC0C00000080FF13B503000020834273
:103B800018D07F22187A1040043808283ED804F054
:103B9000EDFC1212053D053D0A3D3B001868C3438C
:103BA000DB17184006E0802200201B6812069342B3
:103BB00000D8584216BD186800246B4669461C712F
:103BC000FFF734FF6B461B790A2B05D00C2B08D06E
:103BD000082B1BD10098E2E78022009B12062000F0
:103BE000E5E7009CCF21201C090604F0ADFE00286B
:103BF000E0D09E21201CC90504F092FE0028D9D0F7
:103C0000201C05F02BFDD5E71C68EBE70020D1E771
:103C100010B5006803685B68984710BD70B5040074
:103C200008000D0007F08AFD290002002000FFF7C0
:103C3000EFFF63681818606070BD10B5040000687D
:103C400003681B68984763681818606010BD00001F
:103C500070B50D00040022212000FFF7EEFF297847
:103C6000002909D00A4B01351E78002EF4D05A786D
:103C70008A4206D00233F7E722212000FFF7DDFF5A
:103C800070BD5C212000FFF7D8FF3100E4E7C0469B
:103C9000C3B900000623F7B50E1C0700837258490C
:103CA000301C04F051FE002844D0002314242025A9
:103CB0000093544B311C185904F032FE002809D0EF
:103CC000514B301C195905F0D3F9009B061CE8181C
:103CD00003B20093043C6D10231DEAD1033400218C
:103CE000301C04F027FE002828D0301C07F0FEFA14
:103CF000464A474B04F0DAFD00281FD0A300019389
:103D000023061BD4434B019A311C985804F012FE31
:103D100000280AD03B4B019A301C995805F0A8F9AD
:103D2000009B061C581B03B20093019B6D10013CC5
:103D3000043BE4E7202505240090D0E76B461B8870
:103D4000301C3B8104F00AFE0400334D38600190C2
:103D5000019B092B0DD90A21280004F011FCBB7A24
:103D60000500013B0198BB720A2104F009FC019097
:103D7000EEE7200005F0DCFC011C301C05F0AAFA7F
:103D8000061C280005F0D4FC011C301C05F070F95D
:103D9000019004F0E3FD060005F0CAFC011C019847
:103DA00005F098FA011C04F0F1FD04F0D7FD861926
:103DB000AE4214D27E600A257E682900300004F0ED
:103DC00065FC00291AD10A243C57002C16DD290075
:103DD000300004F0D5FB013C7860BC72ECE70023B6
:103DE0007B60009B01343C60002BE4D0092CE2D9BD
:103DF00018000123013038813B60DCE73800FEBD4C
:103E00008096184B340000201C000020F168E388E5
:103E1000B5F8E43E0400002040420F0010B5040055
:103E2000521AFFF7F5FE63681818606010BDF0B510
:103E3000162407000D000A2687B06C4428003100C4
:103E400004F024FC013C303121702800310004F0E2
:103E500097FB051EF2D116236B441A00210038008F
:103E6000FFF7DCFF07B0F0BDF0B504008DB0081C13
:103E70000D1C04F045FD002805D14F492000FFF737
:103E8000CDFE0DB0F0BD0021281C04F039FD002846
:103E900009D1291C281C04F079FD011C281C04F000
:103EA0002FFD0028E9D10021281C04F02FFD002857
:103EB00006D02D212000FFF7C0FE80231B06ED1841
:103EC00003AF291C3800FFF7E5FE03992000FFF738
:103ED000AEFF0A23FB560093002B24D07E6801938B
:103EE0000AAD019B013D013B5BB2019301330BD055
:103EF00030000A2104F0CAFB3031297030000A2159
:103F000004F03EFB0600ECE76B4619782025CB4316
:103F10002E22C94302A85B19C2540AAB59181A00D1
:103F20002000FFF77BFF0822BB5E002B1EDA26264F
:103F300022492000FFF772FE0823FD5E02AB6D42AE
:103F4000F61828000A2104F08BFC013E3031317054
:103F500028000A2104F09EFB051EF2D1262302AAA6
:103F60009B181A0031002000FFF758FF0822BB5EA3
:103F7000002B00DC85E7652120002626FFF75DFE8B
:103F80000823FD5E0A2702ABF6182800390004F06A
:103F900067FC013E303131702800390004F07AFBB3
:103FA00005B2002DF1D1262302AA9B181A00310078
:103FB0002000FFF733FF64E7B9B90000BEB9000085
:103FC0007F2270B5037A05000C001340062B00D148
:103FD00068E00BD8022B10D3032B52D806CD20005B
:103FE000FFF716FE63681818606025E00C2B1FD0E1
:103FF00005D8082B54D00A2B48D02F4957E0202B46
:1040000020D0402BF9D15B212000FFF716FE2D6850
:10401000002D12D028002100FFF7D2FF2800FEF764
:1040200076F8051E09D02C212000FFF706FEEFE7E9
:1040300001682000FFF718FF70BD5D212000FFF729
:10404000FCFDF9E77B212000FFF7F7FD2D68002D2F
:1040500015D0E9682000FFF7FBFD3A212000FFF7AB
:10406000ECFD28002100FFF7ABFF2800FEF74FF81A
:10407000051E04D02C212000FFF7DFFDE7E77D219E
:10408000DCE701682000FFF7E3FDD5E705682D2197
:104090002000FFF7D2FD29002000FFF7C8FECBE784
:1040A0000168F9E703680549002B00D104492000A5
:1040B000FFF7B4FDC0E7C046B9B90000D2B90000AF
:1040C000D7B9000070B5114D1149280001F03AFD33
:1040D000104C11492200280003F033F9C820800059
:1040E00007F030FA021E02D0C8239B00C2187F21BD
:1040F0000A4BDA601A611A7F58608A4398601A770F
:1041000007492200180003F01CF970BD5C02002072
:10411000D1B9000000000020B15A00003C0200208C
:10412000FD200000F0B508249FB06B4600AFAE49FB
:1041300038197B6001F006FD0C233A19AB49D01801
:1041400001F000FDAA4C200001F08CFF0028F9D0FE
:1041500008261823BA19D51821000A22280001F0D0
:1041600067FA2900B81901F058FD280001F0A0FCF9
:10417000200001F077FF00280DD108220C23B91888
:10418000C918B81801F0BBFD0028F1D099492000EA
:1041900001F062F8ECE708260A222100280001F06D
:1041A00047FA2900B81901F038FD280001F080FC19
:1041B000B919200001F046F869463B69B8195A1C44
:1041C0009B19DB08DB00CB1A9D460023694601F0F2
:1041D000A4FD7F22884CB91963682800A360236975
:1041E000E360237F934323776B463B6200237B622C
:1041F0006B46221DBB622A616C2200238E182100AF
:104200006B731431337000220A23FFF7F6FA337808
:10421000002B0DD12B7B002B0AD07F22237F1A404D
:104220000C2A03D07D221340082B01D102233370C6
:104230003378002B15D12500143570492800FEF77E
:10424000A3FDFFF799FC6E4B6E4918602800FEF73E
:104250009BFD6D492800FEF797FD002822D105003F
:1042600025E06A49052B02D8694A9B009958082520
:1042700018247B19181901F065FC7B191819FDF732
:10428000C3FF7B19181901F013FC0C237A19D018FD
:1042900001F00EFC781901F00BFC7B689D46BD46D1
:1042A0001FB0F0BD2022037A13401D1ED7D1594EF6
:1042B00028003100FEF773FDFFF783FB564B57498B
:1042C00018602800FEF76BFDFFF77BFB544B554948
:1042D00018602800FEF763FDFFF74EFC524B534970
:1042E00018602800FEF75BFDFFF76BFB504B0822C0
:1042F0001860231DBB624F4BBA18FB621823D018FD
:104300007D62FEF7EAFD002869D1231DBB624A4B9E
:104310000822FB621823BA18D0187D62FEF7DDFD73
:10432000002802D00122454B1A7045492800FEF7AB
:1043300036FDFFF746FB434B08221860231DBB6286
:10434000414BBA18FB621823D0187D62FEF7C5FDF9
:10435000002802D001223D4B1A7020003C49143045
:10436000FEF712FD041E05D02022037A13401C1E06
:1043700000D0040031002000FEF711FD002802D01B
:104380003449FEF701FD25492000FEF708FD00280D
:1043900002D03049FEF7F8FC22492000FEF7FFFC6E
:1043A000002802D02B49FEF7EFFC20492000FEF741
:1043B000F6FC002802D02749FEF7E6FC2049200041
:1043C000FEF7EDFC002802D02249FEF7DDFC0824B0
:1043D0000C233A19D01801F06BFB38195BE7012266
:1043E0001D4B1A7091E7C046D1B90000F2B8000029
:1043F00078050020FEB800003C020020A0B80000B4
:10440000C802002004B9000010B90000EEB8000096
:1044100038B800001CB900005C00002028B900007A
:104420005800002031B90000600000203BB90000B6
:10443000380200204AB9000055B90000CD02002022
:104440005FB90000640000206BB90000700200201A
:104450007BB900008EB90000CC02002010B50A2004
:1044600000F084FC0A2000F05BFCFDF7E9FEFA2076
:10447000800000F0FBFA144B1B78002B04D00323C0
:10448000124A91780B439370FEF744FAFA21104CCC
:104490008902200001F078FE200001F081FE002852
:1044A000FAD0FFF73FFE200001F070FEFEF7B2FAEF
:1044B000FEF734FBFEF7D8FAFEF700FB62B60022E7
:1044C000044B1A6010BDC046700200204C00002052
:1044D00078050020D002002013B5FA210D4C890286
:1044E000200001F051FE00230B486946143001936F
:1044F0000094FFF765FD200001F0C4FD012207498B
:10450000200001F0CDFD200001F0BCFD200001F0F5
:104510003DFE13BD780500203C0200208DBD00004B
:10452000F0B58DB004283DD804F020F80351659C07
:10453000CA006D4C2378002B36D06C4B1B78FDF7EE
:104540007FFE6B4B6B491F686B4B25781B7809AC62
:10455000DBB20793694B20001E7801F054FB012168
:10456000674B684A1868684BEDB21B681268059182
:104570000492039305F092F8644BF6B20290019313
:1045800000943300079A29003800FEF74DFD200003
:1045900001F08EFA5E4C2378002B03D0FFF79CFFCE
:1045A000002323700DB0F0BD534B1B78002BF9D0C6
:1045B000584B5949186804F05BFD584904F080FBDA
:1045C00005F04CF801000F2000F008FCEAE7544B1E
:1045D00019684B4B1A683C234B43934202DC01227F
:1045E000414B1A704F4C2000FDF784FF47492000D3
:1045F000FEF77CF8D6E73E4B09AC1F683A4B3D49C5
:104600001D783D4B20001B78EDB2DBB207933B4B8E
:104610001E7801F0F8FA0121394B3A4A18683A4BF2
:10462000F6B21B68126805910492039305F036F800
:10463000364B0290019300943300079A290038000A
:10464000FEF7F2FC200001F033FA284B1C78E4B2AC
:10465000002CA7D12E4D2B78002BA3D0FFF73CFFC9
:104660002C709FE7294B986CD96C06F091FEFEF7F1
:10467000C5F8254C2C4D20602B68276807932B4BE1
:10468000186804F0EBFF0600381C04F0E7FF320066
:1046900001000798FEF7B8FA28602E68244D2F68AD
:1046A000206804F0DBFF0400381C04F0D7FF220070
:1046B00001003000FEF7D8FA04F0F0FF286071E73F
:1046C000124B186C596CFEF7EBF80E4D194C1A4E44
:1046D000286020683168FEF707FB306023682B688C
:1046E0002B68002323605DE7CD02002070020020CC
:1046F000C80200205C020020CC020020C40200207E
:10470000D00200207C020020800200205001002006
:10471000BE0200205800002000C07F4400600B450E
:104720006000002084020020680200205C0000205D
:104730006C020020740200207802002010B5074BA4
:10474000074C20681978074BC9B21A78D2B2FEF725
:10475000E9FA20602068FFF7E3FE10BDCC020020DC
:10476000C0020020CD020020037D002B04D1437540
:10477000837583610133037570477FB5C36802ADEC
:1047800004000E0002916A608B4203D1028AAB885A
:104790009A4218D02000062229000C3006F0E6FECE
:1047A000206800F06AFE6B79227AE1790093206834
:1047B000002300F003FF20682979320000F02EFE6C
:1047C000206800F050FE7FBD70B518260400FFF78A
:1047D000CBFF3300082120790D4D4343EB18595688
:1047E00000F076FC33000821A0794343EB185956BA
:1047F00000F06EFC082160794643AD19695600F05F
:1048000067FC044B200006CBFFF7B7FF70BDC04626
:104810001CBA00000C03002007B5437D00910192F3
:10482000002B07D09A070AD5EFF310835A42534161
:10483000837572B60099019AFFF79FFF07BDDB07EA
:10484000F8D58369014A9BB29360F3E700180040F2
:10485000437D002B05D09A0704D5837D002B00D023
:1048600062B67047DB07FCD58369024A9BB2D3600E
:10487000F7E7C0460018004010B5006800F006FEDB
:1048800010BD0000104A114B1149136000235371F1
:104890001371104A104811601049D36091800921AA
:1048A00091710639537413741375D37111720C4AD4
:1048B00010600C48D36090801B20537413741375E0
:1048C0009071D371117270470C03002000093D00F4
:1048D00054050020D4020020600500200A080000D2
:1048E000F00200201D1A000010B5024800F0F9FF88
:1048F00010BDC0461403002013B51249124800F041
:1049000003FD1249124800F0FFFC1249124800F062
:10491000FBFC1249124800F0F7FC1249124800F063
:10492000F3FC124C1249200000F0EEFC012301932D
:10493000023300930D220B3321000E4800F066FF76
:1049400013BDC0460008004250050020000C004284
:1049500054050020001000425805002000140042B9
:104960005C0500200018004260050020640500205E
:10497000001C004214030020FEE70000034B10B5AA
:104980001B68002B00D0984710BDC046680500206A
:1049900070B50F490F4CA14204D100F08FF800F020
:1049A000F9FBFEE70C4D00238D42F6D0CA18E8183B
:1049B000A24205D3094B8242EFD00949002204E00C
:1049C000006804331060F1E704C38B42FCD3E4E7D2
:1049D000000000203001002034C000003001002021
:1049E000AC0B002010B500F066F8002801D100F0F3
:1049F00057F810BD014B18607047C046680500208D
:104A0000014B18687047C0466C050020F7B5134885
:104A1000012284461249134C8E68636805689B0E18
:104A20001340019288686268019F920E3A4067467F
:104A30003F6893420ED1BD420CD186420AD35B1926
:104A4000FA254868AD00861B07486B437043000D8C
:104A5000C018FEBD3D0013000600E3E76C05002012
:104A600010E000E000ED00E05555000070B5041EB8
:104A700010D0FFF7CBFF050000F01CF8FFF7C6FFD2
:104A8000054B401B9842F7D9FA23013C9B00ED18D7
:104A9000002CF3D170BDC046E70300007047000052
:104AA00010B5034A13680133136000F0F1FB10BD29
:104AB0006C05002070470020704700001E2270B572
:104AC00046484749436893431C3A134343600823CD
:104AD0008C6923438B61434C434B9C829C8A1443D7
:104AE0009C82DC681442FCD00124404A1470157882
:104AF000254203D055786DB2002DF8DB0124946077
:104B0000547864B2002CFBDB394C5460547864B2A6
:104B1000002CFBDB8224E4015480547864B2002C26
:104B2000FBDB02249C840E34DD682542FCD0314C32
:104B3000DC621024DD682542FCD09D8C2E4C2C4379
:104B40009C841024DD682542FCD002249D8C8026A4
:104B50002C439C844024DD683542FCD0DD6825422E
:104B6000F9D01024DD682542FCD0002494605478EC
:104B700064B2002CFBDB214C5460547864B2002CEE
:104B8000FBDB1C6A1E4D2C4080251C621C6AAC435A
:104B90001C62032393601B4B536053785BB2002B62
:104BA000FBDB0023FF240B72174A4B728B72CB7214
:104BB000164B1A60164B174A1B6811689A065B0160
:104BC000C90E2340520F12020B431343124A13859E
:104BD000802342681343436070BDC04600400041DB
:104BE000000400400C06000000080040000C0040DB
:104BF00001050100B905FF7D040A0000000703005C
:104C0000FFFCFFFF03060100006CDC0280000020B7
:104C1000246080002060800000400042FA21314B77
:104C200010B51868890003F0ABFC2F4B013898428F
:104C300056D82E492E4A4860C020136A00061B022F
:104C40001B0A03431362002407238C600B6080213E
:104C5000136A09061B021B0A0B431362FC22254B35
:104C6000196A0A431A62FC22196A92010A431A62FB
:104C7000A022196AD2020A431A62200000210134DC
:104C800000F096F9162CF8D11B4B1C005A7852B242
:104C9000002AFBDB194A5A80194B1A00597EC909B0
:104CA0000129FBD0E421C90099803F21D970537EAE
:104CB000DB09012BFBD0C02300205B011361907046
:104CC00000F05AF863785BB2002BFBDB0D4B0E4A09
:104CD0006380D379DB09012BFBD04123537010BDD6
:104CE000FEE7C04680000020FFFFFF0010E000E06C
:104CF00000ED00E000040040000C00401E400000F9
:104D0000004000422140000000480042914202D091
:104D100002D98A1AD0407047521A9040FBE700002F
:104D20000F4B302218600F490F4B0A2809DD988875
:104D300090439880243A0A605A7ED209012AFBD017
:104D40007047082806DD98889043202202439A8005
:104D50000A22F0E7988802439A800822EBE7C046CF
:104D6000880000208400002000400042014B1860B1
:104D70007047C0468C000020164A00B51300517ED3
:104D8000C9090129FBD00138042816D81969124A2B
:104D90000A400F211A615A788A4303F0E7FB03089F
:104DA000060B0300110001220A435A7000BD1100D6
:104DB0000322F9E711000222F6E7F02311691B052F
:104DC0000B430F21136153788B43190002230B43CC
:104DD0005370EBE700400042FFFFFFF0182343430E
:104DE000F0B56A4A87B09B18DA6806000C0000929A
:104DF000920722D51B7C5BB2002B01D0142B1AD159
:104E0000634B0A2219682000FFF780FF614A1300F4
:104E1000D179C9090129FBD08005800D1081DA798B
:104E2000D209012AFBD0022219780A431A70DA79D2
:104E3000D209012AFBD007B0F0BD0827009A544DD3
:104E40003A40019200D191E012229B5E2968200035
:104E500010220193FFF75AFF019B05001F126B46BA
:104E60001C79009B0421DB0600D40521300000F0F2
:104E70002FF9494BBA00D658484BDA5D002A54D175
:104E80000132DA5546490F3202A806F06FFB02AA3A
:104E90007B009B5A8022D2011A43424B5A805A7897
:104EA000D209012AFBD0022297421BD933889343AF
:104EB0003380F37BDB09FCD13288403313433380EA
:104EC000F37BDB09FCD10C34ADB26400A553F37B5A
:104ED000DB09FCD13288023313433380F37BDB09D7
:104EE000FCD1A8E7336893432F4A33601300B168BD
:104EF0001142FCD10222F16B0A43F263B2681A42FA
:104F0000FCD11034A40034196560B2681A42FCD197
:104F1000264A3264B2681A42FCD1022231680A433E
:104F20003260B2681A42FCD185E7022F07D90C34EF
:104F3000ADB26400A553F37BDB09FCD17BE7022310
:104F4000727913437371184B1A00B1681942FCD17E
:104F50001C34A400A551B3681342FCD1022331795B
:104F60000B433371B3681342FCD164E7012100F0B5
:104F70001FF829683A002000FFF7C8FE01997F2832
:104F800000D90121300000F05FF854E71CBA00009E
:104F90008C000020004800426800002070050020BE
:104FA0007CBD0000000C0040FF0F7F00FFFF0000F1
:104FB000182330B51D00040045430820204A551928
:104FC0002856013014D0032912D808006343D15663
:104FD000D31803F0CBFA02280E1B5868CB0102212C
:104FE000184A9B181A1840321170012282405A60E8
:104FF00030BD5868CB010621124A9B181A1840325E
:105000001170012282405A609A61F1E75868CB0121
:1050100006210C4A9B181A18403211700122824056
:105020005A605A61E4E75868CB010221054A9B188F
:105030001A1840321170012282409A60D8E7C046A7
:105040001CBA0000004400411823F0B5082458435E
:10505000114A13181C5701341BD0012635005F6814
:105060008356BD400D4ADB019A18906805420BD16A
:105070000C00601E8441D21940321078344003364F
:10508000A400B04320431070044A9B18002901D1AA
:105090005D61F0BD9D61FCE71CBA00000044004169
:1050A000182310B50824434307490020CA18145791
:1050B000013408D05B560549DB015B18186A536858
:1050C000D8400123184010BD1CBA00000044004124
:1050D00018224243F8B52C4E0300B218127A52B28D
:1050E000140001320ED0481C00240C280AD803F00A
:1050F0003DFA071F1F1F1F1F1F1F1F0B0B0B0B004E
:10510000012464422000F8BD092905D100211800BE
:10511000FFF74EFF0024F5E70A2901D10839F6E729
:1051200000240B29EED10A391800FFF741FFE9E707
:1051300018225343F218556801202C00F356134AE5
:10514000DB016E089B18C9B204409E19002C0DD0DB
:105150000F2430363278090122401143C9B25B195D
:10516000317040331A7810431870D3E732000F279C
:10517000303216785B19BE433143117040331A78D0
:1051800010431870BEE7C0461CBA0000004400413E
:105190007047000010B5FFF741FD06F0AFF9FFF7CB
:1051A000F7FF0120FFF762FC084C200001F01EFB16
:1051B000200001F0C9FBFFF751F9FFF7BFFA044BDC
:1051C000002BFAD000E000BFF7E7C046E005002062
:1051D00000000000F7B506000D000C008B180193CD
:1051E000019B671B9C4207D0336821781B68300005
:1051F000984701340028F3D13800FEBD70B5040093
:1052000008000D0006F09AFA2368020029005B6886
:105210002000984770BD10B50B1E02D0FFF7EEFFBF
:105220000300180010BD10B503688A685B68096840
:10523000984710BD10B50249FFF7E0FF10BDC0460A
:105240008CBD000070B50500FFF7EDFF04002800DD
:10525000FFF7F0FF201870BD70B50400FFF7DBFF0B
:1052600005002000FFF7E6FF401970BD10B50400EF
:10527000FFF714FC014B1C6010BDC04690000020DD
:105280000122024B52421A607047C0469000002033
:10529000164A10B51368591C26D0013B1360002B29
:1052A00022D172B6124B134A0433934213D9124AD5
:1052B00001211000147D0C42FCD02021148BFF3101
:1052C0009B085B0021431183D3610C4B13800123A6
:1052D000027D1A42FCD0BFF34F8F094B094ADA60B6
:1052E000BFF34F8FC046FDE710BDC04690000020C1
:1052F00000200000030200000040004102A5FFFF63
:1053000000ED00E00400FA05016070479446F0B536
:105310009E1E721E96416246056892072F683606E9
:105320003A4332432A60072505AC24780068A4017B
:105330002940214342680024022B00D05C03114322
:1053400021434160F0BD30B5C0250368AD031C6842
:1053500012052A402243C0240904A402214011431B
:10536000196003685A6814435C6030BD0123026809
:1053700011680B43136003681A68D207FCD4DA691A
:10538000D207F9D470470223026811680B431360F7
:105390000268D3699B07FCD4704703681A7ED20762
:1053A00002D41A7E9207FCD57047002203685A8304
:1053B00070470368187E4007C00F70470368187E67
:1053C000C0097047802302685B42117E0B4313764D
:1053D00070470368588B8007C00F7047022302682C
:1053E000518B0B43538370470368187EC007C00F6F
:1053F00070470368188DC0B2704703681A7ED207E1
:10540000FCD589B2012019857047012203689A757D
:105410007047012203681A757047000070B50126B5
:1054200004684B0833403140256809075B070B438C
:105430002B43236004685100034803F0A1F80138AE
:10544000C0B2207370BDC046006CDC02012302684C
:1054500011680B43136003681A68D207FCD4DA6939
:10546000D207F9D470470223026811680B43136016
:105470000268D3699B07FCD470470368DA69920716
:10548000FCD402211A688A431A6070470268936A42
:105490005B0A5B021943916203681A7E5207FCD5CE
:1054A000986AC0B2704700000368214A30B5934241
:1054B0002FD0204A93422FD01F4A93422FD01F4A09
:1054C00093422FD01E4A93422FD01E4A93421FD19F
:1054D0000E2319220121032599401B48C024016095
:1054E00099082B40AB40FC359D4089000918A40069
:1054F0000859A843C0259D402B0003430B5180232E
:10550000DB011A43114B5A805A7852B2002AFBDB56
:1055100030BD09231422DDE70A231522DAE70B2325
:105520001622D7E70C231722D4E70D231822D1E740
:1055300000080042000C004200100042001400422B
:1055400000180042001C004200E100E0000C004096
:10555000F8B504000F0016001D00FFF7A5FF20009E
:10556000FFF704FF1C21BB000B4071072268090CE8
:105570000B431360842322689375012F1AD11021E5
:10558000012E00D008390C4B69431868C00002F0A6
:10559000F7FF0722216802408B895203DB04DB0CF2
:1055A00013438B81226803049089DB0C400B40037A
:1055B00018439081F8BDC04680000020F7B5060072
:1055C000019308AB1F780D001400FFF73FFF300078
:1055D000FFF76AFFC022240592031440BA070C2784
:1055E00017433C43C0270722BF022D0433683D40C8
:1055F00025431D60019B316813401A0080239B02E4
:1056000013434B60F7BD10B50400FFF7F9F9E060F4
:10561000236820005B699847002808DAFFF7F0F953
:10562000E368C01AA3689842F2D30120404210BD3B
:1056300070B50D0009490400160000F083FA280037
:10564000FFF7E1FF002806DB864204D0C1B220004C
:1056500000F00AFBF3E7200070BDC046D1B900009E
:105660000120704710B50368014A1B6A984710BDB6
:10567000130400000300FC33D9699A69914203D0F6
:10568000DB69C018007D704701204042FBE710B580
:1056900004000069FFF76AFE22000023FC329361D8
:1056A000D36186229200A4186360A36010BDF0202D
:1056B00001403039484248417047F0231B011940EE
:1056C000802306209B0099420AD00133FF3301302A
:1056D000994205D0802302385B00994200D0002017
:1056E00070470F2001400020012903D00239481ED5
:1056F0008141481C704700008923F0B5182685B009
:1057000002919B000400C05C330008214343324DEA
:105710001700EB185956FFF7DBFC304B0821E05C13
:1057200033004343EB185956FFF7D2FC2C4BE25C95
:105730000393022A09D11133E05CFF2805D0082128
:105740004643AE197156FFF7C3FC8A26B600A05D2A
:10575000FF2819D00121FFF72BFC1822A35D214956
:105760005A43AB56AD18DB0158188B2189006050A5
:105770001D4901225B188C218900635069688A40A9
:105780008D21890062501A600122029B110020695C
:10579000FFF7DEFE39002000FFF78FFF390005001C
:1057A0002000FFF79EFF390006002000FFF77FFF73
:1057B00033000090290020690122FFF7A7FD0B4B61
:1057C0002069E25C039BE15CFFF7BDFD2069FFF708
:1057D000DAFD05B0F0BDC0461CBA0000250200008D
:1057E0002702000018440041144400412602000032
:1057F000802210B504005200002105F0C0FE2300F5
:105800000022FC335A6020009A6010BDF7B51D00DD
:1058100008AB1B780400009309AB1B7816000193BA
:1058200000234360FA239B008360114B0F00083371
:1058300003601430FFF7DCFF20001D30FF30FFF75E
:10584000D7FF89236A469B002761E654094B1278EB
:10585000E554094B2000E2546A46084B1279E254A1
:105860008A22293BFF3B9200A3541032A354FEBD71
:1058700090BD000025020000260200002702000063
:105880000300FC3358689B68C01A01D50130FF3013
:10589000704710B5040020001D30FF30FFF7F0FF07
:1058A0000028F8D12069FFF778FD10BD10B514303D
:1058B000FFF7E6FF10BD0300FC3359689A68914278
:1058C00004DB5A689868801AFF30704798685B68F4
:1058D000C01A0138F9E710B51D30FF30FFF7EBFFB4
:1058E00010BD10B504000069FFF773FD002805D056
:1058F0002069FFF77EFD2069FFF770FD2069FFF743
:1059000058FD002820D02069FFF773FD2200FC32EB
:105910009369D1690133DBB28B4203D0916961187D
:10592000087593618A239B00E35CFF2B0CD0200059
:105930001430FFF7C0FF092806DC8B238D229B0063
:105940009200E358A2581A602069FFF74DFD002825
:105950001AD020001D30FF30FFF792FF002822D020
:1059600086239B00E31899685A68914218D08E21CB
:105970009A684900A218515C9A680132D2B29A60C2
:10598000C9B22069FFF739FD2069FFF717FD00282C
:1059900005D02069FFF716FD2069FFF706FD10BD51
:1059A00001214942ECE72069FFF733FDECE70000F5
:1059B00070B5040000690D00FFF716FD00283ED108
:1059C000FF2686239B00E3185A689968013232400B
:1059D0008A4223D1EFF31083DB0710D41E4B5B68A0
:1059E000DB05DB0DEDD0103B5BB2002B10DA0F2294
:1059F0001340083B9B08194A9B009B181B682069B1
:105A0000FFF7F2FC0028DCD02000FFF76AFFD8E7A0
:105A10009B08C033124A9B009B58F0E75A6801323A
:105A200016409A68964205D08E215A684900A218FD
:105A300055545E602069FFF7E8FC012070BD20002E
:105A40001D30FF30FFF71CFF0028B9D12900206965
:105A5000FFF7D3FCF1E7C04600ED00E01CED00E0ED
:105A600000E100E0030070B5FC33D9699A690400D5
:105A700091421AD0DA698218157DDA690132D2B200
:105A8000DA618A239B00E35CFF2B0CD020001430EA
:105A9000FFF711FF0A2806DD8C238D229B00920060
:105AA000E358A2581A60280070BD01256D42E8E74E
:105AB00010B504000068002801D005F04DFD20005D
:105AC00010BD10B504000068002801D005F044FDA9
:105AD00000232360A360636010BD70B504000D0057
:105AE0000068013105F0FCFD031E01D0012028C42F
:105AF00070BD036810B50400002B04D043688B42CE
:105B000001D3012010BD2000FFF7E7FF0028F9D0E6
:105B1000A368002BF5D122681370F2E770B50E0070
:105B2000110004001500FFF7E4FF002804D1200055
:105B3000FFF7C7FF200070BDA5603100206805F0A9
:105B4000F5FDF7E7002370B504000D000360436026
:105B50008360994207D0080005F0F0FD290002009B
:105B60002000FFF7DBFF200070BD70B505000800C6
:105B70000C0005F0E3FD210002002800FFF7CEFF36
:105B800070BD10B5002304008AB023606360A36079
:105B9000080001A901F0C9FB200001A9FFF7E5FFFA
:105BA00020000AB010BD70B5050000680C00002888
:105BB0000FD0096800290AD06B68A268934206D307
:105BC00005F0B4FDA368AB600023A36070BD05F0D1
:105BD000C3FC23682B6063686B60A368AB60002321
:105BE00023606360F1E710B50B000400884205D024
:105BF0000968002904D09A68FFF790FF200010BDC3
:105C0000FFF75FFFFAE7002310B50400036043606D
:105C10008360FFF7E8FF200010BD10B50400884244
:105C200001D0FFF7C0FF200010BDF8B504000F1E23
:105C300002D100263000F8BD0126002AFAD0836880
:105C4000D5182900FFF755FF0028F2D02368A26875
:105C50003900981805F06AFDA560EBE710B58A6871
:105C60000968FFF7E2FF10BD07B5002201AB19700C
:105C70005A7019000132FFF7D8FF0EBD13B50A2282
:105C80000400080001A901F050FB01A805F056FD31
:105C900001A902002000FFF7C8FF16BD70B504007F
:105CA0000D1E04D12000FFF70CFF200070BD08007E
:105CB00005F044FD290002002000FFF7B6FF002890
:105CC000F0D0F2E7026810B50B68002A13D0002B61
:105CD0000CD181681800002907D0107805E0896888
:105CE0001000002901D01878404210BD19001000A2
:105CF00005F012FDF9E7002BF1D11800F5E78268F5
:105D000010B594468A680023944504D1FFF7DAFF62
:105D100043424341DBB2180010BD70B50D00002AAC
:105D200006D0002904D084689C4202D800230B705E
:105D300070BD013AE41A944200D9140001682200AF
:105D4000C918280005F001FD00232B55F0E7F7B531
:105D500015008A680F00002A1BD08368002B18D01A
:105D60009A4216D8AB4200D85D1E06680124300066
:105D7000731964420193019B98420CD8396805F06D
:105D8000F8FC002807D0831BAB4200D81C00013070
:105D9000F1E7012464422000FEBD10B583688A68E3
:105DA0009A1AFFF7D4FF10BD70B5856804008D42C4
:105DB00013D9002A11D06B1A934200D9130020681E
:105DC000ED1ACB18C3186A1A4018A560190005F01F
:105DD000BCFC00212268A368D15470BD012210B51B
:105DE0005242FFF7E1FF10BD0020704770B50F264B
:105DF000CB1D013902003240D5B22C0000093034ED
:105E0000092A00DD07341C70013B8B42F2D170BDC2
:105E100010B50C000B4B1868FFF7E8FF21000A4B88
:105E200008311868FFF7E2FF2100084B10311868AD
:105E3000FFF7DCFF2100064B18311868FFF7D6FF8B
:105E4000202010BD0CA0800040A0800044A0800055
:105E500048A0800008B4024B9C46103808BC60473C
:105E6000115E000070473F20704713B56B46026813
:105E7000D9710733546819000122A04716BD0000EC
:105E800070B50A260B7892B06E44023305000B7091
:105E90003C220021300005F072FB394801AC06902D
:105EA000384824210790062020776846364AA17496
:105EB0002281364A364BA281FD3AFF3A8018C177DB
:105EC000684623390630C17768460730C17702A893
:105ED000C1770720F277032608316944C87703A900
:105EE000CE7710212B366E443170092621851F3163
:105EF00069440E700CA9053E0E70332123800223E5
:105F000069440B7006360DA90E7022493536A186FC
:105F10003B216E44307010A86274E27702703D320B
:105F200069446A440B70137040210022E3702371AE
:105F30006371A37341336B44218719705A702B7DB1
:105F4000C039A370A37263770133DBB2A3776A7D94
:105F50000B200D0068441543C57731206844037059
:105F60003A23501C6B441870412302320A436B449D
:105F70001A7021004222084800F07AFF12B070BD6A
:105F80001001042402060524090400000102000097
:105F9000080B000007050000E005002008B4024BD4
:105FA0009C46103808BC6047815E000070B5027DD9
:105FB0000B790C0000259A420BD10B784E78A12B5F
:105FC00009D1212E05D107221F49204800F050FF9A
:105FD0000135280070BD212BFBD1202E2BD10722AB
:105FE00019491A4800F086FE174B1A7859780902A9
:105FF00011439A7812041143DA7812060A43962163
:10600000C9008A421DD1DB79DB071AD4FA20FFF7D9
:106010002DF900210D4801F037F80125232ED8D1A4
:10602000E378A2781B021343094A00210748136052
:1060300001F02AF8CDE7222EEFD18A78024BDA71EF
:10604000D2E7FFF71DF9E4E798000020E005002003
:106050009400002008B4024B9C46103808BC6047EE
:10606000AD5F000010B5417D006A013100F07AFD9E
:10607000034B1B6801335A1E9341181810BDC046CC
:10608000A000002010B5417D006A023100F080FDC3
:1060900010BD10B5417D006A023100F047FD10BD12
:1060A00070B50D00417D0400130002312A00006A22
:1060B00000F034FE002801D10123636070BD0000B0
:1060C00010B5054C23685A1C04D103685B699847D6
:1060D00003002060180010BDA0000020074A030044
:1060E000106810B5411C03D001235B42136010BD42
:1060F000597D186A013100F0C1FDF8E7A0000020C9
:106100007047002070470000FA239B0010B58360A1
:106110000F4B0022C3820300283383610D4B040020
:106120004260C2611800443323610830631D21625C
:106130002060DA778323A362813BE36280332363A9
:1061400000F0CCF82100103100F09CF8200010BDC8
:1061500003020000C4BD0000022110B5094B1A68FB
:10616000437D5B01D318FF339C7A21439972437DB1
:106170000133DBB25B01D3180122FF33997A0A4362
:106180009A7210BD980A00207047000010B50822CE
:106190000021024805F0F3F910BDC0469800002028
:1061A00010B5FEF72DFCF423FF330024984207D9E5
:1061B000044B0A20DC79631E9C41E4B2FEF756FCD6
:1061C000200010BD9800002010B502490248FFF7DA
:1061D0009BFF10BDE00500207805002070B50E0083
:1061E00000254468002C0BD0236831005B68200038
:1061F0009847002802DB2D18E468F3E701256D427B
:10620000280070BD70B50D004468002C08D02368CC
:1062100029009B6820009847002802D1E468F4E731
:10622000200070BD70B50D0000264468002C09D018
:106230002368290020001B69984736182D18F6B2EC
:10624000E468F3E730002C7070BD70B50D00446851
:10625000002C08D0236829001B68200098470028DC
:1062600002D1E468F4E7200070BD70B50D00446809
:10627000002C06D023682000DB6829009847E468DA
:10628000F6E770BDF0B58C79457803002A19002037
:10629000072A1FDC5A68824216D159601A78C879D9
:1062A0000A7112184D711A7000220B4DD0B284423F
:1062B0000FD98F6858789600F759860001307751CA
:1062C00001325870F2E70200D0680028FBD1D1609B
:1062D000E4E70120F0BDC046B80500200121064AD0
:1062E00010B5136805480B4004D180246400048075
:1062F0004360116010BDC046AC050020B005002011
:10630000704710B5040001F018F8200010BD00001F
:10631000F0B5822919D1C3B2294D5A01AA18916941
:10632000284C80010C40C0218905214391612649F8
:10633000083340187021506128685B011A5C8A4359
:10634000110030220A431A54F0BD0029FCD1C026A6
:10635000C1B21B4C4B01E3189A681A4DB6052A408E
:1063600032439A60194A800182185A600A0007274E
:10637000246808325201115DB9430F0001213943ED
:1063800011559F6910493D4040182E439E61586148
:106390007020115D81430800102101431155996857
:1063A0000B48A2180840802149030143996099686D
:1063B000890B89039960402311790B431371C3E75B
:1063C000980A0020FFFFFF8F0C060020CC0700205A
:1063D000FF3F00F0EFF3108303600123436072B6C8
:1063E00070470368002B02D162B6BFF36F8F70470E
:1063F000F7B50600FC36B3690400002B18D1B227AC
:106400007F00C55D6846FFF7E5FF019BEDB2013BEC
:1064100002D3E55DEDB2FAE768460193FFF7E1FFCD
:10642000002D01D10020FEBD706E336EC01AFAE758
:106430006846FFF7CFFFD8220025019B5200013BA1
:1064400002D3A55CEDB2FAE768460193FFF7C9FFF6
:10645000002DE7D0D6235B00E058043BE358E5E786
:1064600010B54468FC3043690B48DBB25A01A218EE
:106470009168083308408021490301439160916885
:106480005B01890B890391602268D3184022197936
:106490000A431A7110BDC046FF3F00F0F7B5050072
:1064A000FC356B694268DBB21900040008311068E2
:1064B00049014118C979C90711D55B01D218936800
:1064C0009B049B0C0CD12000FFF7CAFF63681A687D
:1064D0006B69DBB208335B01D3187F22DA71F7BD39
:1064E000E969002923D16B66230001266933FF3354
:1064F000EE6168465360B227FFF76CFF7F00B22160
:10650000019BFF31013B5A1C38D0D822E65552007E
:10651000A25C581ED2B26254625C8446002A04D146
:1065200020000193FFF79CFFE9E76346EBE7D621E4
:10653000490063500023EB6123001D33FF33536098
:106540006846D826FFF746FF01277600B221019B57
:10655000FF31013B5A1C11D0B222A7555200A25C58
:10656000581ED2B26254625C8446002A04D12000D4
:106570000193FFF775FFE9E76346EBE76846019390
:10658000FFF72FFFA2E7F7B5060068463400FFF7D4
:1065900021FF0027FF22019BFC34013B0DD3E06863
:1065A0002169884204DBE7682069D71B3F18F4E7BC
:1065B0002769E1687F1A013FEFE768460193FFF71B
:1065C00010FFA3696846002B52D1FFF703FFB221E9
:1065D000019B4900013B5A1C0CD0755C5A1EEDB260
:1065E000002D05D168460193FFF7FBFE2800FEBD94
:1065F0001300F0E7684601930025FFF7F2FEFF2243
:10660000236EBD4214D0616E994211D9591CF31802
:106610002166FF33587FE36821690133C0B213401C
:106620008B4203D0E16871180872E3600135E7E737
:10663000626E9A42DAD1002323660133A361684671
:10664000B224FFF7C7FE6400B2220021019BFF3293
:10665000013B581CC6D03155B05C5F1E002805D0E8
:10666000B15430000193FFF7FBFEEDE73B00F0E78C
:10667000FFF7B0FED821019B4900013B5A1C06D010
:10668000755C5A1EEDB2002DACD01300F6E76846DB
:106690000193FFF7A6FED623D4225B0000259C467B
:1066A0005200B358BD4203D061467158994220D878
:1066B0006246B2589A4299D1D42200235200B35074
:1066C0006846A361D824FFF785FE6400B22200214A
:1066D000019BFF32013B581C00D183E73155B05C70
:1066E0005F1E002819D0B15430000193FFF7B8FEA7
:1066F000ECE7591CB150FF21F3186933FF331878C8
:10670000E368C0B201330B4021698B4203D0E168DA
:1067100071180872E3600135C3E73B00DBE710B591
:106720000400FFF730FF2300FC331969DA68914257
:1067300003D01B69E418207A10BD01204042FBE71A
:1067400010B50400FC34FFF71EFFE0682369C01A8F
:1067500001D50130FF3010BDF0B585B00192009138
:106760000500FFF710FF02A8FFF734FE0120002408
:10677000FF26039B40425A1E531C1FD02B00FC33A4
:1067800001998C4218D2D9681F69C91B01D5013102
:10679000FF31002910D01969DF688C460100BC4523
:1067A00006D019691F69691801373740097A1F61D6
:1067B000009F39550134E3E7013ADDE702A803926F
:1067C000FFF70FFE200005B0F0BD37B56B46DC1DAE
:1067D00000230D002370FFF781FD2100FFF7FEFC71
:1067E0002B681818286020783EBD00002023F7B5DC
:1067F000474A0500D1690F200B43D3610122454967
:106800000B7813430B70444B1978814319700621A0
:106810001C782143197041490C7822430A701A7878
:1068200002401A70602219780A431A703C4B3D4AA4
:106830005A805F78FF09FCD13B48FEF7DBF8012363
:106840003A4C3B4E2268300011780B431370802283
:106850003900520004F093FE22689378DB07FCD4E1
:1068600056621F26334B1B68590B980C9B01314015
:1068700030405B0FB14200D105211F2800D1023802
:10688000072B00D1043B31408901178D01912A4922
:1068900030400F40019939431185118D0700B143F4
:1068A000080038431085118D1803244B7F260B40B8
:1068B00003430C2013850823D17881430B43032124
:1068C000D3702268D3788B4301390B43D37022688D
:1068D00013783340137004232268167833431370FF
:1068E0002268C1241389A4008343154813810359E6
:1068F0001B021B0A035180230360137811481943BC
:10690000012311702B700021FFF73EFCF7BDC0463C
:1069100000040040584400413C44004159440041B7
:10692000000C00400640000099720000980A002008
:106930009C0A0020246080003FF8FFFFFF8FFFFFCC
:1069400000E100E0780500200078002810D0012147
:10695000084B1B681A898A431A810822198B0A433B
:106960001A830422198B0A431A830022024B1A60ED
:106970007047C046980A0020900A002010B50F4AC0
:1069800093699B0B9B03936113680222FF331A7276
:106990009879823A02439A711A7A9207FCD57F2439
:1069A000074A2140937A0800A3431900802301433A
:1069B0009172917A5B420B43937210BD980A00204A
:1069C0000050004110B50C00FFF788FC2100FFF7D4
:1069D0003CFC002804D1034A93699B0B9B03936101
:1069E00010BDC046980A0020F7B50D00832A19D1C2
:1069F000CBB2404C5A01A21891693F48AD01084002
:106A0000C0218905014391613C4920686D187021BE
:106A1000083355615B011A5C8A43110040220A4326
:106A20001A54F7BD022A5FD1354B8A00D05800288E
:106A300002D003685B699847DA20400000F079FCD7
:106A4000802204002B4E2F4B466003605200002131
:106A5000083004F094FD2200B2210023FC324900EA
:106A6000D3605561136113669361D36153666354B8
:106A7000443163500431635004316354B221FF3117
:106A80006354FF202B0003405901019371188F6854
:106A9000194BAD003B40C027BF051F438F60072740
:106AA000019B366808335B01995DB9430F000321F0
:106AB0003943995523005169666801401D334901E6
:106AC000FF3371184B60636852691B6802405201C2
:106AD0009B1801221B18997A20000A439A72FFF72B
:106AE000BFFC074BEC509CE711002800FFF710FC9F
:106AF00097E7C046980A0020FFFFFF8F0C06002092
:106B0000E405002024BE000070B505000124064BFA
:106B1000A200D258002A06D0210028000134FFF735
:106B200063FF0A2CF3D170BDB80500200B4BCAB22D
:106B30000B488901C9185301C31859619969083272
:106B4000890B89039961036852019A180223D37152
:106B50005179823B0B4353717047C0460C060020AD
:106B6000980A0020084B8A00D05810B5002803D09E
:106B700003689B68984710BDC9B2044B4901591876
:106B800088688004800CF6E7E4050020980A00205D
:106B900010B50C00FFF7E6FF00280CD0064BE4B25E
:106BA0001B68083464011C19802362795B4213431B
:106BB00063710223E37110BD980A0020F0B51C0038
:106BC0002A4B85B01B6807000D000292002B4AD0AB
:106BD000274B8A00D058002808D0036822005B6841
:106BE000029998470400200005B0F0BD3800FFF777
:106BF000B9FF844204D929003800FFF7B3FF04002D
:106C00000121EBB21B4E03935B010193F2189368D1
:106C10009B0B9B039360019A336802989B18FF3388
:106C20005A7A0A435A72144BA901C918220004F077
:106C30009DFC002CD7D029003800FFF793FF0028D7
:106C4000D1D14021039B326808335B01D3181879F6
:106C5000014319710121D971019BD318FF339A7A2D
:106C60000A439A72BFE701246442BCE7900A0020FD
:106C7000E4050020980A0020CC07002013B56B46DD
:106C8000DC1D22000123FFF799FF012801D12078A4
:106C900016BD01204042FBE770B5CBB2124A134843
:106CA0005C0189018918021951609168104D0833FF
:106CB0000D40802149032943402591609168890B4B
:106CC0008903916001685A018A1816793543157154
:106CD00095796D06FCD55B01C918CB79DB07FCD52E
:106CE00000198068C0B270BDCC070020980A00204F
:106CF000FF3F00F070B50D0000211400FFF7CCFF3E
:106D0000A04200D9200000230349A34203D0CA5C5B
:106D1000EA540133F9E770BDCC070020F0B51E003E
:106D20003A4B85B01B680F000192002B35D08023B1
:106D3000DB019E4231D80025354B8A01D3180293DE
:106D4000002E2CD0334B1B680393FF233B401C00C9
:106D500000930834039B64011C19A379DB0921D03B
:106D60002D4B2E49186801F00BFC2D4B1721584371
:106D700001F006FC2B4BE279920713D4DA5D002A6E
:106D800001D10138F7D20122DA55009B5A01214B7B
:106D90009B189A69920B92039A6101256D42280013
:106DA00005B0F0BD00221F4B3400DA553F2E09D943
:106DB000009B40245A01174B9B18802299691206A8
:106DC0000A439A6122000199029804F0CFFB009BCC
:106DD000A1045A010F4B890C9B18029A2D195A6174
:106DE0009A69361B920B92030A439A61009B039A9D
:106DF00008335B01D3180222DA715979823A0A43C7
:106E00005A71019B1B1901939AE7C046900A002012
:106E10000C060020980A00208000002040420F004D
:106E2000701101000106002070B50D001C000D4B13
:106E3000AE01F61811003000220004F097FBEDB20D
:106E400009496D014D196E61AB69084A2000134074
:106E5000AB61AB69A2049B0B920C9B031343AB6128
:106E600070BDC0460C060020980A0020FF3F00F0CD
:106E7000F7B5104B01901B780F001500002B0CD1BB
:106E80000D4B16001C78002C09D00C4E0C48348891
:106E90002018641904F06AFB34802800FEBD002E1F
:106EA000FBD03A19330000210198FFF7BDFF2418E9
:106EB000361AF4E78C0900208D0A00208E0A002083
:106EC0008D090020F8B50F0016000024012A26D9EC
:106ED000100004F037FB0500380004F02FFC0323FA
:106EE00002220130400028706B7096420DD939782B
:106EF00000290AD0531CDBB20137A9549E4203D0AB
:106F00000232EC54D2B2F0E7320029000548FFF714
:106F1000AFFF441EA041C4B2280004F01DFB2000B6
:106F2000F8BDC046E0050020F0B50024012685B07C
:106F3000184B0F0069461E7005000094FFF745FCD2
:106F4000154B01A90B806A3BFF3BCB715A330B7287
:106F5000009B8C7109334B800E4B4E7108711C7075
:106F60003A00092F0FD00D4F09223E700C4E280019
:106F700000943480FFF77CFF69462800FFF725FC6A
:106F8000328808493C702800FFF772FF012005B0E5
:106F9000F0BDC0468C090020090200008D0A0020C7
:106FA0008E0A00208D09002070B5CE7892B00500C1
:106FB0000C00022E0BD18B79C9792E480902194396
:106FC000FFF7B2FF411E8841C0B212B070BDFFF79B
:106FD00085F92100FFF716F9002803D0C117081A18
:106FE000C00FF2E7012E0ED1E279A37912021A4303
:106FF0002149112A3CD8D2B2002A39D02800FFF703
:1070000037FF0120E1E7032EDFD1A378002B28D042
:10701000022B08D1E279A379120218491A432800F9
:10702000FFF750FFD1E7012B05D1E279A3791202D6
:107030001A431349F3E7032BC7D10100412201A8EA
:1070400004F09DFAFFF74AF901A9FFF7EBF80028D1
:1070500005D0E279A37912021A4301A9DFE7037888
:10706000FFDEE279A37912021A430649032AC2D944
:107070000A78C3E7E005002060BE000040BE0000C3
:1070800054BE000050BE0000CBB204495B01C918D9
:107090008B699B0B9B038B617047C046980A00204D
:1070A00037B5050048780C000B2810D801F05EFABF
:1070B000061B0F2B0F404561494C5A5D097801AA08
:1070C000002906D1022311802800FFF7ADFE012020
:1070D0003EBD00231380284B1B78012B00D1137079
:1070E00002230021F0E78A780023012A03D101AAB4
:1070F0001380224BF0E7204A1370214A93699B0BBF
:107100009B039361E3E78C78012C06D100211B4B94
:1071100001AA1C7011702300D6E70120002CD7D1E2
:10712000154B174A187093699B0B9B039361CFE72C
:1071300089782800FFF722FCC9E72800FFF734FF11
:10714000C6E701230F4ACCE70B780020DB06BFD14E
:107150002800FFF7D9FCA2780A4B0B481A60FEF70B
:10716000FBFFCAE70123094ABBE78A78074B1A608D
:10717000C3E70020ACE7C046000600200806002058
:10718000980A0020900A002078050020940A002028
:107190003B4BF7B51E780500002E5FD1394C2368B4
:1071A0009A8B12070DD5082231009A833000FFF721
:1071B000AFF810222368FF33997A0A439A72324B50
:1071C0001E6023689A8B520701D504229A83FF33ED
:1071D0001A7A920603D52022597A0A435A721A7AE9
:1071E000D20623D569460800284AC0CAC0C0A26892
:1071F000920B9203A2604022587902435A71602395
:107200000A7828001A422AD1FFF74AFF2368FF3381
:10721000002827D08022997952420A439A711A7A1B
:10722000520603D54022597A0A435A727F26012515
:107230002368FF331E722F00236808377F01DB1994
:10724000DB79002B07D0124BAA00D05800280DD0B4
:1072500003681B6898470135082DECD1F7BDFFF78F
:10726000B1FBD3E720210B4A9171D8E7FFF736F83D
:107270002900FEF7FAFF2368DF19FE71EBE7C0462D
:107280008D0A0020980A0020900A0020CC070020D8
:10729000E4050020FF50004110B50248FFF778FFD9
:1072A00010BDC046E0050020014B024A1A6070473D
:1072B000980A002000500041F0B50C008BB0160079
:1072C000002926D0931E222B2DD80A2A05D100286A
:1072D00003DA0127404201AD0AE00027FBE7310055
:1072E00001F0D4F9CBB2092916D830332B7001350F
:1072F0002A000028F3D101ABAB42F0D02300002FCD
:1073000002D02D21631C217001A98A4206D80022D7
:107310001A7020000BB0F0BD5733E7E7013A11783F
:1073200019700133F0E70024F3E710B5FFF7C4FF4D
:1073300010BD10B504F006F910BD10B504F00CF93D
:1073400010BD0B0010B50100180004F0C3F810BD0B
:10735000F0B557464E46DE464546E0B58FB01D00B7
:1073600006000F00140000F0ADF9CE4B0090019123
:107370009A461B785BB2994601333ED022002B001F
:107380002000290003F0F4FE8346002835D13200A6
:107390003B003000390003F0EBFE00220390002890
:1073A00000D06FE000233000390001F06FFA0028B0
:1073B0002CD0002200232000290001F067FA834628
:1073C000002800D192E004AB984601234246049382
:1073D000B54B53604346039A1C615D611A629E601F
:1073E000DF604246002300249361D4614B46002BAA
:1073F00067D00023AD4C00930194009801990FB021
:107400003CBC90469946A246AB46F0BD0098019917
:1074100000F09AFF8146002800D19AE00098019977
:107420000022002301F032FA0028E6D030003900B3
:1074300000F08AFF0028E0D02000290000F084FF3F
:107440000028DAD004AB9846042342460493964BB6
:10745000146155615360002300241362002393617B
:10746000D46153461B789660D7605BB2022B04D080
:10747000404600F073FF002829D104F039F8222398
:10748000036024E000232000290001F0FFF9002818
:10749000B3D004AB9846012342460493824B414645
:1074A000536043465A461A6200229E60DF601C61A8
:1074B0005D617E4B8A61CB61009201934B46022B4A
:1074C0009BD0404600F04AFF002800D18AE04346A6
:1074D0001B6A002B04D004F00BF843461B6A0360C0
:1074E0004346DC699B690093019486E720002900EC
:1074F00000F02AFF002800D17FE7002200232000AF
:10750000290001F0C9F9002800D176E704AB9846BC
:10751000012342460493644B536043465A469E609F
:10752000DF601A621C615D6153461B785BB2002B01
:107530005DD0002042465E499061D161022B5BD153
:1075400003F0D6FF2123036043461B6A002BC7D0FC
:10755000C1E73000390000F0F7FE002800D15DE7F8
:107560002000290000F0F0FE002800D156E7009826
:10757000019953461B7802005BB29B460B0003F057
:10758000F7FD04AB9846002862D1032342460493DA
:10759000454B14615561536010629660D760454B4E
:1075A00020002900002203F029F85B4604000D00AA
:1075B000002B27D1E02241463F4B12068A61CB6166
:1075C000300000220023390001F066F900282AD19A
:1075D000404600F0C3FE0028B6D103F089FF222305
:1075E0000360B1E703F084FF212303606FE74246A5
:1075F000002300249361D461404600F0AFFE0028D0
:10760000A2D19DE7002241462C4B30008A61CB611C
:1076100000220023390001F03FF9002835D15B46F4
:10762000022BDAD0D4E72000290000F09FFE2200D0
:107630002B0001F02BF9002805D1E022204B120687
:1076400041468A61CB6153461B785BB29B46E6E7B5
:10765000012342460493144B536043464A469E60BE
:10766000DF601A621C615D615B46002BBFD00023A6
:1076700000221900100002F0B7FB43469861D9615F
:107680005B46022B00D15BE7B6E72000290000F043
:107690006DFE22002B0001F0F9F80028D3D1002262
:1076A000034BCDE7A400002074BE00000000F03FB3
:1076B0000000F0FF0000E03FFFFFEF470000F07F19
:1076C000FFFFEFC7F0B55746DE464E4645465C0025
:1076D0006408E0B598461F00230093B083468A46AD
:1076E000160013430CD07D4B4D00029181466D086E
:1076F0009D4212DD7A4B9C465B4665441D4361D139
:107700000023784C009301940098019913B03CBC7D
:1077100090469946A246AB46F0BD9D4250D09C4251
:10772000E8DC6E4B9C426BD0002304935346002B45
:1077300069DB002A10D1694B9C424CD0694B9C42BA
:1077400000D1A3E08023DB05984500D1BCE0664B67
:10775000984501D100F0D6FB5846514600F0F0FDA7
:107760004B4600900191002B07D1002D67D0534666
:107770005C4A9B009B08934261D05346DB0F013B60
:1077800099464A46049B134300D190E0574B9C42D4
:1077900000DCBBE0564B9C4201DC00F010FC554B7A
:1077A0009D4201DC00F004FC4346002B23DD524ADD
:1077B000524B1000190002F021FF00900191A3E745
:1077C000002805D04E4800F0CBFD009001919BE7CA
:1077D000AC42F7DCA5E75A46414BEB18134300D106
:1077E0008EE7444B9D4200DC99E3434600960197A7
:1077F000002B00DB88E7002300240093019483E73B
:10780000002A91D076E73F4B9C423CDC394B9C42AE
:107810008FDD3D4923158C466344142B00DCB2E315
:107820003421CB1A3100D94008009840904200D052
:107830007FE70123194001335B1A049379E743463C
:10784000002B07DA009A019B0020264902F0CCFAAF
:1078500000900191029B002B00DB55E7204B9C46DA
:10786000049B65441D4301D100F00EFC049B012BD9
:1078700000D049E7009C019D8021220009066B1879
:107880000092019340E70223049352E75846514681
:10789000434600900191002B00DB35E75A465346E2
:1078A0000020104902F0A0FA009001912CE75A46FE
:1078B00053465846514603F013F902000B0002F0FC
:1078C00093FA009001911FE75A4653465846514695
:1078D00002F094FE0090019116E7C0460000F07F90
:1078E000000010C00000F03F0000E03F0000E04159
:1078F0000000F043FFFFEF3F9C7500883CE4377EBB
:1079000078BE0000FFFF3F4301FCFFFFE44B002275
:107910009D420ADC009801990022E24B02F06EFEC3
:1079200035220D00009001915242DF492B158C4603
:10793000634498462D03DD4CDD4B2D0B90442C43C6
:107940009D420ADDDB4B9D4201DC00F001FC01237E
:107950009C46D94BE0449C466444002200230E928E
:107960000F931092119300220025D04B069207939B
:1079700000980199069A079B21000890099103F04D
:10798000AFF8069A079B0A900B910898099901F0A5
:107990000FFF02000B000020C44902F025FA0A0084
:1079A000010013000C910D9202000A980B9902F04D
:1079B00025FE0A00010013000291039200220092AA
:1079C0000193802364109B05234380242403A44651
:1079D00000206344591904000D0002000B000098B8
:1079E000019902F00BFE02000B000A980B9903F0BC
:1079F00077F8069A079B0A900B912000290003F064
:107A00006FF802000B000898099903F069F8009AD2
:107A1000019B02F0F3FD02000B000A980B9903F0A2
:107A20005FF80C9A0D9B02F0E9FD029C039D089003
:107A3000099122002B002000290002F0DFFD040044
:107A40000D009E4A9E4B02F0D9FD9E4A9E4B01F0CE
:107A5000AFFE22002B0002F0D1FD9C4A9C4B01F0AE
:107A6000A7FE22002B0002F0C9FD9A4A9A4B01F0B2
:107A70009FFE22002B0002F0C1FD984A984B01F0B6
:107A800097FE22002B0002F0B9FD964A964B01F0BA
:107A90008FFE2200069007912B002000290002F0A3
:107AA000ADFD02000B000698079902F0A7FD009AB1
:107AB000019B04000D000298039901F079FE089AD9
:107AC000099B02F09BFD22002B0001F071FE009C3F
:107AD000019D0A900B9122002B002000290002F04A
