:1020000000800020C9490000B1490000B14900002A
:1020100000000000000000000000000000000000C0
:10202000000000000000000000000000B1490000B6
:102030000000000000000000B14900001D4A00003F
:10204000B1490000B1490000B1490000B1490000A8
:10205000B1490000B1490000B1490000B549000094
:10206000B1490000B1490000B1490000B149000088
:10207000B1490000B149000021490000B149000008
:10208000B1490000B1490000C128000075280000D6
:1020900095280000B1490000B1490000B149000095
:1020A000B1490000B1490000B1490000B149000048
:1020B0000000000010B5064C2378002B07D1054B1B
:1020C000002B02D0044800E000BF0123237010BDA4
:1020D000300100200000000040C10000044B10B59A
:1020E000002B03D00349044800E000BF10BDC046E8
:1020F000000000003401002040C1000010B50400C1
:102100004068002801D009F0AFFA200010BD0A2174
:10211000435E0200181E01D01B01D018704710B595
:102120000023884207D0984207D00133002902D00B
:1021300009F07AFB0300180010BD01235B42FAE7A7
:1021400070B50D00041E09D0C1682800FFF7E7FF35
:10215000002803D02000FFF7DAFFF3E7200070BD6E
:1021600003000020834208D01A7A7F308243100097
:102170000C22024301201A72196070474A688B686A
:102180001032934202D2002318007047103B8B603C
:10219000002BF8D04268002A08D0991A0911518101
:1021A000002243605A811A72DA60EDE70360F7E7B4
:1021B00070B528C90400181E02D02900FFF7DEFF01
:1021C00020606560200070BD70B505000E1E15D042
:1021D0000468002C04D02000FFF799FF86420ED13E
:1021E0003000FFF794FF002C0BD0031E02D0031B1E
:1021F0001B111BB26381002800D16C6070BD04000C
:10220000E7E72860F7E74006C00F70478006C00F79
:1022100070470000F7B5154C0700200000250E00A0
:1022200002F0EEFA6B465D711D71019A20001049B3
:1022300002F00EFB29000720203502F08DFF2B0055
:10224000013BFDD160212000394302F031FB310018
:10225000200002F02DFB013DFDD10121072002F0FD
:102260007BFF200002F010FBF7BDC046D402002027
:1022700008E43B0073B5124D0600280002F0C0FAD6
:1022800000246B465C711C71019A28000D4902F014
:10229000DFFA21000720203402F05EFF2300013B1B
:1022A000FDD13100280002F003FB013CFDD10121EA
:1022B000072002F051FF280002F0E6FA73BDC04685
:1022C000D402002008E43B00F7B5154C07002000BD
:1022D00002F096FA00266B4620255E711E71019A67
:1022E0002000104902F0B4FA3100072002F034FF58
:1022F0002B00013BFDD140212000394302F0D8FAE8
:102300003100200002F0D4FA0600013DFDD1012188
:10231000072002F021FF200002F0B6FA3000FEBDD7
:10232000D402002008E43B00F0B50026202785B049
:102330008020FFF79FFF1B4D280002F061FA02ABDF
:102340005E711E71039A2800174902F081FA31006C
:10235000072002F001FF3B00013BFDD130212800A6
:1023600002F0A6FA3100280002F0A2FA3100019032
:10237000280002F09DFA31000400280002F098FACB
:102380000600013FFDD10121072002F0E5FE2800F3
:1023900002F07AFA019B240218042043304305B06E
:1023A000F0BDC046D402002008E43B0010B5012176
:1023B0000F2002F085FE2E490F2002F097FD01212B
:1023C000122002F07DFE0021122002F08FFD01217B
:1023D000132002F075FE0021132002F087FD012179
:1023E000002002F06DFE0121002002F0B5FE012167
:1023F000080002F065FE0021012002F0ADFE01217F
:10240000022002F05DFE0021022002F0A5FE002164
:10241000032002F055FE0121042002F051FE0121AB
:10242000052002F04DFE0121062002F049FE0121A7
:10243000072002F045FE0121082002F041FE0121A3
:10244000092002F03DFE00210A2002F039FE0021A1
:102450000B2002F035FE00210C2002F031FE00219D
:102460000D2002F02DFE00210E2002F029FE10BDED
:10247000FF03000003000020002B03D05A1E13406E
:102480000130F9E770470000F7B504000D0002299C
:1024900002DC00242000FEBD080008F043FF0B0012
:1024A00080210200C905002004F0DAFF06002000A8
:1024B0000F0008F037FF0022009001911C4B300004
:1024C000390008F095FB02000B000098019906F016
:1024D0007FFA0028DDD12300681E0341DAD008F01E
:1024E00021FF0F000B00802106000200C90500201B
:1024F00004F0B6FF00900191802132003B000020E3
:10250000C90504F0ADFF0022094B06000F0000983A
:10251000019908F06DFB08F0CFFE204008F002FFA3
:1025200032003B0008F064FB08F0C6FE0400B1E78F
:102530000000F03F70B514001D00060000220023CB
:102540002000290006F02AFA002801D0134C144D6F
:10255000002204980599002306F020FA002803D0F1
:102560000022104B04920593300008F0DBFE22009D
:102570002B0008F0CBF800220B4B08F0C7F8002224
:102580000D00040004980599084B08F0BFF80200FC
:102590000B002000290007F0AFFC70BDB81E85EBD2
:1025A00051B80A400000F03F00408F400000DE407C
:1025B000F0B5050087B0C08E0C000F0007F040F9A1
:1025C00008F01CFF0022374B07F096FCD837386024
:1025D0007960288F07F034F908F010FF26000022F8
:1025E000314B07F089FCE03630607160288E08F0CE
:1025F000D3FE203E30607160688E07F021F908F04C
:10260000FDFE0022284B07F077FCB060F16010213E
:10261000A88EFFF739FF254B1A00E0321168526887
:10262000D833029103921A685B6800920193029A70
:10263000039BFFF77FFF00221D4B08F067F8002285
:102640001C4B08F0D5FA00221B4B07F055FC00226A
:102650001A4B07F035F93061716100267300E85AB2
:102660001021FFF711FF10210290288EFFF70CFFB9
:102670002300E0331A685B6804920593029B181AE2
:102680003A687B6800920193049A059BFFF752FF1A
:10269000F300E318013618605960182EDED107B038
:1026A000F0BDC0460000DE400000A8405001002000
:1026B00000408F4000820441009881400000394072
:1026C00010B50120FFF700FE0323184010BD0000E5
:1026D00010B5FFF7F5FF0138C0B2022803D8034B4D
:1026E0008000C05810BD0248FCE7C04660B9000039
:1026F00079AE0B440C4A0D4B0D491A600A004B7819
:10270000DB09FCD10B4B0C4919605378DB09FCD178
:102710000A4B0B4919805178C909FCD10949198024
:102720005378DB09FCD1704704300000080C0040EE
:10273000000C0040040C004004070300020C0040A1
:102740001C4400001B440000C3220E4B920010B535
:102750001A800D4A1000D37BDB09FCD180210B4B82
:102760000903196001230A4C217819432170094992
:102770000C7823430B70084B1380C37BDB09FCD11F
:1027800010BDC046183000420030004200E100E0B9
:102790000E3000420D30004222060000104A114B5C
:1027A00030B51A80104A1000D37BDB09FCD18021A0
:1027B000C524FF250D4B49031960A4001959A943ED
:1027C000195101230A4C21781943217009490C78C9
:1027D00023430B70084B1380C37BDB09FCD130BD56
:1027E000083D0000183400420034004200E100E0DF
:1027F0000E3400420D34004222050000154B10B586
:102800001868154906F0BCFCEA21890506F0B8FCF9
:10281000FE21890506F0E6FD06F0A8FF0F4B104AE1
:1028200080B218801000D37BDB09FCD180210D4BD6
:10283000C902196001230C4C2178194321700B49FE
:102840000C7823430B700A4B1380C37BDB09FCD14C
:1028500010BDC0466400002000007A44182C0042DD
:10286000002C004200E100E00E2C00420D2C004242
:1028700022070000054B9A7BD20705D55B7BDB075F
:1028800002D50122024B1A707047C0460030004248
:102890000E300042074B9A7BD20709D55B7BDB07E2
:1028A00006D5054A1368013313600122034B1A70E1
:1028B0007047C04600340042D00200200E3400426F
:1028C000064B9A7BD20707D55B7BDB0704D5012338
:1028D000034A1370034A13707047C046002C00422D
:1028E000BE0200200E2C004210B51E49041C06F04A
:1028F00095F800280AD01C49201C06F073FD1B49DE
:1029000006F066FA002106F0C9F810BD1549201C32
:1029100006F0A2F8002816D01549201C06F088F809
:10292000002810D00F49201C06F05CFD08F066FD61
:10293000104A114B07F0E0FA0022104B06F0C0FFDE
:1029400008F0AEFDE1E7201C08F058FD00220C4B1A
:1029500008F04EF9074A0B4B07F0CEFA00220A4B5B
:10296000ECE7C0460080BB440000FA430000204171
:102970000010DB44333333333333244000005940F9
:1029800000629B403333254000405F4070B5002219
:10299000002304000D0006F001F800281CD10022DD
:1029A000104B2000290005F0F9FF002816D10E4A2F
:1029B0000E4B2000290005F0F1FF002810D1002265
:1029C0000B4B2000290008F013F90022094B07F0F7
:1029D00093FA08F065FD70BD0020FCE70648FAE7B1
:1029E0000648F8E70034A7401F85EB51B81ED53FD5
:1029F00000C8994000002B4000002042000020C287
:102A000000B5002A0FD1042805D805F037FE060EC0
:102A1000030A08000322100000BD0029FBD0012298
:102A2000F9E70422F7E70022F5E70222F3E70000C6
:102A300010B50C00002805D0012809D1094B994296
:102A40000CDC01342100132002F050FA200010BDEC
:102A50000228F7D1002903DD013CF3E7024CF1E73E
:102A60000024EFE7FE030000FF03000070B5012320
:102A7000002803D001DB032802DD0023180070BD0D
:102A8000881A06F093FE0F49051C05F0DBFF0323AF
:102A90000028F3D10021281C05F0D4FF01240028D0
:102AA0000BD00849281C05F0C3FF002800D1041CE6
:102AB000E4B2634263410133E0E70349281C05F0B7
:102AC000CBFFF2E700002040000020C070B50400FA
:102AD0000D00312A05DC052002F06AFB01210128E6
:102AE00000D10021052002F037FB032C27D820005D
:102AF00005F0C4FD020C121C0021042002F02CFB86
:102B00002100122002F0F2F9200070BD0021042003
:102B100002F022FB2C00F3E70121042002F01CFB51
:102B2000084B6C1C9D42EBDD074CE9E700240021BB
:102B3000042002F011FBA542E2DD6C1EE0E7002458
:102B4000DEE7C046FE030000FF0300001FB50122C0
:102B5000094B010001A81A7003F0DDF8074901A82C
:102B600003F024F90100064803F000F901A803F07E
:102B700027F805B000BDC046C4020020BEBA000060
:102B80005C020020F0B58BB00700FFF7A1FD051C2B
:102B90000020FFF76FFC0400FF20FFF76BFC2418F8
:102BA0007F20FFF767FC2318281C029305F05EFFC7
:102BB00001903020019B0321584305F069FD002658
:102BC0000390029B9E423CDAFFF7AEFB040CE4B29A
:102BD00005002000FFF71AFBE30917D0002817D1E2
:102BE0002000FFF710FB002824D11F23ADB21C40AA
:102BF000192C01D9144BE4186400E553019B002BF8
:102C000002D0039B013BFDD10136DAE7002811D049
:102C10000E4904A803F01EF804A907A803F07BF8E6
:102C200007A8FFF793FF07A802F0CAFF04A802F065
:102C3000C7FFE3E72000FFF7E6FA0028DED00449EB
:102C4000E7E70BB0F0BDC046FFFFFF7F6CB90000A7
:102C50008DB90000F0B5374D00202B003649D83330
:102C6000186059602B0035493548E03318605960C9
:102C700087B0322001F016FF0121080002F06CFA43
:102C8000C82001F00FFF0121072002F065FA96200D
:102C900001F008FF0021022002F05EFA0021080086
:102CA00002F05AFA962001F0FDFE0121002002F008
:102CB00053FAFA20400001F0F5FE0024214B224E89
:102CC000E15CA05D0134FFF7A5FA092CF6D10024E0
:102CD000375D3800FFF7F8FA1A4B1B5D834214D0BA
:102CE0001A49684602F0B6FF3900684603F04EF80C
:102CF000694603A803F00FF803A8FFF727FF03A80E
:102D000002F05EFF684602F05BFF0134092CDFD160
:102D1000043C0F4E013C3000FFF734FF2900300027
:102D2000FFF746FC0A2001F0BDFE002CF1D107B0F0
:102D3000F0BDC046500100200000F03F51B80A40ED
:102D4000B81E85EB4C000020C0BA0000A3BA0000FA
:102D50008402002010B50068FFF7F2F910BD0300EF
:102D60000020834209D01A7A7F308243002905DB94
:102D7000773802431A721960073870470A204942AF
:102D800002431A7219600938F7E7202210B5037A56
:102D900013401A1E02D0FFF7DDFF0200100010BD25
:102DA00010B5002801D0FFF7D5FF10BD437B002BE5
:102DB00006D183685A1C82601B7803730123437316
:102DC000007B704710B504002000FFF7EFFF0A28D2
:102DD00005D8092807D2002808D0012009E00D28CD
:102DE00001D02028F9D100236373EDE70123543487
:102DF000237010BD70B504000D00FFF7D7FF00234E
:102E0000A84201D163730133180070BD2F2815D972
:102E10000123392803D95E2803D97A2803D818005A
:102E2000704740280AD901235A28F8D900230122E3
:102E30002D38C0B282425B41DBB2F0E701232B2880
:102E4000F4D1ECE77F22D3B50300007A0C001040E8
:102E50000638062831D805F011FC3D3031302330DA
:102E60000400186808F0CAFA060060680F0008F04D
:102E700059FA009001910B0002003900300005F072
:102E800093FD0423002809D1009A019B30003900EA
:102E900005F09EFD0300581E8341013323700CE0B2
:102EA000196863680422002B06DC5B428B4203DB5B
:102EB000023A8B4200DC013A2270D3BD1968626885
:102EC0000223002AEADBDB189142E7D38A429B41C6
:102ED0005B42E2E719684B1E9941F0E707B5030032
:102EE0000022694640680A700132D9680192FFF7F2
:102EF00057FF002802D06946FFF7A4FF6B461878F9
:102F0000013843425841C0B20EBDF7B509680F6899
:102F10003C1E29D002684468944215D93D00130034
:102F20002E78B4465E1C01961E78664504D1002EAC
:102F300008D00135019BF3E71D7801331A00002DFD
:102F4000FAD1E9E7002A11D18D6882686B1CE31879
:102F500093420DD84360002C06D009682A00200057
:102F600008F08CFB002363552000FEBD1400FBE736
:102F70000024F9E7F0B5037A85B00F0001927F21B4
:102F80001A0005000A4005D18B435F390B430372D9
:102F90000260426020222B7A1340181E2AD03E681D
:102FA000301E27D02C68002C19D0E1683000FFF7C4
:102FB000B6F8002811D02000FFF7A9F80400F2E7C6
:102FC00003A901980397FFF7A0FF00280DD08023E5
:102FD000227A5B4213432372E06020000AE00199E9
:102FE0002800FFF7CBF8041EEAD128002100FFF7E4
:102FF000EBF8002005B0F0BD70B50D00040028000E
:10300000110010302A00FFF7B5FF002809D07F22F9
:10301000037A93431A00402313430372002303608F
:10302000436020606560200070BD0000F0B59FB077
:1030300001900F0005A8D7491E0002F00BFED649EB
:1030400008A802F007FED5490BA802F003FED449F8
:103050000EA802F0FFFDD34911A802F0FBFDD249F2
:1030600014A802F0F7FD7F22D04C05A9636817A8C9
:10307000A3602369251DE360237F9343237702F038
:103080004AFE17A91BA81A9502F045FE17A802F0E0
:1030900097FD1A981A9A1BA91030FFF76BFF019938
:1030A000FFF75DFE1BA802F08BFD08A917A8002FF3
:1030B00000D142E102F02FFE17A91BA81A9502F0D9
:1030C0002AFE17A802F07CFD1A981BA910301A9A44
:1030D000FFF750FF0121FFF742FE1BA802F070FD31
:1030E0000BA917A8002E00D139E102F014FE043418
:1030F00017A91BA81A9402F00EFE17A802F060FD93
:103100001A981BA910301A9AFFF734FF0121FFF714
:1031100026FE1BA802F054FD0EA917A802F0FBFD25
:10312000A24D17A92B1D1BA81A9302F0F4FD17A896
:1031300002F046FD1A9F1BA938003A001030FFF735
:1031400019FF041E0FD0249B02A938000293FFF739
:10315000DCFE7F22237A9343002800D112E17A3AE1
:103160001343237220601BA802F02AFD2B7F7F21CE
:103170001A000A4005D18B435F390B432B776A61F4
:10318000AA6120222B7F1340181E14D0884E686934
:103190003100FEF7D5FF00280DD12F001437291D6F
:1031A0003800FEF7EBFF041E00D0EDE00100380010
:1031B000FFF70AF820000121FFF7D1FD0A220021C4
:1031C0001AA802F066FD1AA911A802F0CFFD1AA8EC
:1031D00002F0F6FC0A2200211AA802F05AFD1AA9F0
:1031E00014A802F0C3FD1AA802F0EAFC291D11AAD6
:1031F00003A8FFF701FF259C259E4034E83603A96C
:103200001AA8FEF7D5FF03CC08F04AF9011C1A985A
:10321000FEF7A6FFB442F2D114AA291D17A8FFF7A2
:10322000EBFE17A91AA8FEF7C3FF26991A98FEF716
:1032300097FF17A91AA8FEF7BBFF27991A98FEF760
:103240008FFF17A91AA8FEF7B3FF28991A98FEF75F
:1032500087FF0A2200211AA802F01BFD1AA905A85F
:1032600002F023FE010005A802F040FE1AA802F0B9
:10327000A7FC0A2200211AA802F00BFD1AA908A82F
:1032800002F013FE010008A802F030FE1AA802F0B6
:1032900097FC0A2200211AA802F0FBFC1AA90BA82D
:1032A00002F003FE01000BA802F020FE1AA802F0B3
:1032B00087FC0A2200211AA802F0EBFC1AA90EA82A
:1032C00002F0F3FD01000EA802F010FE1AA802F0B1
:1032D00077FC0A2200211AA802F0DBFC1AA911A827
:1032E00002F0E3FD010011A802F000FE1AA802F0AE
:1032F00067FC0A2200211AA802F0CBFC1AA914A824
:1033000002F0D3FD010014A802F0F0FD1AA802F0AB
:1033100057FC14A802F054FC11A802F051FC0EA8AE
:1033200002F04EFC0BA802F04BFC08A802F048FC8F
:1033300005A802F045FC1FB0F0BD02F0ECFC17A997
:103340001BA81A9502F0E7FC17A802F039FC1A989E
:103350001BA910301A9AFFF70DFE3900BBE602F0E8
:10336000DAFC043417A91BA81A9402F0D4FC17A89D
:1033700002F026FC1A981BA910301A9AFFF7FAFDE2
:103380003100C4E62372EEE67F22037AC660134062
:1033900003720FE7ABB90000B3B90000BDB900007C
:1033A000C8B90000D6B90000DFB900003C02002017
:1033B000E9B9000037B500236A461370C3B27F280D
:1033C0000BD853706B460233013B1878002831D07C
:1033D0000A68541C0C601070F6E73F2480226D468A
:1033E00023405242134380096B7085B2C3B21F2D34
:1033F00006D8403213436A4693706B460333E3E7C3
:103400006D46234000041343800DAB70C3B20F28F8
:1034100005DC202252421343EB7001ABD4E71C4081
:10342000102380115B4218436B462243EA702871D7
:103430000533C9E737BD0000F7B505000027FFF7E2
:10344000B5FC6F7301902800FFF7B0FC0024019ACF
:1034500003006C73824259D0A04204D10123543539
:1034600000202B70FEBD5C284BD12800FFF79EFC8E
:103470000028F3D0284B752839D104266C73280016
:10348000FFF794FC0028E9D0402806D83038C0B2B5
:103490000F2806D954350223E2E720239843373812
:1034A000F5E700232401013E0443F6B2A4B26B7396
:1034B0009E42E4D1A0239B01E318184A9BB2934299
:1034C00002D8A405A70DBEE790239B01E3189BB289
:1034D0002000934206D880238005BC02800D204343
:1034E0005B02C0182900FFF765FFACE702331A78CA
:1034F000002ACFD09042F9D15B78002BCAD00022AD
:103500006A732A68511C296013709CE72B6801209C
:103510005A1C2A601C70A5E7D1BA0000FF03000006
:10352000036870B543600400FFF740FC27280DD006
:1035300022280BD02000FFF739FC0500FFF766FCBE
:10354000061E09D102235434237003E02000FFF744
:1035500073FF0600300070BD0023637323682000F2
:103560005A1C22601D70FFF721FC0500FFF74EFC7E
:103570000028F1D123685A1C22601870EAE7000085
:10358000F8B50C1E0EDD002501260E4F344203D087
:10359000AB00D95905F0F4FD01356410EDB2002CF3
:1035A000F4D1F8BD00250126074F4C42002CF8D07D
:1035B000344203D0AB00D95905F0E2FD0135641067
:1035C000EDB2F3E7340000201C000020F7B50378CB
:1035D00004000E002B2B1CD02D2B1BD101270134F6
:1035E00023781A00303A092A01D92E2B65D1002000
:1035F0000A25454922781300303BDBB2092B0BD852
:10360000884212D8DA43684382420ED3C01801348C
:10361000F0E701340027E3E7002A06D130600823F1
:10362000002F00D00233337147E00025374B98421A
:1036300005D90A21013505F02BF86DB2F6E723789C
:103640001A00303A092A03D801356DB20134F6E781
:103650002E2B0FD10A212E4A01342378303BDBB2C6
:10366000092B07D8904203D84843013D18186DB282
:103670000134F2E72022237800219343452B31D1F6
:1036800063782D2B1AD12C3B023401930021227830
:10369000303AD3B2092B21D80A23594351186A185A
:1036A000262A19DD019B0C22002B0ED00023002FAF
:1036B00001D080231B0633603271F7BD2B2B02D063
:1036C00001340191E2E70234FBE7002F01D0114BF6
:1036D000F1E7FF23DB05EEE70134D8E7019B002B80
:1036E00000D049422378002BE7D16D1806F0A8F8E6
:1036F0002900FFF745FF002F02D080231B06C018CA
:1037000030600C238FE7C04699999919FFFF7F001D
:10371000CBCC0C00000080FFF0B585B005000C009C
:10372000FFF744FB002601900198F7B2FFF76EFB0C
:1037300000280ED00136402E0AD06A4600231279A6
:103740006B73AB19DA742800FFF730FB0190EBE7DD
:103750003F270026EB191E752B7D742B0CD17F2281
:10376000237A93431A000623134323720123236011
:10377000042F0DD101200FE0662B0FD17F22237A79
:10378000266093431A00062313432372052FF1D0BA
:103790000123002054352B7005B0F0BD6E2BE7D00F
:1037A000280002AB190014301E71FFF70FFF02ABA7
:1037B0001B790A2B0BD00C2B11D0082B12D1029A9B
:1037C00022607F21227A8A4313432372D2E77F212A
:1037D000227A8A4313432372029B2360CAE7029A28
:1037E0002260EEE7022354352B703000D4E7F8B5A1
:1037F00004000D001F1CFFF7E5FA002802D1002687
:103800003000F8BD2000FFF7D1FA27285FD006D896
:1038100022285CD029002000FFF77EFF55E05B28BE
:1038200012D07B28F6D17F222B7A290093431A00ED
:10383000202313432B72002300222B606B60200097
:103840003B1C00F056F840E07F222B7AFFB29343F6
:103850001A00402313432B7200232B606B609F429E
:1038600003D1543405332370C9E763732000FFF795
:10387000A9FA061EC3D05D212000FFF7BBFA00287D
:10388000BED121692800FEF779FC011E02D1543413
:103890000323E8E77B1E00222000FFF7A8FF002893
:1038A000ADD02000FFF78EFA0028A8D05D212000BF
:1038B000FFF7A0FA0028A3D12C212000FFF79AFAE5
:1038C0000028DED1022354342370060098E72368D1
:1038D00020006360FFF7B0FD061E00D18FE77F2256
:1038E00063682B602B7A93431A00042313432B72D3
:1038F00086E7F7B5DEB204000091002E04D105235F
:103900005434237000250DE000234373FFF75AFA67
:1039100001900028F6D07D212000FFF76BFA051EEC
:1039200035D0019D2800FEBD676800983900FFF77B
:1039300011FA00280DD121690098FEF71FFC00281C
:1039400002D15434032334E07F22037AC76013404A
:1039500003720100731E00222000FFF748FF0028B9
:10396000D0D02000FFF72EFA0028CBD07D212000F8
:10397000FFF740FA0028D4D12C212000FFF73AFAB3
:10398000002814D02000FFF71DFA0028BAD020002C
:10399000FFF7C6FD0028B5D02000FFF713FA002876
:1039A000B0D03A212000FFF725FA0028BCD102232D
:1039B00054342370B6E707B5031E2ED07F22007A59
:1039C00010400438082828D804F058FE10100527A5
:1039D000052709272500186805F032FF05E018685B
:1039E00005F02EFF80231B06C0180EBD18686A461E
:1039F000002369461371FFF7E9FD6B461B790A2B1B
:103A000006D000980C2BF0D0082B06D10098E3E7E5
:103A1000009B5842E0E71868E7E70020E5E7000070
:103A2000F7B5037804000E002B2B1CD02D2B1BD1D7
:103A30000127013423781A00303A092A01D92E2BA4
:103A400065D100200A25454922781300303BDBB2BE
:103A5000092B0BD8884212D8DA43684382420ED32E
:103A6000C0180134F0E701340027E3E7002A06D14B
:103A700030600823002F00D00233337147E0002567
:103A8000374B984205D90A21013504F001FE6DB289
:103A9000F6E723781A00303A092A03D801356DB2C7
:103AA0000134F6E72E2B0FD10A212E4A0134237858
:103AB000303BDBB2092B07D8904203D84843013D85
:103AC00018186DB20134F2E72022237800219343C5
:103AD000452B31D163782D2B1AD12C3B0234019325
:103AE00000212278303AD3B2092B21D80A23594336
:103AF00051186A18262A19DD019B0C22002B0ED0C2
:103B00000023002F01D080231B0633603271F7BDE4
:103B10002B2B02D001340191E2E70234FBE7002FA6
:103B200001D0114BF1E7FF23DB05EEE70134D8E7C5
:103B3000019B002B00D049422378002BE7D16D1860
:103B400005F07EFE2900FFF71BFD002F02D0802329
:103B50001B06C01830600C238FE7C046999999194D
:103B6000FFFF7F00CBCC0C00000080FF13B50300EB
:103B70000020834218D07F22187A10400438082889
:103B80003ED804F07BFD1212053D053D0A3D3B0089
:103B90001868C343DB17184006E0802200201B682A
:103BA0001206934200D8584216BD186800246B468E
:103BB00069461C71FFF734FF6B461B790A2B05D051
:103BC0000C2B08D0082B1BD10098E2E78022009B29
:103BD00012062000E5E7009CCF21201C090604F016
:103BE0003BFF0028E0D09E21201CC90504F020FFE7
:103BF0000028D9D0201C05F0B9FDD5E71C68EBE7FB
:103C00000020D1E710B5006803685B68984710BDD5
:103C100070B5040008000D0007F018FE290002002E
:103C20002000FFF7EFFF63681818606070BD10B5E3
:103C30000400006803681B68984763681818606090
:103C400010BD000070B50D00040022212000FFF718
:103C5000EEFF2978002909D00A4B01351E78002E85
:103C6000F4D05A788A4206D00233F7E722212000A6
:103C7000FFF7DDFF70BD5C212000FFF7D8FF3100AA
:103C8000E4E7C046D3BA00000623F7B50E1C0700D0
:103C900083725849301C04F0DFFE002844D0002312
:103CA000142420250093544B311C185904F0C0FEF5
:103CB000002809D0514B301C195905F061FA009BBE
:103CC000061CE81803B20093043C6D10231DEAD1D2
:103CD00003340021301C04F0B5FE002828D0301C2D
:103CE00007F08CFB464A474B04F068FE00281FD0C3
:103CF000A300019323061BD4434B019A311C98580F
:103D000004F0A0FE00280AD03B4B019A301C9958C1
:103D100005F036FA009B061C581B03B20093019B6A
:103D20006D10013C043BE4E7202505240090D0E71A
:103D30006B461B88301C3B8104F098FE0400334D19
:103D400038600190019B092B0DD90A21280004F04D
:103D50009FFCBB7A0500013B0198BB720A2104F06D
:103D600097FC0190EEE7200005F06AFD011C301C75
:103D700005F038FB061C280005F062FD011C301C14
:103D800005F0FEF9019004F071FE060005F058FD03
:103D9000011C019805F026FB011C04F07FFE04F0D5
:103DA00065FE8619AE4214D27E600A257E6829001F
:103DB000300004F0F3FC00291AD10A243C57002CEF
:103DC00016DD2900300004F063FC013C7860BC7211
:103DD000ECE700237B60009B01343C60002BE4D0C7
:103DE000092CE2D918000123013038813B60DCE75F
:103DF0003800FEBD8096184B340000201C000020C7
:103E0000F168E388B5F8E43E0400002040420F006A
:103E100010B50400521AFFF7F5FE636818186060C9
:103E200010BDF0B5162407000D000A2687B06C44BB
:103E30002800310004F0B2FC013C30312170280030
:103E4000310004F025FC051EF2D116236B441A0044
:103E500021003800FFF7DCFF07B0F0BDF0B504002B
:103E60008DB0081C0D1C04F0D3FD002805D14F496E
:103E70002000FFF7CDFE0DB0F0BD0021281C04F09E
:103E8000C7FD002809D1291C281C04F007FE011CCD
:103E9000281C04F0BDFD0028E9D10021281C04F0F5
:103EA000BDFD002806D02D212000FFF7C0FE802395
:103EB0001B06ED1803AF291C3800FFF7E5FE039938
:103EC0002000FFF7AEFF0A23FB560093002B24D0FF
:103ED0007E6801930AAD019B013D013B5BB20193FA
:103EE00001330BD030000A2104F058FC3031297026
:103EF00030000A2104F0CCFB0600ECE76B46197891
:103F00002025CB432E22C94302A85B19C2540AAB19
:103F100059181A002000FFF77BFF0822BB5E002B18
:103F20001EDA262622492000FFF772FE0823FD5ED6
:103F300002AB6D42F61828000A2104F019FD013E7B
:103F40003031317028000A2104F02CFC051EF2D11A
:103F5000262302AA9B181A0031002000FFF758FF01
:103F60000822BB5E002B00DC85E7652120002626A9
:103F7000FFF75DFE0823FD5E0A2702ABF618280056
:103F8000390004F0F5FC013E303131702800390071
:103F900004F008FC05B2002DF1D1262302AA9B18DB
:103FA0001A0031002000FFF733FF64E7C9BA0000B0
:103FB000CEBA00007F2270B5037A05000C001340D2
:103FC000062B00D168E00BD8022B10D3032B52D85C
:103FD00006CD2000FFF716FE63681818606025E024
:103FE0000C2B1FD005D8082B54D00A2B48D02F49B2
:103FF00057E0202B20D0402BF9D15B212000FFF788
:1040000016FE2D68002D12D028002100FFF7D2FFE8
:104010002800FEF77CF8051E09D02C212000FFF7B0
:1040200006FEEFE701682000FFF718FF70BD5D2175
:104030002000FFF7FCFDF9E77B212000FFF7F7FDEB
:104040002D68002D15D0E9682000FFF7FBFD3A210F
:104050002000FFF7ECFD28002100FFF7ABFF280050
:10406000FEF755F8051E04D02C212000FFF7DFFDD8
:10407000E7E77D21DCE701682000FFF7E3FDD5E7F6
:1040800005682D212000FFF7D2FD29002000FFF751
:10409000C8FECBE70168F9E703680549002B00D1AA
:1040A00004492000FFF7B4FDC0E7C046C9BA0000CC
:1040B000E2BA0000E7BA000070B5114D11492800BE
:1040C00001F0C8FD104C11492200280003F0C1F98D
:1040D000C820800007F0BEFA021E02D0C8239B0051
:1040E000C2187F210A4BDA601A611A7F58608A432E
:1040F00098601A7707492200180003F0AAF970BDEA
:104100005C020020E1BA000000000020C15B00005A
:104110003C020020FD200000F0B508249FB06B4653
:1041200000AFAE4938197B6001F094FD0C233A19B9
:10413000AB49D01801F08EFDAA4C200002F01AF80D
:104140000028F9D008261823BA19D51821000A2208
:10415000280001F0F5FA2900B81901F0E6FD280061
:1041600001F02EFD200002F005F800280DD10822F4
:104170000C23B918C918B81801F049FE0028F1D06D
:104180009949200001F0F0F8ECE708260A22210006
:10419000280001F0D5FA2900B81901F0C6FD280061
:1041A00001F00EFDB919200001F0D4F869463B6911
:1041B000B8195A1C9B19DB08DB00CB1A9D4600235B
:1041C000694601F032FE7F22884CB91963682800E5
:1041D000A3602369E360237F934323776B463B62AD
:1041E00000237B626B46221DBB622A616C22002386
:1041F0008E1821006B731431337000220A23FFF7ED
:10420000F6FA3378002B0DD12B7B002B0AD07F22BE
:10421000237F1A400C2A03D07D221340082B01D1A2
:10422000022333703378002B15D1250014357049E3
:104230002800FEF7AAFDFFF799FC6E4B6E49186047
:104240002800FEF7A2FD6D492800FEF79EFD00281C
:1042500022D1050025E06A49052B02D8694A9B0056
:104260009958082518247B19181901F0F3FC7B19BB
:104270001819FEF76BFC7B19181901F0A1FC0C232F
:104280007A19D01801F09CFC781901F099FC7B6830
:104290009D46BD461FB0F0BD2022037A13401D1E6F
:1042A000D7D1594E28003100FEF77AFDFFF783FB86
:1042B000564B574918602800FEF772FDFFF77BFB4D
:1042C000544B554918602800FEF76AFDFFF74EFC75
:1042D000524B534918602800FEF762FDFFF76BFB55
:1042E000504B08221860231DBB624F4BBA18FB626B
:1042F0001823D0187D62FEF7F1FD002869D1231D37
:10430000BB624A4B0822FB621823BA18D0187D62A0
:10431000FEF7E4FD002802D00122454B1A70454902
:104320002800FEF73DFDFFF746FB434B08221860CF
:10433000231DBB62414BBA18FB621823D0187D6263
:10434000FEF7CCFD002802D001223D4B1A70200060
:104350003C491430FEF719FD041E05D02022037AD3
:1043600013401C1E00D0040031002000FEF718FD91
:10437000002802D03449FEF708FD25492000FEF749
:104380000FFD002802D03049FEF7FFFC2249200033
:10439000FEF706FD002802D02B49FEF7F6FC204967
:1043A0002000FEF7FDFC002802D02749FEF7EDFCB7
:1043B00020492000FEF7F4FC002802D02249FEF735
:1043C000E4FC08240C233A19D01801F0F9FB381941
:1043D0005BE701221D4B1A7091E7C046E1BA00006D
:1043E00002BA0000780500200EBA00003C0200204E
:1043F000B0B90000C802002014BA000020BA0000C2
:10440000FEB9000048B900002CBA00005C00002092
:1044100038BA00005800002041BA000060000020B7
:104420004BBA0000380200205ABA000065BA0000FA
:10443000CD0200206FBA0000640000207BBA0000AB
:10444000700200208BBA00009EBA0000CC0200204F
:1044500010B50A2000F0A6FC0A2000F07DFCFDF754
:10446000A5FFFA20800000F01DFB144B1B78002BE9
:1044700004D00323124A91780B439370FEF7EAFBB2
:10448000FA21104C8902200001F006FF200001F003
:104490000FFF0028FAD0FFF73FFE200001F0FEFEDC
:1044A000FEF728F9FEF7AAF9FEF74EF9FEF776F9BE
:1044B00062B60022044B1A6010BDC0467002002094
:1044C0004C00002078050020D002002013B5FA210E
:1044D0000D4C8902200001F0DFFE00230B486946E5
:1044E000143001930094FFF765FD200001F052FEA7
:1044F00001220749200001F05BFE200001F04AFE86
:10450000200001F0CBFE13BD780500203C02002006
:104510009DBE0000F0B58DB004283BD804F0AEF885
:10452000034E6297C5006B4D6B4C2B78002B33D03C
:104530006A4B1B78FDF73AFF694B6A491F682D7873
:10454000237809ACDBB20793674B20001E7801F09B
:10455000E2FB664B664A1868664BEDB21B68126850
:104560000393049205F022F9634BF6B20290019393
:1045700000943300079A29003800FEF757FD200009
:1045800001F01EFB5D4C2378002B03D0FFF79EFF4C
:10459000002323700DB0F0BD2378002BFAD0584BC8
:1045A0005849186804F0ECFD574904F011FC05F077
:1045B000DDF801000F2000F099FCEBE7534B196880
:1045C0004A4B1A683C234B43934202DC0122414B85
:1045D0001A704F4C2000FEF7D5FA47492000FDF72E
:1045E000E7FFD7E73E4B09AC1F683A4B3D491D78C2
:1045F000394B20001B78EDB2DBB207933A4B1E78A3
:1046000001F089FB394B3A4A18683A4BF6B21B68FD
:1046100012680393049205F0C9F8374B0290019396
:1046200000943300079A29003800FEF7FFFC2000B1
:1046300001F0C6FA294B1C78E4B2002CAAD12F4D08
:104640002B78002BA6D0FFF741FF2C70A2E72A4B56
:10465000986CD96C06F024FFFEF746F9254C2D4DD9
:1046600020602B68276807932B4B186805F07EF8AD
:104670000600381C05F07AF8320001000798FEF7B2
:10468000F5F928602E68254D2F68206805F06EF832
:104690000400381C05F06AF8220001003000FEF723
:1046A00015FA05F083F8286074E7134B186C596C01
:1046B000FEF76CF90E4D1A4C1A4E286020683168CE
:1046C000FEF7B6F9306023682B682B68002323605F
:1046D00060E7C046CD020020CC020020700200201E
:1046E000C80200205C020020C4020020D00200208A
:1046F0007C0200208002002050010020BE02002029
:104700005800002000C07F4400600B45600000207E
:1047100084020020680200205C0000206C0200205F
:10472000740200207802002010B5144B144C20684D
:104730001978144BC9B21A78D2B2FEF761F9206029
:104740002068FFF7E7FE0A2000F006FB102000F0CB
:1047500061FB0D4B584306F01FFE0C4A0C4B05F055
:10476000D5FF00220B4B05F0D1FF00220A4B06F0CB
:104770003FFA06F095FE094B186010BDCC020020F0
:10478000C0020020CD0200200C0D00009A999999DA
:104790009999B93F0000503F001071407C02002001
:1047A000037D002B04D14375837583610133037549
:1047B00070477FB5C36802AD04000E0002916A60C5
:1047C0008B4203D1028AAB889A4218D0200006227D
:1047D00029000C3006F052FF206800F0D6FE6B79FD
:1047E000227AE17900932068002300F06FFF2068AF
:1047F0002979320000F09AFE206800F0BCFE7FBDEF
:1048000070B518260400FFF7CBFF3300082120798C
:104810000D4D4343EB18595600F0E2FC33000821DC
:10482000A0794343EB18595600F0DAFC082160796F
:104830004643AD19695600F0D3FC044B200006CB6B
:10484000FFF7B7FF70BDC0462CBB00000C03002073
:1048500007B5437D00910192002B07D09A070AD536
:10486000EFF310835A425341837572B60099019A4F
:10487000FFF79FFF07BDDB07F8D58369014A9BB2AD
:104880009360F3E700180040437D002B05D09A07A2
:1048900004D5837D002B00D062B67047DB07FCD5C2
:1048A0008369024A9BB2D360F7E7C0460018004014
:1048B00010B5006800F072FE10BD0000104A114BE8
:1048C00011491360002353711371104A104811608D
:1048D0001049D36091800921917106395374137482
:1048E0001375D37111720C4A10600C48D36090801C
:1048F0001B205374137413759071D3711172704728
:104900000C03002000093D0054050020D4020020C3
:10491000600500200A080000F00200201D1A0000B7
:1049200010B5024801F065F810BDC0461403002020
:1049300013B51249124800F06FFD1249124800F0F9
:104940006BFD1249124800F067FD1249124800F051
:1049500063FD1249124800F05FFD124C124920001D
:1049600000F05AFD01230193023300930D220B3313
:1049700021000E4800F0D2FF13BDC04600080042DF
:1049800050050020000C0042540500200010004299
:1049900058050020001400425C0500200018004269
:1049A0006005002064050020001C00421403002064
:1049B000FEE70000034B10B51B68002B00D09847A2
:1049C00010BDC0466805002070B50F490F4CA142CC
:1049D00004D100F08FF800F065FCFEE70C4D0023D9
:1049E0008D42F6D0CA18E818A24205D3094B82427C
:1049F000EFD00949002204E0006804331060F1E7B9
:104A000004C38B42FCD3E4E7000000203001002007
:104A100044C1000030010020AC0B002010B500F0B4
:104A200066F8002801D100F057F810BD014B18605E
:104A30007047C04668050020014B18687047C046A3
:104A40006C050020F7B51348012284461249134C27
:104A50008E68636805689B0E1340019288686268DF
:104A6000019F920E3A4067463F6893420ED1BD4285
:104A70000CD186420AD35B19FA254868AD00861B23
:104A800007486B437043000DC018FEBD3D00130086
:104A90000600E3E76C05002010E000E000ED00E018
:104AA0005555000070B5041E10D0FFF7CBFF050070
:104AB00000F01CF8FFF7C6FF054B401B9842F7D9E2
:104AC000FA23013C9B00ED18002CF3D170BDC046C9
:104AD000E70300007047000010B5034A1368013374
:104AE000136000F05DFC10BD6C05002070470020D5
:104AF000704700001E2270B54648474943689343FB
:104B00001C3A1343436008238C6923438B61434C55
:104B1000434B9C829C8A14439C82DC681442FCD0E8
:104B20000124404A14701578254203D055786DB29F
:104B3000002DF8DB01249460547864B2002CFBDB78
:104B4000394C5460547864B2002CFBDB8224E401BD
:104B50005480547864B2002CFBDB02249C840E3415
:104B6000DD682542FCD0314CDC621024DD68254232
:104B7000FCD09D8C2E4C2C439C841024DD68254257
:104B8000FCD002249D8C80262C439C844024DD682C
:104B90003542FCD0DD682542F9D01024DD6825427D
:104BA000FCD000249460547864B2002CFBDB214CD0
:104BB0005460547864B2002CFBDB1C6A1E4D2C4000
:104BC00080251C621C6AAC431C62032393601B4B50
:104BD000536053785BB2002BFBDB0023FF240B7286
:104BE000174A4B728B72CB72164B1A60164B174AD0
:104BF0001B6811689A065B01C90E2340520F12020E
:104C00000B431343124A13858023426813434360C6
:104C100070BDC04600400041000400400C0600008A
:104C200000080040000C004001050100B905FF7DAF
:104C3000040A000000070300FFFCFFFF0306010059
:104C4000006CDC0280000020246080002060800076
:104C500000400042FA21314B10B51868890003F07A
:104C600017FD2F4B0138984256D82E492E4A4860DE
:104C7000C020136A00061B021B0A034313620024B0
:104C800007238C600B608021136A09061B021B0A34
:104C90000B431362FC22254B196A0A431A62FC2259
:104CA000196A92010A431A62A022196AD2020A43BF
:104CB0001A6220000021013400F002FA162CF8D10B
:104CC0001B4B1C005A7852B2002AFBDB194A5A804F
:104CD000194B1A00597EC9090129FBD0E421C900EA
:104CE00099803F21D970537EDB09012BFBD0C02373
:104CF00000205B011361907000F05AF863785BB29A
:104D0000002BFBDB0D4B0E4A6380D379DB09012BB3
:104D1000FBD04123537010BDFEE7C0468000002049
:104D2000FFFFFF0010E000E000ED00E000040040A5
:104D3000000C00401E4000000040004221400000E6
:104D400000480042914202D002D98A1AD0407047EE
:104D5000521A9040FBE700000F4B302218600F49B9
:104D60000F4B0A2809DD988890439880243A0A60FE
:104D70005A7ED209012AFBD07047082806DD9888A0
:104D80009043202202439A800A22F0E79888024347
:104D90009A800822EBE7C0468800002084000020AB
:104DA00000400042014B18607047C0468C00002054
:104DB000164A00B51300517EC9090129FBD00138FC
:104DC000042816D81969124A0A400F211A615A7824
:104DD0008A4303F053FC0308060B03001100012271
:104DE0000A435A7000BD11000322F9E711000222A4
:104DF000F6E7F02311691B050B430F21136153786C
:104E00008B43190002230B435370EBE70040004231
:104E1000FFFFFFF010B504000E2800D80F34012169
:104E2000200000F0DDF91823102163432A4CE41818
:104E30006156002901D014290DD1284B1800DA79C8
:104E4000D209012AFBD002241A78A2431A70C3792E
:104E5000DB09012BFBD022480300427ED209012A44
:104E6000FBD01F2402692140A2430A4302615A7EFB
:104E7000D209012AFBD0022219780A431A705A7EFD
:104E8000D209012AFBD00222197B0A431A731A7E27
:104E9000D207FCD501221A765A7ED209012AFBD00C
:104EA0000222197B0A431A731A7ED207FCD5588B4B
:104EB00080B25A7ED209012AFBD002211A788A4395
:104EC0001A705A7ED209012AFBD0064B1A68064B8B
:104ED0001968FFF737FF10BD2CBB000000480042E7
:104EE0000040004288000020840000201823434333
:104EF000F0B56A4A87B09B18DA6806000C00009289
:104F0000920722D51B7C5BB2002B01D0142B1AD147
:104F1000634B0A2219682000FFF714FF614A13004F
:104F2000D179C9090129FBD08005800D1081DA797A
:104F3000D209012AFBD0022219780A431A70DA79C1
:104F4000D209012AFBD007B0F0BD0827009A544DC2
:104F50003A40019200D191E012229B5E2968200024
:104F600010220193FFF7EEFE019B05001F126B4616
:104F70001C79009B0421DB0600D40521300000F0E1
:104F80002FF9494BBA00D658484BDA5D002A54D164
:104F90000132DA5546490F3202A806F06FFB02AA29
:104FA0007B009B5A8022D2011A43424B5A805A7886
:104FB000D209012AFBD0022297421BD9338893439E
:104FC0003380F37BDB09FCD13288403313433380D9
:104FD000F37BDB09FCD10C34ADB26400A553F37B49
:104FE000DB09FCD13288023313433380F37BDB09C6
:104FF000FCD1A8E7336893432F4A33601300B168AC
:105000001142FCD10222F16B0A43F263B2681A42E8
:10501000FCD11034A40034196560B2681A42FCD186
:10502000264A3264B2681A42FCD1022231680A432D
:105030003260B2681A42FCD185E7022F07D90C34DE
:10504000ADB26400A553F37BDB09FCD17BE70223FF
:10505000727913437371184B1A00B1681942FCD16D
:105060001C34A400A551B3681342FCD1022331794A
:105070000B433371B3681342FCD164E7012100F0A4
:105080001FF829683A002000FFF75CFE01997F288D
:1050900000D90121300000F05FF854E72CBB00007C
:1050A0008C000020004800426800002070050020AD
:1050B0008CBE0000000C0040FF0F7F00FFFF0000CF
:1050C000182330B51D00040045430820204A551917
:1050D0002856013014D0032912D808006343D15652
:1050E000D31803F0CBFA02280E1B5868CB0102211B
:1050F000184A9B181A1840321170012282405A60D7
:1051000030BD5868CB010621124A9B181A1840324C
:105110001170012282405A609A61F1E75868CB0110
:1051200006210C4A9B181A18403211700122824045
:105130005A605A61E4E75868CB010221054A9B187E
:105140001A1840321170012282409A60D8E7C04696
:105150002CBB0000004400411823F0B5082458433C
:10516000114A13181C5701341BD0012635005F6803
:105170008356BD400D4ADB019A18906805420BD159
:105180000C00601E8441D21940321078344003363E
:10519000A400B04320431070044A9B18002901D199
:1051A0005D61F0BD9D61FCE72CBB00000044004147
:1051B000182310B50824434307490020CA18145780
:1051C000013408D05B560549DB015B18186A536847
:1051D000D8400123184010BD2CBB00000044004102
:1051E00018224243F8B52C4E0300B218127A52B27C
:1051F000140001320ED0481C00240C280AD803F0F9
:105200003DFA071F1F1F1F1F1F1F1F0B0B0B0B003C
:10521000012464422000F8BD092905D100211800AD
:10522000FFF74EFF0024F5E70A2901D10839F6E718
:1052300000240B29EED10A391800FFF741FFE9E7F6
:1052400018225343F218556801202C00F356134AD4
:10525000DB016E089B18C9B204409E19002C0DD0CA
:105260000F2430363278090122401143C9B25B194C
:10527000317040331A7810431870D3E732000F278B
:10528000303216785B19BE433143117040331A78BF
:1052900010431870BEE7C0462CBB0000004400411C
:1052A0007047000010B5FFF7D5FC06F0AFF9FFF727
:1052B000F7FF0120FFF7F6FB084C200001F01EFB72
:1052C000200001F0C9FBFFF7C3F8FFF72DFA044BEC
:1052D000002BFAD000E000BFF7E7C046E005002051
:1052E00000000000F7B506000D000C008B180193BC
:1052F000019B671B9C4207D0336821781B683000F4
:10530000984701340028F3D13800FEBD70B5040081
:1053100008000D0006F09AFA2368020029005B6875
:105320002000984770BD10B50B1E02D0FFF7EEFFAE
:105330000300180010BD10B503688A685B6809682F
:10534000984710BD10B50249FFF7E0FF10BDC046F9
:105350009CBE000070B50500FFF7EDFF04002800BB
:10536000FFF7F0FF201870BD70B50400FFF7DBFFFA
:1053700005002000FFF7E6FF401970BD10B50400DE
:10538000FFF7A8FB014B1C6010BDC0469000002039
:105390000122024B52421A607047C0469000002022
:1053A000164A10B51368591C26D0013B1360002B18
:1053B00022D172B6124B134A0433934213D9124AC4
:1053C00001211000147D0C42FCD02021148BFF31F0
:1053D0009B085B0021431183D3610C4B1380012395
:1053E000027D1A42FCD0BFF34F8F094B094ADA60A5
:1053F000BFF34F8FC046FDE710BDC04690000020B0
:1054000000200000030200000040004102A5FFFF51
:1054100000ED00E00400FA05016070479446F0B525
:105420009E1E721E96416246056892072F683606D8
:105430003A4332432A60072505AC24780068A4016A
:105440002940214342680024022B00D05C03114311
:1054500021434160F0BD30B5C0250368AD031C6831
:1054600012052A402243C0240904A402214011430A
:10547000196003685A6814435C6030BD01230268F8
:1054800011680B43136003681A68D207FCD4DA6909
:10549000D207F9D470470223026811680B431360E6
:1054A0000268D3699B07FCD4704703681A7ED20751
:1054B00002D41A7E9207FCD57047002203685A83F3
:1054C00070470368187E4007C00F70470368187E56
:1054D000C0097047802302685B42117E0B4313763C
:1054E00070470368588B8007C00F7047022302681B
:1054F000518B0B43538370470368187EC007C00F5E
:1055000070470368188DC0B2704703681A7ED207CF
:10551000FCD589B2012019857047012203689A756C
:105520007047012203681A757047000070B50126A4
:1055300004684B0833403140256809075B070B437B
:105540002B43236004685100034803F0A1F801389D
:10555000C0B2207370BDC046006CDC02012302683B
:1055600011680B43136003681A68D207FCD4DA6928
:10557000D207F9D470470223026811680B43136005
:105580000268D3699B07FCD470470368DA69920705
:10559000FCD402211A688A431A6070470268936A31
:1055A0005B0A5B021943916203681A7E5207FCD5BD
:1055B000986AC0B2704700000368214A30B5934230
:1055C0002FD0204A93422FD01F4A93422FD01F4AF8
:1055D00093422FD01E4A93422FD01E4A93421FD18E
:1055E0000E2319220121032599401B48C024016084
:1055F00099082B40AB40FC359D4089000918A40058
:105600000859A843C0259D402B0003430B5180231C
:10561000DB011A43114B5A805A7852B2002AFBDB45
:1056200030BD09231422DDE70A231522DAE70B2314
:105630001622D7E70C231722D4E70D231822D1E72F
:1056400000080042000C004200100042001400421A
:1056500000180042001C004200E100E0000C004085
:10566000F8B504000F0016001D00FFF7A5FF20008D
:10567000FFF704FF1C21BB000B4071072268090CD7
:105680000B431360842322689375012F1AD11021D4
:10569000012E00D008390C4B69431868C00002F095
:1056A000F7FF0722216802408B895203DB04DB0CE1
:1056B00013438B81226803049089DB0C400B400369
:1056C00018439081F8BDC04680000020F7B5060061
:1056D000019308AB1F780D001400FFF73FFF300067
:1056E000FFF76AFFC022240592031440BA070C2773
:1056F00017433C43C0270722BF022D0433683D40B7
:1057000025431D60019B316813401A0080239B02D2
:1057100013434B60F7BD10B50400FFF78DF9E0604F
:10572000236820005B699847002808DAFFF784F9AE
:10573000E368C01AA3689842F2D30120404210BD2A
:1057400070B50D0009490400160000F083FA280026
:10575000FFF7E1FF002806DB864204D0C1B220003B
:1057600000F00AFBF3E7200070BDC046E1BA00007C
:105770000120704710B50368014A1B6A984710BDA5
:10578000130400000300FC33D9699A69914203D0E5
:10579000DB69C018007D704701204042FBE710B56F
:1057A00004000069FFF76AFE22000023FC329361C7
:1057B000D36186229200A4186360A36010BDF0201C
:1057C00001403039484248417047F0231B011940DD
:1057D000802306209B0099420AD00133FF33013019
:1057E000994205D0802302385B00994200D0002006
:1057F00070470F2001400020012903D00239481EC4
:105800008141481C704700008923F0B5182685B0F7
:1058100002919B000400C05C330008214343324DD9
:105820001700EB185956FFF7DBFC304B0821E05C02
:1058300033004343EB185956FFF7D2FC2C4BE25C84
:105840000393022A09D11133E05CFF2805D0082117
:105850004643AE197156FFF7C3FC8A26B600A05D19
:10586000FF2819D00121FFF72BFC1822A35D214945
:105870005A43AB56AD18DB0158188B218900605094
:105880001D4901225B188C218900635069688A4098
:105890008D21890062501A600122029B110020694B
:1058A000FFF7DEFE39002000FFF78FFF390005000B
:1058B0002000FFF79EFF390006002000FFF77FFF62
:1058C00033000090290020690122FFF7A7FD0B4B50
:1058D0002069E25C039BE15CFFF7BDFD2069FFF7F7
:1058E000DAFD05B0F0BDC0462CBB0000250200006B
:1058F0002702000018440041144400412602000021
:10590000802210B504005200002105F0C0FE2300E3
:105910000022FC335A6020009A6010BDF7B51D00CC
:1059200008AB1B780400009309AB1B7816000193A9
:1059300000234360FA239B008360114B0F00083360
:1059400003601430FFF7DCFF20001D30FF30FFF74D
:10595000D7FF89236A469B002761E654094B1278DA
:10596000E554094B2000E2546A46084B1279E25490
:105970008A22293BFF3B9200A3541032A354FEBD60
:10598000A0BE000025020000260200002702000041
:105990000300FC3358689B68C01A01D50130FF3002
:1059A000704710B5040020001D30FF30FFF7F0FFF6
:1059B0000028F8D12069FFF778FD10BD10B514302C
:1059C000FFF7E6FF10BD0300FC3359689A68914267
:1059D00004DB5A689868801AFF30704798685B68E3
:1059E000C01A0138F9E710B51D30FF30FFF7EBFFA3
:1059F00010BD10B504000069FFF773FD002805D045
:105A00002069FFF77EFD2069FFF770FD2069FFF731
:105A100058FD002820D02069FFF773FD2200FC32DA
:105A20009369D1690133DBB28B4203D0916961186C
:105A3000087593618A239B00E35CFF2B0CD0200048
:105A40001430FFF7C0FF092806DC8B238D229B0052
:105A50009200E358A2581A602069FFF74DFD002814
:105A60001AD020001D30FF30FFF792FF002822D00F
:105A700086239B00E31899685A68914218D08E21BA
:105A80009A684900A218515C9A680132D2B29A60B1
:105A9000C9B22069FFF739FD2069FFF717FD00281B
:105AA00005D02069FFF716FD2069FFF706FD10BD40
:105AB00001214942ECE72069FFF733FDECE70000E4
:105AC00070B5040000690D00FFF716FD00283ED1F7
:105AD000FF2686239B00E3185A68996801323240FA
:105AE0008A4223D1EFF31083DB0710D41E4B5B688F
:105AF000DB05DB0DEDD0103B5BB2002B10DA0F2283
:105B00001340083B9B08194A9B009B181B6820699F
:105B1000FFF7F2FC0028DCD02000FFF76AFFD8E78F
:105B20009B08C033124A9B009B58F0E75A68013229
:105B300016409A68964205D08E215A684900A218EC
:105B400055545E602069FFF7E8FC012070BD20001D
:105B50001D30FF30FFF71CFF0028B9D12900206954
:105B6000FFF7D3FCF1E7C04600ED00E01CED00E0DC
:105B700000E100E0030070B5FC33D9699A690400C4
:105B800091421AD0DA698218157DDA690132D2B2EF
:105B9000DA618A239B00E35CFF2B0CD020001430D9
:105BA000FFF711FF0A2806DD8C238D229B0092004F
:105BB000E358A2581A60280070BD01256D42E8E73D
:105BC00010B504000068002801D005F04DFD20004C
:105BD00010BD10B504000068002801D005F044FD98
:105BE00000232360A360636010BD70B504000D0046
:105BF0000068013105F0FCFD031E01D0012028C41E
:105C000070BD036810B50400002B04D043688B42BC
:105C100001D3012010BD2000FFF7E7FF0028F9D0D5
:105C2000A368002BF5D122681370F2E770B50E005F
:105C3000110004001500FFF7E4FF002804D1200044
:105C4000FFF7C7FF200070BDA5603100206805F098
:105C5000F5FDF7E7002370B504000D000360436015
:105C60008360994207D0080005F0F0FD290002008A
:105C70002000FFF7DBFF200070BD70B505000800B5
:105C80000C0005F0E3FD210002002800FFF7CEFF25
:105C900070BD10B5002304008AB023606360A36068
:105CA000080001A901F0C9FB200001A9FFF7E5FFE9
:105CB00020000AB010BD70B5050000680C00002877
:105CC0000FD0096800290AD06B68A268934206D3F6
:105CD00005F0B4FDA368AB600023A36070BD05F0C0
:105CE000C3FC23682B6063686B60A368AB60002310
:105CF00023606360F1E710B50B000400884205D013
:105D00000968002904D09A68FFF790FF200010BDB1
:105D1000FFF75FFFFAE7002310B50400036043605C
:105D20008360FFF7E8FF200010BD10B50400884233
:105D300001D0FFF7C0FF200010BDF8B504000F1E12
:105D400002D100263000F8BD0126002AFAD083686F
:105D5000D5182900FFF755FF0028F2D02368A26864
:105D60003900981805F06AFDA560EBE710B58A6860
:105D70000968FFF7E2FF10BD07B5002201AB1970FB
:105D80005A7019000132FFF7D8FF0EBD13B50A2271
:105D90000400080001A901F050FB01A805F056FD20
:105DA00001A902002000FFF7C8FF16BD70B504006E
:105DB0000D1E04D12000FFF70CFF200070BD08006D
:105DC00005F044FD290002002000FFF7B6FF00287F
:105DD000F0D0F2E7026810B50B68002A13D0002B50
:105DE0000CD181681800002907D0107805E0896877
:105DF0001000002901D01878404210BD1900100091
:105E000005F012FDF9E7002BF1D11800F5E78268E3
:105E100010B594468A680023944504D1FFF7DAFF51
:105E200043424341DBB2180010BD70B50D00002A9B
:105E300006D0002904D084689C4202D800230B704D
:105E400070BD013AE41A944200D91400016822009E
:105E5000C918280005F001FD00232B55F0E7F7B520
:105E600015008A680F00002A1BD08368002B18D009
:105E70009A4216D8AB4200D85D1E06680124300055
:105E8000731964420193019B98420CD8396805F05C
:105E9000F8FC002807D0831BAB4200D81C0001305F
:105EA000F1E7012464422000FEBD10B583688A68D2
:105EB0009A1AFFF7D4FF10BD70B5856804008D42B3
:105EC00013D9002A11D06B1A934200D9130020680D
:105ED000ED1ACB18C3186A1A4018A560190005F00E
:105EE000BCFC00212268A368D15470BD012210B50A
:105EF0005242FFF7E1FF10BD0020704770B50F263A
:105F0000CB1D013902003240D5B22C0000093034DB
:105F1000092A00DD07341C70013B8B42F2D170BDB1
:105F200010B50C000B4B1868FFF7E8FF21000A4B77
:105F300008311868FFF7E2FF2100084B103118689C
:105F4000FFF7DCFF2100064B18311868FFF7D6FF7A
:105F5000202010BD0CA0800040A0800044A0800044
:105F600048A0800008B4024B9C46103808BC60472B
:105F7000215F000070473F20704713B56B460268F1
:105F8000D9710733546819000122A04716BD0000DB
:105F900070B50A260B7892B06E44023305000B7080
:105FA0003C220021300005F072FB394801AC06901C
:105FB000384824210790062020776846364AA17485
:105FC0002281364A364BA281FD3AFF3A8018C177CA
:105FD000684623390630C17768460730C17702A882
:105FE000C1770720F277032608316944C87703A9EF
:105FF000CE7710212B366E443170092621851F3152
:1060000069440E700CA9053E0E70332123800223D3
:1060100069440B7006360DA90E7022493536A186EB
:106020003B216E44307010A86274E27702703D32FA
:1060300069446A440B70137040210022E37023719D
:106040006371A37341336B44218719705A702B7DA0
:10605000C039A370A37263770133DBB2A3776A7D83
:106060000B200D0068441543C57731206844037048
:106070003A23501C6B441870412302320A436B448C
:106080001A7021004222084800F07AFF12B070BD59
:106090001001042402060524090400000102000086
:1060A000080B000007050000E005002008B4024BC3
:1060B0009C46103808BC6047915F000070B5027DB7
:1060C0000B790C0000259A420BD10B784E78A12B4E
:1060D00009D1212E05D107221F49204800F050FF89
:1060E0000135280070BD212BFBD1202E2BD107229A
:1060F00019491A4800F086FE174B1A785978090298
:1061000011439A7812041143DA7812060A43962151
:10611000C9008A421DD1DB79DB071AD4FA20FFF7C8
:106120002DF900210D4801F037F80125232ED8D193
:10613000E378A2781B021343094A00210748136041
:1061400001F02AF8CDE7222EEFD18A78024BDA71DE
:10615000D2E7FFF71DF9E4E798000020E0050020F2
:106160009400002008B4024B9C46103808BC6047DD
:10617000BD60000010B5417D006A013100F07AFD7C
:10618000034B1B6801335A1E9341181810BDC046BB
:10619000A000002010B5417D006A023100F080FDB2
:1061A00010BD10B5417D006A023100F047FD10BD01
:1061B00070B50D00417D0400130002312A00006A11
:1061C00000F034FE002801D10123636070BD00009F
:1061D00010B5054C23685A1C04D103685B699847C5
:1061E00003002060180010BDA0000020074A030033
:1061F000106810B5411C03D001235B42136010BD31
:10620000597D186A013100F0C1FDF8E7A0000020B7
:106210007047002070470000FA239B0010B5836090
:106220000F4B0022C3820300283383610D4B04000F
:106230004260C2611800443323610830631D21624B
:106240002060DA778323A362813BE3628033236398
:1062500000F0CCF82100103100F09CF8200010BDB7
:1062600003020000D4BE0000022110B5094B1A68D9
:10627000437D5B01D318FF339C7A21439972437DA0
:106280000133DBB25B01D3180122FF33997A0A4351
:106290009A7210BD980A00207047000010B50822BD
:1062A0000021024805F0F3F910BDC0469800002017
:1062B00010B5FEF7C1FBF423FF330024984207D941
:1062C000044B0A20DC79631E9C41E4B2FEF7EAFB32
:1062D000200010BD9800002010B502490248FFF7C9
:1062E0009BFF10BDE00500207805002070B50E0072
:1062F00000254468002C0BD0236831005B68200027
:106300009847002802DB2D18E468F3E701256D4269
:10631000280070BD70B50D004468002C08D02368BB
:1063200029009B6820009847002802D1E468F4E720
:10633000200070BD70B50D0000264468002C09D007
:106340002368290020001B69984736182D18F6B2DB
:10635000E468F3E730002C7070BD70B50D00446840
:10636000002C08D0236829001B68200098470028CB
:1063700002D1E468F4E7200070BD70B50D004468F8
:10638000002C06D023682000DB6829009847E468C9
:10639000F6E770BDF0B58C79457803002A19002026
:1063A000072A1FDC5A68824216D159601A78C879C8
:1063B0000A7112184D711A7000220B4DD0B284422E
:1063C0000FD98F6858789600F759860001307751B9
:1063D00001325870F2E70200D0680028FBD1D1608A
:1063E000E4E70120F0BDC046B80500200121064ABF
:1063F00010B5136805480B4004D180246400048064
:106400004360116010BDC046AC050020B0050020FF
:10641000704710B5040001F018F8200010BD00000E
:10642000F0B5822919D1C3B2294D5A01AA18916930
:10643000284C80010C40C0218905214391612649E7
:10644000083340187021506128685B011A5C8A4348
:10645000110030220A431A54F0BD0029FCD1C02695
:10646000C1B21B4C4B01E3189A681A4DB6052A407D
:1064700032439A60194A800182185A600A0007273D
:10648000246808325201115DB9430F0001213943DC
:1064900011559F6910493D4040182E439E61586137
:1064A0007020115D81430800102101431155996846
:1064B0000B48A2180840802149030143996099685C
:1064C000890B89039960402311790B431371C3E74A
:1064D000980A0020FFFFFF8F0C060020CC07002049
:1064E000FF3F00F0EFF3108303600123436072B6B7
:1064F00070470368002B02D162B6BFF36F8F7047FD
:10650000F7B50600FC36B3690400002B18D1B2279A
:106510007F00C55D6846FFF7E5FF019BEDB2013BDB
:1065200002D3E55DEDB2FAE768460193FFF7E1FFBC
:10653000002D01D10020FEBD706E336EC01AFAE747
:106540006846FFF7CFFFD8220025019B5200013B90
:1065500002D3A55CEDB2FAE768460193FFF7C9FFE5
:10656000002DE7D0D6235B00E058043BE358E5E775
:1065700010B54468FC3043690B48DBB25A01A218DD
:106580009168083308408021490301439160916874
:106590005B01890B890391602268D3184022197925
:1065A0000A431A7110BDC046FF3F00F0F7B5050061
:1065B000FC356B694268DBB21900040008311068D1
:1065C00049014118C979C90711D55B01D2189368EF
:1065D0009B049B0C0CD12000FFF7CAFF63681A686C
:1065E0006B69DBB208335B01D3187F22DA71F7BD28
:1065F000E969002923D16B66230001266933FF3343
:10660000EE6168465360B227FFF76CFF7F00B2214E
:10661000019BFF31013B5A1C38D0D822E65552006D
:10662000A25C581ED2B26254625C8446002A04D135
:1066300020000193FFF79CFFE9E76346EBE7D621D3
:10664000490063500023EB6123001D33FF33536087
:106650006846D826FFF746FF01277600B221019B46
:10666000FF31013B5A1C11D0B222A7555200A25C47
:10667000581ED2B26254625C8446002A04D12000C3
:106680000193FFF775FFE9E76346EBE7684601937F
:10669000FFF72FFFA2E7F7B5060068463400FFF7C3
:1066A00021FF0027FF22019BFC34013B0DD3E06852
:1066B0002169884204DBE7682069D71B3F18F4E7AB
:1066C0002769E1687F1A013FEFE768460193FFF70A
:1066D00010FFA3696846002B52D1FFF703FFB221D8
:1066E000019B4900013B5A1C0CD0755C5A1EEDB24F
:1066F000002D05D168460193FFF7FBFE2800FEBD83
:106700001300F0E7684601930025FFF7F2FEFF2231
:10671000236EBD4214D0616E994211D9591CF318F1
:106720002166FF33587FE36821690133C0B213400B
:106730008B4203D0E16871180872E3600135E7E726
:10674000626E9A42DAD1002323660133A361684660
:10675000B224FFF7C7FE6400B2220021019BFF3282
:10676000013B581CC6D03155B05C5F1E002805D0D7
:10677000B15430000193FFF7FBFEEDE73B00F0E77B
:10678000FFF7B0FED821019B4900013B5A1C06D0FF
:10679000755C5A1EEDB2002DACD01300F6E76846CA
:1067A0000193FFF7A6FED623D4225B0000259C466A
:1067B0005200B358BD4203D061467158994220D867
:1067C0006246B2589A4299D1D42200235200B35063
:1067D0006846A361D824FFF785FE6400B222002139
:1067E000019BFF32013B581C00D183E73155B05C5F
:1067F0005F1E002819D0B15430000193FFF7B8FE96
:10680000ECE7591CB150FF21F3186933FF331878B6
:10681000E368C0B201330B4021698B4203D0E168C9
:1068200071180872E3600135C3E73B00DBE710B580
:106830000400FFF730FF2300FC331969DA68914246
:1068400003D01B69E418207A10BD01204042FBE709
:1068500010B50400FC34FFF71EFFE0682369C01A7E
:1068600001D50130FF3010BDF0B585B00192009127
:106870000500FFF710FF02A8FFF734FE01200024F7
:10688000FF26039B40425A1E531C1FD02B00FC3393
:1068900001998C4218D2D9681F69C91B01D50131F1
:1068A000FF31002910D01969DF688C460100BC4512
:1068B00006D019691F69691801373740097A1F61C5
:1068C000009F39550134E3E7013ADDE702A803925E
:1068D000FFF70FFE200005B0F0BD37B56B46DC1D9D
:1068E00000230D002370FFF781FD2100FFF7FEFC60
:1068F0002B681818286020783EBD00002023F7B5CB
:10690000474A0500D1690F200B43D3610122454955
:106910000B7813430B70444B19788143197006218F
:106920001C782143197041490C7822430A701A7867
:1069300002401A70602219780A431A703C4B3D4A93
:106940005A805F78FF09FCD13B48FEF76FF80123BE
:106950003A4C3B4E2268300011780B431370802272
:106960003900520004F093FE22689378DB07FCD4D0
:1069700056621F26334B1B68590B980C9B01314004
:1069800030405B0FB14200D105211F2800D10238F1
:10699000072B00D1043B31408901178D01912A4911
:1069A00030400F40019939431185118D0700B143E3
:1069B000080038431085118D1803244B7F260B40A7
:1069C00003430C2013850823D17881430B43032113
:1069D000D3702268D3788B4301390B43D37022687C
:1069E00013783340137004232268167833431370EE
:1069F0002268C1241389A4008343154813810359D5
:106A00001B021B0A035180230360137811481943AA
:106A1000012311702B700021FFF73EFCF7BDC0462B
:106A200000040040584400413C44004159440041A6
:106A3000000C004006400000A9730000980A0020E6
:106A40009C0A0020246080003FF8FFFFFF8FFFFFBB
:106A500000E100E0780500200078002810D0012136
:106A6000084B1B681A898A431A810822198B0A432A
:106A70001A830422198B0A431A830022024B1A60DC
:106A80007047C046980A0020900A002010B50F4AAF
:106A900093699B0B9B03936113680222FF331A7265
:106AA0009879823A02439A711A7A9207FCD57F2428
:106AB000074A2140937A0800A34319008023014329
:106AC0009172917A5B420B43937210BD980A002039
:106AD0000050004110B50C00FFF788FC2100FFF7C3
:106AE0003CFC002804D1034A93699B0B9B039361F0
:106AF00010BDC046980A0020F7B50D00832A19D1B1
:106B0000CBB2404C5A01A21891693F48AD010840F0
:106B1000C0218905014391613C4920686D187021AD
:106B2000083355615B011A5C8A43110040220A4315
:106B30001A54F7BD022A5FD1354B8A00D05800287D
:106B400002D003685B699847DA20400000F079FCC6
:106B5000802204002B4E2F4B466003605200002120
:106B6000083004F094FD2200B2210023FC324900D9
:106B7000D3605561136113669361D36153666354A7
:106B8000443163500431635004316354B221FF3106
:106B90006354FF202B0003405901019371188F6843
:106BA000194BAD003B40C027BF051F438F6007272F
:106BB000019B366808335B01995DB9430F000321DF
:106BC0003943995523005169666801401D334901D5
:106BD000FF3371184B60636852691B6802405201B1
:106BE0009B1801221B18997A20000A439A72FFF71A
:106BF000BFFC074BEC509CE711002800FFF710FC8E
:106C000097E7C046980A0020FFFFFF8F0C06002080
:106C1000E405002034BF000070B505000124064BD8
:106C2000A200D258002A06D0210028000134FFF724
:106C300063FF0A2CF3D170BDB80500200B4BCAB21C
:106C40000B488901C9185301C31859619969083261
:106C5000890B89039961036852019A180223D37141
:106C60005179823B0B4353717047C0460C0600209C
:106C7000980A0020084B8A00D05810B5002803D08D
:106C800003689B68984710BDC9B2044B4901591865
:106C900088688004800CF6E7E4050020980A00204C
:106CA00010B50C00FFF7E6FF00280CD0064BE4B24D
:106CB0001B68083464011C19802362795B4213430A
:106CC00063710223E37110BD980A0020F0B51C0027
:106CD0002A4B85B01B6807000D000292002B4AD09A
:106CE000274B8A00D058002808D0036822005B6830
:106CF000029998470400200005B0F0BD3800FFF766
:106D0000B9FF844204D929003800FFF7B3FF04001B
:106D10000121EBB21B4E03935B010193F2189368C0
:106D20009B0B9B039360019A336802989B18FF3377
:106D30005A7A0A435A72144BA901C918220004F066
:106D40009DFC002CD7D029003800FFF793FF0028C6
:106D5000D1D14021039B326808335B01D3181879E5
:106D6000014319710121D971019BD318FF339A7A1C
:106D70000A439A72BFE701246442BCE7900A0020EC
:106D8000E4050020980A0020CC07002013B56B46CC
:106D9000DC1D22000123FFF799FF012801D1207893
:106DA00016BD01204042FBE770B5CBB2124A134832
:106DB0005C0189018918021951609168104D0833EE
:106DC0000D40802149032943402591609168890B3A
:106DD0008903916001685A018A1816793543157143
:106DE00095796D06FCD55B01C918CB79DB07FCD51D
:106DF00000198068C0B270BDCC070020980A00203E
:106E0000FF3F00F070B50D0000211400FFF7CCFF2C
:106E1000A04200D9200000230349A34203D0CA5C4A
:106E2000EA540133F9E770BDCC070020F0B51E002D
:106E30003A4B85B01B680F000192002B35D08023A0
:106E4000DB019E4231D80025354B8A01D3180293CD
:106E5000002E2CD0334B1B680393FF233B401C00B8
:106E600000930834039B64011C19A379DB0921D02A
:106E70002D4B2E49186801F00BFC2D4B1721584360
:106E800001F006FC2B4BE279920713D4DA5D002A5D
:106E900001D10138F7D20122DA55009B5A01214B6A
:106EA0009B189A69920B92039A6101256D42280002
:106EB00005B0F0BD00221F4B3400DA553F2E09D932
:106EC000009B40245A01174B9B1880229969120697
:106ED0000A439A6122000199029804F0CFFB009BBB
:106EE000A1045A010F4B890C9B18029A2D195A6163
:106EF0009A69361B920B92030A439A61009B039A8C
:106F000008335B01D3180222DA715979823A0A43B5
:106F10005A71019B1B1901939AE7C046900A002001
:106F20000C060020980A00208000002040420F003C
:106F3000701101000106002070B50D001C000D4B02
:106F4000AE01F61811003000220004F097FBEDB2FC
:106F500009496D014D196E61AB69084A2000134063
:106F6000AB61AB69A2049B0B920C9B031343AB6117
:106F700070BDC0460C060020980A0020FF3F00F0BC
:106F8000F7B5104B01901B780F001500002B0CD1AA
:106F90000D4B16001C78002C09D00C4E0C48348880
:106FA0002018641904F06AFB34802800FEBD002E0E
:106FB000FBD03A19330000210198FFF7BDFF2418D8
:106FC000361AF4E78C0900208D0A00208E0A002072
:106FD0008D090020F8B50F0016000024012A26D9DB
:106FE000100004F037FB0500380004F02FFC0323E9
:106FF00002220130400028706B7096420DD939781A
:1070000000290AD0531CDBB20137A9549E4203D099
:107010000232EC54D2B2F0E7320029000548FFF703
:10702000AFFF441EA041C4B2280004F01DFB2000A5
:10703000F8BDC046E0050020F0B50024012685B06B
:10704000184B0F0069461E7005000094FFF745FCC1
:10705000154B01A90B806A3BFF3BCB715A330B7276
:10706000009B8C7109334B800E4B4E7108711C7064
:107070003A00092F0FD00D4F09223E700C4E280008
:1070800000943480FFF77CFF69462800FFF725FC59
:10709000328808493C702800FFF772FF012005B0D4
:1070A000F0BDC0468C090020090200008D0A0020B6
:1070B0008E0A00208D09002070B5CE7892B00500B0
:1070C0000C00022E0BD18B79C9792E480902194385
:1070D000FFF7B2FF411E8841C0B212B070BDFFF78A
:1070E00085F92100FFF716F9002803D0C117081A07
:1070F000C00FF2E7012E0ED1E279A37912021A43F2
:107100002149112A3CD8D2B2002A39D02800FFF7F1
:1071100037FF0120E1E7032EDFD1A378002B28D031
:10712000022B08D1E279A379120218491A432800E8
:10713000FFF750FFD1E7012B05D1E279A3791202C5
:107140001A431349F3E7032BC7D10100412201A8D9
:1071500004F09DFAFFF74AF901A9FFF7EBF80028C0
:1071600005D0E279A37912021A4301A9DFE7037877
:10717000FFDEE279A37912021A430649032AC2D933
:107180000A78C3E7E005002070BF000050BF000090
:1071900064BF000060BF0000CBB204495B01C918A6
:1071A0008B699B0B9B038B617047C046980A00203C
:1071B00037B5050048780C000B2810D801F05EFAAE
:1071C000061B0F2B0F404561494C5A5D097801AAF7
:1071D000002906D1022311802800FFF7ADFE01200F
:1071E0003EBD00231380284B1B78012B00D1137068
:1071F00002230021F0E78A780023012A03D101AAA3
:107200001380224BF0E7204A1370214A93699B0BAD
:107210009B039361E3E78C78012C06D100211B4B83
:1072200001AA1C7011702300D6E70120002CD7D1D1
:10723000154B174A187093699B0B9B039361CFE71B
:1072400089782800FFF722FCC9E72800FFF734FF00
:10725000C6E701230F4ACCE70B780020DB06BFD13D
:107260002800FFF7D9FCA2780A4B0B481A60FEF7FA
:10727000FBFFCAE70123094ABBE78A78074B1A607C
:10728000C3E70020ACE7C046000600200806002047
:10729000980A0020900A002078050020940A002017
:1072A0003B4BF7B51E780500002E5FD1394C2368A3
:1072B0009A8B12070DD5082231009A833000FFF710
:1072C000AFF810222368FF33997A0A439A72324B3F
:1072D0001E6023689A8B520701D504229A83FF33DC
:1072E0001A7A920603D52022597A0A435A721A7AD8
:1072F000D20623D569460800284AC0CAC0C0A26881
:10730000920B9203A2604022587902435A71602383
:107310000A7828001A422AD1FFF74AFF2368FF3370
:10732000002827D08022997952420A439A711A7A0A
:10733000520603D54022597A0A435A727F26012504
:107340002368FF331E722F00236808377F01DB1983
:10735000DB79002B07D0124BAA00D05800280DD0A3
:1073600003681B6898470135082DECD1F7BDFFF77E
:10737000B1FBD3E720210B4A9171D8E7FFF736F82C
:107380002900FEF7FAFF2368DF19FE71EBE7C0461C
:107390008D0A0020980A0020900A0020CC070020C7
:1073A000E4050020FF50004110B50248FFF778FFC8
:1073B00010BDC046E0050020014B024A1A6070472C
:1073C000980A002000500041F0B50C008BB0160068
:1073D000002926D0931E222B2DD80A2A05D1002859
:1073E00003DA0127404201AD0AE00027FBE7310044
:1073F00001F0D4F9CBB2092916D830332B700135FE
:107400002A000028F3D101ABAB42F0D02300002FBB
:1074100002D02D21631C217001A98A4206D80022C6
:107420001A7020000BB0F0BD5733E7E7013A11782E
:1074300019700133F0E70024F3E710B5FFF7C4FF3C
:1074400010BD10B504F006F910BD10B504F00CF92C
:1074500010BD0B0010B50100180004F0C3F810BDFA
:10746000F0B557464E46DE464546E0B58FB01D00A6
:1074700006000F00140000F0ADF9CE4B0090019112
:107480009A461B785BB2994601333ED022002B000E
:107490002000290003F0F4FE8346002835D1320095
:1074A0003B003000390003F0EBFE0022039000287F
:1074B00000D06FE000233000390001F06FFA00289F
:1074C0002CD0002200232000290001F067FA834617
:1074D000002800D192E004AB984601234246049371
:1074E000B54B53604346039A1C615D611A629E600E
:1074F000DF604246002300249361D4614B46002B99
:1075000067D00023AD4C00930194009801990FB00F
:107510003CBC90469946A246AB46F0BD0098019906
:1075200000F09AFF8146002800D19AE00098019966
:107530000022002301F032FA0028E6D030003900A2
:1075400000F08AFF0028E0D02000290000F084FF2E
:107550000028DAD004AB9846042342460493964BA5
:10756000146155615360002300241362002393616A
:10757000D46153461B789660D7605BB2022B04D06F
:10758000404600F073FF002829D104F039F8222387
:10759000036024E000232000290001F0FFF9002807
:1075A000B3D004AB9846012342460493824B414634
:1075B000536043465A461A6200229E60DF601C6197
:1075C0005D617E4B8A61CB61009201934B46022B39
:1075D0009BD0404600F04AFF002800D18AE0434695
:1075E0001B6A002B04D004F00BF843461B6A0360AF
:1075F0004346DC699B690093019486E720002900DB
:1076000000F02AFF002800D17FE70022002320009D
:10761000290001F0C9F9002800D176E704AB9846AB
:10762000012342460493644B536043465A469E608E
:10763000DF601A621C615D6153461B785BB2002BF0
:107640005DD0002042465E499061D161022B5BD142
:1076500003F0D6FF2123036043461B6A002BC7D0EB
:10766000C1E73000390000F0F7FE002800D15DE7E7
:107670002000290000F0F0FE002800D156E7009815
:10768000019953461B7802005BB29B460B0003F046
:10769000F7FD04AB9846002862D1032342460493C9
:1076A000454B14615561536010629660D760454B3D
:1076B00020002900002203F029F85B4604000D0099
:1076C000002B27D1E02241463F4B12068A61CB6155
:1076D000300000220023390001F066F900282AD189
:1076E000404600F0C3FE0028B6D103F089FF2223F4
:1076F0000360B1E703F084FF212303606FE7424694
:10770000002300249361D461404600F0AFFE0028BE
:10771000A2D19DE7002241462C4B30008A61CB610B
:1077200000220023390001F03FF9002835D15B46E3
:10773000022BDAD0D4E72000290000F09FFE2200BF
:107740002B0001F02BF9002805D1E022204B120676
:1077500041468A61CB6153461B785BB29B46E6E7A4
:10776000012342460493144B536043464A469E60AD
:10777000DF601A621C615D615B46002BBFD0002395
:1077800000221900100002F0B7FB43469861D9614E
:107790005B46022B00D15BE7B6E72000290000F032
:1077A0006DFE22002B0001F0F9F80028D3D1002251
:1077B000034BCDE7A400002084BF00000000F03F91
:1077C0000000F0FF0000E03FFFFFEF470000F07F08
:1077D000FFFFEFC7F0B55746DE464E4645465C0014
:1077E0006408E0B598461F00230093B083468A469C
:1077F000160013430CD07D4B4D00029181466D085D
:107800009D4212DD7A4B9C465B4665441D4361D127
:107810000023784C009301940098019913B03CBC6C
:1078200090469946A246AB46F0BD9D4250D09C4240
:10783000E8DC6E4B9C426BD0002304935346002B34
:1078400069DB002A10D1694B9C424CD0694B9C42A9
:1078500000D1A3E08023DB05984500D1BCE0664B56
:10786000984501D100F0D6FB5846514600F0F0FD96
:107870004B4600900191002B07D1002D67D0534655
:107880005C4A9B009B08934261D05346DB0F013B4F
:1078900099464A46049B134300D190E0574B9C42C3
:1078A00000DCBBE0564B9C4201DC00F010FC554B69
:1078B0009D4201DC00F004FC4346002B23DD524ACC
:1078C000524B1000190002F021FF00900191A3E734
:1078D000002805D04E4800F0CBFD009001919BE7B9
:1078E000AC42F7DCA5E75A46414BEB18134300D1F5
:1078F0008EE7444B9D4200DC99E343460096019796
:10790000002B00DB88E7002300240093019483E729
:10791000002A91D076E73F4B9C423CDC394B9C429D
:107920008FDD3D4923158C466344142B00DCB2E304
:107930003421CB1A3100D94008009840904200D041
:107940007FE70123194001335B1A049379E743462B
:10795000002B07DA009A019B0020264902F0CCFA9E
:1079600000900191029B002B00DB55E7204B9C46C9
:10797000049B65441D4301D100F00EFC049B012BC8
:1079800000D049E7009C019D8021220009066B1868
:107990000092019340E70223049352E75846514670
:1079A000434600900191002B00DB35E75A465346D1
:1079B0000020104902F0A0FA009001912CE75A46ED
:1079C00053465846514603F013F902000B0002F0EB
:1079D00093FA009001911FE75A4653465846514684
:1079E00002F094FE0090019116E7C0460000F07F7F
:1079F000000010C00000F03F0000E03F0000E04148
:107A00000000F043FFFFEF3F9C7500883CE4377EA9
:107A100088BF0000FFFF3F4301FCFFFFE44B002253
:107A20009D420ADC009801990022E24B02F06EFEB2
:107A300035220D00009001915242DF492B158C46F2
:107A4000634498462D03DD4CDD4B2D0B90442C43B5
:107A50009D420ADDDB4B9D4201DC00F001FC01236D
:107A60009C46D94BE0449C466444002200230E927D
:107A70000F931092119300220025D04B069207938A
:107A800000980199069A079B21000890099103F03C
:107A9000AFF8069A079B0A900B910898099901F094
:107AA0000FFF02000B000020C44902F025FA0A0073
:107AB000010013000C910D9202000A980B9902F03C
:107AC00025FE0A0001001300029103920022009299
:107AD0000193802364109B05234380242403A44640
