:1020000000800020E94D0000D14D0000D14D0000BE
:1020100000000000000000000000000000000000C0
:10202000000000000000000000000000D14D000092
:102030000000000000000000D14D00003D4E0000F7
:10204000D14D0000D14D0000D14D0000D14D000018
:10205000D14D0000D14D0000D14D0000D54D000004
:10206000D14D0000D14D0000D14D0000D14D0000F8
:10207000D14D0000D14D0000414D0000D14D000078
:10208000D14D0000D14D0000D14D0000D14D0000D8
:1020900000000000D14D0000D14D0000D14D0000E6
:1020A000D14D0000D14D0000D14D0000D14D0000B8
:1020B0000000000010B5064C2378002B07D1054B1B
:1020C000002B02D0044800E000BF0123237010BDA4
:1020D000B00000200000000034B40000044B10B534
:1020E000002B03D00349044800E000BF10BDC046E8
:1020F00000000000B400002034B40000704700006D
:1021000070B5084D7D24280003F004FA013C06490F
:102110002800E4B203F0F5F9002CF7D1280003F011
:10212000F9F970BD700400206BA6000070B50500C1
:102130000024AC4205D00349034803F0E2F901341E
:10214000F7E770BD53A60000700400201C4B13B5C8
:102150001C4C984215D906F0A9F81B4905F0EAFC79
:1021600007F048FE0B00032102000091200003F05D
:1021700009FB1649200003F0C4F9142002F0A2FE66
:1021800013BDFA239B0098420FD906F08FF810492F
:1021900005F0D0FC07F02EFE0B000221020000919A
:1021A000200003F0EFFA0B49E4E701000A222000C7
:1021B00003F013FA0849200003F09FF9DDE7C04659
:1021C00040420F007004002000247449C4A40000A1
:1021D00000007A44C7A40000CBA4000070B504003E
:1021E00002200D00FFF7A2FF002D09D02000FFF70D
:1021F000ADFF0320FFF79AFF2800FFF7A7FF70BD90
:102200000120FFF793FF0349034803F07AF9200008
:10221000F3E7C0466DA600007004002070B505000D
:102220000120FFF783FF084C0849200003F069F9FB
:102230000749002D00D10749200003F062F9012071
:10224000FFF774FF70BDC0467004002070A6000048
:1022500088A500008DA5000010B5074801F0DAF848
:10226000041C0120FFF7DAFF201C05F011FC0021FF
:10227000FFF7B4FF10BDC046CC00002070B51B486E
:1022800001F0D8F8030005000E000B432CD0184CC9
:102290001849200003F035F90023174A28003100BF
:1022A00005F0D2FB0A220100200003F096F9124A41
:1022B00000232800310005F0C7FB200011000A228E
:1022C00003F08BF90D49200003F01BF90C492000A5
:1022D00003F017F910223100200003F07EF91022DC
:1022E0002900200003F079F970BDC046CC00002021
:1022F0007004002051A5000040420F00A9AC00006E
:1023000016A6000070B52A4C200003F003F92949F5
:10231000200003F0F6F82849200003F003F920001C
:1023200003F0F8F8254E300001F076F8051E05D1CF
:102330002349200003F000F9280070BD2149200046
:1023400003F0DFF810222900200003F05CF91E4999
:10235000200003F0D6F8290C1022C9B2200003F0A7
:1023600048F92D0A1949200003F0CBF81022E9B2F0
:10237000200003F03EF91649200003F0C2F83000B7
:1023800001F03EF80A220100200003F03CF9114957
:10239000200003F0B6F8300001F034F80A22010002
:1023A000200003F030F9FFF769FF0120C5E7C046C0
:1023B0007004002092A50000AEA50000CC00002013
:1023C000B6A500000CA6000019A6000024A6000077
:1023D00032A600003DA6000070B51B49002003F0A6
:1023E000E2FD1A4C0100060001232322200001F027
:1023F0008DFA0025A84205D0200001F00BF805F069
:1024000047FB050000223100200001F065F80600BE
:10241000200000F0FFFF05F03BFB04000320FFF766
:1024200085FE0B490B4803F06CF80220FFF77EFE97
:102430000120232E00D00020FFF7F0FE280021000D
:10244000FFF7CCFE70BDC046FFFF0F00CC000020A0
:1024500049A600007004002070B51B49002003F05D
:10246000A2FD6E22194C01000600012352422000F9
:1024700001F0ACFA0025A84205D0200000F0CAFF08
:1024800005F006FB050000223100200001F056F89F
:102490000600200000F0BEFF05F0FAFA0400032059
:1024A000FFF744FE0A490B4803F02BF80220FFF720
:1024B0003DFE01206E3600D00020FFF7AFFE280061
:1024C0002100FFF78BFE70BDFFFF0F00CC00002046
:1024D0004EA600007004002070B51B49002003F0D8
:1024E00062FD1A4C010006000123194A200001F088
:1024F0009BFB0025A84205D0200000F08BFF05F0D3
:10250000C7FA050000223100200001F079F806002A
:10251000200000F07FFF05F0BBFA04000320FFF766
:1025200005FE0C490C4802F0ECFF0220FFF7FEFD0F
:10253000074B01209E4200D00020FFF76FFE2800CD
:102540002100FFF74BFE70BDFFFF0F00CC00002005
:10255000A811000055A600007004002070B51B49AA
:10256000002003F020FD1A4C010006000123194A47
:10257000200001F0C7FB0025A84205D0200000F094
:1025800049FF05F085FA050000223100200001F026
:1025900070F80600200000F03DFF05F079FA040015
:1025A0000320FFF7C3FD0C490C4802F0AAFF0220EC
:1025B000FFF7BCFD074B01209E4200D00020FFF733
:1025C0002DFE28002100FFF709FE70BDFFFF0F0060
:1025D000CC0000201EFBFFFF74A60000700400204A
:1025E00070B51B49002003F0DEFC1A4C0100060008
:1025F0000123194A200001F0F5FB0025A84205D06F
:10260000200000F007FF05F043FA0500002231002A
:10261000200001F068F80600200000F0FBFE05F045
:1026200037FA04000320FFF781FD0C490C4802F043
:1026300068FF0220FFF77AFD074B01209E4200D081
:102640000020FFF7EBFD28002100FFF7C7FD70BD5C
:10265000FFFF0F00CC000020F45F0D007AA6000001
:102660007004002070B51B49002003F09CFC1A4C3C
:10267000010006000123194A200001F021FC002579
:10268000A84205D0200000F0C5FE05F001FA0500C3
:1026900000223100200001F05CF80600200000F06C
:1026A000B9FE05F0F5F904000320FFF73FFD0C49E2
:1026B0000C4802F026FF0220FFF738FD074B0120EF
:1026C0009E4200D00020FFF7A9FD28002100FFF75F
:1026D00085FD70BDFFFF0F00CC00002031D5FFFF4E
:1026E0007BA600007004002070B51C49002003F098
:1026F0005AFC1B4C0100060001231A4A200001F07D
:102700004DFC0025A84205D0200000F083FE05F016
:10271000BFF9050000223100200001F050F8061C2E
:10272000200000F077FE05F0B3F904000320FFF766
:10273000FDFC0D490D4802F0E4FE0220FFF7F6FC17
:102740000849301C05F052F9002800D00120FFF79D
:1027500065FD28002100FFF741FD70BDFFFF0F0060
:10276000CC000020C3F5484065A60000700400209E
:1027700070B5274C86B02100684603F068FC210044
:1027800003A803F064FC234903A803F0A7FC224933
:10279000002003F008FC214C01000600012303AADD
:1027A000200001F06DFC0025A84205D0200000F0BB
:1027B00031FE05F06DF9050000236A463100200066
:1027C00001F034F8200000F025FE05F061F9040066
:1027D0000320FFF7ABFC1249124802F092FE0220E0
:1027E000FFF7A4FC03A9684603F0A0FC002800D072
:1027F0000120FFF713FD21002800FFF7EFFC03A8DD
:1028000003F0DBFB684603F0D8FB06B070BDC046A2
:1028100054A60000CFA40000FFFF0F00CC00002052
:10282000ECA4000070040020F0B5B24B93B006AAEF
:102830001380B14BB1490793B14B0020089301239A
:10284000137304335373E5331374AE4B0B9303F0DC
:10285000AAFB029002F006FB05F028FDAA4F182300
:102860003863029A0221380002F0B0F8002863D1E0
:102870000023019302F0F6FA05F018FDA24C18238C
:102880002063029A0321200002F0A0F80CAD00287A
:102890001ED0207C002102F059FD0321200001F010
:1028A00067FF002623002B3319780022200001F057
:1028B000B3FFA8550136182EF4D1200002F022F8FB
:1028C00002F0D0FA05F0F2FC216B05F00BFB20635F
:1028D000380000F09FFD05F0DBF804000320FFF74F
:1028E00025FC8A498A4802F00CFE0220FFF71EFCF4
:1028F00006AB1A882B889A4215D16968079805F0AB
:1029000075F800280FD0089BAA68029393420AD159
:1029100006AB9A89AB899A4205D106AB1A7C2B7C0F
:1029200001209A4200D00020FFF778FC2100019896
:10293000FFF754FC13B0F0BD8024BB6F6400DBB222
:10294000E41A7B7FA4B2002B02D1380001F006FF0D
:10295000387C002102F0FAFC3B002C33197802226B
:10296000380001F059FF380001F0DAFE182C2AD99E
:10297000002406AB1A5D3B002C3319783800013473
:1029800001F04AFF182CF4D1387C012102F0DEFC62
:102990005D4C200001F0C8FF051E70D0002301939C
:1029A00002F060FA05F082FC216B05F09BFA019BB6
:1029B0002063002B00D15BE7200000F02BFD05F029
:1029C00067F8019056E7002303931833019306AB91
:1029D0000493019B9C4200D91C00FF234A4DA96F20
:1029E00019400CD1287C02F0B1FC2B002C33197853
:1029F0000222280001F010FF280001F091FE049B44
:102A00001E000593059B0496F31A9BB23E4D9C4213
:102A100008D92B002C3332781978280001F0FCFEFD
:102A20000136EFE7287C012102F090FCEB6F002BD0
:102A30001ED1AB6F1B19AB67039B36491B199BB2A9
:102A40000393019B1B1B304C0193200001F07AFF84
:102A5000002800D10CE70121200001F099FF002897
:102A600000D105E78024019B6400002BB1D18FE7E2
:102A7000039A9342E0D80023AB67EB67DCE71822A8
:102A80000299200001F028FE002887D0214920006B
:102A900001F058FF0190002800D17FE7207C290039
:102AA00002F054FC23002C3319780322200001F09B
:102AB000B3FE200001F034FE06AB5B5D124E0393C3
:102AC00033002B3319780022300001F0A5FE039B60
:102AD000834208D0300000220A2102F019F93000A8
:102AE00001F010FF5AE70135182DE5D1300001F053
:102AF00009FF55E75D7A000048E19A40FFFF0F00AB
:102B000024710D00C3F5C840CC000020F3A40000E0
:102B10007004002000CA9A3BF0B52F4C8023A544D6
:102B2000002404AE5B00A45501349C42FBD12B4928
:102B3000002003F038FA0123294D009332000100F0
:102B400007002300280000F0A1FF0026B04205D0B6
:102B5000280000F05FFC04F09BFF060000248023A7
:102B600044AA5B0039002800009400F019FD2800F9
:102B700000F050FC04F08CFF03900320FFF7D6FA1E
:102B8000184D1949280002F0BCFC80270120FFF7EE
:102B9000CDFA7F00842202AB52009B181B5D9C4241
:102BA0000BD00020FFF73AFB21000A22280002F098
:102BB00010FD0E49280002F0A4FC0134BC42E9D10A
:102BC0000120FFF72BFB03993000FFF707FB85235C
:102BD0009B009D44F0BDC046ECFDFFFFFFFF0F00D2
:102BE000CC000020700400205AA60000A9AC000010
:102BF00010B50320FFF79AFA0C4C0D49200002F0A3
:102C000080FC0120FFF792FA0A4801F005FD002838
:102C100002D0FFF721FB10BDFFF700FB0220FFF7FA
:102C200085FA0549200002F06CFCF4E770040020EE
:102C30000EA50000CC00002019A5000010B503204F
:102C4000FFF774FA0849094802F05BFC0120FFF71E
:102C50006DFA074801F014FD002802D0FFF7FCFAD6
:102C600010BDFFF7DBFAFBE7FAA4000070040020B8
:102C7000CC00002010B50D49002003F094F90400A9
:102C80000320FFF753FA0A490A4802F03AFC0120F0
:102C9000FFF74CFA2100084801F0E0FB002802D0C1
:102CA000FFF7DAFA10BDFFF7B9FAFBE7FFFF0F00F5
:102CB0005DA5000070040020CC00002010B50E4976
:102CC000002003F070F904000320FFF72FFA0B49EE
:102CD0000B4802F016FC0120FFF728FA9022210091
:102CE0005202084801F014FB002802D0FFF7B4FAA2
:102CF00010BDFFF793FAFBE7FFFF0F0067A5000089
:102D000070040020CC00002010B50D49002003F015
:102D10004AF904000320FFF709FA0A490A4802F0B9
:102D2000F0FB0120FFF702FA2100084801F0CCFB7C
:102D3000002802D0FFF790FA10BDFFF76FFAFBE70B
:102D4000FFFF0F0072A5000070040020CC000020DF
:102D500010B50D49002003F026F904000320FFF709
:102D6000E5F90A490A4802F0CCFB0120FFF7DEF939
:102D70002100084801F0E1FB002802D0FFF76CFABF
:102D800010BDFFF74BFAFBE7FFFF0F007DA500002A
:102D900070040020CC00002010B50320FFF7C6F916
:102DA0000849094802F0ADFB0120FFF7BFF90748C9
:102DB00001F0FAFB002802D0FFF74EFA10BDFFF732
:102DC0002DFAFBE703A5000070040020CC000020D2
:102DD000E12170B56E4C4902200003F09FFB2000FA
:102DE00003F09EFB0028FAD0322002F06BF869490C
:102DF000200002F082FB0A25013D67492000EDB268
:102E000002F07BFB002DF7D1200002F083FB0F20A6
:102E100002F0E4F903F0B6F8604E2900300000F04B
:102E2000E1FA002808D00121300000F0DBFA0A2284
:102E30000100200002F0DDFB0021300000F0A2FACA
:102E4000FFF760FA002800D1A1E0FFF759F9072049
:102E5000FFF76CF95249200002F053FBFFF750F9DD
:102E60000320FFF763F94F49200002F04AFB0220DC
:102E7000FFF75CF94C49200002F043FB0320FFF709
:102E800055F94A49200002F03CFBFFF739F9FFF7FA
:102E9000AFFE200002F03EFBFFF7D0FE200002F064
:102EA00039FB200002F036FBFFF776FF200002F02E
:102EB00031FBFFF703FF200002F02CFBFFF748FF78
:102EC000200002F027FBFFF71FFF200002F022FB8B
:102ED000FFF7D0FEFFF714F90320FFF727F9344975
:102EE000200002F00EFB0220FFF720F931492000FC
:102EF00002F007FB0120FFF719F92F49200002F02B
:102F000000FB0120FFF712F92C49200002F0F9FA2A
:102F1000FFF7F6F8FFF760FA200002F0FBFAFFF780
:102F20009BFA200002F0F6FAFFF7D6FA200002F032
:102F3000F1FAFFF713FB200002F0ECFAFFF750FB69
:102F4000200002F0E7FAFFF78DFB200002F0E2FA22
:102F5000FFF7CAFB200002F0DDFAFFF765FC200056
:102F600002F0D8FAFFF7D8FD200002F0D3FAFFF7FD
:102F7000FFFBFFF7C5F8300000F04CFA002104F029
:102F800035FD002803D00E49200002F0CBFA70BDB9
:102F90007004002080A600009CA80000CC00002047
:102FA0008DA60000A2A60000ABA60000B7A60000F8
:102FB000C4A60000CEA60000D9A60000EAA6000024
:102FC000FAA6000010B5034A1021034800F088F962
:102FD00010BDC046D0010020CC000020037D002B96
:102FE00004D14375837583610133037570477FB5E1
:102FF000C36802AD04000E0002916A608B4203D1E7
:10300000028AAB889A4218D02000062229000C3090
:1030100007F0B4F8206802F0C6FC6B79227AE179F7
:1030200000932068002302F05FFD206829793200B8
:1030300002F08AFC206802F0ACFC7FBD70B5182657
:103040000400FFF7CBFF3300082120790D4D4343E7
:10305000EB18595602F0A6F933000821A079434332
:10306000EB18595602F09EF9082160794643AD19D4
:10307000695602F097F9044B200006CBFFF7B7FF23
:1030800070BDC04680AE00000802002007B5437D39
:1030900000910192002B07D09A070AD5EFF3108315
:1030A0005A425341837572B60099019AFFF79FFF08
:1030B00007BDDB07F8D58369014A9BB29360F3E74C
:1030C00000180040437D002B05D09A0704D5837D6E
:1030D000002B00D062B67047DB07FCD58369024A3B
:1030E0009BB2D360F7E7C0460018004010B50068F7
:1030F00002F062FC10BD70B506000C008D18AC42E9
:1031000006D021783000FFF7F1FF20700134F6E798
:1031100070BD0000104A114B114913600023537118
:103120001371104A104811601049D3609180092131
:1031300091710639537413741375D37111720C4A5B
:1031400010600C48D36090801B2053741374137567
:103150009071D371117270470802002000093D0080
:1031600054040020D0010020600400200A08000060
:10317000EC0100201D1A00007047000010B5054C3E
:103180000549200002F0B9F90449200002F0CAF90B
:1031900010BDC0467004002079AC0000ACAC00004B
:1031A00070B506000D0031702C4C14294CD8080065
:1031B00004F052FA0B181A1C1E24262C3236381032
:1031C000343A3C3E4042444648002549200002F043
:1031D000A9F970BD2349200002F0A4F93000FFF7DF
:1031E000CDFFF6E72049F1E72049F4E72049EDE774
:1031F0002049200002F096F91F49E7E71F49E5E75B
:103200001F49200002F08EF91E49E4E71E49200004
:1032100002F088F91D49D9E71D49D7E71D49D5E7CF
:103220001D49D3E71D49D6E71D49CFE71D49CDE725
:103230001D49CBE71D49C9E71D49C7E71D49C5E73A
:103240001D49C3E71D49C1E71D49200002F06AF985
:1032500004239D43022DC1D0BBE7C046700400206B
:103260003CA700005BA700008CA70000CBA70000D4
:1032700009A800009EA80000ACA80000DCA800007F
:1032800026A9000048A900008BA90000AEA90000F3
:10329000E8A9000037AA000074AA000098AA00005C
:1032A000BEAA0000E2AA000007AB00002BAB0000A2
:1032B00051AB00009BAB0000E8AB000037AC000056
:1032C0006BAC000010B5034A0349044804F0BCF994
:1032D00010BDC0460000002079310000100200201F
:1032E000F8B5254B1600FF22036000230D00522184
:1032F00042748274C2740275421C4371037103727A
:1033000043778377C377D3772A32117005315170B1
:1033100000220400194F8367C36702633900122239
:103320009C3006F02BFF2000390048221431B030C9
:1033300006F024FF2000390009225C31F83006F045
:103340001DFF3900A01C6531FF30032206F016FF77
:103350000B4BE6609E420CD10A232800637525744E
:10336000012101F0A7FF207C012101F0EFFF2000E7
:10337000F8BD0B23F1E7C04600093D0038AD000061
:10338000D001002070B50400144D0E00280014492F
:1033900002F0C8F8280002F0BDF8637D0B2B02D0C4
:1033A000E068FFF74BFE237A002B07D11B226270E7
:1033B000643A2370A270E3702371637131002000BE
:1033C00001F0E0FB0500200001F09CFA0023200042
:1033D000A37701F091FB280070BDC0467004002067
:1033E000A0AD000010B5054C2378002904D01900C9
:1033F000012201F08DFC2378180010BD100200207E
:10340000C06B7047030010B572331988C06B04F0AD
:103410002DF910BD006B70470200373253781178D8
:103420001B020B435BBA393000789BB21B02184376
:1034300070470000F7B52749060001F083FA00281D
:1034400003D10020010003B0F0BD300001F06CFAA0
:103450000028F6D14B21300001F08AF90424350010
:10346000013C2C352978EE223000E4B201F0D4F989
:10347000002CF4D1F37F002B04D02978EE22300009
:1034800001F0CAF934003700943425009C3733002A
:103490002B3319780022300001F0BEF92870013575
:1034A000BD42F4D1307C012101F050FF0022002305
:1034B0002178013400910021019100980199801830
:1034C0005941060E0B0233430202AC42F0D1100008
:1034D0001900B8E700CA9A3B70B50D000400160049
:1034E00001F0C0FC04F0E2FE2A0020630123032166
:1034F000200001F06BFA0025A8421DD02900207C95
:1035000001F024FF0B21AE4200D10321200001F085
:103510002FF923002B3319780022200001F07CF9C9
:103520000500200001F0EEF901F09CFC04F0BEFE65
:10353000216B04F0D7FC2063280070BD70B50D002E
:103540000400160001F08EFC04F0B0FE2A00206397
:1035500001230321200001F039FA0025A8421DD0E3
:103560002900207C01F0F2FE0B21AE4200D10321A4
:10357000200001F0FDF823002B33197800222000F1
:1035800001F04AF945B2200001F0BCF901F06AFCF3
:1035900004F08CFE216B04F0A5FC2063280070BDB4
:1035A000F7B51E0008AB1B780D000400170001934F
:1035B00001F058FC04F07AFE2A0020633300032156
:1035C000200001F003FA051E18D0019B0B21002BEF
:1035D00000D10321200001F0CBF833003A00032191
:1035E000200001F01FF9200001F08CF901F03AFCF5
:1035F00004F05CFE216B04F075FC20632800FEBD26
:1036000073B50D000400160001F02CFC04F04EFE12
:10361000022320632A000321200001F0D7F96B4622
:103620009D1D002823D00021207C01F08FFE032166
:10363000002E00D00B21260020002B3601F098F838
:1036400031780022200001F0E7F82870317800225C
:10365000200001F0E1F86870200001F053F901F05A
:1036600001FC04F023FE216B04F03CFC206328885D
:1036700076BD73B50D000400160001F0F3FB04F0F5
:1036800015FE022320632A000321200001F09EF989
:103690006B469D1D002823D00021207C01F056FEA2
:1036A0000321002E00D00B21260020002B3601F034
:1036B0005FF831780022200001F0AEF828703178F0
:1036C0000022200001F0A8F86870200001F01AF92B
:1036D00001F0C8FB04F0EAFD216B04F003FC206359
:1036E0000023E85E76BD73B50E000400150001F0FE
:1036F000B9FB04F0DBFD042320633200032120002A
:1037000001F064F9002822D00021207C01F01EFE87
:103710000B21002D00D10321200001F029F8002504
:1037200023002B3319780022200001F075F801AB3B
:10373000E8540135042DF3D1200001F0E3F801F045
:1037400091FB04F0B3FD216B04F0CCFB20630198E6
:1037500076BD73B50E000400150001F083FB04F084
:10376000A5FD0423206332000321200001F02EF97F
:10377000002822D00021207C01F0E8FD0B21002D43
:1037800000D10321200000F0F3FF002523002B339C
:1037900019780022200001F03FF801ABE854013510
:1037A000042DF3D1200001F0ADF801F05BFB04F033
:1037B0007DFD216B04F096FB2063019876BD73B507
:1037C0000E000400150001F04DFB04F06FFD042312
:1037D000206332000321200001F0F8F8002822D0F5
:1037E0000021207C01F0B2FD0B21002D00D103212E
:1037F000200000F0BDFF002523002B3319780022A4
:10380000200001F009F801ABE8540135042DF3D193
:10381000200001F077F801F025FB04F047FD216B53
:1038200004F060FB2063019876BD0000F0B589B01C
:1038300000AF0400B9603A607B6001F013FB04F054
:1038400035FD00232063BA680321200001F0BEF893
:10385000002804D100263000BD4609B0F0BD7B68C9
:103860000B21002B00D103210026200000F080FF57
:10387000350023002B3319780022200000F0CCFF04
:10388000B04008360543202EF3D1200001F03AF86D
:103890006A46EB1DDB08DB00B968D31A9D4604318C
:1038A0002A002000FB6000F017FF0028D2D0164944
:1038B000200001F047F8061ECCD07B680B21002BBE
:1038C00000D10321200000F053FF2B001425FA68DB
:1038D0000321200000F0A6FF200001F013F8F96892
:1038E000781902F0B4FB7919386802F0EFFB781907
:1038F00002F063FB01F0B6FA04F0D8FC216B04F08F
:10390000F1FA2063A7E7C04600CA9A3BF7B50F005B
:1039100004001600019301F0A5FA04F0C7FC01238E
:1039200020633A000221200001F050F8051E02D168
:1039300000252800FEBD0221200000F019FF230011
:103940002C33009319783200200000F065FF207CB2
:10395000012101F0FBFC019B002B0BD1200000F0AA
:10396000D1FF01F07FFA04F0A1FC216B04F0BAFA58
:103970002063DEE71449200000F0E4FF051ED7D0E5
:10398000207C0021A76701F0E1FC009B032219784D
:10399000200000F041FF200000F0C2FE23002B3386
:1039A00019780022200000F037FFB042D6D0200066
:1039B00000F0A8FF01F056FA04F078FC216B04F047
:1039C00091FA2063B4E7C04600CA9A3BF7B50F00EE
:1039D00004001600019301F045FA04F067FC01238E
:1039E00020633A000221200000F0F0FF051E02D102
:1039F00000252800FEBD0221200000F0B9FE2300B2
:103A00002C3300931978F2B2200000F005FF207CDF
:103A1000012101F09BFC019B002B0BD1200000F049
:103A200071FF01F01FFA04F041FC216B04F05AFA17
:103A30002063DEE71449200000F084FF051ED7D084
:103A4000207C0021A76701F081FC009B03221978EC
:103A5000200000F0E1FE200000F062FE23002B3386
:103A600019780022200000F0D7FE40B2B042D5D035
:103A7000200000F047FF01F0F5F904F017FC216B7E
:103A800004F030FA2063B3E700CA9A3BF0B589B07E
:103A90001F000EAB1B78040003910492069301F003
:103AA000E1F904F003FC3B002063039A02212000AB
:103AB00000F08CFF051E03D10025280009B0F0BDE1
:103AC0006B4680221B7B5200D31A9BB2BB422ED383
:103AD000207C002101F03AFC23002C3319780222CB
:103AE000200000F099FE200000F01AFE0026BE42E1
:103AF0000AD2049B20009A5D23002C3319780136EA
:103B000000F08AFEB6B2F2E7207C012101F01EFC33
:103B1000069B002B5CD1200000F0F4FE01F0A2F91E
:103B200004F0C4FB216B04F0DDF92063C5E7B9B2F2
:103B3000009100210792029100991A1C8B4201D931
:103B40006B461A8893B2207C0021019301F0FEFBA2
:103B500023002C3319780222200000F05DFE2000A3
:103B600000F0DEFD049B029A9E18019BF31805935A
:103B7000059BB34208D023002C33327819782000FB
:103B800000F04AFE0136F3E7207C012101F0DEFB64
:103B9000019AA36F94469B18A367029B2149634433
:103BA0009BB20293009B20009B1A9BB2009300F0F3
:103BB000C9FE002800D17FE70121200000F0E8FEC7
:103BC000002800D178E7009A079B002AB4D19FE72C
:103BD0001449200000F0B6FE051E00D16CE7039BDF
:103BE000207CA367002101F0B1FB23002C3319785E
:103BF0000322200000F010FE200000F091FD0026BE
:103C0000BE4288D223002B3319780022200000F016
:103C100003FE049B9B5D834200D04DE70136B6B2A4
:103C2000EEE7C04600CA9A3BF7B50D0004000092CB
:103C3000019301F017F904F039FB022320632A00F5
:103C40001900200000F0C2FE061E23D00221200031
:103C5000270000F08DFD6B462C371A78397820004C
:103C600000F0DAFD009B39781A0A200000F0D4FD3C
:103C7000207C012101F06AFB019B002B0CD120006C
:103C800000F040FE01F0EEF804F010FB216B04F0B0
:103C900029F920633000FEBD1949200000F052FED2
:103CA000061E2BD0A567207C002101F04FFB397840
:103CB00027000322200000F0AFFD2B37200000F08A
:103CC0002FFD39780022200000F0A6FD397805008C
:103CD0000022200000F0A0FDEDB20002054320000C
:103CE00000F010FE009BADB29D42CBD001F0BAF8BF
:103CF00004F0DCFA216B04F0F5F820630026C9E734
:103D000000CA9A3BF7B50D0004000092019301F040
:103D1000A9F804F0CBFA022320632A00190020003E
:103D200000F054FE061E24D002212000270000F0DF
:103D30001FFD6B462C371A783978200000F06CFD97
:103D4000009B39781A12D2B2200000F065FD207C69
:103D5000012101F0FBFA019B002B0CD1200000F0A7
:103D6000D1FD01F07FF804F0A1FA216B04F0BAF85C
:103D700020633000FEBD1A49200000F0E3FD061E5E
:103D80002BD0A567207C002101F0E0FA39782700CC
:103D90000322200000F040FD2B37200000F0C0FC83
:103DA00039780022200000F037FD39780500002224
:103DB000200000F031FDEDB200020543200000F0CC
:103DC000A1FD009B2DB29D42CBD001F04BF804F039
:103DD0006DFA216B04F086F820630026C9E7C0461F
:103DE00000CA9A3BF0B587B00F000400019203931C
:103DF00001F038F804F05AFA042320633A00022153
:103E0000200000F0E3FD051E23D00221200000F079
:103E1000AFFC0026019A2300F2402C330293D2B269
:103E200019782000083600F0F7FC202EF2D1207C13
:103E3000012101F08BFA039B002B0DD1200000F033
:103E400061FD01F00FF804F031FA216B04F04AF83B
:103E50002063280007B0F0BD1849200000F072FD73
:103E6000051E29D0207C0021A76701F06FFA029B74
:103E700003221978200000F0CFFC200000F050FC55
:103E8000002623002B3319780022200000F0C4FC08
:103E900005ABF0540136042EF3D1200000F032FDC2
:103EA000059B019A9342CCD000F0DCFF04F0FEF9B0
:103EB000216B04F017F820630025CAE700CA9A3B7B
:103EC000F0B587B00F0004000192039300F0CAFF21
:103ED00004F0ECF9042320633A000221200000F0F2
:103EE00075FD051E23D00221200000F041FC0026B4
:103EF000019A230032412C330293D2B21978200068
:103F0000083600F089FC202EF2D1207C012101F03E
:103F10001DFA039B002B0DD1200000F0F3FC00F0F4
:103F2000A1FF04F0C3F9216B03F0DCFF206328003C
:103F300007B0F0BD1849200000F004FD051E29D08F
:103F4000207C0021A76701F001FA029B0322197867
:103F5000200000F061FC200000F0E2FB00262300BE
:103F60002B3319780022200000F056FC05ABF054EA
:103F70000136042EF3D1200000F0C4FC059B019A09
:103F80009342CCD000F06EFF04F090F9216B03F067
:103F9000A9FF20630025CAE700CA9A3BF0B587B0A5
:103FA0000F0004000192039300F05CFF04F07EF91F
:103FB000042320633A000221200000F007FD051EC3
:103FC00024D0019B022120000493002600F0D0FBA6
:103FD00004ABF25C23002C330293197820000136E5
:103FE00000F01AFC042EF3D1207C012101F0AEF97F
:103FF000039B002B0DD1200000F084FC00F032FF69
:1040000004F054F9216B03F06DFF2063280007B022
:10401000F0BD1A49200000F095FC051E2BD0207C35
:104020000021A76701F092F9029B03221978200072
:1040300000F0F2FB200000F073FB002623002B337E
:1040400019780022200000F0E7FB05ABF0540136A0
:10405000042EF3D1200000F055FC0199059803F0DF
:10406000C5FC0028CAD100F0FDFE04F01FF9216B49
:1040700003F038FF20630025C8E7C04600CA9A3B1A
:10408000F0B58BB000AF15000400F961BB6000F023
:10409000E9FE04F00BF96A462063AE682800731C41
:1040A0007B620733DB08DB00D31A9D467B61721C01
:1040B0000023694602F048F8200000F035FC051E98
:1040C00002D000233B627CE00422F969200000F06A
:1040D00003FB0028F5D0721DF969200000F078FB81
:1040E0000028EED08949200000F02CFC0028E8D000
:1040F0000121200000F04CFC0028E2D00221200029
:1041000000F036FB7A6A2600EA402C36D2B23178CB
:104110002000083500F080FB202DF3D10121207C08
:1041200001F014F9200000F0EDFBFB697A6A04331A
:10413000190020003B6100F0CFFA0028C1D073497C
:10414000200000F0FFFB0028BBD00121200000F080
:104150001FFC38620028B4D080223B7F5200D31A63
:10416000796A9BB28B4230D3207C002101F0EEF8BB
:1041700031780222200000F04FFB200000F0D0FA3E
:1041800000257B6A9D420AD27B6920005A5D23008C
:104190002C331978013500F03FFBADB2F1E7207CFC
:1041A000012101F0D3F8BB68002B59D1200000F0A9
:1041B000A9FB00F057FE04F079F8216B03F092FEA2
:1041C0002063BD46386A0BB0F0BD0021BE8CB961DA
:1041D0007A60321C9E4200D91A1C93B2207C0021C6
:1041E000FB6101F0B3F823002C3319780222200080
:1041F00000F012FB200000F093FA7B69BA699D1869
:10420000FB69EB18FB60FB68AB4208D023002C3342
:104210002A781978200000F0FFFA0135F3E7207CB6
:10422000012101F093F8FA69A36F94469B18A367E4
:10423000BB69B61A63449BB234492000BB61B6B275
:1042400000F080FB002800D13BE70121200000F0B6
:104250009FFB002800D134E77B68002EB9D1A2E78C
:104260006B462A492000FB6100F06CFB3862002895
:104270003AD06A463B69207CA3677B6A00210733FA
:10428000DB08DB00D31A9D4601F060F823002C33D5
:1042900019780322200000F0BFFA20006E4600F0DB
:1042A0003FFA00257B6A9D420AD223002B331978FE
:1042B0000022200000F0B0FA70550135EDB2F1E7B0
:1042C000200000F01FFB00237A6A934212D27A6921
:1042D000F15CD25C91420AD000F0C4FD03F0E6FF2D
:1042E000216B03F0FFFD2063FB699D46E9E6013386
:1042F000DBB2E9E700F0B6FD03F0D8FF216B03F075
:10430000F1FD2063FB699D465BE7C04600CA9A3B0E
:10431000F0B587B000AF040079603A6100F0A2FD0B
:1043200003F0C4FF3B6920637A68EF21200000F0AE
:104330004DFBB860002805D10023BB60BD46B868BE
:1043400007B0F0BD0121444B38690A00984200D9FA
:10435000020BD008014007201309024094465A1866
:1043600010006D466044F86040000830C008C0008E
:10437000281A85467861002B0BD020005530007834
:104380005D00386068462D183E8806800230A842DD
:10439000FAD1002909D025004D359A4205D928784F
:1043A0007E69590070520133F7E76346002B0AD04B
:1043B00020004530FB689A4205D201787D695300A0
:1043C000E9520132F6E7E56F002D3CD1FB689D42D2
:1043D00039D07A696B00D65A2000F1B200F0C8F9E2
:1043E000200000F08FFA230055331B780021B342E0
:1043F00001D1A36D99B223004D331B78B34201D193
:10440000236D99B2230045331B78B34201D1A36CCD
:1044100099B2FA239B005943200000F093FA002838
:1044200000D189E7002D01D00135CFE77B683A69DB
:10443000EF219A18E36F2000D21A3B6900F0C6FA08
:104440000028F1D178E700F00DFD03F02FFF216B7C
:1044500003F048FD206371E7FF0F0000030070B513
:1044600044331D7804000E00002D05D12A000C21D4
:1044700000F04EFC280070BD00F0F4FC03F016FFC5
:10448000802320635B013200EF21200000F09EFAC0
:10449000002801D10025EDE72300453319782000DD
:1044A00000F066F9200000F02DFAA16C200000F069
:1044B00049FA051EEED000F0D5FC03F0F7FE216BA3
:1044C00003F010FD2063D5E7030070B54C331D7871
:1044D00004000E00002D05D12A000C2100F018FC6C
:1044E000280070BD00F0BEFC03F0E0FE80232063D6
:1044F0001B023200EF21200000F068FA002801D1F1
:104500000025EDE723004D331978200000F030F945
:10451000200000F0F7F9216D200000F013FA051ECD
:10452000EED0200000F0A8FA00F09CFC03F0BEFEE4
:10453000216B03F0D7FC2063D2E7030070B554333E
:104540001D7804000E00002D05D12A000C2100F07A
:10455000DFFB280070BD00F085FC03F0A7FE802380
:1045600020635B023200EF21200000F02FFA0028C8
:1045700001D10025EDE7230055331978200000F024
:10458000F7F8200000F0BEF9A16D200000F0DAF984
:10459000051EEED000F066FC03F088FE216B03F0F0
:1045A000A1FC2063D5E7000070B5040000F05AFCC0
:1045B00003F07CFE2063200000F0B6F9002802D052
:1045C0000025280070BD1349200000F0BBF9002829
:1045D000F6D00121200000F0DBF9051EF0D0230009
:1045E00065331978200000F0C3F8200000F08AF944
:1045F0000126200000F021F93042FAD1200000F01D
:1046000081F900F02FFC03F051FE216B03F06AFCEE
:104610002063D6E700CA9A3B030070B537331B7896
:104620000400BF2B26D000F01DFC03F03FFE142138
:104630002063200000F086F9051E19D0B921200062
:1046400000F096F8200000F05DF95023013BFDD109
:1046500001250021A577200000F09AF9454000F0DF
:1046600001FC03F023FE216B03F03CFCEDB2206360
:10467000280070BD00220C2100F04AFB0025F7E75E
:1046800070B5040000F0EEFB03F010FEAB212063D8
:10469000200000F06DF8200000F034F93023013BD9
:1046A000FDD10021200000F073F9051E0CD0200080
:1046B00000F0E2F900F0D6FB03F0F8FD216B03F007
:1046C00011FC00232063A377280070BD10B5C068DB
:1046D000FEF70CFD10BD0000F8B50F00002105002D
:1046E0001600FEF77FFEF72303400020032B08D0BF
:1046F000EC6B844206D1094822000121FEF750FDEF
:104700002000F8BDBE19B44204D8361BEE67AF676F
:104710000120F6E70023EB67F9E7C046100200200E
:1047200010B5C37F0400002B04D003007B3319783D
:10473000FFF7CCFF23007A3319782000FFF7C6FF7C
:104740002300793319782000FFF7C0FF2300783366
:1047500019782000FFF7BAFF012010BD10B5040042
:1047600001684268C068FEF791FC0120607710BDC7
:1047700070B5437F04000D00002B01D1FFF7EEFF61
:10478000207C002100F0E2FD0B2D15D005D8022D74
:1047900009D0032D07D0290016E0522D03D0D82DC3
:1047A00001D0202DF7D129002000FFF78FFF200036
:1047B000FFF7B6FF012070BD29002000FFF786FF3C
:1047C0002000FFF7ADFFEE212000FFF77FFFF1E7AC
:1047D00070B50321040016000025FFF7C9FFB5429C
:1047E00012D00021E068FEF781FCFF280AD0207C6F
:1047F000012100F0ABFD074800220721FEF7D0FCA5
:10480000002070BD0135EAE7207C012100F09EFD0B
:104810000120F6E71002002010B51100C068FEF775
:1048200065FC10BD023920B51500012904D81A0015
:104830002900C068FEF75FFC20BD70B504000521AB
:10484000FFF796FF0021E068FEF750FC251DE87792
:10485000207C012100F07AFDE87F70BD70B5040076
:104860001521FFF785FF0021E068FEF73FFCA51D3D
:10487000E877207C012100F069FDE87F70BD000031
:1048800070B506000124FFF7E9FF20420ED1B721E1
:104890003000FFF76DFF307C210000F057FD300045
:1048A000FFF7DCFF2040051E02D0F477200070BD2A
:1048B00002000D210248FEF773FC2C00F6E7C0460B
:1048C0001002002070B505000124FFF7C7FF204249
:1048D00012D0E9212800FFF74BFF287C210000F0CF
:1048E00035FD2800FFF7BAFF204007D000220E2137
:1048F0000348FEF755FC0024200070BDE877FBE775
:104900001002002010B504000121007C00F01EFD03
:10491000E37F002B02D02000FFF7D4FFE068FEF712
:10492000D1FB0023637710BD10B5847F002C04D029
:1049300000220F210248FEF733FC200010BDC046C4
:1049400010020020F8B506000C002023013BFDD129
:1049500000F088FA012705003000FFF76EFF331DD5
:10496000DB7F3B4201D10120F8BD00F07BFA401B08
:10497000A042F1D300F076FA401BA042F3D30348E3
:1049800000220421FEF70CFC0020EDE710020020BD
:1049900070B504000D000621FFF7EAFE207C01211E
:1049A00000F0D4FC2000FFF748FF0224044009D1A6
:1049B000002D05D0220006210348FEF7F1FB25005B
:1049C000280070BD0125FBE710020020F8B51E008D
:1049D000030037331B7804000F001500EF2B14D0B1
:1049E000022F1BD0EF2F37D02000FFF79DFF0028AC
:1049F00012D1320029002000FFF76EFE00280BD0F4
:104A00001B492000FFF79EFF07E01A4B9A42E7D9A7
:104A1000FFF736FF0028E3D10020F8BD2000FFF7A4
:104A200083FF0028F8D1320029002000FFF754FE50
:104A30000028F1D0320029002000FFF7C9FE00282D
:104A4000EAD00B492000FFF77DFF0028E4D00121C8
:104A50002000FFF79DFFE0E72000FFF765FF00283B
:104A6000DAD1320029002000FFF736FEE7E7C04622
:104A700000CA9A3BFFFFFF0010B504000421FFF7B6
:104A800077FE207C012100F061FC012010BD0000B8
:104A900070B517490400FFF755FF051E25D09F216B
:104AA0002000FFF765FE26000021E068FEF71EFBF0
:104AB000373630700021E068FEF718FB23003833EA
:104AC00018700021E068FEF711FB230039331870DD
:104AD000207C012100F03AFC3478002C05D1220022
:104AE0000B210448FEF75CFB2500280070BDC04682
:104AF00000CA9A3B10020020030070B538331B78BF
:104B00000400252B1CD1FFF798FE231DDD7F3C23DD
:104B1000502120009D43FFF72BFE207C012100F057
:104B200015FC01212000FFF723FE29002000FFF7DC
:104B3000CDFD207C012100F009FC0125280070BD7D
:104B40000125262BFAD10E49FFF7FCFE051EF5D0F4
:104B500001212000FFF71CFFA023013BFDD198217C
:104B60002000FFF705FE207C012100F0EFFBC823A9
:104B70009B00013BFDD12000FFF77EFFDEE7C04632
:104B800000CA9A3BF7B50200012364321370103A51
:104B90001370083A1370083A13700300202245334B
:104BA0001A7032321A7286321A744E4B00228364A3
:104BB0004D4B050003654D4B6535836503005C3344
:104BC0001A7060232B704A4B040083660300013285
:104BD0007233FF321A800E00FFF75AFF230037337B
:104BE0000193A21C1978FF32C133187888422FD163
:104BF0002300012235331A70230022003833FF329C
:104C00001B789178994205D0D178994202D01279D7
:104C10009A4201D1C7232B70230035331D78002D14
:104C20004CD0344F3449380000F07CFC2200019B0A
:104C300039321B780192C22B11D11378132B0BD070
:104C4000142B21D0002202212C48FEF7A9FA06E0FD
:104C500001339342C9D1CFE78023DB03E363019B98
:104C60001A78002319009C31615C91420FD12C33DA
:104C70009B001B593800E36301233434204923701F
:104C800000F050FC2800FEBD80231B04E6E7013342
:104C9000122BE7D1E36B0193002BF3D119493800B4
:104CA00000F040FC002E16D01749380000F03AFC06
:104CB0006B461B79E66334342370E3E7363425789A
:104CC000002D02D011490B48DAE72A0002210B48D7
:104CD000FEF766FAD6E7320003210848FEF760FACD
:104CE0003500CFE700CA9A3B0050D6DC004059732C
:104CF0000000DD0E70040020BCAD0000100200209A
:104D0000F4AD000044AE000067AE000032AE00001B
:104D100010B50248FEF744FA10BDC046100200204C
:104D20007047000010B5034A0349044802F08CFCA8
:104D300010BDC04600000020214D000011020020DF
:104D400010B5024801F037F810BDC046140200202B
:104D500013B51249124800F06DFD1249124800F0D7
:104D600069FD1249124800F065FD1249124800F031
:104D700061FD1249124800F05DFD124C12492000FD
:104D800000F058FD01230193023300930D220B33F1
:104D900021000E4800F0A4FF13BDC04600080042E9
:104DA00050040020000C0042540400200010004277
:104DB00058040020001400425C0400200018004247
:104DC0006004002064040020001C00421402002043
:104DD000FEE70000034B10B51B68002B00D098477E
:104DE00010BDC0466804002070B50F490F4CA142A9
:104DF00004D100F08FF800F037FBFEE70C4D0023E4
:104E00008D42F6D0CA18E818A24205D3094B824257
:104E1000EFD00949002204E0006804331060F1E794
:104E200004C38B42FCD3E4E700000020B000002064
:104E300040B40000B0000020A40A002010B500F02B
:104E400066F8002801D100F057F810BD014B18603A
:104E50007047C04668040020014B18687047C04680
:104E60006C040020F7B51348012284461249134C04
:104E70008E68636805689B0E1340019288686268BB
:104E8000019F920E3A4067463F6893420ED1BD4261
:104E90000CD186420AD35B19FA254868AD00861BFF
:104EA00007486B437043000DC018FEBD3D00130062
:104EB0000600E3E76C04002010E000E000ED00E0F5
:104EC0005555000070B5041E10D0FFF7CBFF05004C
:104ED00000F01CF8FFF7C6FF054B401B9842F7D9BE
:104EE000FA23013C9B00ED18002CF3D170BDC046A5
:104EF000E70300007047000010B5034A1368013350
:104F0000136000F05BFC10BD6C04002070470020B3
:104F1000704700001E2270B54648474943689343D6
:104F20001C3A1343436008238C6923438B61434C31
:104F3000434B9C829C8A14439C82DC681442FCD0C4
:104F40000124404A14701578254203D055786DB27B
:104F5000002DF8DB01249460547864B2002CFBDB54
:104F6000394C5460547864B2002CFBDB8224E40199
:104F70005480547864B2002CFBDB02249C840E34F1
:104F8000DD682542FCD0314CDC621024DD6825420E
:104F9000FCD09D8C2E4C2C439C841024DD68254233
:104FA000FCD002249D8C80262C439C844024DD6808
:104FB0003542FCD0DD682542F9D01024DD68254259
:104FC000FCD000249460547864B2002CFBDB214CAC
:104FD0005460547864B2002CFBDB1C6A1E4D2C40DC
:104FE00080251C621C6AAC431C62032393601B4B2C
:104FF000536053785BB2002BFBDB0023FF240B7262
:10500000174A4B728B72CB72164B1A60164B174AAB
:105010001B6811689A065B01C90E2340520F1202E9
:105020000B431343124A13858023426813434360A2
:1050300070BDC04600400041000400400C06000066
:1050400000080040000C004001050100B905FF7D8B
:10505000040A000000070300FFFCFFFF0306010035
:10506000006CDC02040000202460800020608000CE
:1050700000400042FA21314B10B51868890002F057
:10508000F5FA2F4B0138984256D82E492E4A4860DF
:10509000C020136A00061B021B0A0343136200248C
:1050A00007238C600B608021136A09061B021B0A10
:1050B0000B431362FC22254B196A0A431A62FC2235
:1050C000196A92010A431A62A022196AD2020A439B
:1050D0001A6220000021013400F0ECF8162CF8D1FF
:1050E0001B4B1C005A7852B2002AFBDB194A5A802B
:1050F000194B1A00597EC9090129FBD0E421C900C6
:1051000099803F21D970537EDB09012BFBD0C0234E
:1051100000205B011361907000F02EF863785BB2A1
:10512000002BFBDB0D4B0E4A6380D379DB09012B8F
:10513000FBD04123537010BDFEE7C04604000020A1
:10514000FFFFFF0010E000E000ED00E00004004081
:10515000000C00401E4000000040004221400000C2
:1051600000480042914202D002D98A1AD0407047CA
:10517000521A9040FBE70000164A00B51300517E1A
:10518000C9090129FBD00138042816D81969124A27
:105190000A400F211A615A788A4302F05DFA030827
:1051A000060B0300110001220A435A7000BD1100D2
:1051B0000322F9E711000222F6E7F02311691B052B
:1051C0000B430F21136153788B43190002230B43C8
:1051D0005370EBE700400042FFFFFFF010B5040002
:1051E0000E2800D80F340121200000F0DBF818232E
:1051F000102163432A4CE4186156002901D0142978
:105200000DD1284B1800DA79D209012AFBD00224EB
:105210001A78A2431A70C379DB09012BFBD022480C
:105220000300427ED209012AFBD01F2402692140DB
:10523000A2430A4302615A7ED209012AFBD002220C
:1052400019780A431A705A7ED209012AFBD0022229
:10525000197B0A431A731A7ED207FCD501221A76EB
:105260005A7ED209012AFBD00222197B0A431A7303
:105270001A7ED207FCD5588B80B25A7ED209012AF9
:10528000FBD002211A788A431A705A7ED209012A69
:10529000FBD0064B1A68064B1968FFF763FF10BD79
:1052A00080AE000000480042004000420C00002098
:1052B00008000020182330B51D00040045430820D5
:1052C000204A55192856013014D0032912D8080055
:1052D0006343D156D31802F0BFF902280E1B586859
:1052E000CB010221184A9B181A1840321170012272
:1052F00082405A6030BD5868CB010621124A9B1883
:105300001A1840321170012282405A609A61F1E706
:105310005868CB0106210C4A9B181A1840321170AC
:10532000012282405A605A61E4E75868CB010221A9
:10533000054A9B181A1840321170012282409A6067
:10534000D8E7C04680AE0000004400411823F0B505
:1053500008245843114A13181C5701341BD0012646
:1053600035005F688356BD400D4ADB019A1890688E
:1053700005420BD10C00601E8441D21940321078D6
:1053800034400336A400B04320431070044A9B18F5
:10539000002901D15D61F0BD9D61FCE780AE000098
:1053A0000044004118224243F8B52C4E0300B218C5
:1053B000127A52B2140001320ED0481C00240C287C
:1053C0000AD802F049F9071F1F1F1F1F1F1F1F0BBD
:1053D0000B0B0B00012464422000F8BD092905D104
:1053E00000211800FFF766FF0024F5E70A2901D124
:1053F0000839F6E700240B29EED10A391800FFF727
:1054000059FFE9E718225343F218556801202C0090
:10541000F356134ADB016E089B18C9B204409E196B
:10542000002C0DD00F243036327809012240114370
:10543000C9B25B19317040331A7810431870D3E742
:1054400032000F27303216785B19BE43314311709A
:1054500040331A7810431870BEE7C04680AE000093
:10546000004400417047000010B5FFF703FE04F050
:105470004DFEFFF7F7FF0120FFF724FD084C200049
:1054800001F074FB200001F01FFCFDF7A1FCFCF70C
:1054900035FE044B002BFAD000E000BFF7E7C04612
:1054A000D804002000000000F7B506000D000C0035
:1054B0008B180193019B671B9C4207D033682178AE
:1054C0001B683000984701340028F3D13800FEBD36
:1054D00070B5040008000D0004F08EFF2368020080
:1054E00029005B682000984770BD10B50B1E02D0E4
:1054F000FFF7EEFF0300180010BD10B5FFF7F5FF32
:1055000010BD10B5FFF7F1FF10BD10B503681B68A3
:10551000984710BD10B50249FFF7DAFF10BDC0462D
:10552000ECB1000070B50400FFF7DFFF05002000BC
:10553000FFF7F0FF401970BD70B50400FFF7D5FF0D
:1055400005002000FFF7E6FF401970BDF0B58BB0F5
:105550006B461500002205330600DA770800012D9E
:1055600000D80A2509AC290002F006F9CAB21300D6
:1055700037330700DBB2092902D813003033DBB21E
:10558000013C2370002FEED121003000FFF7ADFF6A
:105590000BB0F0BDF8B506000C00151E04D1036871
:1055A000C9B21B689847F8BD0A2A0CD100290BDA4A
:1055B0002D21FFF7AAFF614207002A003000FFF704
:1055C000C5FF3818EFE7D2B221003000FFF7BEFF69
:1055D000E9E710B5FFF7DEFF10BD10B5002A04D1D2
:1055E0000368C9B21B68984710BDD2B2FFF7AEFF7F
:1055F000FAE770B50400FFF7F0FF05002000FFF7A1
:1056000089FF401970BD70B50500FFF7E6FF040083
:105610002800FFF77FFF201870BD0000F7B51E00BF
:1056200008AB1B7831000193050033001000170010
:1056300004F05CFB4B49002814D10122740064087B
:105640005242494B3800210004F050FB00280FD192
:105650000122454B52423800210002F09DF90028FA
:1056600006D142492800FFF733FF04002000FEBDA9
:10567000E0223F4B12063800310002F097F9002873
:1056800001D03C49EEE7E0223B4B120638003100E6
:1056900002F078F90028F4D100220023380031000C
:1056A00002F070F9041E07D02D212800FFF72DFF0E
:1056B000802304001B06F618002300202F490093C6
:1056C000019B009A934208D02D4B002203F04AF927
:1056D000009B0133DBB20093F2E733003A0002F0A3
:1056E00025FE0F00060002F0EBF90A2201900100EE
:1056F0002800FFF72BFF009B0419002BB6D0019860
:1057000004F046FB02000B003000390003F0A6FF56
:1057100006000F0028002E21FFF7F7FE2418009B3B
:10572000013BDBB20093FF2BA0D0154B00223000D1
:10573000390003F021FD0F00060002F0C1F90A2232
:10574000010001902800FFF701FF2418019804F0E0
:105750001FFB02000B003000390003F07FFF060042
:105760000F00DCE7E0B10000FFFFEF7FE4B10000D5
:10577000FFFFEF41E8B10000FFFFEFC10000E03F95
:105780000000244037B51D00069BDBB200932B00C0
:10579000FFF744FF3EBD000010B50400FFF7AAFB71
:1057A000014B1C6010BDC046100000200122024BBE
:1057B00052421A607047C04610000020164A10B5C9
:1057C0001368591C26D0013B1360002B22D172B6FE
:1057D000124B134A0433934213D9124A0121100089
:1057E000147D0C42FCD02021148BFF319B085B0000
:1057F00021431183D3610C4B13800123027D1A4294
:10580000FCD0BFF34F8F094B094ADA60BFF34F8FCB
:10581000C046FDE710BDC04610000020002000007B
:10582000030200000040004102A5FFFF00ED00E080
:105830000400FA05016070479446F0B59E1E721E82
:1058400096416246056892072F6836063A4332430E
:105850002A60072505AC24780068A401294021436B
:1058600042680024022B00D05C03114321434160B5
:10587000F0BD30B5C0250368AD031C6812052A4091
:105880002243C0240904A402214011431960036883
:105890005A6814435C6030BD0123026811680B43F1
:1058A000136003681A68D207FCD4DA69D207F9D406
:1058B00070470223026811680B4313600268D369C2
:1058C0009B07FCD4704703681A7ED20702D41A7E65
:1058D0009207FCD57047002203685A83704703681B
:1058E000187E4007C00F70470368187EC0097047D4
:1058F000802302685B42117E0B4313767047036876
:10590000588B8007C00F704702230268518B0B43EE
:10591000538370470368187EC007C00F7047036841
:10592000188DC0B2704703681A7ED207FCD589B2C1
:10593000012019857047012203689A75704701227A
:1059400003681A757047000070B5012604684B089B
:1059500033403140256809075B070B432B43236025
:1059600004685100034801F081FE0138C0B2207381
:1059700070BDC046006CDC020123026811680B4355
:10598000136003681A68D207FCD4DA69D207F9D425
:1059900070470223026811680B4313600268D369E1
:1059A0009B07FCD470470368DA699207FCD4022194
:1059B0001A688A431A6070470268936A5B0A5B023E
:1059C0001943916203681A7E5207FCD5986AC0B2E7
:1059D000704700000368214A30B593422FD0204A17
:1059E00093422FD01F4A93422FD01F4A93422FD069
:1059F0001E4A93422FD01E4A93421FD10E231922D2
:105A00000121032599401B48C024016099082B40BF
:105A1000AB40FC359D4089000918A4000859A843F3
:105A2000C0259D402B0003430B518023DB011A430B
:105A3000114B5A805A7852B2002AFBDB30BD092341
:105A40001422DDE70A231522DAE70B231622D7E713
:105A50000C231722D4E70D231822D1E700080042B7
:105A6000000C0042001000420014004200180042E6
:105A7000001C004200E100E0000C0040F8B504000A
:105A80000F0016001D00FFF7A5FF2000FFF704FF21
:105A90001C21BB000B4071072268090C0B431360EB
:105AA000842322689375012F1AD11021012E00D072
:105AB00008390C4B69431868C00001F0D7FD072274
:105AC000216802408B895203DB04DB0C13438B817A
:105AD000226803049089DB0C400B4003184390813B
:105AE000F8BDC04604000020F7B50600019308ABDE
:105AF0001F780D001400FFF73FFF3000FFF76AFF2B
:105B0000C022240592031440BA070C2717433C43D4
:105B1000C0270722BF022D0433683D4025431D6086
:105B2000019B316813401A0080239B0213434B6092
:105B3000F7BD01207047000010B50368014A1B6AD9
:105B4000984710BD130400000300FC33D9699A691B
:105B5000914203D0DB69C018007D704701204042AC
:105B6000FBE710B504000069FFF796FE2200002352
:105B7000FC329361D36186229200A4186360A36013
:105B800010BDF02001403039484248417047F023B1
:105B90001B011940802306209B0099420AD0013343
:105BA000FF330130994205D0802302385B009942CF
:105BB00000D0002070470F2001400020012903D0B1
:105BC0000239481E8141481C704700008923F0B506
:105BD000182685B002919B000400C05C33000821A8
:105BE0004343324D1700EB185956FFF7DBFB304BA0
:105BF0000821E05C33004343EB185956FFF7D2FB12
:105C00002C4BE25C0393022A09D11133E05CFF289C
:105C100005D008214643AE197156FFF7C3FB8A260B
:105C2000B600A05DFF2819D00121FFF743FB182221
:105C3000A35D21495A43AB56AD18DB0158188B219F
:105C4000890060501D4901225B188C218900635036
:105C500069688A408D21890062501A600122029B86
:105C600011002069FFF70AFF39002000FFF78FFFBE
:105C7000390005002000FFF79EFF390006002000D4
:105C8000FFF77FFF33000090290020690122FFF712
:105C9000D3FD0B4B2069E25C039BE15CFFF7E9FD60
:105CA0002069FFF706FE05B0F0BDC04680AE0000DB
:105CB000250200002702000018440041144400415E
:105CC00026020000802210B504005200002104F0DA
:105CD0005EFA23000022FC335A6020009A6010BD57
:105CE000F7B51D0008AB1B780400009309AB1B78C7
:105CF0001600019300234360FA239B008360114B3D
:105D00000F00083303601430FFF7DCFF20001D3064
:105D1000FF30FFF7D7FF89236A469B002761E654CF
:105D2000094B1278E554094B2000E2546A46084BAF
:105D30001279E2548A22293BFF3B9200A35410328D
:105D4000A354FEBDF0B100002502000026020000B1
:105D5000270200000300FC3358689B68C01A01D575
:105D60000130FF30704710B5040020001D30FF30B7
:105D7000FFF7F0FF0028F8D12069FFF7A4FD10BD60
:105D800010B51430FFF7E6FF10BD0300FC3359686F
:105D90009A68914204DB5A689868801AFF3070470D
:105DA00098685B68C01A0138F9E710B51D30FF30FC
:105DB000FFF7EBFF10BD10B504000069FFF79FFD72
:105DC000002805D02069FFF7AAFD2069FFF79CFD98
:105DD0002069FFF784FD002820D02069FFF79FFD90
:105DE0002200FC329369D1690133DBB28B4203D0CC
:105DF00091696118087593618A239B00E35CFF2B0E
:105E00000CD020001430FFF7C0FF092806DC8B23DC
:105E10008D229B009200E358A2581A602069FFF778
:105E200079FD00281AD020001D30FF30FFF792FFC7
:105E3000002822D086239B00E31899685A68914273
:105E400018D08E219A684900A218515C9A680132D4
:105E5000D2B29A60C9B22069FFF765FD2069FFF7E9
:105E600043FD002805D02069FFF742FD2069FFF7B8
:105E700032FD10BD01214942ECE72069FFF75FFDCB
:105E8000ECE7000070B5040000690D00FFF742FD6B
:105E900000283ED1FF2686239B00E3185A689968A4
:105EA000013232408A4223D1EFF31083DB0710D452
:105EB0001E4B5B68DB05DB0DEDD0103B5BB2002BAE
:105EC00010DA0F221340083B9B08194A9B009B18CD
:105ED0001B682069FFF71EFD0028DCD02000FFF7BB
:105EE0006AFFD8E79B08C033124A9B009B58F0E733
:105EF0005A68013216409A68964205D08E215A6837
:105F00004900A21855545E602069FFF714FD012076
:105F100070BD20001D30FF30FFF71CFF0028B9D1F5
:105F200029002069FFF7FFFCF1E7C04600ED00E023
:105F30001CED00E000E100E0030070B5FC33D9691E
:105F40009A69040091421AD0DA698218157DDA69DB
:105F50000132D2B2DA618A239B00E35CFF2B0CD0C2
:105F600020001430FFF711FF0A2806DD8C238D2254
:105F70009B009200E358A2581A60280070BD0125CA
:105F80006D42E8E710B5002801D004F0B1F910BD6A
:105F900010B5041E05D004F0CFF9210001F0D6FCA5
:105FA0000C00200010BD10B50400884203DA081A66
:105FB000FFF7EEFF2418200010BD10B504000068A4
:105FC000002801D004F0D0F8200010BD10B5040066
:105FD0000068002801D004F0C7F800232360A36004
:105FE000636010BD70B504000D000068013104F05D
:105FF000D5F9031E01D0012028C470BD036810B577
:106000000400002B04D043688B4201D3012010BD53
:106010002000FFF7E7FF0028F9D0A368002BF5D197
:1060200022681370F2E770B50E001100040015002D
:10603000FFF7E4FF002804D12000FFF7C7FF20008E
:1060400070BDA5603100206804F0CEF9F7E70023A9
:1060500070B504000D00036043608360994207D06F
:10606000080004F0C9F9290002002000FFF7DBFF57
:10607000200070BD70B5050008000C0004F0BCF9EC
:10608000210002002800FFF7CEFF70BD70B50500AB
:1060900000680C0000280FD0096800290AD06B683E
:1060A000A268934206D304F09FF9A368AB60002373
:1060B000A36070BD04F058F823682B6063686B60C0
:1060C000A368AB60002323606360F1E710B50400B0
:1060D000884201D0FFF7DAFF200010BD10B50400A0
:1060E000002903D0FFF7C6FF200010BDFFF76EFFA9
:1060F000FAE7026810B50B68002A13D0002B0CD108
:1061000081681800002907D0107805E08968100020
:10611000002901D01878404210BD1900100004F089
:1061200059F9F9E7002BF1D11800F5E7826810B5AD
:1061300094468A680023944504D1FFF7DAFF43426E
:106140004341DBB2180010BD70B50D00002A06D027
:10615000002904D084689C4202D800230B7070BDD3
:10616000013AE41A944200D9140001682200C918C7
:10617000280004F048F900232B55F0E70020704771
:1061800070B50F26CB1D013902003240D5B22C006C
:1061900000093034092A00DD07341C70013B8B42B2
:1061A000F2D170BD10B50C000B4B1868FFF7E8FF7B
:1061B00021000A4B08311868FFF7E2FF2100084B65
:1061C00010311868FFF7DCFF2100064B1831186802
:1061D000FFF7D6FF202010BD0CA0800040A080005B
:1061E00044A0800048A0800008B4024B9C461038B0
:1061F00008BC6047A561000070473F20704713B599
:106200006B460268D9710733546819000122A04710
:1062100016BD000070B50A260B7892B06E440233AA
:1062200005000B703C220021300003F0B0FF39481C
:1062300001AC069038482421079006202077684654
:10624000364AA1742281364A364BA281FD3AFF3A82
:106250008018C177684623390630C1776846073011
:10626000C17702A8C1770720F27703260831694475
:10627000C87703A9CE7710212B366E4431700926DA
:1062800021851F3169440E700CA9053E0E70332123
:106290002380022369440B7006360DA90E70224933
:1062A0003536A1863B216E44307010A86274E277C7
:1062B00002703D3269446A440B7013704021002221
:1062C000E37023716371A37341336B4421871970A9
:1062D0005A702B7DC039A370A37263770133DBB290
:1062E000A3776A7D0B200D0068441543C5773120E4
:1062F000684403703A23501C6B44187041230232E7
:106300000A436B441A7021004222084800F070FFD3
:1063100012B070BD10010424020605240904000017
:1063200001020000080B000007050000D80400204F
:1063300008B4024B9C46103808BC60471562000048
:1063400070B5027D0B790C0000259A420BD10B78B9
:106350004E78A12B09D1212E05D107221F492048B3
:1063600000F046FF0135280070BD212BFBD1202E07
:106370002BD1072219491A4800F07CFE174B1A78D6
:106380005978090211439A7812041143DA781206F7
:106390000A439621C9008A421DD1DB79DB071AD452
:1063A000FA20FFF7F9F900210D4801F02DF8012539
:1063B000232ED8D1E378A2781B021343094A002187
:1063C0000748136001F020F8CDE7222EEFD18A783C
:1063D000024BDA71D2E7FFF7E9F9E4E71800002091
:1063E000D80400201400002008B4024B9C4610384A
:1063F00008BC60474163000010B5417D006A01316F
:1064000000F070FD034B1B6801335A1E93411818AE
:1064100010BDC0462000002010B5417D006A023149
:1064200000F076FD10BD10B5417D006A023100F02C
:106430003DFD10BD70B50D00417D0400130002311B
:106440002A00006A00F02AFE002801D101236360BF
:1064500070BD000010B5054C23685A1C04D10368B8
:106460005B69984703002060180010BD20000020E1
:10647000074A0300106810B5411C03D001235B429A
:10648000136010BD597D186A013100F0B7FDF8E7BF
:10649000200000207047002070470000FA239B0076
:1064A00010B583600F4B0022C38203002833836141
:1064B0000D4B04004260C261180044332361083070
:1064C000631D21622060DA778323A362813BE3624C
:1064D0008033236300F0C2F82100103100F092F8FD
:1064E000200010BD0302000024B20000022110B5FC
:1064F000094B1A68437D5B01D318FF339C7A214313
:106500009972437D0133DBB25B01D3180122FF3363
:10651000997A0A439A7210BD9009002070470000D2
:1065200010B5FEF799FCF423FF330024984207D9F5
:10653000044B0A20DC79631E9C41E4B2FEF7C2FCE6
:10654000200010BD1800002010B502490248FFF7D6
:10655000A5FF10BDD80400207004002070B50E0007
:1065600000254468002C0BD0236831005B682000B4
:106570009847002802DB2D18E468F3E701256D42F7
:10658000280070BD70B50D004468002C08D0236849
:1065900029009B6820009847002802D1E468F4E7AE
:1065A000200070BD70B50D0000264468002C09D095
:1065B0002368290020001B69984736182D18F6B269
:1065C000E468F3E730002C7070BD70B50D004468CE
:1065D000002C08D0236829001B6820009847002859
:1065E00002D1E468F4E7200070BD70B50D00446886
:1065F000002C06D023682000DB6829009847E46857
:10660000F6E770BDF0B58C79457803002A190020B3
:10661000072A1FDC5A68824216D159601A78C87955
:106620000A7112184D711A7000220B4DD0B28442BB
:106630000FD98F6858789600F75986000130775146
:1066400001325870F2E70200D0680028FBD1D16017
:10665000E4E70120F0BDC046B00400200121064A55
:1066600010B5136805480B4004D1802464000480F1
:106670004360116010BDC046A4040020A80400209F
:10668000704710B5040000F0DBFF200010BD0000D3
:10669000F0B5822919D1C3B2294D5A01AA189169BE
:1066A000284C80010C40C021890521439161264975
:1066B000083340187021506128685B011A5C8A43D6
:1066C000110030220A431A54F0BD0029FCD1C02623
:1066D000C1B21B4C4B01E3189A681A4DB6052A400B
:1066E00032439A60194A800182185A600A000727CB
:1066F000246808325201115DB9430F00012139436A
:1067000011559F6910493D4040182E439E615861C4
:106710007020115D814308001021014311559968D3
:106720000B48A218084080214903014399609968E9
:10673000890B89039960402311790B431371C3E7D7
:1067400090090020FFFFFF8F04050020C4060020F1
:10675000FF3F00F0EFF3108303600123436072B644
:1067600070470368002B02D162B6BFF36F8F70478A
:10677000F7B50600FC36B3690400002B18D1B22728
:106780007F00C55D6846FFF7E5FF019BEDB2013B69
:1067900002D3E55DEDB2FAE768460193FFF7E1FF4A
:1067A000002D01D10020FEBD706E336EC01AFAE7D5
:1067B0006846FFF7CFFFD8220025019B5200013B1E
:1067C00002D3A55CEDB2FAE768460193FFF7C9FF73
:1067D000002DE7D0D6235B00E058043BE358E5E703
:1067E00010B54468FC3043690B48DBB25A01A2186B
:1067F0009168083308408021490301439160916802
:106800005B01890B890391602268D31840221979B2
:106810000A431A7110BDC046FF3F00F0F7B50500EE
:10682000FC356B694268DBB219000400083110685E
:1068300049014118C979C90711D55B01D21893687C
:106840009B049B0C0CD12000FFF7CAFF63681A68F9
:106850006B69DBB208335B01D3187F22DA71F7BDB5
:10686000E969002923D16B66230001266933FF33D0
:10687000EE6168465360B227FFF76CFF7F00B221DC
:10688000019BFF31013B5A1C38D0D822E6555200FB
:10689000A25C581ED2B26254625C8446002A04D1C3
:1068A00020000193FFF79CFFE9E76346EBE7D62161
:1068B000490063500023EB6123001D33FF33536015
:1068C0006846D826FFF746FF01277600B221019BD4
:1068D000FF31013B5A1C11D0B222A7555200A25CD5
:1068E000581ED2B26254625C8446002A04D1200051
:1068F0000193FFF775FFE9E76346EBE7684601930D
:10690000FFF72FFFA2E7F7B5060068463400FFF750
:1069100021FF0027FF22019BFC34013B0DD3E068DF
:106920002169884204DBE7682069D71B3F18F4E738
:106930002769E1687F1A013FEFE768460193FFF797
:1069400010FFA3696846002B52D1FFF703FFB22165
:10695000019B4900013B5A1C0CD0755C5A1EEDB2DC
:10696000002D05D168460193FFF7FBFE2800FEBD10
:106970001300F0E7684601930025FFF7F2FEFF22BF
:10698000236EBD4214D0616E994211D9591CF3187F
:106990002166FF33587FE36821690133C0B2134099
:1069A0008B4203D0E16871180872E3600135E7E7B4
:1069B000626E9A42DAD1002323660133A3616846EE
:1069C000B224FFF7C7FE6400B2220021019BFF3210
:1069D000013B581CC6D03155B05C5F1E002805D065
:1069E000B15430000193FFF7FBFEEDE73B00F0E709
:1069F000FFF7B0FED821019B4900013B5A1C06D08D
:106A0000755C5A1EEDB2002DACD01300F6E7684657
:106A10000193FFF7A6FED623D4225B0000259C46F7
:106A20005200B358BD4203D061467158994220D8F4
:106A30006246B2589A4299D1D42200235200B350F0
:106A40006846A361D824FFF785FE6400B2220021C6
:106A5000019BFF32013B581C00D183E73155B05CEC
:106A60005F1E002819D0B15430000193FFF7B8FE23
:106A7000ECE7591CB150FF21F3186933FF33187844
:106A8000E368C0B201330B4021698B4203D0E16857
:106A900071180872E3600135C3E73B00DBE710B50E
:106AA0000400FFF730FF2300FC331969DA689142D4
:106AB00003D01B69E418207A10BD01204042FBE797
:106AC00010B50400FC34FFF71EFFE0682369C01A0C
:106AD00001D50130FF3010BDF0B585B001920091B5
:106AE0000500FFF710FF02A8FFF734FE0120002485
:106AF000FF26039B40425A1E531C1FD02B00FC3321
:106B000001998C4218D2D9681F69C91B01D501317E
:106B1000FF31002910D01969DF688C460100BC459F
:106B200006D019691F69691801373740097A1F6152
:106B3000009F39550134E3E7013ADDE702A80392EB
:106B4000FFF70FFE200005B0F0BD37B56B46DC1D2A
:106B500000230D002370FFF781FD2100FFF7FEFCED
:106B60002B681818286020783EBD00002023F7B558
:106B7000474A0500D1690F200B43D36101224549E3
:106B80000B7813430B70444B19788143197006211D
:106B90001C782143197041490C7822430A701A78F5
:106BA00002401A70602219780A431A703C4B3D4A21
:106BB0005A805F78FF09FCD13B48FEF747F9012373
:106BC0003A4C3B4E2268300011780B431370802200
:106BD0003900520003F0DBFA22689378DB07FCD41B
:106BE00056621F26334B1B68590B980C9B01314092
:106BF00030405B0FB14200D105211F2800D102387F
:106C0000072B00D1043B31408901178D01912A499E
:106C100030400F40019939431185118D0700B14370
:106C2000080038431085118D1803244B7F260B4034
:106C300003430C2013850823D17881430B430321A0
:106C4000D3702268D3788B4301390B43D370226809
:106C5000137833401370042322681678334313707B
:106C60002268C1241389A400834315481381035962
:106C70001B021B0A03518023036013781148194338
:106C8000012311702B700021FFF748FCF7BDC046AF
:106C900000040040584400413C4400415944004134
:106CA000000C00400640000019760000900900200A
:106CB00094090020246080003FF8FFFFFF8FFFFF52
:106CC00000E100E0700400200078002810D00121CD
:106CD000084B1B681A898A431A810822198B0A43B8
:106CE0001A830422198B0A431A830022024B1A606A
:106CF0007047C046900900208809002010B50F4A4F
:106D000093699B0B9B03936113680222FF331A72F2
:106D10009879823A02439A711A7A9207FCD57F24B5
:106D2000074A2140937A0800A343190080230143B6
:106D30009172917A5B420B43937210BD90090020CF
:106D40000050004110B50C00FFF788FC2100FFF750
:106D50003CFC002804D1034A93699B0B9B0393617D
:106D600010BDC04690090020F7B50D00832A19D147
:106D7000CBB2404C5A01A21891693F48AD0108407E
:106D8000C0218905014391613C4920686D1870213B
:106D9000083355615B011A5C8A43110040220A43A3
:106DA0001A54F7BD022A5FD1354B8A00D05800280B
:106DB00002D003685B699847DA20400000F03CFC91
:106DC000802204002B4E2F4B4660036052000021AE
:106DD000083003F0DCF92200B2210023FC32490024
:106DE000D3605561136113669361D3615366635435
:106DF000443163500431635004316354B221FF3194
:106E00006354FF202B0003405901019371188F68D0
:106E1000194BAD003B40C027BF051F438F600727BC
:106E2000019B366808335B01995DB9430F0003216C
:106E30003943995523005169666801401D33490162
:106E4000FF3371184B60636852691B68024052013E
:106E50009B1801221B18997A20000A439A72FFF7A7
:106E6000BFFC074BEC509CE711002800FFF710FC1B
:106E700097E7C04690090020FFFFFF8F0405002020
:106E8000DC04002084B2000070B505000124064B2C
:106E9000A200D258002A06D0210028000134FFF7B2
:106EA00063FF0A2CF3D170BDB00400200B4BCAB2B3
:106EB0000B488901C9185301C318596199690832EF
:106EC000890B89039961036852019A180223D371CF
:106ED0005179823B0B4353717047C0460405002033
:106EE00090090020084B8A00D05810B5002803D024
:106EF00003689B68984710BDC9B2044B49015918F3
:106F000088688004800CF6E7DC04002090090020EB
:106F100010B50C00FFF7E6FF00280CD0064BE4B2DA
:106F20001B68083464011C19802362795B42134397
:106F300063710223E37110BD90090020F0B51C00BD
:106F40002A4B85B01B6807000D000292002B4AD027
:106F5000274B8A00D058002808D0036822005B68BD
:106F6000029998470400200005B0F0BD3800FFF7F3
:106F7000B9FF844204D929003800FFF7B3FF0400A9
:106F80000121EBB21B4E03935B010193F21893684E
:106F90009B0B9B039360019A336802989B18FF3305
:106FA0005A7A0A435A72144BA901C918220003F0F5
:106FB000E5F8002CD7D029003800FFF793FF002810
:106FC000D1D14021039B326808335B01D318187973
:106FD000014319710121D971019BD318FF339A7AAA
:106FE0000A439A72BFE701246442BCE78809002083
:106FF000DC04002090090020C406002013B56B4675
:10700000DC1D22000123FFF799FF012801D1207820
:1070100016BD01204042FBE770B5CBB2124A1348BF
:107020005C0189018918021951609168104D08337B
:107030000D40802149032943402591609168890BC7
:107040008903916001685A018A18167935431571D0
:1070500095796D06FCD55B01C918CB79DB07FCD5AA
:1070600000198068C0B270BDC406002090090020DD
:10707000FF3F00F070B50D0000211400FFF7CCFFBA
:10708000A04200D9200000230349A34203D0CA5CD8
:10709000EA540133F9E770BDC4060020F0B51E00C4
:1070A0003A4B85B01B680F000192002B35D080232E
:1070B000DB019E4231D80025354B8A01D31802935B
:1070C000002E2CD0334B1B680393FF233B401C0046
:1070D00000930834039B64011C19A379DB0921D0B8
:1070E0002D4B2E49186800F0C1FA2D4B172158433B
:1070F00000F0BCFA2B4BE279920713D4DA5D002A38
:1071000001D10138F7D20122DA55009B5A01214BF7
:107110009B189A69920B92039A6101256D4228008F
:1071200005B0F0BD00221F4B3400DA553F2E09D9BF
:10713000009B40245A01174B9B1880229969120624
:107140000A439A6122000199029803F017F8009B04
:10715000A1045A010F4B890C9B18029A2D195A61F0
:107160009A69361B920B92030A439A61009B039A19
:1071700008335B01D3180222DA715979823A0A4343
:107180005A71019B1B1901939AE7C0468809002098
:1071900004050020900900200400002040420F0058
:1071A00070110100F904002070B50D001C000D4B9A
:1071B000AE01F61811003000220002F0DFFFEDB240
:1071C00009496D014D196E61AB69084A20001340F1
:1071D000AB61AB69A2049B0B920C9B031343AB61A5
:1071E00070BDC0460405002090090020FF3F00F05C
:1071F000F7B5104B01901B780F001500002B0CD138
:107200000D4B16001C78002C09D00C4E0C4834880D
:107210002018641902F0B2FF34802800FEBD002E51
:10722000FBD03A19330000210198FFF7BDFF241865
:10723000361AF4E78408002085090020860900201A
:1072400085080020F8B50F0016000024012A26D971
:10725000100002F07FFF0500380003F0CDF8032393
:1072600002220130400028706B7096420DD93978A7
:1072700000290AD0531CDBB20137A9549E4203D027
:107280000232EC54D2B2F0E7320029000548FFF791
:10729000AFFF441EA041C4B2280002F065FF2000E9
:1072A000F8BDC046D8040020F0B50024012685B002
:1072B000184B0F0069461E7005000094FFF745FC4F
:1072C000154B01A90B806A3BFF3BCB715A330B7204
:1072D000009B8C7109334B800E4B4E7108711C70F2
:1072E0003A00092F0FD00D4F09223E700C4E280096
:1072F00000943480FFF77CFF69462800FFF725FCE7
:10730000328808493C702800FFF772FF012005B061
:10731000F0BDC04684080020090200008509002055
:10732000860900208508002070B5CE7892B005004F
:107330000C00022E0BD18B79C9792E480902194312
:10734000FFF7B2FF411E8841C0B212B070BDFFF717
:1073500085F92100FFF716F9002803D0C117081A94
:10736000C00FF2E7012E0ED1E279A37912021A437F
:107370002149112A3CD8D2B2002A39D02800FFF77F
:1073800037FF0120E1E7032EDFD1A378002B28D0BF
:10739000022B08D1E279A379120218491A43280076
:1073A000FFF750FFD1E7012B05D1E279A379120253
:1073B0001A431349F3E7032BC7D10100412201A867
:1073C00002F0E5FEFFF74AF901A9FFF7EBF8002804
:1073D00005D0E279A37912021A4301A9DFE7037805
:1073E000FFDEE279A37912021A430649032AC2D9C1
:1073F0000A78C3E7D8040020C0B20000A0B20000A1
:10740000B4B20000B0B20000CBB204495B01C918AD
:107410008B699B0B9B038B617047C04690090020D2
:1074200037B5050048780C000B2810D800F014F987
:10743000061B0F2B0F404561494C5A5D097801AA84
:10744000002906D1022311802800FFF7ADFE01209C
:107450003EBD00231380284B1B78012B00D11370F5
:1074600002230021F0E78A780023012A03D101AA30
:107470001380224BF0E7204A1370214A93699B0B3B
:107480009B039361E3E78C78012C06D100211B4B11
:1074900001AA1C7011702300D6E70120002CD7D15F
:1074A000154B174A187093699B0B9B039361CFE7A9
:1074B00089782800FFF722FCC9E72800FFF734FF8E
:1074C000C6E701230F4ACCE70B780020DB06BFD1CB
:1074D0002800FFF7D9FCA2780A4B0B481A60FFF787
:1074E00005F8CAE70123094ABBE78A78074B1A6007
:1074F000C3E70020ACE7C046F804002000050020E8
:107500009009002088090020700400208C090020C8
:107510003B4BF7B51E780500002E5FD1394C236830
:107520009A8B12070DD5082231009A833000FFF79D
:10753000AFF810222368FF33997A0A439A72324BCC
:107540001E6023689A8B520701D504229A83FF3369
:107550001A7A920603D52022597A0A435A721A7A65
:10756000D20623D569460800284AC0CAC0C0A2680E
:10757000920B9203A2604022587902435A71602311
:107580000A7828001A422AD1FFF74AFF2368FF33FE
:10759000002827D08022997952420A439A711A7A98
:1075A000520603D54022597A0A435A727F26012592
:1075B0002368FF331E722F00236808377F01DB1911
:1075C000DB79002B07D0124BAA00D05800280DD031
:1075D00003681B6898470135082DECD1F7BDFFF70C
:1075E000B1FBD3E720210B4A9171D8E7FFF736F8BA
:1075F0002900FEF7FAFF2368DF19FE71EBE7C046AA
:10760000850900209009002088090020C406002078
:10761000DC040020FF50004110B50248FFF778FF5E
:1076200010BDC046D8040020014B024A1A607047C2
:10763000900900200050004110B502F08BFD10BDF4
:1076400010B502F091FD10BD0B0010B5010018003F
:1076500002F04EFD10BD000002B471464908490019
:10766000095C49008E4402BC7047C04600224308B2
:107670008B4274D303098B425FD3030A8B4244D3FA
:10768000030B8B4228D3030C8B420DD3FF2209023C
:1076900012BA030C8B4202D31212090265D0030BFB
:1076A0008B4219D300E0090AC30B8B4201D3CB03F1
:1076B000C01A5241830B8B4201D38B03C01A524133
:1076C000430B8B4201D34B03C01A5241030B8B4235
:1076D00001D30B03C01A5241C30A8B4201D3CB0220
:1076E000C01A5241830A8B4201D38B02C01A524105
:1076F000430A8B4201D34B02C01A5241030A8B4208
:1077000001D30B02C01A5241CDD2C3098B4201D31F
:10771000CB01C01A524183098B4201D38B01C01A9D
:10772000524143098B4201D34B01C01A5241030914
:107730008B4201D30B01C01A5241C3088B4201D3C3
:10774000CB00C01A524183088B4201D38B00C01A70
:10775000524143088B4201D34B00C01A5241411A97
:1077600000D20146524110467047FFE701B50020A4
:1077700000F0F0F802BDC0460029F7D076E7704768
:1077800003460B437FD4002243088B4274D3030982
:107790008B425FD3030A8B4244D3030B8B4228D323
:1077A000030C8B420DD3FF22090212BA030C8B4249
:1077B00002D31212090265D0030B8B4219D300E0E9
:1077C000090AC30B8B4201D3CB03C01A5241830B6E
:1077D0008B4201D38B03C01A5241430B8B4201D31E
:1077E0004B03C01A5241030B8B4201D30B03C01A47
:1077F0005241C30A8B4201D3CB02C01A5241830AC1
:107800008B4201D38B02C01A5241430A8B4201D3EF
:107810004B02C01A5241030A8B4201D30B02C01A19
:107820005241CDD2C3098B4201D3CB01C01A524180
:1078300083098B4201D38B01C01A524143098B4209
:1078400001D34B01C01A524103098B4201D30B01F2
:10785000C01A5241C3088B4201D3CB00C01A524117
:1078600083088B4201D38B00C01A524143088B42DC
:1078700001D34B00C01A5241411A00D20146524175
:10788000104670475DE0CA0F00D04942031000D394
:107890004042534000229C4603098B422DD3030AE9
:1078A0008B4212D3FC22890112BA030A8B420CD3F9
:1078B000890192118B4208D3890192118B4204D322
:1078C00089013AD0921100E08909C3098B4201D3A2
:1078D000CB01C01A524183098B4201D38B01C01ADC
:1078E000524143098B4201D34B01C01A5241030953
:1078F0008B4201D30B01C01A5241C3088B4201D302
:10790000CB00C01A524183088B4201D38B00C01AAE
:107910005241D9D243088B4201D34B00C01A524185
:10792000411A00D20146634652415B10104601D312
:107930004042002B00D54942704763465B1000D39C
:10794000404201B5002000F005F802BD0029F8D042
:1079500016E770477047C0468446101C62468C4646
:10796000191C634600E0C0461FB501F09DFB0028CE
:1079700001D40021C8421FBD10B501F0F5FA404204
:10798000013010BD10B501F08FFB002801DB002095
:1079900010BD012010BDC04610B501F085FB0028C8
:1079A00001DD002010BD012010BDC04610B501F062
:1079B00017FB002801DC002010BD012010BDC046CF
:1079C00010B501F00DFB002801DA002010BD0120E8
:1079D00010BDC0468446081C6146FFE71FB500F095
:1079E00031FA002801D40021C8421FBD10B500F0B3
:1079F000B3F94042013010BD10B500F023FA002861
:107A000001DB002010BD012010BDC04610B500F004
:107A100019FA002801DD002010BD012010BDC0466C
:107A200010B500F0C1F9002801DC002010BD0120D4
:107A300010BDC04610B500F0B7F9002801DA0020EB
:107A400010BD012010BDC046002B15D1002A13D156
:107A5000002906DB01DC002806D00020C0434108D5
:107A600002E080210906002007B4024801A1401865
:107A7000029003BDE1FEFFFF03B4684601B5029822
:107A800000F03CF8019B9E4602B00CBC7047C0461B
:107A90009E2110B5C905041CFFF7CCFF002803D1B7
:107AA000201C00F0E3FB10BD9E21201CC90500F046
:107AB00019FA00F0DBFB80231B069C466044F2E7CA
:107AC00070B500220C4B04000D00FFF779FF002871
:107AD00004D12000290002F025F970BD064B0022D8
