:1020000000800020CD490000B5490000B54900001E
:1020100000000000000000000000000000000000C0
:10202000000000000000000000000000B5490000B2
:102030000000000000000000B5490000214A000037
:10204000B5490000B5490000B5490000B549000098
:10205000B5490000B5490000B5490000B949000084
:10206000B5490000B5490000B5490000B549000078
:10207000B5490000B549000025490000B5490000F8
:10208000B5490000B5490000B5490000B549000058
:1020900000000000B5490000B5490000B549000046
:1020A000B5490000B5490000B5490000B549000038
:1020B0000000000010B5064C2378002B07D1054B1B
:1020C000002B02D0044800E000BF0123237010BDA4
:1020D000B00000200000000034AF0000044B10B539
:1020E000002B03D00349044800E000BF10BDC046E8
:1020F00000000000B400002034AF00007047000072
:1021000070B5084D7D24280002F0F6FF013C064919
:102110002800E4B202F0E7FF002CF7D1280002F01B
:10212000EBFF70BD700400204FA2000070B50500E9
:102130000024AC4205D00349034802F0D4FF013427
:10214000F7E770BD37A20000700400201C4B13B5E8
:102150001C4C984215D905F09BFE1B4905F0DCFA92
:1021600007F03AFC0B00032102000091200003F06D
:10217000FBF81649200002F0B6FF142002F094FC90
:1021800013BDFA239B0098420FD905F081FE104938
:1021900005F0C2FA07F020FC0B00022102000091BA
:1021A000200003F0E1F80B49E4E701000A222000D7
:1021B00003F005F80849200002F091FFDDE7C04672
:1021C00040420F007004002000247449A8A00000C1
:1021D00000007A44ABA00000AFA0000070B504007E
:1021E00002200D00FFF7A2FF002D09D02000FFF70D
:1021F000ADFF0320FFF79AFF2800FFF7A7FF70BD90
:102200000120FFF793FF0349034802F06CFF200011
:10221000F3E7C04651A200007004002070B505002D
:102220000120FFF783FF084C0849200002F05BFF04
:102230000749002D00D10749200002F054FF01207A
:10224000FFF774FF70BDC0467004002054A2000068
:102250006CA1000071A1000010B5074801F0AEF8B4
:10226000041C0120FFF7DAFF201C05F003FA00210F
:10227000FFF7B4FF10BDC046CC00002070B51B486E
:1022800001F0ACF8030005000E000B432CD0184CF5
:102290001849200002F027FF0023174A28003100C8
:1022A00005F0C4F90A220100200002F088FF124A5A
:1022B00000232800310005F0B9F9200011000A229E
:1022C00002F07DFF0D49200002F00DFF0C492000B7
:1022D00002F009FF10223100200002F070FF1022EE
:1022E0002900200002F06BFF70BDC046CC0000202A
:1022F0007004002035A1000040420F008BA80000B0
:10230000FAA1000070B52A4C200002F0F5FE294920
:10231000200002F0E8FE2849200002F0F5FE20002F
:1023200002F0EAFE254E300001F04AF8051E05D104
:102330002349200002F0F2FE280070BD2149200050
:1023400002F0D1FE10222900200002F04EFF1E49AB
:10235000200002F0C8FE290C1022C9B2200002F0B1
:102360003AFF2D0A1949200002F0BDFE1022E9B201
:10237000200002F030FF1649200002F0B4FE3000C9
:1023800001F012F80A220100200002F02EFF11498C
:10239000200002F0A8FE300001F008F80A22010037
:1023A000200002F022FFFFF769FF0120C5E7C046C9
:1023B0007004002076A1000092A10000CC00002053
:1023C0009AA10000F0A10000FDA1000008A20000F9
:1023D00016A2000021A2000070B51B49002003F0E6
:1023E000D4FB1A4C0100060001232322200001F037
:1023F000DBF90025A84205D0200000F0DFFF05F042
:1024000039F9050000223100200001F039F80600FA
:10241000200000F0D3FF05F02DF904000320FFF7A2
:1024200085FE0B490B4802F05EFE0220FFF77EFEA0
:102430000120232E00D00020FFF7F0FE280021000D
:10244000FFF7CCFE70BDC046FFFF0F00CC000020A0
:102450002DA200007004002070B51B49002003F07D
:1024600094FB6E22194C0100060001235242200009
:1024700001F0E4F90025A84205D0200000F09EFFFD
:1024800005F0F8F8050000223100200001F01BF8EB
:102490000600200000F092FF05F0ECF80400032095
:1024A000FFF744FE0A490B4802F01DFE0220FFF729
:1024B0003DFE01206E3600D00020FFF7AFFE280061
:1024C0002100FFF78BFE70BDFFFF0F00CC00002046
:1024D00032A200007004002070B51B49002003F0F8
:1024E00054FB1A4C010006000123194A200001F098
:1024F000ABFA0025A84205D0200000F05FFF05F0F0
:10250000B9F8050000223100200001F020F8060093
:10251000200000F053FF05F0ADF804000320FFF7A2
:1025200005FE0C490C4802F0DEFD0220FFF7FEFD1F
:10253000074B01209E4200D00020FFF76FFE2800CD
:102540002100FFF74BFE70BDFFFF0F00CC00002005
:10255000A811000039A200007004002070B51B49CA
:10256000002003F012FB1A4C010006000123194A57
:10257000200001F0C1FA0025A84205D0200000F09B
:102580001DFF05F077F8050000223100200001F062
:1025900008F80600200000F011FF05F06BF80400B9
:1025A0000320FFF7C3FD0C490C4802F09CFD0220FC
:1025B000FFF7BCFD074B01209E4200D00020FFF733
:1025C0002DFE28002100FFF709FE70BDFFFF0F0060
:1025D000CC0000201EFBFFFF58A20000700400206A
:1025E00070B51B49002003F0D0FA1A4C0100060018
:1025F0000123194A200001F0D9FA0025A84205D08C
:10260000200000F0DBFE05F035F805000022310067
:10261000200000F0F1FF0600200000F0CFFE05F0E2
:1026200029F804000320FFF781FD0C490C4802F053
:102630005AFD0220FFF77AFD074B01209E4200D091
:102640000020FFF7EBFD28002100FFF7C7FD70BD5C
:10265000FFFF0F00CC000020F45F0D005EA2000021
:102660007004002070B51B49002003F08EFA1A4C4C
:10267000010006000123194A200001F0EFFA0025AD
:10268000A84205D0200000F099FE04F0F3FF0500F9
:1026900000223100200000F0D6FF0600200000F0EC
:1026A0008DFE04F0E7FF04000320FFF73FFD0C4917
:1026B0000C4802F018FD0220FFF738FD074B0120FF
:1026C0009E4200D00020FFF7A9FD28002100FFF75F
:1026D00085FD70BDFFFF0F00CC00002031D5FFFF4E
:1026E0005FA200007004002070B51C49002003F0B8
:1026F0004CFA1B4C0100060001231A4A200001F08D
:1027000005FB0025A84205D0200000F057FE04F08C
:10271000B1FF050000223100200000F0BBFF061CC5
:10272000200000F04BFE04F0A5FF04000320FFF79B
:10273000FDFC0D490D4802F0D6FC0220FFF7F6FC27
:102740000849301C04F044FF002800D00120FFF7A6
:1027500065FD28002100FFF741FD70BDFFFF0F0060
:10276000CC000020C3F5484049A2000070040020BE
:1027700070B5274C86B02100684603F05AFA210054
:1027800003A803F056FA234903A803F099FA224953
:10279000002003F0FAF9214C01000600012303AAEE
:1027A000200001F00FFB0025A84205D0200000F01A
:1027B00005FE04F05FFF050000236A46310020009B
:1027C00000F090FF200000F0F9FD04F053FF04003A
:1027D0000320FFF7ABFC1249124802F084FC0220F0
:1027E000FFF7A4FC03A9684603F092FA002800D082
:1027F0000120FFF713FD21002800FFF7EFFC03A8DD
:1028000003F0CDF9684603F0CAF906B070BDC046C2
:1028100038A20000B3A00000FFFF0F00CC00002092
:10282000D0A0000070040020F0B5A14B93B006AA20
:102830001380A04BA0490793A04B002008930123CD
:10284000137304335373E53313749D4B0B9303F0ED
:102850009CF99C4F0290020018230221380001F0DD
:10286000CDFE002856D100230193964D1823029ADD
:102870000321280001F0C2FE0CAC002816D0287CF1
:10288000002102F055FB0321280001F089FD0026FC
:102890002B002B3319780022280001F0D5FDA0551C
:1028A0000136182EF4D1280001F044FE380000F063
:1028B00085FD04F0DFFE05000320FFF737FC8249A9
:1028C000824802F010FC0220FFF730FC06AB1A88A9
:1028D00023889A4215D16168079804F079FE002890
:1028E0000FD0089BA268029393420AD106AB9A8943
:1028F000A3899A4205D106AB1A7C237C01209A4217
:1029000000D00020FFF78AFC29000198FFF766FC41
:1029100013B0F0BD8024BB6F6400DBB2E41A7B7F90
:10292000A4B2002B02D1380001F030FD387C002128
:1029300002F0FEFA3B002C3319780222380001F035
:1029400083FD380001F004FD182C48D9002406ABA3
:102950001A5D3B002C3319783800013401F074FD06
:10296000182CF4D1387C012102F0E2FA554D2800F0
:1029700001F0F2FD041E00D075E71822029928002C
:1029800001F0C2FC002800D16DE75149280001F098
:10299000F1FD002800D166E7287C210002F0C8FA8A
:1029A0002B002C3319780322280001F04DFD28005C
:1029B00001F0CEFC434D06AB1E5D2B002B33197886
:1029C0000022280001F040FD864264D02800002249
:1029D0000A2101F08FFF280001F0ACFD43E700233E
:1029E00003931833019306AB0493019B9C4200D9D7
:1029F0001C00FF23334DA96F19400CD1287C02F035
:102A000097FA2B002C3319780222280001F01CFDC4
:102A1000280001F09DFC049B1E000593059B049675
:102A2000F31A9BB2274D9C4208D92B002C333278E5
:102A30001978280001F008FD0136EFE7287C012114
:102A400002F076FAEB6F002B1ED1AB6F1B19AB6750
:102A5000039B1F491B199BB20393019B1B1B194C22
:102A60000193200001F086FD002800D1FBE6012142
:102A7000200001F0A5FD002800D1F4E68024019B90
:102A80006400002BB1D171E7039A9342E0D8002390
:102A9000AB67EB67DCE70134182C8BD1280001F021
:102AA00049FD280000F08AFC04F0E4FD0190DCE61A
:102AB0005D7A000048E19A40FFFF0F0024710D008D
:102AC000C3F5C840CC000020D7A00000700400204F
:102AD00000CA9A3BF0B52F4C8023A544002404AED5
:102AE0005B00A45501349C42FBD12B49002003F02C
:102AF0004CF80123294D0093320001000700230008
:102B0000280000F0E5FE0026B04205D0280000F0C5
:102B100055FC04F0AFFD06000024802344AA5B00AE
:102B200039002800009400F0F1FC280000F046FC79
:102B300004F0A0FD03900320FFF7F8FA184D19499F
:102B4000280002F0D0FA80270120FFF7EFFA7F007B
:102B5000842202AB52009B181B5D9C420BD00020CC
:102B6000FFF75CFB21000A22280002F024FB0E493B
:102B7000280002F0B8FA0134BC42E9D10120FFF785
:102B80004DFB03993000FFF729FB85239B009D44F3
:102B9000F0BDC046ECFDFFFFFFFF0F00CC000020A2
:102BA000700400203EA200008BA8000010B5032096
:102BB000FFF7BCFA0C4C0D49200002F094FA0120FA
:102BC000FFF7B4FA0A4801F05DFB002802D0FFF7D6
:102BD00043FB10BDFFF722FB0220FFF7A7FA0549D0
:102BE000200002F080FAF4E770040020F2A0000058
:102BF000CC000020FDA0000010B50320FFF796FADE
:102C00000849094802F06FFA0120FFF78FFA0748D8
:102C100001F05DFB002802D0FFF71EFB10BDFFF79F
:102C2000FDFAFBE7DEA0000070040020CC000020CD
:102C300010B50D49002002F0A8FF04000320FFF7A3
:102C400075FA0A490A4802F04EFA0120FFF76EFAB7
:102C50002100084801F07AFA002802D0FFF7FCFAB8
:102C600010BDFFF7DBFAFBE7FFFF0F0041A10000FB
:102C700070040020CC00002010B50E49002002F0A6
:102C800084FF04000320FFF751FA0B490B4802F0C0
:102C90002AFA0120FFF74AFA90222100520208483E
:102CA00001F0BEF9002802D0FFF7D6FA10BDFFF7F9
:102CB000B5FAFBE7FFFF0F004BA1000070040020F6
:102CC000CC00002010B50D49002002F05EFF04008A
:102CD0000320FFF72BFA0A490A4802F004FA012000
:102CE000FFF724FA2100084801F054FA002802D026
:102CF000FFF7B2FA10BDFFF791FAFBE7FFFF0F00F5
:102D000056A1000070040020CC00002010B50D4931
:102D1000002002F03AFF04000320FFF707FA0A49F7
:102D20000A4802F0E0F90120FFF700FA2100084804
:102D300001F05AFA002802D0FFF78EFA10BDFFF713
:102D40006DFAFBE7FFFF0F0061A100007004002097
:102D5000CC00002010B50320FFF7E8F90849094826
:102D600002F0C1F90120FFF7E1F9074801F060FA2C
:102D7000002802D0FFF770FA10BDFFF74FFAFBE70B
:102D8000E7A0000070040020CC000020E12170B515
:102D90006E4C4902200003F0B3F9200003F0B2F9B1
:102DA0000028FAD0322001F07FFE6949200002F0AD
:102DB00096F90A25013D67492000EDB202F08FF92E
:102DC000002DF7D1200002F097F90F2001F0F8FF55
:102DD00002F0CAFE604E2900300000F0D7FA002849
:102DE00008D00121300000F0D1FA0A2201002000B1
:102DF00002F0F1F90021300000F0A4FAFFF782FAA6
:102E0000002800D1A1E0FFF77BF90720FFF78EF93A
:102E10005249200002F067F9FFF772F90320FFF72B
:102E200085F94F49200002F05EF90220FFF77EF994
:102E30004C49200002F057F90320FFF777F94A497F
:102E4000200002F050F9FFF75BF9FFF7AFFE20001A
:102E500002F052F9FFF7D0FE200002F04DF92000F9
:102E600002F04AF9FFF776FF200002F045F9FFF77C
:102E700003FF200002F040F9FFF748FF200002F0B6
:102E80003BF9FFF71FFF200002F036F9FFF7D0FEF5
:102E9000FFF736F90320FFF749F93449200002F023
:102EA00022F90220FFF742F93149200002F01BF914
:102EB0000120FFF73BF92F49200002F014F901200F
:102EC000FFF734F92C49200002F00DF9FFF718F94B
:102ED000FFF782FA200002F00FF9FFF7BDFA200099
:102EE00002F00AF9FFF7F8FA200002F005F9FFF7FF
:102EF00035FB200002F000F9FFF772FB200002F022
:102F0000FBF8FFF7AFFB200002F0F6F8FFF7ECFB51
:102F1000200002F0F1F8FFF787FC200002F0ECF847
:102F2000FFF7D8FD200002F0E7F8FFF721FCFFF7DC
:102F3000E7F8300000F042FA002104F049FB0028D5
:102F400003D00E49200002F0DFF870BD70040020AD
:102F500064A200007EA40000CC00002071A200004A
:102F600086A200008FA200009BA20000A8A2000081
:102F7000B2A20000BDA20000CEA20000DEA20000AE
:102F800010B5034A0A21034800F08AF910BDC04673
:102F9000D0010020CC000020037D002B04D143751C
:102FA000837583610133037570477FB5C36802ADD4
:102FB00004000E0002916A608B4203D1028AAB8842
:102FC0009A4218D02000062229000C3006F0C8FED4
:102FD000206802F0DAFA6B79227AE17900932068AE
:102FE000002302F073FB20682979320002F09EFA78
:102FF000206802F0C0FA7FBD70B518260400FFF704
:10300000CBFF3300082120790D4D4343EB1859566F
:1030100001F0BAFF33000821A0794343EB18595659
:1030200001F0B2FF082160794643AD19695601F0FD
:10303000ABFF044B200006CBFFF7B7FF70BDC046C7
:1030400080A900000802002007B5437D009101928D
:10305000002B07D09A070AD5EFF310835A42534149
:10306000837572B60099019AFFF79FFF07BDDB07D2
:10307000F8D58369014A9BB29360F3E700180040DA
:10308000437D002B05D09A0704D5837D002B00D00B
:1030900062B67047DB07FCD58369024A9BB2D360F6
:1030A000F7E7C0460018004010B5006802F076FA55
:1030B00010BD70B506000C008D18AC4206D021780A
:1030C0003000FFF7F1FF20700134F6E770BD00001B
:1030D000104A114B11491360002353711371104AA8
:1030E000104811601049D36091800921917106390F
:1030F000537413741375D37111720C4A10600C4819
:10310000D36090801B205374137413759071D37126
:10311000117270470802002000093D00540400208D
:10312000D0010020600400200A080000EC0100200B
:103130001D1A00007047000010B5054C054920001D
:1031400001F0CDFF0449200001F0DEFF10BDC046B4
:10315000700400205BA800008EA8000070B5060077
:103160000D003170002A14D02C4C14294CD80800C2
:1031700004F064F80B181A1C1E24262C3236381062
:10318000343A3C3E4042444648002549200001F084
:10319000BBFF70BD2349200001F0B6FF3000FFF7F0
:1031A000CBFFF6E72049F1E72049F4E72049EDE7B6
:1031B0002049200001F0A8FF1F49E7E71F49E5E784
:1031C0001F49200001F0A0FF1E49E4E71E4920002E
:1031D00001F09AFF1D49D9E71D49D7E71D49D5E7F9
:1031E0001D49D3E71D49D6E71D49CFE71D49CDE766
:1031F0001D49CBE71D49C9E71D49C7E71D49C5E77B
:103200001D49C3E71D49C1E71D49200001F07CFFAE
:1032100004239D43022DC1D0BBE7C04670040020AB
:103220001EA300003DA300006EA30000ADA300009C
:10323000EBA3000080A400008EA40000BEA4000048
:1032400008A500002AA500006DA5000090A50000BB
:10325000CAA5000019A6000056A600007AA6000024
:10326000A0A60000C4A60000E9A600000DA700006B
:1032700033A700007DA70000CAA7000019A800001E
:103280004DA8000010B5034A0349044803F0CEFFDF
:1032900010BDC046000000203531000010020020A3
:1032A000F8B5254B1600FF22036000230D005221C4
:1032B00042748274C2740275421C437103710372BA
:1032C00043778377C377D3772A32117005315170F2
:1032D00000220400194F8367C3670263390012227A
:1032E0009C3006F03DFD2000390048221431B030FA
:1032F00006F036FD2000390009225C31F83006F076
:103300002FFD3900A01C6531FF30032206F028FD97
:103310000B4BE6609E420CD10A232800637525748E
:10332000012101F0B9FD207C012101F001FE200006
:10333000F8BD0B23F1E7C04600093D0018A90000C5
:10334000D001002070B5437D04000D000B2B02D08E
:10335000C068FFF751FE237A002B07D11B22627051
:10336000643A2370A270E370237163712900200016
:1033700001F020FA0500200001F0DCF80023200015
:10338000A37701F0D1F9280070BD000010B5054CFD
:103390002378002904D01900012201F0ABFA237828
:1033A000180010BD10020020C06B7047030010B55C
:1033B00072331988C06B03F04BFF10BD00207047BB
:1033C00002003732537811781B020B435BBA393055
:1033D00000789BB21B02184370470000F7B52749DD
:1033E000060001F0C7F8002803D10020010003B057
:1033F000F0BD300001F0B0F80028F6D14B213000CC
:1034000000F0CEFF04243500013C2C352978EE2253
:103410003000E4B201F018F8002CF4D1F37F002B57
:1034200004D02978EE22300001F00EF83400370085
:10343000943425009C3733002B3319780022300058
:1034400001F002F828700135BD42F4D1307C012131
:1034500001F06EFD0022002321780134009100214B
:1034600001910098019980185941060E0B023343CF
:103470000202AC42F0D110001900B8E700CA9A3B32
:1034800070B5012316000A0003210400002501F095
:10349000B5F8A84215D02900207C01F049FD0B2188
:1034A000AE4200D10321200000F07AFF23002B332D
:1034B00019780022200000F0C7FF0500200001F06D
:1034C00039F8280070BD70B5012316000A000321E9
:1034D0000400002501F092F8A84215D02900207CB4
:1034E00001F026FD0B21AE4200D10321200000F0A7
:1034F00057FF23002B3319780022200000F0A4FF8F
:1035000045B2200001F016F8280070BDF7B51E0086
:1035100008AB1B78170001930A0033000321040055
:1035200001F06CF8051E10D0019B0B21002B00D17F
:103530000321200000F034FF200033003A00032173
:1035400000F088FF200000F0F5FF2800FEBD73B5F5
:10355000022316000A000321040001F04FF86B4615
:103560009D1D00281BD00021207C01F0E1FC0321DF
:10357000002E00D00B21260020002B3600F010FF7B
:1035800031780022200000F05FFF2870317800229F
:10359000200000F059FF6870200000F0CBFF288861
:1035A00076BD73B5022316000A000321040001F062
:1035B00025F86B469D1D00281BD00021207C01F0C2
:1035C000B7FC0321002E00D00B21260020002B3653
:1035D00000F0E6FE31780022200000F035FF287070
:1035E00031780022200000F02FFF6870200000F0EA
:1035F000A1FF0023E85E76BD37B5042315000A005D
:103600000321040000F0FAFF00281AD00021207CDA
:1036100001F08EFC0B21002D00D10321200000F0D1
:10362000BFFE002523002B3319780022200000F074
:103630000BFF01ABE8540135042DF3D1200000F05D
:1036400079FF01983EBD37B5042315000A00032118
:10365000040000F0D3FF00281AD00021207C01F0E4
:1036600067FC0B21002D00D10321200000F098FE03
:10367000002523002B3319780022200000F0E4FEFF
:1036800001ABE8540135042DF3D1200000F052FFC6
:1036900001983EBD37B5042315000A00032104003C
:1036A00000F0ACFF00281AD00021207C01F040FC83
:1036B0000B21002D00D10321200000F071FE002518
:1036C00023002B3319780022200000F0BDFE01AB4F
:1036D000E8540135042DF3D1200000F02BFF0198B0
:1036E0003EBD0000F0B589B000AFB9603A607B60C4
:1036F0000A0000230321040000F080FF002804D109
:1037000000263000BD4609B0F0BD7B680B21002BC0
:1037100000D103210026200000F042FE35002300E6
:103720002B3319780022200000F08EFEB0400836BE
:103730000543202EF3D1200000F0FCFE6A46EB1D6D
:10374000DB08DB00B968D31A9D4604312A0020004B
:10375000FB6000F0D9FD0028D2D01249200000F013
:1037600009FF061ECCD07B680B21002B00D1032162
:10377000200000F015FE2B00FA680321200000F065
:1037800069FE2000142400F0D5FEF968381902F013
:1037900050FA3919386802F08BFA381902F0FFF93B
:1037A000AFE7C04600CA9A3BF7B50F000193160079
:1037B00001230A000221040000F020FF051E01D1B0
:1037C000002515E00221200000F0EAFD23002C3343
:1037D000009319783200200000F036FE207C012191
:1037E00001F0A6FB019B002B04D1200000F0A2FEFB
:1037F0002800FEBD1049200000F0BCFE0028DFD0EC
:10380000207C0021A76701F093FB009B032219781D
:10381000200000F019FE200000F09AFD23002B3359
:1038200019780022200000F00FFEB042DDD0200009
:1038300000F080FEC4E7C04600CA9A3BF7B50F000F
:103840000193160001230A000221040000F0D6FEB5
:10385000051E01D1002515E00221200000F0A0FD89
:1038600023002C3300931978F2B2200000F0ECFD15
:10387000207C012101F05CFB019B002B04D1200086
:1038800000F058FE2800FEBD1049200000F072FE36
:103890000028DFD0207C0021A76701F049FB009BB6
:1038A00003221978200000F0CFFD200000F050FD29
:1038B00023002B3319780022200000F0C5FD40B210
:1038C000B042DCD0200000F035FEC3E700CA9A3BCE
:1038D000F0B51D0089B00EAB1B78039104920693DE
:1038E0000A002B000221040000F088FE029000284C
:1038F00004D100230293029809B0F0BD6B468022E8
:103900001B7B5200D31A9BB2AB4226D3207C0021F2
:1039100001F00EFB23002C3319780222200000F066
:1039200093FD200000F014FD0026AE420AD2049B55
:1039300020009A5D23002C331978013600F084FDB5
:10394000B6B2F2E7207C012101F0F2FA069B002BCF
:103950004ED1200000F0EEFDCDE70021AFB2019185
:1039600007921A1CBB4200D93A1C93B2207C00215A
:10397000009301F0DDFA23002C3319780222200095
:1039800000F062FD200000F0E3FC049B019A9E1809
:10399000009BF3180593059BB34208D023002C33FA
:1039A00032781978200000F04FFD0136F3E7207CD3
:1039B000012101F0BDFA009AA36F94469B18A367FA
:1039C000019BBF1A63449BB21E4920000193BFB202
:1039D00000F0D0FD002800D18BE70121200000F08D
:1039E000EFFD002800D184E7079B002FB9D1ADE798
:1039F0001449200000F0BEFD002800D179E7039BA8
:103A0000207CA367002101F093FA23002C3319785E
:103A10000322200000F018FD200000F099FC002691
:103A2000AE4296D223002B3319780022200000F0FA
:103A30000BFD049B9B5D834200D05AE70136B6B272
:103A4000EEE7C04600CA9A3BF7B501930223009205
:103A50000D000A001900040000F0D0FD061E1BD066
:103A600002212000270000F09BFC6B462C371A78BF
:103A70003978200000F0E8FC009B39781A0A200011
:103A800000F0E2FC207C012101F052FA019B002BA6
:103A900004D1200000F04EFD3000FEBD154920008D
:103AA00000F068FD061E23D0A567207C002101F0F0
:103AB0003FFA397827000322200000F0C5FC2B379D
:103AC000200000F045FC39780022200000F0BCFC0A
:103AD000397805000022200000F0B6FCEDB20002AB
:103AE0000543200000F026FD009BADB29D42D3D0DF
:103AF0000026D1E700CA9A3BF7B501930223009252
:103B00000D000A001900040000F078FD061E1CD00C
:103B100002212000270000F043FC6B462C371A7866
:103B20003978200000F090FC009B39781A12D2B24C
:103B3000200000F089FC207C012101F0F9F9019BB3
:103B4000002B04D1200000F0F5FC3000FEBD16492A
:103B5000200000F00FFD061E23D0A567207C002169
:103B600001F0E6F9397827000322200000F06CFC10
:103B70002B37200000F0ECFB39780022200000F009
:103B800063FC397805000022200000F05DFCEDB2F6
:103B900000020543200000F0CDFC009B2DB29D42A9
:103BA000D3D00026D1E7C04600CA9A3BF0B587B013
:103BB000019203930A000F0004230221040000F085
:103BC0001DFD051E1BD00221200000F0E9FB002690
:103BD000019A2300F2402C330293D2B219782000CC
:103BE000083600F031FC202EF2D1207C012101F0BA
:103BF0009FF9039B002B05D1200000F09BFC2800BF
:103C000007B0F0BD1449200000F0B4FC051E21D01F
:103C1000207C0021A76701F08BF9029B0322197811
:103C2000200000F011FC200000F092FB0026230091
:103C30002B3319780022200000F006FC05ABF0546D
:103C40000136042EF3D1200000F074FC059B019A8C
:103C50009342D4D00025D2E700CA9A3BF0B587B092
:103C6000019203930A000F0004230221040000F0D4
:103C7000C5FC051E1BD00221200000F091FB002690
:103C8000019A230032412C330293D2B219782000DA
:103C9000083600F0D9FB202EF2D1207C012101F062
:103CA00047F9039B002B05D1200000F043FC2800BE
:103CB00007B0F0BD1449200000F05CFC051E21D0C7
:103CC000207C0021A76701F033F9029B03221978B9
:103CD000200000F0B9FB200000F03AFB0026230092
:103CE0002B3319780022200000F0AEFB05ABF05416
:103CF0000136042EF3D1200000F01CFC059B019A34
:103D00009342D4D00025D2E700CA9A3BF0B587B0E1
:103D1000019203930A000F0004230221040000F023
:103D20006DFC051E1CD0019B02212000049300267F
:103D300000F036FB04ABF25C23002C3302931978BD
:103D40002000013600F080FB042EF3D1207C0121FD
:103D500001F0EEF8039B002B05D1200000F0EAFBF8
:103D6000280007B0F0BD1649200000F003FC051E36
:103D700023D0207C0021A76701F0DAF8029B032200
:103D80001978200000F060FB200000F0E1FA002626
:103D900023002B3319780022200000F055FB05ABDF
:103DA000F0540136042EF3D1200000F0C3FB01993A
:103DB000059803F00DFC0028D2D10025D0E7C046BD
:103DC00000CA9A3BF0B58BB09668050010006A46B1
:103DD00000AFBB60731C7B620733DB08DB00D31AC8
:103DE0009D467B61721C00230C00694601F09EFF1A
:103DF000280000F0B1FB3862002802D000233B62AB
:103E000076E004222100280000F07EFA0028F5D098
:103E1000721D2100280000F0F3FA0028EED07F493F
:103E2000280000F0A7FB0028E8D00121280000F0BE
:103E3000C7FB0028E2D00221280000F0B1FA3E6A58
:103E40007A6A2B00F2402C33FB61D2B21978280039
:103E5000083600F0F9FA202EF2D10121287C01F079
:103E600067F8280000F066FB231D7A6A1900280015
:103E70003B6100F049FA0028C0D06849280000F0F2
:103E800079FB0028BAD00121280000F099FB3862A4
:103E90000028B3D08023E4B25B001C1B7A6AA4B272
:103EA000944229D3287C002101F042F8FB690222C8
:103EB0001978280000F0C8FA280000F049FA002418
:103EC0007B6A9C420AD27B6928001A5D2B002C3346
:103ED0001978013400F0B8FAA4B2F1E7287C012186
:103EE00001F026F8BB68002B52D1280000F022FB1D
:103EF000BD46386A0BB0F0BDBA8C7B60FA61002217
:103F0000BA61FB69BE8BA34200D9261C287C002124
:103F100001F00EF82B002C3319780222280000F053
:103F200093FA280000F014FA7B69BA69B6B29C18BB
:103F3000A319FB60FB68A34208D02B002C33227826
:103F40001978280000F080FA0134F3E7287C012179
:103F500000F0EEFFAB6F31499B19AB67BB692800DE
:103F60009B199BB2BB61FB699E1BB3B2FB6100F066
:103F700001FB002800D141E70121280000F020FBCF
:103F8000002800D13AE7FB697C68002BB9D1A9E78A
:103F90006B4622492800FB6100F0ECFA38620028E9
:103FA00038D06A463B69287CAB677B6A00210733BF
:103FB000DB08DB00D31A9D4600F0BAFF2B002C3340
:103FC00019780322280000F03FFA28006E4600F01E
:103FD000BFF900247B6A9C420AD22B002B3319784C
:103FE0000022280000F030FA30550134E4B2F1E745
:103FF000280000F09FFA00237A6A934207D27A6978
:10400000F15CD25C914205D10133DBB2F4E7FB698C
:104010009D466DE7FB699D46F0E6C04600CA9A3BA7
:10402000F0B587B000AF79603A6113000A00EF2164
:10403000040000F0E3FAB860002800D17EE001211E
:10404000414B38690A00984200D9020BD008014060
:1040500007201309024094465A1810006D46604428
:10406000F86040000830C008C000281A8546786112
:10407000002B0BD02000553000785D00386068467A
:104080002D183E8806800230A842FAD1002909D0B6
:1040900025004D359A4205D928787E69590070521D
:1040A0000133F7E76346002B0AD020004530FB6858
:1040B0009A4205D201787D695300E9520132F6E750
:1040C000E56F002D3CD1FB689D4239D07A696B00C9
:1040D000D65A2000F1B200F063F9200000F02AFA6D
:1040E000230055331B780021B34201D1A36D99B24F
:1040F00023004D331B78B34201D1236D99B22300C5
:1041000045331B78B34201D1A36C99B2FA239B00CB
:104110005943200000F02EFA00280FD0002D01D0C6
:104120000135D0E77B683A69EF219A18E36F2000E8
:10413000D21A3B6900F062FA0028F1D10023BB607B
:10414000BD46B86807B0F0BDFF0F0000030070B5B2
:1041500044331D7804000A00002D05D12A000C21EB
:1041600000F0C8FB280070BD8023EF215B0100F048
:1041700045FA051EF6D0230045331978200000F0DB
:104180000FF9200000F0D6F9A16C200000F0F2F940
:104190000500E7E7030070B54C331D7804000A0002
:1041A000002D05D12A000C2100F0A4FB280070BDD1
:1041B0008023EF211B0200F021FA002801D1002505
:1041C000F4E723004D331978200000F0E9F82000CF
:1041D00000F0B0F9216D200000F0CCF9051EEED002
:1041E000200000F061FAE1E7030070B554331D7858
:1041F00004000A00002D05D12A000C2100F07AFBF2
:10420000280070BD8023EF215B0200F0F7F9051E46
:10421000F6D0230055331978200000F0C1F82000B3
:1042200000F088F9A16D200000F0A4F90500E7E78F
:1042300070B5040000F090F9002802D00025280095
:1042400070BD0F49200000F095F90028F6D001213B
:10425000200000F0B5F9051EF0D023006533197871
:10426000200000F09DF8200000F064F901262000F5
:1042700000F0FBF83042FAD1200000F05BF9DEE7F5
:1042800000CA9A3B030070B537331B780500BF2B7B
:1042900017D0142100F06EF9002811D0B9212800A0
:1042A00000F07EF8280000F045F95023013BFDD1D5
:1042B00001240021AC77280000F082F96040C0B2F0
:1042C00070BD00220C2100F015FB0020F8E770B54E
:1042D0000400AB2100F064F8200000F02BF930233B
:1042E000013BFDD10021200000F06AF9051E04D039
:1042F000200000F0D9F90023A377280070BD10B585
:10430000C068FEF7D1FE10BDF8B50F000021050012
:104310001600FFF73BF8F72303400020032B08D0DB
:10432000EC6B844206D1094822000121FEF716FFFA
:104330002000F8BDBE19B44204D8361BEE67AF6743
:104340000120F6E70023EB67F9E7C04610020020E2
:1043500010B5C37F0400002B04D003007B33197811
:10436000FFF7CDFF23007A3319782000FFF7C7FF4E
:104370002300793319782000FFF7C1FF2300783339
:1043800019782000FFF7BBFF012010BD10B5040015
:1043900001684268C068FEF757FE0120607710BDD3
:1043A00070B5437F04000D00002B01D1FFF7EEFF35
:1043B000207C002100F0BCFD0B2D15D005D8022D6E
:1043C00009D0032D07D0290016E0522D03D0D82D97
:1043D00001D0202DF7D129002000FFF790FF200009
:1043E000FFF7B6FF012070BD29002000FFF787FF0F
:1043F0002000FFF7ADFFEE212000FFF780FFF1E77F
:1044000070B50321040016000025FFF7C9FFB5426F
:1044100012D00021E068FEF747FEFF280AD0207C7A
:10442000012100F085FD074800220721FEF796FED6
:10443000002070BD0135EAE7207C012100F078FD05
:104440000120F6E71002002010B51100C068FEF749
:104450002BFE10BD023920B51500012904D81A0021
:104460002900C068FEF725FE20BD70B504000521B7
:10447000FFF796FF0021E068FEF716FE251DE8779E
:10448000207C012100F054FDE87F70BD70B5040070
:104490001521FFF785FF0021E068FEF705FEA51D49
:1044A000E877207C012100F043FDE87F70BD00002B
:1044B00070B506000124FFF7E9FF20420ED1B721B5
:1044C0003000FFF76DFF307C210000F031FD30003F
:1044D000FFF7DCFF2040051E02D0F477200070BDFE
:1044E00002000D210248FEF739FE2C00F6E7C04617
:1044F0001002002070B505000124FFF7C7FF20421D
:1045000012D0E9212800FFF74BFF287C210000F0A2
:104510000FFD2800FFF7BAFF204007D000220E2130
:104520000348FEF71BFE0024200070BDE877FBE780
:104530001002002010B504000121007C00F0F8FCFE
:10454000E37F002B02D02000FFF7D4FFE068FEF7E6
:1045500097FD0023637710BD10B5847F002C04D035
:1045600000220F210248FEF7F9FD200010BDC046D1
:1045700010020020F8B506000C002023013BFDD1FD
:1045800000F062FA012705003000FFF76EFF331DCF
:10459000DB7F3B4201D10120F8BD00F055FA401B02
:1045A000A042F1D300F050FA401BA042F3D30348DD
:1045B00000220421FEF7D2FD0020EDE710020020CA
:1045C00070B504000D000621FFF7EAFE207C0121F2
:1045D00000F0AEFC2000FFF748FF0224044009D1A0
:1045E000002D05D0220006210348FEF7B7FD250067
:1045F000280070BD0125FBE710020020F8B51E0061
:10460000030037331B7804000F001500EF2B14D084
:10461000022F1BD0EF2F37D02000FFF79DFF00287F
:1046200012D1320029002000FFF76EFE00280BD0C7
:104630001B492000FFF79EFF07E01A4B9A42E7D97B
:10464000FFF736FF0028E3D10020F8BD2000FFF778
:1046500083FF0028F8D1320029002000FFF754FE24
:104660000028F1D0320029002000FFF7C9FE002801
:10467000EAD00B492000FFF77DFF0028E4D001219C
:104680002000FFF79DFFE0E72000FFF765FF00280F
:10469000DAD1320029002000FFF736FEE7E7C046F6
:1046A00000CA9A3BFFFFFF0010B504000421FFF78A
:1046B00077FE207C012100F03BFC012010BD0000B2
:1046C00070B517490400FFF755FF051E25D09F213F
:1046D0002000FFF765FE26000021E068FEF7E4FCFD
:1046E000373630700021E068FEF7DEFC23003833F7
:1046F00018700021E068FEF7D7FC230039331870EA
:10470000207C012100F014FC3478002C05D122001B
:104710000B210448FEF722FD2500280070BDC0468D
:1047200000CA9A3B10020020030070B538331B7892
:104730000400252B1CD1FFF798FE231DDD7F3C23B1
:10474000502120009D43FFF72BFE207C012100F02B
:10475000EFFB01212000FFF723FE29002000FFF7D7
:10476000CEFD207C012100F0E3FB0125280070BD77
:104770000125262BFAD10E49FFF7FCFE051EF5D0C8
:1047800001212000FFF71CFFA023013BFDD1982150
:104790002000FFF705FE207C012100F0C9FBC823A3
:1047A0009B00013BFDD12000FFF77EFFDEE7C04606
:1047B00000CA9A3B0200F8B5012364321370103A24
:1047C0001370083A1370083A13700300202245331F
:1047D0001A7032321A7286321A74414B0022836484
:1047E000404B05000365404B6535836503005C3332
:1047F0001A7060232B703D4B040083660300013266
:104800007233FF321A800E00FFF75AFF2300A21CFA
:1048100037331978FF32C1331878884227D1230003
:10482000012235331A70230022003833FF321B78FF
:104830009078984205D0D078984202D012799A4266
:1048400001D1C7232B70230035331D78002D32D0C2
:1048500027003937C22911D13B78132B0BD0142BE9
:104860001BD0002202212248FEF778FC06E001332B
:104870009342D1D1D7E78023DB03E36300233A7867
:1048800019009C31615C91420AD12C339B001B5969
:104890003434A3600123237012E080231B04ECE76F
:1048A0000133122BECD1E36B002B08D1002E0FD07B
:1048B000E6633434EFE736342578002D02D0012545
:1048C0002800F8BD2A0002210948FEF747FCF7E757
:1048D000320003210648FEF741FC3500F0E7C046F0
:1048E00000CA9A3B0050D6DC004059730000DD0E30
:1048F0001002002010B50248FEF730FC10BDC04683
:10490000100200207047000010B5034A0349044814
:1049100002F08CFC10BDC0460000002005490000DC
:104920001102002010B5024801F037F810BDC04652
:104930001402002013B51249124800F06DFD12490F
:10494000124800F069FD1249124800F065FD124955
:10495000124800F061FD1249124800F05DFD124C52
:104960001249200000F058FD012301930233009307
:104970000D220B3321000E4800F0A4FF13BDC046EA
:104980000008004250040020000C004254040020A3
:104990000010004258040020001400425C04002073
:1049A000001800426004002064040020001C004243
:1049B00014020020FEE70000034B10B51B68002B1B
:1049C00000D0984710BDC0466804002070B50F495C
:1049D0000F4CA14204D100F08FF800F037FBFEE746
:1049E0000C4D00238D42F6D0CA18E818A24205D318
:1049F000094B8242EFD00949002204E000680433E9
:104A00001060F1E704C38B42FCD3E4E70000002010
:104A1000B000002040AF0000B0000020A40A002039
:104A200010B500F066F8002801D100F057F810BD6D
:104A3000014B18607047C04668040020014B18689D
:104A40007047C0466C040020F7B513480122844625
:104A50001249134C8E68636805689B0E13400192DF
:104A600088686268019F920E3A4067463F689342A9
:104A70000ED1BD420CD186420AD35B19FA25486893
:104A8000AD00861B07486B437043000DC018FEBD88
:104A90003D0013000600E3E76C04002010E000E096
:104AA00000ED00E05555000070B5041E10D0FFF772
:104AB000CBFF050000F01CF8FFF7C6FF054B401BBD
:104AC0009842F7D9FA23013C9B00ED18002CF3D152
:104AD00070BDC046E70300007047000010B5034AF0
:104AE00013680133136000F05BFC10BD6C04002000
:104AF00070470020704700001E2270B546484749A5
:104B0000436893431C3A1343436008238C6923434F
:104B10008B61434C434B9C829C8A14439C82DC688F
:104B20001442FCD00124404A14701578254203D069
:104B300055786DB2002DF8DB01249460547864B28E
:104B4000002CFBDB394C5460547864B2002CFBDB46
:104B50008224E4015480547864B2002CFBDB0224EC
:104B60009C840E34DD682542FCD0314CDC6210247C
:104B7000DD682542FCD09D8C2E4C2C439C84102457
:104B8000DD682542FCD002249D8C80262C439C8429
:104B90004024DD683542FCD0DD682542F9D0102480
:104BA000DD682542FCD000249460547864B2002C67
:104BB000FBDB214C5460547864B2002CFBDB1C6A94
:104BC0001E4D2C4080251C621C6AAC431C620323D2
:104BD00093601B4B536053785BB2002BFBDB0023CD
:104BE000FF240B72174A4B728B72CB72164B1A60F2
:104BF000164B174A1B6811689A065B01C90E2340C1
:104C0000520F12020B431343124A1385802342684A
:104C10001343436070BDC0460040004100040040A3
:104C20000C06000000080040000C004001050100D7
:104C3000B905FF7D040A000000070300FFFCFFFF29
:104C400003060100006CDC020400002024608000E8
:104C50002060800000400042FA21314B10B51868F6
:104C6000890002F0F5FA2F4B0138984256D82E49A8
:104C70002E4A4860C020136A00061B021B0A034329
:104C80001362002407238C600B608021136A0906DD
:104C90001B021B0A0B431362FC22254B196A0A43B1
:104CA0001A62FC22196A92010A431A62A022196A46
:104CB000D2020A431A6220000021013400F0ECF80D
:104CC000162CF8D11B4B1C005A7852B2002AFBDB81
:104CD000194A5A80194B1A00597EC9090129FBD07B
:104CE000E421C90099803F21D970537EDB09012B53
:104CF000FBD0C02300205B011361907000F02EF800
:104D000063785BB2002BFBDB0D4B0E4A6380D379DB
:104D1000DB09012BFBD04123537010BDFEE7C046D9
:104D200004000020FFFFFF0010E000E000ED00E0C5
:104D300000040040000C00401E4000000040004203
:104D40002140000000480042914202D002D98A1A54
:104D5000D0407047521A9040FBE70000164A00B559
:104D60001300517EC9090129FBD00138042816D847
:104D70001969124A0A400F211A615A788A4302F0CF
:104D80005DFA0308060B0300110001220A435A7062
:104D900000BD11000322F9E711000222F6E7F0231B
:104DA00011691B050B430F21136153788B431900C5
:104DB00002230B435370EBE700400042FFFFFFF07C
:104DC00010B504000E2800D80F340121200000F097
:104DD000DBF81823102163432A4CE418615600299C
:104DE00001D014290DD1284B1800DA79D209012AF3
:104DF000FBD002241A78A2431A70C379DB09012B75
:104E0000FBD022480300427ED209012AFBD01F2496
:104E100002692140A2430A4302615A7ED209012A53
:104E2000FBD0022219780A431A705A7ED209012A4D
:104E3000FBD00222197B0A431A731A7ED207FCD5D3
:104E400001221A765A7ED209012AFBD00222197B4E
:104E50000A431A731A7ED207FCD5588B80B25A7E49
:104E6000D209012AFBD002211A788A431A705A7E8D
:104E7000D209012AFBD0064B1A68064B1968FFF7C6
:104E800063FF10BD80A900000048004200400042BE
:104E90000C00002008000020182330B51D0004007D
:104EA00045430820204A55192856013014D00329BB
:104EB00012D808006343D156D31802F0BFF9022874
:104EC0000E1B5868CB010221184A9B181A18403251
:104ED0001170012282405A6030BD5868CB01062112
:104EE000124A9B181A1840321170012282405A60EF
:104EF0009A61F1E75868CB0106210C4A9B181A18F1
:104F000040321170012282405A605A61E4E75868C9
:104F1000CB010221054A9B181A1840321170012258
:104F200082409A60D8E7C04680A900000044004152
:104F30001823F0B508245843114A13181C5701349C
:104F40001BD0012635005F688356BD400D4ADB014A
:104F50009A18906805420BD10C00601E8441D2194A
:104F60004032107834400336A400B0432043107020
:104F7000044A9B18002901D15D61F0BD9D61FCE7E9
:104F800080A900000044004118224243F8B52C4E8D
:104F90000300B218127A52B2140001320ED0481C2B
:104FA00000240C280AD802F049F9071F1F1F1F1FF1
:104FB0001F1F1F0B0B0B0B00012464422000F8BDC8
:104FC000092905D100211800FFF766FF0024F5E745
:104FD0000A2901D10839F6E700240B29EED10A3954
:104FE0001800FFF759FFE9E718225343F2185568F4
:104FF00001202C00F356134ADB016E089B18C9B23E
:1050000004409E19002C0DD00F243036327809014F
:1050100022401143C9B25B19317040331A781043F2
:105020001870D3E732000F27303216785B19BE4371
:105030003143117040331A7810431870BEE7C046F0
:1050400080A90000004400417047000010B5FFF740
:1050500003FE04F04DFEFFF7F7FF0120FFF724FDEC
:10506000084C200001F074FB200001F01FFCFDF74C
:105070008DFEFDF743F8044B002BFAD000E000BF93
:10508000F7E7C046D804002000000000F7B506008E
:105090000D000C008B180193019B671B9C4207D0ED
:1050A000336821781B683000984701340028F3D119
:1050B0003800FEBD70B5040008000D0004F08EFF3E
:1050C0002368020029005B682000984770BD10B576
:1050D0000B1E02D0FFF7EEFF0300180010BD10B545
:1050E000FFF7F5FF10BD10B5FFF7F1FF10BD10B5CC
:1050F00003681B68984710BD10B50249FFF7DAFF37
:1051000010BDC046ECAC000070B50400FFF7DFFF37
:1051100005002000FFF7F0FF401970BD70B50400D6
:10512000FFF7D5FF05002000FFF7E6FF401970BD2F
:10513000F0B58BB06B461500002205330600DA7718
:105140000800012D00D80A2509AC290002F006F953
:10515000CAB2130037330700DBB2092902D81300A3
:105160003033DBB2013C2370002FEED12100300040
:10517000FFF7ADFF0BB0F0BDF8B506000C00151E33
:1051800004D10368C9B21B689847F8BD0A2A0CD13C
:1051900000290BDA2D21FFF7AAFF614207002A0040
:1051A0003000FFF7C5FF3818EFE7D2B2210030001A
:1051B000FFF7BEFFE9E710B5FFF7DEFF10BD10B542
:1051C000002A04D10368C9B21B68984710BDD2B247
:1051D000FFF7AEFFFAE770B50400FFF7F0FF050038
:1051E0002000FFF789FF401970BD70B50500FFF77B
:1051F000E6FF04002800FFF77FFF201870BD0000C5
:10520000F7B51E0008AB1B78310001930500330091
:105210001000170004F05CFB4B49002814D1012258
:10522000740064085242494B3800210004F050FBDE
:1052300000280FD10122454B52423800210002F0D4
:105240009DF9002806D142492800FFF733FF0400EA
:105250002000FEBDE0223F4B12063800310002F074
:1052600097F9002801D03C49EEE7E0223B4B1206BB
:105270003800310002F078F90028F4D10022002330
:105280003800310002F070F9041E07D02D212800EB
:10529000FFF72DFF802304001B06F61800230020D3
:1052A0002F490093019B009A934208D02D4B002276
:1052B00003F04AF9009B0133DBB20093F2E73300BD
:1052C0003A0002F025FE0F00060002F0EBF90A2278
:1052D000019001002800FFF72BFF009B0419002B11
:1052E000B6D0019804F046FB02000B0030003900F4
:1052F00003F0A6FF06000F0028002E21FFF7F7FE9F
:105300002418009B013BDBB20093FF2BA0D0154B70
:1053100000223000390003F021FD0F00060002F0EA
:10532000C1F90A22010001902800FFF701FF2418AB
:10533000019804F01FFB02000B003000390003F05D
:105340007FFF06000F00DCE7E0AC0000FFFFEF7F0F
:10535000E4AC0000FFFFEF41E8AC0000FFFFEFC14D
:105360000000E03F0000244037B51D00069BDBB283
:1053700000932B00FFF744FF3EBD000010B5040072
:10538000FFF7AAFB014B1C6010BDC04610000020B7
:105390000122024B52421A607047C04610000020A2
:1053A000164A10B51368591C26D0013B1360002B18
:1053B00022D172B6124B134A0433934213D9124AC4
:1053C00001211000147D0C42FCD02021148BFF31F0
:1053D0009B085B0021431183D3610C4B1380012395
:1053E000027D1A42FCD0BFF34F8F094B094ADA60A5
:1053F000BFF34F8FC046FDE710BDC0461000002030
:1054000000200000030200000040004102A5FFFF51
:1054100000ED00E00400FA05016070479446F0B525
:105420009E1E721E96416246056892072F683606D8
:105430003A4332432A60072505AC24780068A4016A
:105440002940214342680024022B00D05C03114311
:1054500021434160F0BD30B5C0250368AD031C6831
:1054600012052A402243C0240904A402214011430A
:10547000196003685A6814435C6030BD01230268F8
:1054800011680B43136003681A68D207FCD4DA6909
:10549000D207F9D470470223026811680B431360E6
:1054A0000268D3699B07FCD4704703681A7ED20751
:1054B00002D41A7E9207FCD57047002203685A83F3
:1054C00070470368187E4007C00F70470368187E56
:1054D000C0097047802302685B42117E0B4313763C
:1054E00070470368588B8007C00F7047022302681B
:1054F000518B0B43538370470368187EC007C00F5E
:1055000070470368188DC0B2704703681A7ED207CF
:10551000FCD589B2012019857047012203689A756C
:105520007047012203681A757047000070B50126A4
:1055300004684B0833403140256809075B070B437B
:105540002B43236004685100034801F081FE0138B9
:10555000C0B2207370BDC046006CDC02012302683B
:1055600011680B43136003681A68D207FCD4DA6928
:10557000D207F9D470470223026811680B43136005
:105580000268D3699B07FCD470470368DA69920705
:10559000FCD402211A688A431A6070470268936A31
:1055A0005B0A5B021943916203681A7E5207FCD5BD
:1055B000986AC0B2704700000368214A30B5934230
:1055C0002FD0204A93422FD01F4A93422FD01F4AF8
:1055D00093422FD01E4A93422FD01E4A93421FD18E
:1055E0000E2319220121032599401B48C024016084
:1055F00099082B40AB40FC359D4089000918A40058
:105600000859A843C0259D402B0003430B5180231C
:10561000DB011A43114B5A805A7852B2002AFBDB45
:1056200030BD09231422DDE70A231522DAE70B2314
:105630001622D7E70C231722D4E70D231822D1E72F
:1056400000080042000C004200100042001400421A
:1056500000180042001C004200E100E0000C004085
:10566000F8B504000F0016001D00FFF7A5FF20008D
:10567000FFF704FF1C21BB000B4071072268090CD7
:105680000B431360842322689375012F1AD11021D4
:10569000012E00D008390C4B69431868C00001F096
:1056A000D7FD0722216802408B895203DB04DB0C03
:1056B00013438B81226803049089DB0C400B400369
:1056C00018439081F8BDC04604000020F7B50600DD
:1056D000019308AB1F780D001400FFF73FFF300067
:1056E000FFF76AFFC022240592031440BA070C2773
:1056F00017433C43C0270722BF022D0433683D40B7
:1057000025431D60019B316813401A0080239B02D2
:1057100013434B60F7BD01207047000010B50368CC
:10572000014A1B6A984710BD130400000300FC33B4
:10573000D9699A69914203D0DB69C018007D70472E
:1057400001204042FBE710B504000069FFF796FE18
:1057500022000023FC329361D36186229200A418B8
:105760006360A36010BDF0200140303948424841D9
:105770007047F0231B011940802306209B009942AB
:105780000AD00133FF330130994205D0802302381B
:105790005B00994200D0002070470F20014000209C
:1057A000012903D00239481E8141481C704700007E
:1057B0008923F0B5182685B002919B000400C05CD7
:1057C000330008214343324D1700EB185956FFF7B9
:1057D000DBFB304B0821E05C33004343EB185956A8
:1057E000FFF7D2FB2C4BE25C0393022A09D1113361
:1057F000E05CFF2805D008214643AE197156FFF73B
:10580000C3FB8A26B600A05DFF2819D00121FFF74F
:1058100043FB1822A35D21495A43AB56AD18DB0167
:1058200058188B21890060501D4901225B188C217A
:105830008900635069688A408D21890062501A602E
:105840000122029B11002069FFF70AFF39002000A6
:10585000FFF78FFF390005002000FFF79EFF39009A
:1058600006002000FFF77FFF330000902900206929
:105870000122FFF7D3FD0B4B2069E25C039BE15C47
:10588000FFF7E9FD2069FFF706FE05B0F0BDC04651
:1058900080A90000250200002702000018440041F2
:1058A0001444004126020000802210B5040052007A
:1058B000002104F05EFA23000022FC335A6020002D
:1058C0009A6010BDF7B51D0008AB1B78040000936B
:1058D00009AB1B781600019300234360FA239B0059
:1058E0008360114B0F00083303601430FFF7DCFFB7
:1058F00020001D30FF30FFF7D7FF89236A469B0049
:105900002761E654094B1278E554094B2000E25414
:105910006A46084B1279E2548A22293BFF3B9200E7
:10592000A3541032A354FEBDF0AC000025020000C9
:1059300026020000270200000300FC3358689B6821
:10594000C01A01D50130FF30704710B504002000A7
:105950001D30FF30FFF7F0FF0028F8D12069FFF776
:10596000A4FD10BD10B51430FFF7E6FF10BD030015
:10597000FC3359689A68914204DB5A689868801A27
:10598000FF30704798685B68C01A0138F9E710B5B6
:105990001D30FF30FFF7EBFF10BD10B504000069AC
:1059A000FFF79FFD002805D02069FFF7AAFD2069B9
:1059B000FFF79CFD2069FFF784FD002820D02069B7
:1059C000FFF79FFD2200FC329369D1690133DBB2FE
:1059D0008B4203D091696118087593618A239B00FB
:1059E000E35CFF2B0CD020001430FFF7C0FF092828
:1059F00006DC8B238D229B009200E358A2581A608C
:105A00002069FFF779FD00281AD020001D30FF30F3
:105A1000FFF792FF002822D086239B00E3189968A5
:105A20005A68914218D08E219A684900A218515C98
:105A30009A680132D2B29A60C9B22069FFF765FD57
:105A40002069FFF743FD002805D02069FFF742FDDC
:105A50002069FFF732FD10BD01214942ECE72069C2
:105A6000FFF75FFDECE7000070B5040000690D0072
:105A7000FFF742FD00283ED1FF2686239B00E31856
:105A80005A689968013232408A4223D1EFF3108379
:105A9000DB0710D41E4B5B68DB05DB0DEDD0103B44
:105AA0005BB2002B10DA0F221340083B9B08194A07
:105AB0009B009B181B682069FFF71EFD0028DCD0A7
:105AC0002000FFF76AFFD8E79B08C033124A9B000B
:105AD0009B58F0E75A68013216409A68964205D002
:105AE0008E215A684900A21855545E602069FFF75C
:105AF00014FD012070BD20001D30FF30FFF71CFF9A
:105B00000028B9D129002069FFF7FFFCF1E7C04662
:105B100000ED00E01CED00E000E100E0030070B5E6
:105B2000FC33D9699A69040091421AD0DA69821863
:105B3000157DDA690132D2B2DA618A239B00E35C17
:105B4000FF2B0CD020001430FFF711FF0A2806DDD0
:105B50008C238D229B009200E358A2581A602800E3
:105B600070BD01256D42E8E710B5002801D004F0B2
:105B7000B1F910BD10B5041E05D004F0CFF9210015
:105B800001F0D6FC0C00200010BD10B504008842C6
:105B900003DA081AFFF7EEFF2418200010BD10B535
:105BA00004000068002801D004F0D0F8200010BDE7
:105BB00010B504000068002801D004F0C7F80023E5
:105BC0002360A360636010BD70B504000D00006821
:105BD000013104F0D5F9031E01D0012028C470BDA5
:105BE000036810B50400002B04D043688B4201D336
:105BF000012010BD2000FFF7E7FF0028F9D0A368BF
:105C0000002BF5D122681370F2E770B50E00110079
:105C100004001500FFF7E4FF002804D12000FFF77F
:105C2000C7FF200070BDA5603100206804F0CEF9E8
:105C3000F7E7002370B504000D0003604360836044
:105C4000994207D0080004F0C9F929000200200099
:105C5000FFF7DBFF200070BD70B5050008000C00E9
:105C600004F0BCF9210002002800FFF7CEFF70BD50
:105C700070B5050000680C0000280FD009680029E5
:105C80000AD06B68A268934206D304F09FF9A36818
:105C9000AB600023A36070BD04F058F823682B604C
:105CA00063686B60A368AB60002323606360F1E707
:105CB00010B50400884201D0FFF7DAFF200010BDC4
:105CC00010B50400002903D0FFF7C6FF200010BD67
:105CD000FFF76EFFFAE7026810B50B68002A13D0D1
:105CE000002B0CD181681800002907D0107805E03E
:105CF00089681000002901D01878404210BD1900B1
:105D0000100004F059F9F9E7002BF1D11800F5E77C
:105D1000826810B594468A680023944504D1FFF741
:105D2000DAFF43424341DBB2180010BD70B50D00ED
:105D3000002A06D0002904D084689C4202D800239F
:105D40000B7070BD013AE41A944200D91400016846
:105D50002200C918280004F048F900232B55F0E769
:105D60000020704770B50F26CB1D0139020032406C
:105D7000D5B22C0000093034092A00DD07341C702C
:105D8000013B8B42F2D170BD10B50C000B4B186873
:105D9000FFF7E8FF21000A4B08311868FFF7E2FF20
:105DA0002100084B10311868FFF7DCFF2100064B7B
:105DB00018311868FFF7D6FF202010BD0CA0800016
:105DC00040A0800044A0800048A0800008B4024B9E
:105DD0009C46103808BC6047895D000070473F2032
:105DE000704713B56B460268D971073354681900C0
:105DF0000122A04716BD000070B50A260B7892B0AC
:105E00006E44023305000B703C220021300003F089
:105E1000B0FF394801AC069038482421079006208D
:105E200020776846364AA1742281364A364BA281D1
:105E3000FD3AFF3A8018C177684623390630C177AA
:105E400068460730C17702A8C1770720F27703269A
:105E500008316944C87703A9CE7710212B366E44E8
:105E60003170092621851F3169440E700CA9053E49
:105E70000E7033212380022369440B7006360DA96E
:105E80000E7022493536A1863B216E44307010A831
:105E90006274E27702703D3269446A440B70137099
:105EA00040210022E37023716371A37341336B447B
:105EB000218719705A702B7DC039A370A372637744
:105EC0000133DBB2A3776A7D0B200D0068441543D4
:105ED000C5773120684403703A23501C6B44187016
:105EE000412302320A436B441A70210042220848BF
:105EF00000F070FF12B070BD1001042402060524EA
:105F00000904000001020000080B00000705000062
:105F1000D804002008B4024B9C46103808BC6047E7
:105F2000F95D000070B5027D0B790C0000259A42E6
:105F30000BD10B784E78A12B09D1212E05D1072248
:105F40001F49204800F046FF0135280070BD212B75
:105F5000FBD1202E2BD1072219491A4800F07CFED4
:105F6000174B1A785978090211439A781204114391
:105F7000DA7812060A439621C9008A421DD1DB79DC
:105F8000DB071AD4FA20FFF7F9F900210D4801F0D8
:105F90002DF80125232ED8D1E378A2781B021343D4
:105FA000094A00210748136001F020F8CDE7222EAE
:105FB000EFD18A78024BDA71D2E7FFF7E9F9E4E72B
:105FC00018000020D80400201400002008B4024B60
:105FD0009C46103808BC6047255F000010B5417D25
:105FE000006A013100F070FD034B1B6801335A1E3B
:105FF0009341181810BDC0462000002010B5417D07
:10600000006A023100F076FD10BD10B5417D006AD6
:10601000023100F03DFD10BD70B50D00417D040062
:10602000130002312A00006A00F02AFE002801D184
:106030000123636070BD000010B5054C23685A1C35
:1060400004D103685B69984703002060180010BD05
:1060500020000020074A0300106810B5411C03D03F
:1060600001235B42136010BD597D186A013100F0B5
:10607000B7FDF8E7200000207047002070470000BF
:10608000FA239B0010B583600F4B0022C3820300EC
:10609000283383610D4B04004260C2611800443311
:1060A00023610830631D21622060DA778323A362B5
:1060B000813BE3628033236300F0C2F8210010319A
:1060C00000F092F8200010BD0302000024AD000093
:1060D000022110B5094B1A68437D5B01D318FF33C9
:1060E0009C7A21439972437D0133DBB25B01D31863
:1060F0000122FF33997A0A439A7210BD9009002059
:106100007047000010B5FEF799FCF423FF3300241C
:10611000984207D9044B0A20DC79631E9C41E4B203
:10612000FEF7C2FC200010BD1800002010B5024987
:106130000248FFF7A5FF10BDD8040020700400201E
:1061400070B50E0000254468002C0BD02368310088
:106150005B6820009847002802DB2D18E468F3E70D
:1061600001256D42280070BD70B50D004468002CFB
:1061700008D0236829009B6820009847002802D196
:10618000E468F4E7200070BD70B50D000026446897
:10619000002C09D02368290020001B699847361875
:1061A0002D18F6B2E468F3E730002C7070BD70B5BE
:1061B0000D004468002C08D0236829001B682000CB
:1061C0009847002802D1E468F4E7200070BD70B55C
:1061D0000D004468002C06D023682000DB682900ED
:1061E0009847E468F6E770BDF0B58C794578030010
:1061F0002A190020072A1FDC5A68824216D15960EA
:106200001A78C8790A7112184D711A7000220B4D54
:10621000D0B284420FD98F6858789600F75986001B
:106220000130775101325870F2E70200D06800283F
:10623000FBD1D160E4E70120F0BDC046B0040020EE
:106240000121064A10B5136805480B4004D180248B
:10625000640004804360116010BDC046A4040020A7
:10626000A8040020704710B5040000F0DBFF2000F8
:1062700010BD0000F0B5822919D1C3B2294D5A01D1
:10628000AA189169284C80010C40C021890521433E
:1062900091612649083340187021506128685B01DC
:1062A0001A5C8A43110030220A431A54F0BD0029B7
:1062B000FCD1C026C1B21B4C4B01E3189A681A4DA1
:1062C000B6052A4032439A60194A800182185A6002
:1062D0000A000727246808325201115DB9430F00F4
:1062E0000121394311559F6910493D4040182E4303
:1062F0009E6158617020115D8143080010210143A7
:10630000115599680B48A2180840802149030143A0
:1063100099609968890B89039960402311790B432F
:106320001371C3E790090020FFFFFF8F04050020D1
:10633000C4060020FF3F00F0EFF310830360012349
:10634000436072B670470368002B02D162B6BFF398
:106350006F8F7047F7B50600FC36B3690400002B59
:1063600018D1B2277F00C55D6846FFF7E5FF019BA6
:10637000EDB2013B02D3E55DEDB2FAE76846019369
:10638000FFF7E1FF002D01D10020FEBD706E336EDE
:10639000C01AFAE76846FFF7CFFFD8220025019B15
:1063A0005200013B02D3A55CEDB2FAE768460193C7
:1063B000FFF7C9FF002DE7D0D6235B00E058043B70
:1063C000E358E5E710B54468FC3043690B48DBB29D
:1063D0005A01A218916808330840802149030143FB
:1063E000916091685B01890B890391602268D318E1
:1063F000402219790A431A7110BDC046FF3F00F0D0
:10640000F7B50500FC356B694268DBB21900040082
:106410000831106849014118C979C90711D55B01D4
:10642000D21893689B049B0C0CD12000FFF7CAFF85
:1064300063681A686B69DBB208335B01D3187F228B
:10644000DA71F7BDE969002923D16B6623000126C3
:106450006933FF33EE6168465360B227FFF76CFF84
:106460007F00B221019BFF31013B5A1C38D0D8225A
:10647000E6555200A25C581ED2B26254625C844659
:10648000002A04D120000193FFF79CFFE9E763464F
:10649000EBE7D621490063500023EB6123001D3355
:1064A000FF3353606846D826FFF746FF0127760082
:1064B000B221019BFF31013B5A1C11D0B222A755DA
:1064C0005200A25C581ED2B26254625C8446002A1A
:1064D00004D120000193FFF775FFE9E76346EBE77E
:1064E00068460193FFF72FFFA2E7F7B5060068465D
:1064F0003400FFF721FF0027FF22019BFC34013B02
:106500000DD3E0682169884204DBE7682069D71B66
:106510003F18F4E72769E1687F1A013FEFE7684613
:106520000193FFF710FFA3696846002B52D1FFF7D4
:1065300003FFB221019B4900013B5A1C0CD0755C42
:106540005A1EEDB2002D05D168460193FFF7FBFE00
:106550002800FEBD1300F0E7684601930025FFF711
:10656000F2FEFF22236EBD4214D0616E994211D912
:10657000591CF3182166FF33587FE3682169013302
:10658000C0B213408B4203D0E16871180872E36017
:106590000135E7E7626E9A42DAD1002323660133C0
:1065A000A3616846B224FFF7C7FE6400B22200214F
:1065B000019BFF32013B581CC6D03155B05C5F1EB9
:1065C000002805D0B15430000193FFF7FBFEEDE742
:1065D0003B00F0E7FFF7B0FED821019B4900013BEB
:1065E0005A1C06D0755C5A1EEDB2002DACD01300BB
:1065F000F6E768460193FFF7A6FED623D4225B0098
:1066000000259C465200B358BD4203D061467158E4
:10661000994220D86246B2589A4299D1D422002396
:106620005200B3506846A361D824FFF785FE64008A
:10663000B2220021019BFF32013B581C00D183E7AD
:106640003155B05C5F1E002819D0B1543000019361
:10665000FFF7B8FEECE7591CB150FF21F31869337E
:10666000FF331878E368C0B201330B4021698B42D5
:1066700003D0E16871180872E3600135C3E73B009D
:10668000DBE710B50400FFF730FF2300FC33196986
:10669000DA68914203D01B69E418207A10BD01200A
:1066A0004042FBE710B50400FC34FFF71EFFE06832
:1066B0002369C01A01D50130FF3010BDF0B585B097
:1066C000019200910500FFF710FF02A8FFF734FECA
:1066D00001200024FF26039B40425A1E531C1FD05A
:1066E0002B00FC3301998C4218D2D9681F69C91B51
:1066F00001D50131FF31002910D01969DF688C46BE
:106700000100BC4506D019691F6969180137374077
:10671000097A1F61009F39550134E3E7013ADDE74B
:1067200002A80392FFF70FFE200005B0F0BD37B5B9
:106730006B46DC1D00230D002370FFF781FD210057
:10674000FFF7FEFC2B681818286020783EBD00007B
:106750002023F7B5474A0500D1690F200B43D361C9
:10676000012245490B7813430B70444B1978814340
:10677000197006211C782143197041490C78224375
:106780000A701A7802401A70602219780A431A7047
:106790003C4B3D4A5A805F78FF09FCD13B48FEF7ED
:1067A00047F901233A4C3B4E2268300011780B43E5
:1067B000137080223900520003F0DBFA22689378CC
:1067C000DB07FCD456621F26334B1B68590B980C11
:1067D0009B01314030405B0FB14200D105211F28A1
:1067E00000D10238072B00D1043B31408901178DBD
:1067F00001912A4930400F40019939431185118D8B
:106800000700B143080038431085118D1803244B4D
:106810007F260B4003430C2013850823D178814346
:106820000B430321D3702268D3788B4301390B4388
:10683000D3702268137833401370042322681678CB
:10684000334313702268C1241389A400834315487D
:10685000138103591B021B0A035180230360137821
:1068600011481943012311702B700021FFF748FCD8
:10687000F7BDC04600040040584400413C4400417C
:1068800059440041000C004006400000FD7100002A
:106890009009002094090020246080003FF8FFFF49
:1068A000FF8FFFFF00E100E0700400200078002867
:1068B00010D00121084B1B681A898A431A810822CB
:1068C000198B0A431A830422198B0A431A83002264
:1068D000024B1A607047C0469009002088090020CA
:1068E00010B50F4A93699B0B9B03936113680222B7
:1068F000FF331A729879823A02439A711A7A920790
:10690000FCD57F24074A2140937A0800A34319004D
:10691000802301439172917A5B420B43937210BDC5
:10692000900900200050004110B50C00FFF788FCD2
:106930002100FFF73CFC002804D1034A93699B0B1C
:106940009B03936110BDC04690090020F7B50D0070
:10695000832A19D1CBB2404C5A01A21891693F4801
:10696000AD010840C0218905014391613C4920687F
:106970006D187021083355615B011A5C8A43110060
:1069800040220A431A54F7BD022A5FD1354B8A00D0
:10699000D058002802D003685B699847DA2040008D
:1069A00000F03CFC802204002B4E2F4B466003601D
:1069B00052000021083003F0DCF92200B22100234C
:1069C000FC324900D3605561136113669361D36152
:1069D000536663544431635004316350043163544B
:1069E000B221FF316354FF202B0003405901019372
:1069F00071188F68194BAD003B40C027BF051F437E
:106A00008F600727019B366808335B01995DB943A6
:106A10000F000321394399552300516966680140ED
:106A20001D334901FF3371184B60636852691B685D
:106A3000024052019B1801221B18997A20000A4338
:106A40009A72FFF7BFFC074BEC509CE7110028003F
:106A5000FFF710FC97E7C04690090020FFFFFF8F6B
:106A600004050020DC04002084AD000070B50500A2
:106A70000124064BA200D258002A06D0210028008B
:106A80000134FFF763FF0A2CF3D170BDB00400207E
:106A90000B4BCAB20B488901C9185301C31859617D
:106AA00099690832890B89039961036852019A1820
:106AB0000223D3715179823B0B4353717047C04617
:106AC0000405002090090020084B8A00D05810B51A
:106AD000002803D003689B68984710BDC9B2044BD7
:106AE0004901591888688004800CF6E7DC0400200E
:106AF0009009002010B50C00FFF7E6FF00280CD02D
:106B0000064BE4B21B68083464011C1980236279C7
:106B10005B42134363710223E37110BD90090020AF
:106B2000F0B51C002A4B85B01B6807000D000292CF
:106B3000002B4AD0274B8A00D058002808D0036881
:106B400022005B68029998470400200005B0F0BD60
:106B50003800FFF7B9FF844204D929003800FFF755
:106B6000B3FF04000121EBB21B4E03935B010193C1
:106B7000F21893689B0B9B039360019A3368029809
:106B80009B18FF335A7A0A435A72144BA901C91849
:106B9000220003F0E5F8002CD7D029003800FFF7D9
:106BA00093FF0028D1D14021039B326808335B0159
:106BB000D3181879014319710121D971019BD31898
:106BC000FF339A7A0A439A72BFE701246442BCE712
:106BD00088090020DC04002090090020C406002061
:106BE00013B56B46DC1D22000123FFF799FF012836
:106BF00001D1207816BD01204042FBE770B5CBB231
:106C0000124A13485C018901891802195160916880
:106C1000104D08330D4080214903294340259160E0
:106C20009168890B8903916001685A018A18167965
:106C30003543157195796D06FCD55B01C918CB7983
:106C4000DB07FCD500198068C0B270BDC406002007
:106C500090090020FF3F00F070B50D0000211400E6
:106C6000FFF7CCFFA04200D9200000230349A34234
:106C700003D0CA5CEA540133F9E770BDC4060020B2
:106C8000F0B51E003A4B85B01B680F000192002B37
:106C900035D08023DB019E4231D80025354B8A0157
:106CA000D3180293002E2CD0334B1B680393FF2381
:106CB0003B401C0000930834039B64011C19A3791A
:106CC000DB0921D02D4B2E49186800F0C1FA2D4B5D
:106CD0001721584300F0BCFA2B4BE279920713D4EA
:106CE000DA5D002A01D10138F7D20122DA55009B82
:106CF0005A01214B9B189A69920B92039A610125C4
:106D00006D42280005B0F0BD00221F4B3400DA555B
:106D10003F2E09D9009B40245A01174B9B18802213
:106D2000996912060A439A6122000199029803F0B8
:106D300017F8009BA1045A010F4B890C9B18029A6B
:106D40002D195A619A69361B920B92030A439A6174
:106D5000009B039A08335B01D3180222DA71597938
:106D6000823A0A435A71019B1B1901939AE7C04664
:106D7000880900200405002090090020040000205C
:106D800040420F0070110100F904002070B50D00A1
:106D90001C000D4BAE01F61811003000220002F06D
:106DA000DFFFEDB209496D014D196E61AB69084A0B
:106DB00020001340AB61AB69A2049B0B920C9B03B8
:106DC0001343AB6170BDC04604050020900900204C
:106DD000FF3F00F0F7B5104B01901B780F00150036
:106DE000002B0CD10D4B16001C78002C09D00C4E3A
:106DF0000C4834882018641902F0B2FF348028004F
:106E0000FEBD002EFBD03A19330000210198FFF798
:106E1000BDFF2418361AF4E78408002085090020F5
:106E20008609002085080020F8B50F001600002410
:106E3000012A26D9100002F07FFF0500380003F078
:106E4000CDF8032302220130400028706B70964277
:106E50000DD9397800290AD0531CDBB20137A95467
:106E60009E4203D00232EC54D2B2F0E73200290045
:106E70000548FFF7AFFF441EA041C4B2280002F04E
:106E800065FF2000F8BDC046D8040020F0B50024FE
:106E9000012685B0184B0F0069461E70050000944E
:106EA000FFF745FC154B01A90B806A3BFF3BCB71FB
:106EB0005A330B72009B8C7109334B800E4B4E7111
:106EC00008711C703A00092F0FD00D4F09223E7037
:106ED0000C4E280000943480FFF77CFF69462800A0
:106EE000FFF725FC328808493C702800FFF772FF45
:106EF000012005B0F0BDC046840800200902000052
:106F000085090020860900208508002070B5CE780C
:106F100092B005000C00022E0BD18B79C9792E4856
:106F200009021943FFF7B2FF411E8841C0B212B0F7
:106F300070BDFFF785F92100FFF716F9002803D08F
:106F4000C117081AC00FF2E7012E0ED1E279A3791A
:106F500012021A432149112A3CD8D2B2002A39D050
:106F60002800FFF737FF0120E1E7032EDFD1A378E8
:106F7000002B28D0022B08D1E279A37912021849FC
:106F80001A432800FFF750FFD1E7012B05D1E27922
:106F9000A37912021A431349F3E7032BC7D1010067
:106FA000412201A802F0E5FEFFF74AF901A9FFF727
:106FB000EBF8002805D0E279A37912021A4301A95F
:106FC000DFE70378FFDEE279A37912021A4306496C
:106FD000032AC2D90A78C3E7D8040020C0AD000054
:106FE000A0AD0000B4AD0000B0AD0000CBB20449CC
:106FF0005B01C9188B699B0B9B038B617047C04673
:107000009009002037B5050048780C000B2810D8EF
:1070100000F014F9061B0F2B0F404561494C5A5DD7
:10702000097801AA002906D1022311802800FFF760
:10703000ADFE01203EBD00231380284B1B78012BA1
:1070400000D1137002230021F0E78A780023012A7F
:1070500003D101AA1380224BF0E7204A1370214A82
:1070600093699B0B9B039361E3E78C78012C06D11A
:1070700000211B4B01AA1C7011702300D6E70120D0
:10708000002CD7D1154B174A187093699B0B9B03A3
:107090009361CFE789782800FFF722FCC9E7280031
:1070A000FFF734FFC6E701230F4ACCE70B78002037
:1070B000DB06BFD12800FFF7D9FCA2780A4B0B48AA
:1070C0001A60FFF705F8CAE70123094ABBE78A7887
:1070D000074B1A60C3E70020ACE7C046F804002065
:1070E000000500209009002088090020700400207D
:1070F0008C0900203B4BF7B51E780500002E5FD1B0
:10710000394C23689A8B12070DD5082231009A83D7
:107110003000FFF7AFF810222368FF33997A0A4353
:107120009A72324B1E6023689A8B520701D5042253
:107130009A83FF331A7A920603D52022597A0A439A
:107140005A721A7AD20623D569460800284AC0CA5C
:10715000C0C0A268920B9203A260402258790243F9
:107160005A7160230A7828001A422AD1FFF74AFF91
:107170002368FF33002827D08022997952420A439E
:107180009A711A7A520603D54022597A0A435A72E2
:107190007F2601252368FF331E722F0023680837DE
:1071A0007F01DB19DB79002B07D0124BAA00D058E6
:1071B00000280DD003681B6898470135082DECD1D5
:1071C000F7BDFFF7B1FBD3E720210B4A9171D8E758
:1071D000FFF736F82900FEF7FAFF2368DF19FE7182
:1071E000EBE7C046850900209009002088090020AF
:1071F000C4060020DC040020FF50004110B5024806
:10720000FFF778FF10BDC046D8040020014B024AAA
:107210001A607047900900200050004110B502F03C
:107220008BFD10BD10B502F091FD10BD0B0010B527
:107230000100180002F04EFD10BD000002B47146BE
:1072400049084900095C49008E4402BC7047C046A9
:10725000002243088B4274D303098B425FD3030A95
:107260008B4244D3030B8B4228D3030C8B420DD3A8
:10727000FF22090212BA030C8B4202D31212090236
:1072800065D0030B8B4219D300E0090AC30B8B4274
:1072900001D3CB03C01A5241830B8B4201D38B0322
:1072A000C01A5241430B8B4201D34B03C01A5241C7
:1072B000030B8B4201D30B03C01A5241C30A8B420A
:1072C00001D3CB02C01A5241830A8B4201D38B02F5
:1072D000C01A5241430A8B4201D34B02C01A524199
:1072E000030A8B4201D30B02C01A5241CDD2C3090B
:1072F0008B4201D3CB01C01A524183098B4201D387
:107300008B01C01A524143098B4201D34B01C01A71
:10731000524103098B4201D30B01C01A5241C308E9
:107320008B4201D3CB00C01A524183088B4201D358
:107330008B00C01A524143088B4201D34B00C01A44
:107340005241411A00D20146524110467047FFE7B0
:1073500001B5002000F0F0F802BDC0460029F7D0CA
:1073600076E7704703460B437FD4002243088B42E5
:1073700074D303098B425FD3030A8B4244D3030BBC
:107380008B4228D3030C8B420DD3FF22090212BA81
:10739000030C8B4202D31212090265D0030B8B42FD
:1073A00019D300E0090AC30B8B4201D3CB03C01AE7
:1073B0005241830B8B4201D38B03C01A5241430BC2
:1073C0008B4201D34B03C01A5241030B8B4201D3B2
:1073D0000B03C01A5241C30A8B4201D3CB02C01A1D
:1073E0005241830A8B4201D38B02C01A5241430A95
:1073F0008B4201D34B02C01A5241030A8B4201D384
:107400000B02C01A5241CDD2C3098B4201D3CB012A
:10741000C01A524183098B4201D38B01C01A5241D9
:1074200043098B4201D34B01C01A524103098B42DD
:1074300001D30B01C01A5241C3088B4201D3CB00C8
:10744000C01A524183088B4201D38B00C01A5241AB
:1074500043088B4201D34B00C01A5241411A00D25B
:1074600001465241104670475DE0CA0F00D04942C4
:10747000031000D34042534000229C4603098B4234
:107480002DD3030A8B4212D3FC22890112BA030ABC
:107490008B420CD3890192118B4208D3890192113E
:1074A0008B4204D389013AD0921100E08909C309C3
:1074B0008B4201D3CB01C01A524183098B4201D3C5
:1074C0008B01C01A524143098B4201D34B01C01AB0
:1074D000524103098B4201D30B01C01A5241C30828
:1074E0008B4201D3CB00C01A524183088B4201D397
:1074F0008B00C01A5241D9D243088B4201D34B00B2
:10750000C01A5241411A00D20146634652415B10F3
:10751000104601D34042002B00D5494270476346D4
:107520005B1000D3404201B5002000F005F802BD19
:107530000029F8D016E770477047C0468446101CF3
:1075400062468C46191C634600E0C0461FB501F038
:107550009DFB002801D40021C8421FBD10B501F0D9
:10756000F5FA4042013010BD10B501F08FFB002844
:1075700001DB002010BD012010BDC04610B501F098
:1075800085FB002801DD002010BD012010BDC04694
:1075900010B501F017FB002801DC002010BD012010
:1075A00010BDC04610B501F00DFB002801DA002027
:1075B00010BD012010BDC0468446081C6146FFE78F
:1075C0001FB500F031FA002801D40021C8421FBDC8
:1075D00010B500F0B3F94042013010BD10B500F015
:1075E00023FA002801DB002010BD012010BDC04699
:1075F00010B500F019FA002801DD002010BD0120AF
:1076000010BDC04610B500F0C1F9002801DC002013
:1076100010BD012010BDC04610B500F0B7F900281C
:1076200001DA002010BD012010BDC046002B15D18D
:10763000002A13D1002906DB01DC002806D0002037
:10764000C043410802E080210906002007B4024837
:1076500001A14018029003BDE1FEFFFF03B468469C
:1076600001B5029800F03CF8019B9E4602B00CBCAC
:107670007047C0469E2110B5C905041CFFF7CCFF1A
:10768000002803D1201C00F0E3FB10BD9E21201C2C
:10769000C90500F019FA00F0DBFB80231B069C46AD
:1076A0006044F2E770B500220C4B04000D00FFF7B8
:1076B00079FF002804D12000290002F025F970BDCF
:1076C000064B00222000290001F0BAFD02F01CF94F
:1076D00080231B069C466044F1E7C0460000E04161
:1076E000F0B583B016001F000090019102F00EFA71
:1076F00004000D0002000B003000390002F0DCF93C
:10770000009A019B121A8B41089920000A604B6075
:10771000290003B0F0BDC046F8B557464E46454671
:10772000DE464402E0B546008846640A360EC70FBE
:10773000002E63D0FF2E24D08023E400DB041C4302
:10774000002399469B467F3E434642465D02D20F48
:107750005B006D0A1B0E9046924665D0FF2B55D0FC
:1077600080220021ED00D2047F3B1543F61A4346E8
:107770004A467B400F2A00D98DE06D48920082581E
:107780009746002C54D108239946063BFF269B467A
:10779000DAE70025534602291BD0032900D1BFE0B8
:1077A000012928D030007F30002820DD6A0704D06E
:1077B0000F222A40042A00D004352A0103D53000C4
:1077C0005C4A80301540FE2803DCAC01640AC2B27A
:1077D00001E0FF2200246402D205600ADB071043A7
:1077E00018433CBC90469946A246AB46F8BD0122E0
:1077F000101A1B287CDD00220024ECE7002C1DD190
:1078000004239946033B00269B469DE7FF3E002D3F
:1078100020D1022143464A467B400A430F2AD8D84A
:107820004548920082589746002D19D10121F1E771
:107830000C239946093BFF269B4685E7200002F072
:107840001DF97626431F9C4000237642361A99463E
:107850009B4679E74A4603231A439146032186E76C
:10786000280002F00BF9431F36189D4076360021A0
:107870007DE780240023E403FF22ACE7002580237A
:10788000DB031C4228D01D4226D12B435C02640A34
:107890004346FF229FE762016C01A24224D21B21D2
:1078A0000025013E012710006D005200002801DB79
:1078B000944201D8121B3D4301390029F3D1140031
:1078C000621E944125436DE7BA465946250053464A
:1078D000022900D061E77CE78023DB031C436402BC
:1078E000640A3B00FF2276E7121B1A210125D9E723
:1078F0009E362A00B5402C00C240651EAC411443A0
:10790000620704D00F222240042A00D0043462010E
:1079100003D4A401640A00225DE7012200245AE78F
:107920008024E4032C436402640AFF2253E7C04628
:10793000D4AD0000FFFFFFF714AE000070B54200A9
:107940004E024C0045026D0A120EC30F760A240E39
:10795000C90FFF2A0FD0FF2C11D00120A24200D066
:1079600070BDB542FCD18B420DD0002AF8D1280061
:10797000451EA841F4E70120002DF1D1EBE70120DD
:10798000002EEDD1E9E70020EAE7C04670B54A00D5
:107990004E02450244006D0A240EC30F760A120EF1
:1079A000C90FFF2C15D0FF2A0ED0002C15D1002AAC
:1079B00001D1002E1CD0002D14D08B4227D00220E4
:1079C000013B1840013870BD002EEED0022040422D
:1079D000F9E7002DFAD1FF2A0ED0002A0ED1002E91
:1079E000EDD00BE001230139994308000130EAE7AB
:1079F0000020002DE7D0E2E7002EE7D18B42DED158
:107A0000944205DD0221581E08400138DBE70024BE
:107A1000A24204DCB542D2D80020B542D3D2581ECF
:107A2000012398430130CEE730B5420044024D02B5
:107A3000C30F4800640A120E6D0A000EC90FFF2A18
:107A400012D0FF280CD0002A12D1002819D1002D05
:107A500017D1002C2BD00220013B1840013826E022
:107A6000002DF0D0022022E0002CFBD1FF281FD0F7
:107A700000281FD1002D1DD10220013B18400138E4
:107A800015E0002C0ED08B42E5D10022904204DCA0
:107A9000AC42E0D80020AC4209D2581E01239843E2
:107AA000013004E00123013999430800013030BD61
:107AB000002DD7D18B42CED18242E7DD0221581E64
:107AC00008400138F3E7C046F8B54746CE464400C3
:107AD000C20F80B547024802400A84466646480005
