:102000000080002089310000713100007131000032
:1020100000000000000000000000000000000000C0
:10202000000000000000000000000000713100000E
:10203000000000000000000071310000DD310000F0
:102040007131000071310000713100007131000008
:1020500071310000713100007131000075310000F4
:1020600071310000713100007131000071310000E8
:102070007131000071310000E13000007131000069
:1020800071310000713100007131000071310000C8
:10209000000000007131000071310000713100005A
:1020A00071310000713100007131000071310000A8
:1020B0000000000010B5064C2378002B07D1054B1B
:1020C000002B02D0044800E000BF0123237010BDA4
:1020D000B00000200000000070670000044B10B545
:1020E000002B03D00349044800E000BF10BDC046E8
:1020F00000000000B40000207067000010B504006C
:102100006068002804D04368636001F025FBF7E7AE
:10211000200010BD704703698B4203DD002303617B
:102120004368C36003698B4208DA0268934205DAA8
:10213000C268013352680361C260F3E77047000070
:102140009621F0B55B4C87B08901200002F07EFA41
:10215000FA20800001F080F8574D2000290001F09E
:1021600059FB0021554800F0C1FA2900200001F078
:1021700051FB00260C21514800F0EAFA504D51491C
:102180002860200001F015FB10222968200001F0D2
:102190009EFB4D49200001F00CFB4C4903A82F6821
:1021A00002F023F8310003A802F05BF839000200C6
:1021B0000123424800F052FB070003A801F088FF0A
:1021C000002F54D04249200001F010FB2B68414DF4
:1021D00001932F680820002F3CD101F0B9FA019B30
:1021E000476003606860A8602B6801332B6001368C
:1021F0000A2EBFD10026374D2B689E423DDA364964
:10220000200001F0E1FA0A223100200001F04FFB2A
:102210003249200001F0D8FA31002800FFF77BFF97
:10222000EB6810221D682000290001F050FB2C49AA
:1022300003A801F097FF002303AA29001F4800F01C
:10224000ABFA03A9200001F0DBFA03A801F040FF7C
:102250000136D0E701F07CFA0023019A4360026066
:10226000AA6850602B616B68A860EB60BCE71D49F1
:10227000200001F0BBFA013EB9E72968002917DD0B
:1022800001290ED002392800FFF745FFEC6860688D
:1022900001F062FA002363602B68AC60013B2B60A5
:1022A000EBE7686801F058FA00236B60AB60F6E773
:1022B00007B0F0BD940400201F5C0000DC0000208B
:1022C000CC0000202D5C0000385C0000D000002015
:1022D000445C0000E0010020565C00005F5C0000F0
:1022E0002A6600004F5C000070B500240C4D0D48BC
:1022F0002A000D4904604460846003F05EFA0B4AD2
:1023000021000B4800F0A0F90A4C0B49200001F015
:1023100029FF2A000949200003F04FFA70BDC0468A
:1023200000000020E0010020FD200000F40100205A
:10233000DC000020D0000020085C0000D14000003C
:10234000037D002B04D143758375836101330375CD
:1023500070477FB5C36802AD04000E0002916A6049
:102360008B4203D1028AAB889A4218D02000062201
:1023700029000C3003F004FB206801F0BAFB6B79F4
:10238000227AE17900932068002301F053FC206851
:102390002979320001F07EFB206801F0A0FB7FBDAF
:1023A00070B518260400FFF7CBFF33000821207911
:1023B0000D4D4343EB18595601F048F933000821FD
:1023C000A0794343EB18595601F040F90821607990
:1023D0004643AD19695601F039F9044B200006CB8C
:1023E000FFF7B7FF70BDC046C86200002C02002096
:1023F00007B5437D00910192002B07D09A070AD5BB
:10240000EFF310835A425341837572B60099019AD3
:10241000FFF79FFF07BDDB07F8D58369014A9BB231
:102420009360F3E700180040437D002B05D09A0726
:1024300004D5837D002B00D062B67047DB07FCD546
:102440008369024A9BB2D360F7E7C0460018004098
:1024500010B5006801F056FB10BD70B506000C0009
:102460008D18AC4206D021783000FFF7F1FF2070C4
:102470000134F6E770BD0000104A114B114913609A
:10248000002353711371104A104811601049D36032
:102490009180092191710639537413741375D371A6
:1024A00011720C4A10600C48D36090801B2053744A
:1024B000137413759071D371117270472C02002040
:1024C00000093D0078040020F4010020840400206D
:1024D0000A080000100200201D1A000070470000CA
:1024E00010B5054C0549200001F063F904492000AE
:1024F00001F07CF910BDC04694040020A0610000EA
:10250000D361000070B506000D003170002A14D0B0
:102510002C4C14294CD8080003F056F90B181A1C3F
:102520001E24262C32363810343A3C3E4042444673
:1025300048002549200001F059F970BD23492000C9
:1025400001F054F93000FFF7CBFFF6E72049F1E73F
:102550002049F4E72049EDE72049200001F046F941
:102560001F49E7E71F49E5E71F49200001F03EF951
:102570001E49E4E71E49200001F038F91D49D9E75A
:102580001D49D7E71D49D5E71D49D3E71D49D6E7C2
:102590001D49CFE71D49CDE71D49CBE71D49C9E7D7
:1025A0001D49C7E71D49C5E71D49C3E71D49C1E7E7
:1025B0001D49200001F01AF904239D43022DC1D0CA
:1025C000BBE7C04694040020635C0000825C00000E
:1025D000B35C0000F25C0000305D0000C55D0000EF
:1025E000D35D0000035E00004D5E00006F5E0000E2
:1025F000B25E0000D55E00000F5F00005E5F00006D
:102600009B5F0000BF5F0000E55F00000960000005
:102610002E6000005260000078600000C260000080
:102620000F6100005E6100009261000010B5034A76
:102630000349044803F0C1F810BDC0460000002063
:10264000DD24000034020020F8B5254B1600FF22DF
:10265000036000230D00522142748274C27402751B
:10266000421C43710371037243778377C377D37737
:102670002A3211700531517000220400194F83670E
:10268000C3670263390012229C3003F079F92000FD
:10269000390048221431B03003F072F920003900BB
:1026A00009225C31F83003F06BF93900A01C653168
:1026B000FF30032203F064F90B4BE6609E420CD11D
:1026C0000A23280063752574012100F047FF207C50
:1026D000012100F08FFF2000F8BD0B23F1E7C04679
:1026E00000093D0060620000F401002070B5437DE8
:1026F00004000D000B2B02D0C068FFF751FE237AB7
:10270000002B07D11B226270643A2370A270E37021
:10271000237163712900200000F02AFC05002000CD
:1027200000F0E6FA00232000A37700F0DBFB28008E
:1027300070BD000010B5054C2378002904D01900A5
:10274000012200F0B5FC2378180010BD34020020EF
:1027500070B50A000D00416F040000F0B3F90126C6
:10276000002801D1002070BD2A00616F200000F018
:1027700025FA031E606F0CD1E36B28186067A06711
:102780009842F1D3631CDA7F002AEBD16267DE77CF
:10279000EAE72D186567E6E7F0B589B000AFB960E4
:1027A0003A607B600A0000230321040000F004FB70
:1027B000002804D100263000BD4609B0F0BD7B687A
:1027C0000B21002B00D103210026200000F0C6F9C8
:1027D000350023002B3319780022200000F012FA74
:1027E000B04008360543202EF3D1200000F080FAD7
:1027F0006A46EB1DDB08DB00B968D31A9D4604313D
:102800002A002000FB6000F05DF90028D2D01249B8
:10281000200000F08DFA061ECCD07B680B21002B27
:1028200000D10321200000F099F92B00FA68032160
:10283000200000F0EDF92000142400F059FAF968A6
:10284000381901F08FFC3919386801F0D8FC3819B3
:1028500001F03EFCAFE7C04600CA9A3BF0B58BB032
:102860009668050010006A4600AFBB60731C7B626F
:102870000733DB08DB00D31A9D467B61721C002303
:102880000C00694601F0F8FC280000F043FA3862B9
:10289000002802D000233B6276E0042221002800B9
:1028A00000F010F90028F5D0721D2100280000F07A
:1028B00085F90028EED07F49280000F039FA002879
:1028C000E8D00121280000F059FA0028E2D00221C6
:1028D000280000F043F93E6A7A6A2B00F2402C335C
:1028E000FB61D2B219782800083600F08BF9202E4F
:1028F000F2D10121287C00F07DFE280000F0F8F9DB
:10290000231D7A6A190028003B6100F0DBF80028DB
:10291000C0D06849280000F00BFA0028BAD0012185
:10292000280000F02BFA38620028B3D08023E4B2EC
:102930005B001C1B7A6AA4B2944229D3287C002134
:1029400000F058FEFB6902221978280000F05AF9BD
:10295000280000F0DBF800247B6A9C420AD27B69E5
:1029600028001A5D2B002C331978013400F04AF945
:10297000A4B2F1E7287C012100F03CFEBB68002BEB
:1029800052D1280000F0B4F9BD46386A0BB0F0BD52
:10299000BA8C7B60FA610022BA61FB69BE8BA342EC
:1029A00000D9261C287C002100F024FE2B002C33AB
:1029B00019780222280000F025F9280000F0A6F876
:1029C0007B69BA69B6B29C18A319FB60FB68A34285
:1029D00008D02B002C3322781978280000F012F947
:1029E0000134F3E7287C012100F004FEAB6F31498C
:1029F0009B19AB67BB6928009B199BB2BB61FB6944
:102A00009E1BB3B2FB6100F093F9002800D141E7AF
:102A10000121280000F0B2F9002800D13AE7FB6953
:102A20007C68002BB9D1A9E76B4622492800FB61DD
:102A300000F07EF93862002838D06A463B69287C6D
:102A4000AB677B6A00210733DB08DB00D31A9D46A6
:102A500000F0D0FD2B002C3319780322280000F061
:102A6000D1F828006E4600F051F800247B6A9C42A1
:102A70000AD22B002B3319780022280000F0C2F86C
:102A800030550134E4B2F1E7280000F031F90023B9
:102A90007A6A934207D27A69F15CD25C914205D19D
:102AA0000133DBB2F4E7FB699D466DE7FB699D46A8
:102AB000F0E6C04600CA9A3B10B5C068FFF7C8FCF4
:102AC00010BD0000F8B50F00002105001600FFF74B
:102AD00031FEF72303400020032B08D0EC6B844227
:102AE00006D1094822000121FFF70CFD2000F8BDA6
:102AF000BE19B44204D8361BEE67AF670120F6E773
:102B00000023EB67F9E7C0463402002010B5C37F0D
:102B10000400002B04D003007B331978FFF7CCFFAF
:102B200023007A3319782000FFF7C6FF230079339A
:102B300019782000FFF7C0FF2300783319782000B0
:102B4000FFF7BAFF012010BD10B50400016842680C
:102B5000C068FFF74DFC0120607710BD70B5437F62
:102B600004000D00002B01D1FFF7EEFF207C0021B7
:102B700000F040FD0B2D15D005D8022D09D0032DF6
:102B800007D0290016E0522D03D0D82D01D0202DDA
:102B9000F7D129002000FFF78FFF2000FFF7B6FFD5
:102BA000012070BD29002000FFF786FF2000FFF7FD
:102BB000ADFFEE212000FFF77FFFF1E770B50321A5
:102BC000040016000025FFF7C9FFB54212D000210E
:102BD000E068FFF73DFCFF280AD0207C012100F0CF
:102BE00009FD074800220721FFF78CFC002070BD7B
:102BF0000135EAE7207C012100F0FCFC0120F6E72A
:102C00003402002010B51100C068FFF721FC10BD90
:102C1000023920B51500012904D81A002900C0681E
:102C2000FFF71BFC20BD70B504000521FFF796FFE0
:102C30000021E068FFF70CFC251DE877207C0121CE
:102C400000F0D8FCE87F70BD70B504001521FFF7D7
:102C500085FF0021E068FFF7FBFBA51DE877207CDE
:102C6000012100F0C7FCE87F70BD000070B50600D0
:102C70000124FFF7E9FF20420ED1B7213000FFF712
:102C80006DFF307C210000F0B5FC3000FFF7DCFF69
:102C90002040051E02D0F477200070BD02000D21F7
:102CA0000248FFF72FFC2C00F6E7C0463402002054
:102CB00070B505000124FFF7C7FF204212D0E921BB
:102CC0002800FFF74BFF287C210000F093FC280030
:102CD000FFF7BAFF204007D000220E210348FFF77C
:102CE00011FC0024200070BDE877FBE734020020CF
:102CF00010B504000121007C00F07CFCE37F002B78
:102D000002D02000FFF7D4FFE068FFF78DFB00231F
:102D1000637710BD10B5847F002C04D000220F21F2
:102D20000248FFF7EFFB200010BDC0463402002030
:102D3000F8B506000C002023013BFDD100F05CFA41
:102D4000012705003000FFF76EFF331DDB7F3B429C
:102D500001D10120F8BD00F04FFA401BA042F1D391
:102D600000F04AFA401BA042F3D30348002204219A
:102D7000FFF7C8FB0020EDE73402002070B5040027
:102D80000D000621FFF7EAFE207C012100F032FC55
:102D90002000FFF748FF0224044009D1002D05D090
:102DA000220006210348FFF7ADFB2500280070BD77
:102DB0000125FBE734020020F8B51E00030037337D
:102DC0001B7804000F001500EF2B14D0022F1BD02E
:102DD000EF2F37D02000FFF79DFF002812D13200DF
:102DE00029002000FFF76EFE00280BD01B492000B1
:102DF000FFF79EFF07E01A4B9A42E7D9FFF736FF2D
:102E00000028E3D10020F8BD2000FFF783FF002851
:102E1000F8D1320029002000FFF754FE0028F1D03D
:102E2000320029002000FFF7C9FE0028EAD00B4934
:102E30002000FFF77DFF0028E4D001212000FFF7EC
:102E40009DFFE0E72000FFF765FF0028DAD13200A0
:102E500029002000FFF736FEE7E7C04600CA9A3B8C
:102E6000FFFFFF0010B504000421FFF777FE207C70
:102E7000012100F0BFFB012010BD000070B5174913
:102E80000400FFF755FF051E25D09F212000FFF706
:102E900065FE26000021E068FFF7DAFA3736307069
:102EA0000021E068FFF7D4FA2300383318700021BE
:102EB000E068FFF7CDFA230039331870207C012138
:102EC00000F098FB3478002C05D122000B21044837
:102ED000FFF718FB2500280070BDC04600CA9A3BCA
:102EE00034020020030070B538331B780400252B12
:102EF0001CD1FFF798FE231DDD7F3C2350212000CD
:102F00009D43FFF72BFE207C012100F073FB012184
:102F10002000FFF723FE29002000FFF7CDFD207CD5
:102F2000012100F067FB0125280070BD0125262B3B
:102F3000FAD10E49FFF7FCFE051EF5D00121200055
:102F4000FFF71CFFA023013BFDD198212000FFF7D4
:102F500005FE207C012100F04DFBC8239B00013BB6
:102F6000FDD12000FFF77EFFDEE7C04600CA9A3B96
:102F70000200F8B5012364321370103A1370083A56
:102F80001370083A13700300202245331A7032324E
:102F90001A7286321A74414B00228364404B05003A
:102FA0000365404B6535836503005C331A7060230D
:102FB0002B703D4B04008366030001327233FF32F5
:102FC0001A800E00FFF75AFF2300A21C373319782E
:102FD000FF32C1331878884227D1230001223533CC
:102FE0001A70230022003833FF321B789078984201
:102FF00005D0D078984202D012799A4201D1C723E5
:103000002B70230035331D78002D32D0270039373F
:10301000C22911D13B78132B0BD0142B1BD00022CB
:1030200002212248FFF76EFA06E001339342D1D124
:10303000D7E78023DB03E36300233A7819009C3150
:10304000615C91420AD12C339B001B593434A3603C
:103050000123237012E080231B04ECE70133122BC1
:10306000ECD1E36B002B08D1002E0FD0E663343493
:10307000EFE736342578002D02D001252800F8BD71
:103080002A0002210948FFF73DFAF7E73200032141
:103090000648FFF737FA3500F0E7C04600CA9A3B0A
:1030A0000050D6DC004059730000DD0E34020020D1
:1030B00010B50248FFF726FA10BDC04634020020C2
:1030C0007047000010B5034A0349044802F075FB3D
:1030D00010BDC04600000020C130000035020020B5
:1030E00010B5024800F00DFF10BDC04638020020A8
:1030F00013B51249124800F043FC1249124800F07F
:103100003FFC1249124800F03BFC1249124800F003
:1031100037FC1249124800F033FC124C12492000CF
:1031200000F02EFC01230193023300930D220B3398
:1031300021000E4800F07AFE13BDC0460008004290
:1031400074040020000C00427804002000100042AB
:103150007C0400200014004280040020001800427B
:103160008404002088040020001C00423802002053
:10317000FEE70000034B10B51B68002B00D09847FA
:1031800010BDC0468C04002070B50F490F4CA14201
:1031900004D100F089F800F0BBFAFEE70C4D0023E3
:1031A0008D42F6D0CA18E818A24205D3094B8242D4
:1031B000EFD00949002204E0006804331060F1E711
:1031C00004C38B42FCD3E4E700000020B0000020E1
:1031D00074670000B0000020C80A002010B500F09D
:1031E00060F8002801D100F051F810BD014B1860C3
:1031F0007047C0468C040020F7B51348012284466E
:103200001249134C8E68636805689B0E1340019247
:1032100088686268019F920E3A4067463F68934211
:103220000ED1BD420CD186420AD35B19FA254868FB
:10323000AD00861B07486B437043000DC018FEBDF0
:103240003D0013000600E3E79004002010E000E0DA
:1032500000ED00E05555000070B5041E10D0FFF7DA
:10326000CBFF050000F01CF8FFF7C6FF054B401B25
:103270009842F7D9FA23013C9B00ED18002CF3D1BA
:1032800070BDC046E70300007047000010B5034A58
:1032900013680133136000F037FB10BD9004002069
:1032A00070470020704700001E2270B5464847490D
:1032B000436893431C3A1343436008238C692343B8
:1032C0008B61434C434B9C829C8A14439C82DC68F8
:1032D0001442FCD00124404A14701578254203D0D2
:1032E00055786DB2002DF8DB01249460547864B2F7
:1032F000002CFBDB394C5460547864B2002CFBDBAF
:103300008224E4015480547864B2002CFBDB022454
:103310009C840E34DD682542FCD0314CDC621024E4
:10332000DD682542FCD09D8C2E4C2C439C841024BF
:10333000DD682542FCD002249D8C80262C439C8491
:103340004024DD683542FCD0DD682542F9D01024E8
:10335000DD682542FCD000249460547864B2002CCF
:10336000FBDB214C5460547864B2002CFBDB1C6AFC
:103370001E4D2C4080251C621C6AAC431C6203233A
:1033800093601B4B536053785BB2002BFBDB002335
:10339000FF240B72174A4B728B72CB72164B1A605A
:1033A000164B174A1B6811689A065B01C90E234029
:1033B000520F12020B431343124A138580234268B3
:1033C0001343436070BDC04600400041000400400C
:1033D0000C06000000080040000C00400105010040
:1033E000B905FF7D040A000000070300FFFCFFFF92
:1033F00003060100006CDC02040000202460800051
:103400002060800000400042FA21314B10B518685E
:10341000890002F0E3F92F4B0138984256D82E4923
:103420002E4A4860C020136A00061B021B0A034391
:103430001362002407238C600B608021136A090645
:103440001B021B0A0B431362FC22254B196A0A4319
:103450001A62FC22196A92010A431A62A022196AAE
:10346000D2020A431A6220000021013400F076F8EB
:10347000162CF8D11B4B1C005A7852B2002AFBDBE9
:10348000194A5A80194B1A00597EC9090129FBD0E3
:10349000E421C90099803F21D970537EDB09012BBB
:1034A000FBD0C02300205B011361907000F024F872
:1034B00063785BB2002BFBDB0D4B0E4A6380D37944
:1034C000DB09012BFBD04123537010BDFEE7C04642
:1034D00004000020FFFFFF0010E000E000ED00E02E
:1034E00000040040000C00401E400000004000426C
:1034F0002140000000480042164A00B51300517EEA
:10350000C9090129FBD00138042816D81969124AC3
:103510000A400F211A615A788A4302F055F90308CC
:10352000060B0300110001220A435A7000BD11006E
:103530000322F9E711000222F6E7F02311691B05C7
:103540000B430F21136153788B43190002230B4364
:103550005370EBE700400042FFFFFFF0182330B547
:103560001D00040045430820204A55192856013003
:1035700014D0032912D808006343D156D31802F09F
:1035800023F902280E1B5868CB010221184A9B1808
:103590001A1840321170012282405A6030BD5868BA
:1035A000CB010621124A9B181A18403211700122D1
:1035B00082405A609A61F1E75868CB0106210C4AB3
:1035C0009B181A1840321170012282405A605A61C9
:1035D000E4E75868CB010221054A9B181A184032CB
:1035E0001170012282409A60D8E7C046C86200008C
:1035F000004400411823F0B508245843114A131819
:103600001C5701341BD0012635005F688356BD402E
:103610000D4ADB019A18906805420BD10C00601E20
:103620008441D2194032107834400336A400B043AC
:1036300020431070044A9B18002901D15D61F0BD40
:103640009D61FCE7C862000000440041182242432B
:10365000F8B52C4E0300B218127A52B2140001329F
:103660000ED0481C00240C280AD802F0ADF8071F21
:103670001F1F1F1F1F1F1F0B0B0B0B00012464427A
:103680002000F8BD092905D100211800FFF766FFC9
:103690000024F5E70A2901D10839F6E700240B29AF
:1036A000EED10A391800FFF759FFE9E71822534312
:1036B000F218556801202C00F356134ADB016E08FE
:1036C0009B18C9B204409E19002C0DD00F2430362F
:1036D0003278090122401143C9B25B19317040337D
:1036E0001A7810431870D3E732000F27303216785B
:1036F0005B19BE433143117040331A781043187080
:10370000BEE7C046C86200000044004170470000A8
:1037100010B5FFF779FE02F0FBF8FFF7F7FF012085
:10372000FFF79AFD084C200001F0A4FA200001F0F8
:103730004FFBFEF705FDFEF7EDFC044B002BFAD026
:1037400000E000BFF7E7C046FC04002000000000D6
:1037500010B502F001F910BD10B502F007F910BD67
:10376000F7B506000D000C008B180193019B671B39
:103770009C4207D0336821781B6830009847013499
:103780000028F3D13800FEBD70B5040008000D001C
:1037900002F0D4F92368020029005B6820009847F2
:1037A00070BD10B50B1E02D0FFF7EEFF030018002E
:1037B00010BD10B5FFF7F5FF10BD10B503688A689E
:1037C0005B680968984710BD10B5FFF7EAFF10BDA8
:1037D00010B503681B68984710BD000010B502497A
:1037E000FFF7D2FF10BDC0462866000070B5040088
:1037F000FFF7D7FF05002000FFF7F0FF401970BD6D
:1038000070B50500FFF7D9FF04002800FFF7E6FFB9
:10381000201870BD70B50400FFF7C3FF050020003D
:10382000FFF7DCFF401970BDF0B58BB06B4615009B
:10383000002205330600DA770800012D00D80A259A
:1038400009AC290002F050F8CAB213003733070060
:10385000DBB2092902D813003033DBB2013C2370FC
:10386000002FEED121003000FFF79BFF0BB0F0BD21
:10387000F8B506000C00151E04D10368C9B21B6818
:103880009847F8BD0A2A0CD100290BDA2D21FFF741
:103890009FFF614207002A003000FFF7C5FF38187C
:1038A000EFE7D2B221003000FFF7BEFFE9E710B525
:1038B000FFF7DEFF10BD10B5002A04D10368C9B2BE
:1038C0001B68984710BDD2B2FFF7AEFFFAE770B59C
:1038D0000500FFF7F0FF04002800FFF77FFF201826
:1038E00070BD000010B50400FFF7CEFC014B1C605A
:1038F00010BDC046080000200122024B52421A604F
:103900007047C04608000020164A10B51368591CBD
:1039100026D0013B1360002B22D172B6124B134A02
:103920000433934213D9124A01211000147D0C4232
:10393000FCD02021148BFF319B085B0021431183B5
:10394000D3610C4B13800123027D1A42FCD0BFF3DC
:103950004F8F094B094ADA60BFF34F8FC046FDE72E
:1039600010BDC04608000020002000000302000037
:103970000040004102A5FFFF00ED00E00400FA0551
:10398000016070479446F0B59E1E721E96416246D5
:10399000056892072F6836063A4332432A600725A6
:1039A00005AC24780068A401294021434268002422
:1039B000022B00D05C03114321434160F0BD30B5C0
:1039C000C0250368AD031C6812052A402243C024A9
:1039D0000904A40221401143196003685A68144382
:1039E0005C6030BD0123026811680B4313600368FB
:1039F0001A68D207FCD4DA69D207F9D470470223D7
:103A0000026811680B4313600268D3699B07FCD4FA
:103A1000704703681A7ED20702D41A7E9207FCD53B
:103A20007047002203685A8370470368187E400776
:103A3000C00F70470368187EC00970478023026872
:103A40005B42117E0B43137670470368588B8007E7
:103A5000C00F704702230268518B0B43538370479A
:103A60000368187EC007C00F70470368188DC0B286
:103A7000704703681A7ED207FCD589B201201985E8
:103A80007047012203689A757047012203681A750E
:103A90007047000070B5012604684B083340314080
:103AA000256809075B070B432B432360046851001B
:103AB000034801F093FE0138C0B2207370BDC046C8
:103AC000006CDC020123026811680B431360036879
:103AD0001A68D207FCD4DA69D207F9D470470223F6
:103AE000026811680B4313600268D3699B07FCD41A
:103AF00070470368DA699207FCD402211A688A4386
:103B00001A6070470268936A5B0A5B02194391620C
:103B100003681A7E5207FCD5986AC0B2704700004D
:103B20000368214A30B593422FD0204A93422FD0C8
:103B30001F4A93422FD01F4A93422FD01E4A9342CE
:103B40002FD01E4A93421FD10E2319220121032593
:103B500099401B48C024016099082B40AB40FC35BC
:103B60009D4089000918A4000859A843C0259D401C
:103B70002B0003430B518023DB011A43114B5A8066
:103B80005A7852B2002AFBDB30BD09231422DDE74C
:103B90000A231522DAE70B231622D7E70C23172274
:103BA000D4E70D231822D1E700080042000C0042A0
:103BB000001000420014004200180042001C0042A5
:103BC00000E100E0000C0040F8B504000F00160012
:103BD0001D00FFF7A5FF2000FFF704FF1C21BB001D
:103BE0000B4071072268090C0B4313608423226881
:103BF0009375012F1AD11021012E00D008390C4BDA
:103C000069431868C00001F0E9FD072221680240FD
:103C10008B895203DB04DB0C13438B812268030482
:103C20009089DB0C400B400318439081F8BDC046DF
:103C300004000020F7B50600019308AB1F780D00C3
:103C40001400FFF73FFF3000FFF76AFFC022240592
:103C500092031440BA070C2717433C43C02707229E
:103C6000BF022D0433683D4025431D60019B316830
:103C700013401A0080239B0213434B60F7BD0120C1
:103C80007047000010B50368014A1B6A984710BDD1
:103C9000130400000300FC33D9699A69914203D0F0
:103CA000DB69C018007D704701204042FBE710B57A
:103CB00004000069FFF796FE22000023FC329361A6
:103CC000D36186229200A4186360A36010BDF02027
:103CD00001403039484248417047F0231B011940E8
:103CE000802306209B0099420AD00133FF33013024
:103CF000994205D0802302385B00994200D0002011
:103D000070470F2001400020012903D00239481ECE
:103D10008141481C704700008923F0B5182685B002
:103D200002919B000400C05C330008214343324DE4
:103D30001700EB185956FFF789FC304B0821E05C5F
:103D400033004343EB185956FFF780FC2C4BE25CE1
:103D50000393022A09D11133E05CFF2805D0082122
:103D60004643AE197156FFF771FC8A26B600A05D76
:103D7000FF2819D00121FFF7F1FB1822A35D21498B
:103D80005A43AB56AD18DB0158188B21890060509F
:103D90001D4901225B188C218900635069688A40A3
:103DA0008D21890062501A600122029B1100206956
:103DB000FFF70AFF39002000FFF78FFF39000500E9
:103DC0002000FFF79EFF390006002000FFF77FFF6D
:103DD00033000090290020690122FFF7D3FD0B4B2F
:103DE0002069E25C039BE15CFFF7E9FD2069FFF7D6
:103DF00006FE05B0F0BDC046C86200002502000006
:103E0000270200001844004114440041260200002B
:103E1000802210B504005200002101F0BAFD2300F9
:103E20000022FC335A6020009A6010BDF7B51D00D7
:103E300008AB1B780400009309AB1B7816000193B4
:103E400000234360FA239B008360114B0F0008336B
:103E500003601430FFF7DCFF20001D30FF30FFF758
:103E6000D7FF89236A469B002761E654094B1278E5
:103E7000E554094B2000E2546A46084B1279E2549B
:103E80008A22293BFF3B9200A3541032A354FEBD6B
:103E90002C66000025020000260200002702000018
:103EA0000300FC3358689B68C01A01D50130FF300D
:103EB000704710B5040020001D30FF30FFF7F0FF01
:103EC0000028F8D12069FFF7A4FD10BD10B514300B
:103ED000FFF7E6FF10BD0300FC3359689A68914272
:103EE00004DB5A689868801AFF30704798685B68EE
:103EF000C01A0138F9E710B51D30FF30FFF7EBFFAE
:103F000010BD10B504000069FFF79FFD002805D023
:103F10002069FFF7AAFD2069FFF79CFD2069FFF7E4
:103F200084FD002820D02069FFF79FFD2200FC328D
:103F30009369D1690133DBB28B4203D09169611877
:103F4000087593618A239B00E35CFF2B0CD0200053
:103F50001430FFF7C0FF092806DC8B238D229B005D
:103F60009200E358A2581A602069FFF779FD0028F3
:103F70001AD020001D30FF30FFF792FF002822D01A
:103F800086239B00E31899685A68914218D08E21C5
:103F90009A684900A218515C9A680132D2B29A60BC
:103FA000C9B22069FFF765FD2069FFF743FD0028CE
:103FB00005D02069FFF742FD2069FFF732FD10BDF3
:103FC00001214942ECE72069FFF75FFDECE70000C3
:103FD00070B5040000690D00FFF742FD00283ED1D6
:103FE000FF2686239B00E3185A6899680132324005
:103FF0008A4223D1EFF31083DB0710D41E4B5B689A
:10400000DB05DB0DEDD0103B5BB2002B10DA0F228D
:104010001340083B9B08194A9B009B181B682069AA
:10402000FFF71EFD0028DCD02000FFF76AFFD8E76D
:104030009B08C033124A9B009B58F0E75A68013234
:1040400016409A68964205D08E215A684900A218F7
:1040500055545E602069FFF714FD012070BD2000FB
:104060001D30FF30FFF71CFF0028B9D1290020695F
:10407000FFF7FFFCF1E7C04600ED00E01CED00E0BB
:1040800000E100E0030070B5FC33D9699A690400CF
:1040900091421AD0DA698218157DDA690132D2B2FA
:1040A000DA618A239B00E35CFF2B0CD020001430E4
:1040B000FFF711FF0A2806DD8C238D229B0092005A
:1040C000E358A2581A60280070BD01256D42E8E748
:1040D00010B504000068002801D001F047FC200062
:1040E00010BD10B504000068002801D001F03EFCAE
:1040F00000232360A360636010BD70B504000D0051
:104100000068013101F0F6FC031E01D0012028C433
:1041100070BD036810B50400002B04D043688B42C7
:1041200001D3012010BD2000FFF7E7FF0028F9D0E0
:10413000A368002BF5D122681370F2E770B50E006A
:10414000110004001500FFF7E4FF002804D120004F
:10415000FFF7C7FF200070BDA5603100206801F0A7
:10416000E5FCF7E7002370B504000D000360436031
:104170008360994207D0080001F0E0FC29000200AA
:104180002000FFF7DBFF200070BD70B50500006860
:104190000C0000280FD0096800290AD06B68A268BB
:1041A000934206D301F0C2FCA368AB600023A36076
:1041B00070BD01F0DBFB23682B6063686B60A36854
:1041C000AB60002323606360F1E710B50B000400CF
:1041D000884205D00968002904D09A68FFF7AEFF2D
:1041E000200010BDFFF77DFFFAE7002310B50400A3
:1041F000036043608360FFF7E8FF200010BD10B547
:104200000400884201D0FFF7C0FF200010BDF8B5C0
:1042100004000F1E02D100263000F8BD0126002A3E
:10422000FAD08368D5182900FFF773FF0028F2D071
:104230002368A2683900981801F078FCA560EBE7C4
:104240001FB504000A220800694601F0B2FA684668
:1042500001F074FC694602002000FFF7D8FF04B0AB
:1042600010BD10B50400FFF7EBFF002802D12000BD
:10427000FFF737FF200010BD70B50D00002A06D0F3
:10428000002904D084689C4202D800230B7070BDC2
:10429000013AE41A944200D9140001682200C918B6
:1042A000280001F052FC00232B55F0E70020704756
:1042B00070B50F26CB1D013902003240D5B22C005B
:1042C00000093034092A00DD07341C70013B8B42A1
:1042D000F2D170BD10B50C000B4B1868FFF7E8FF6A
:1042E00021000A4B08311868FFF7E2FF2100084B54
:1042F00010311868FFF7DCFF2100064B18311868F1
:10430000FFF7D6FF202010BD0CA0800040A0800049
:1043100044A0800048A0800008B4024B9C4610389E
:1043200008BC6047D542000070473F20704713B576
:104330006B460268D9710733546819000122A047FF
:1043400016BD000070B50A260B7892B06E44023399
:1043500005000B703C220021300001F01AFB3948A7
:1043600001AC069038482421079006202077684643
:10437000364AA1742281364A364BA281FD3AFF3A71
:104380008018C177684623390630C1776846073000
:10439000C17702A8C1770720F27703260831694464
:1043A000C87703A9CE7710212B366E4431700926C9
:1043B00021851F3169440E700CA9053E0E70332112
:1043C0002380022369440B7006360DA90E70224922
:1043D0003536A1863B216E44307010A86274E277B6
:1043E00002703D3269446A440B7013704021002210
:1043F000E37023716371A37341336B442187197098
:104400005A702B7DC039A370A37263770133DBB27E
:10441000A3776A7D0B200D0068441543C5773120D2
:10442000684403703A23501C6B44187041230232D5
:104430000A436B441A7021004222084800F05CFFD6
:1044400012B070BD10010424020605240904000006
:1044500001020000080B000007050000FC0400201A
:1044600008B4024B9C46103808BC60474543000026
:1044700070B5027D0B790C0000259A420BD10B78A8
:104480004E78A12B09D1212E05D107221F492048A2
:1044900000F032FF0135280070BD212BFBD1202E0A
:1044A0002BD1072219491A4800F068FE174B1A78D9
:1044B0005978090211439A7812041143DA781206E6
:1044C0000A439621C9008A421DD1DB79DB071AD441
:1044D000FA20FFF707FA00210D4801F019F801252D
:1044E000232ED8D1E378A2781B021343094A002176
:1044F0000748136001F00CF8CDE7222EEFD18A783F
:10450000024BDA71D2E7FFF7F7F9E4E71000002079
:10451000FC0400200C00002008B4024B9C4610381C
:1045200008BC60477144000010B5417D006A01314C
:1045300000F05CFD034B1B6801335A1E93411818B1
:1045400010BDC0461800002010B5417D006A023140
:1045500000F062FD10BD10B5417D006A023100F02F
:1045600029FD10BD70B50D00417D0400130002311E
:104570002A00006A00F016FE002801D101236360C2
:1045800070BD000010B5054C23685A1C04D10368A7
:104590005B69984703002060180010BD18000020D8
:1045A000074A0300106810B5411C03D001235B4289
:1045B000136010BD597D186A013100F0A3FDF8E7C2
:1045C000180000207047002070470000FA239B006D
:1045D00010B583600F4B0022C38203002833836130
:1045E0000D4B04004260C26118004433236108305F
:1045F000631D21622060DA778323A362813BE3623B
:104600008033236300F0AEF82100103100F07EF813
:10461000200010BD0302000060660000022110B5FA
:10462000094B1A68437D5B01D318FF339C7A214301
:104630009972437D0133DBB25B01D3180122FF3352
:10464000997A0A439A7210BDB4090020704700009D
:1046500010B502490248FFF7B9FF10BDFC04002065
:104660009404002070B50E0000254468002C0BD087
:10467000236831005B6820009847002802DB2D1872
:10468000E468F3E701256D42280070BD70B50D00A8
:104690004468002C08D0236829009B6820009847B4
:1046A000002802D1E468F4E7200070BD70B50D0069
:1046B00000264468002C09D02368290020001B69CB
:1046C000984736182D18F6B2E468F3E730002C70DE
:1046D00070BD70B50D004468002C08D02368290017
:1046E0001B6820009847002802D1E468F4E7200006
:1046F00070BD70B50D004468002C06D02368200002
:10470000DB6829009847E468F6E770BDF0B58C795E
:10471000457803002A190020072A1FDC5A688242C4
:1047200016D159601A78C8790A7112184D711A7029
:1047300000220B4DD0B284420FD98F685878960072
:10474000F75986000130775101325870F2E70200C4
:10475000D0680028FBD1D160E4E70120F0BDC0465D
:10476000D40400200121064A10B5136805480B4007
:1047700004D18024640004804360116010BDC046F1
:10478000C8040020CC040020704710B50400FEF7D8
:10479000E3FF200010BD0000F0B5822919D1C3B29B
:1047A000294D5A01AA189169284C80010C40C0215A
:1047B00089052143916126490833401870215061D1
:1047C00028685B011A5C8A43110030220A431A549C
:1047D000F0BD0029FCD1C026C1B21B4C4B01E3182F
:1047E0009A681A4DB6052A4032439A60194A8001E8
:1047F00082185A600A000727246808325201115DA6
:10480000B9430F000121394311559F6910493D40BB
:1048100040182E439E6158617020115D814308004D
:1048200010210143115599680B48A21808408021B6
:104830004903014399609968890B89039960402372
:1048400011790B431371C3E7B4090020FFFFFF8FF9
:1048500028050020E8060020FF3F00F0EFF310835A
:1048600003600123436072B670470368002B02D1D6
:1048700062B6BFF36F8F7047F7B50600FC36B369B9
:104880000400002B18D1B2277F00C55D6846FFF7F2
:10489000E5FF019BEDB2013B02D3E55DEDB2FAE726
:1048A00068460193FFF7E1FF002D01D10020FEBD16
:1048B000706E336EC01AFAE76846FFF7CFFFD82252
:1048C0000025019B5200013B02D3A55CEDB2FAE743
:1048D00068460193FFF7C9FF002DE7D0D6235B00A0
:1048E000E058043BE358E5E710B54468FC30436901
:1048F0000B48DBB25A01A2189168083308408021A6
:1049000049030143916091685B01890B89039160C0
:104910002268D318402219790A431A7110BDC04683
:10492000FF3F00F0F7B50500FC356B694268DBB26C
:10493000190004000831106849014118C979C907F4
:1049400011D55B01D21893689B049B0C0CD12000FD
:10495000FFF7CAFF63681A686B69DBB208335B0153
:10496000D3187F22DA71F7BDE969002923D16B667C
:10497000230001266933FF33EE6168465360B22796
:10498000FFF76CFF7F00B221019BFF31013B5A1CF6
:1049900038D0D822E6555200A25C581ED2B26254DA
:1049A000625C8446002A04D120000193FFF79CFF3B
:1049B000E9E76346EBE7D621490063500023EB614A
:1049C00023001D33FF3353606846D826FFF746FFA8
:1049D00001277600B221019BFF31013B5A1C11D007
:1049E000B222A7555200A25C581ED2B26254625C39
:1049F0008446002A04D120000193FFF775FFE9E700
:104A00006346EBE768460193FFF72FFFA2E7F7B590
:104A1000060068463400FFF721FF0027FF22019BB4
:104A2000FC34013B0DD3E0682169884204DBE76870
:104A30002069D71B3F18F4E72769E1687F1A013F17
:104A4000EFE768460193FFF710FFA3696846002B64
:104A500052D1FFF703FFB221019B4900013B5A1CD1
:104A60000CD0755C5A1EEDB2002D05D1684601933D
:104A7000FFF7FBFE2800FEBD1300F0E76846019338
:104A80000025FFF7F2FEFF22236EBD4214D0616EB7
:104A9000994211D9591CF3182166FF33587FE368F6
:104AA00021690133C0B213408B4203D0E168711811
:104AB0000872E3600135E7E7626E9A42DAD10023BB
:104AC00023660133A3616846B224FFF7C7FE640082
:104AD000B2220021019BFF32013B581CC6D0315548
:104AE000B05C5F1E002805D0B15430000193FFF781
:104AF000FBFEEDE73B00F0E7FFF7B0FED821019B9E
:104B00004900013B5A1C06D0755C5A1EEDB2002DBF
:104B1000ACD01300F6E768460193FFF7A6FED62354
:104B2000D4225B0000259C465200B358BD4203D0FE
:104B300061467158994220D86246B2589A4299D13A
:104B4000D42200235200B3506846A361D824FFF753
:104B500085FE6400B2220021019BFF32013B581CFC
:104B600000D183E73155B05C5F1E002819D0B154E5
:104B700030000193FFF7B8FEECE7591CB150FF215C
:104B8000F3186933FF331878E368C0B201330B4080
:104B900021698B4203D0E16871180872E360013526
:104BA000C3E73B00DBE710B50400FFF730FF23004D
:104BB000FC331969DA68914203D01B69E418207A42
:104BC00010BD01204042FBE710B50400FC34FFF7A4
:104BD0001EFFE0682369C01A01D50130FF3010BD07
:104BE000F0B585B0019200910500FFF710FF02A813
:104BF000FFF734FE01200024FF26039B40425A1E8B
:104C0000531C1FD02B00FC3301998C4218D2D96859
:104C10001F69C91B01D50131FF31002910D0196965
:104C2000DF688C460100BC4506D019691F69691808
:104C300001373740097A1F61009F39550134E3E796
:104C4000013ADDE702A80392FFF70FFE200005B04E
:104C5000F0BD37B56B46DC1D00230D002370FFF758
:104C600081FD2100FFF7FEFC2B68181828602078D2
:104C70003EBD00002023F7B5474A0500D1690F204B
:104C80000B43D361012245490B7813430B70444B0E
:104C900019788143197006211C7821431970414904
:104CA0000C7822430A701A7802401A706022197830
:104CB0000A431A703C4B3D4A5A805F78FF09FCD189
:104CC0003B48FEF793FA01233A4C3B4E22683000F2
:104CD00011780B43137080223900520000F059FE06
:104CE00022689378DB07FCD456621F26334B1B687F
:104CF000590B980C9B01314030405B0FB14200D101
:104D000005211F2800D10238072B00D1043B314078
:104D10008901178D01912A4930400F40019939438B
:104D20001185118D0700B143080038431085118D9E
:104D30001803244B7F260B4003430C2013850823C4
:104D4000D17881430B430321D3702268D3788B43FE
:104D500001390B43D3702268137833401370042356
:104D600022681678334313702268C1241389A40083
:104D700083431548138103591B021B0A03518023E7
:104D80000360137811481943012311702B7000211F
:104D9000FFF75CFCF7BDC0460004004058440041EA
:104DA0003C44004159440041000C004006400000D2
:104DB00021570000B4090020B809002024608000B9
:104DC0003FF8FFFFFF8FFFFF00E100E094040020A9
:104DD0000078002810D00121084B1B681A898A43EB
:104DE0001A810822198B0A431A830422198B0A4359
:104DF0001A830022024B1A607047C046B409002093
:104E0000AC09002010B50F4A93699B0B9B0393617B
:104E100013680222FF331A729879823A02439A7118
:104E20001A7A9207FCD57F24074A2140937A08001A
:104E3000A3431900802301439172917A5B420B4393
:104E4000937210BDB40900200050004110B50C0051
:104E5000FFF788FC2100FFF73CFC002804D1034A3F
:104E600093699B0B9B03936110BDC046B40900205E
:104E7000F7B50D00832A19D1CBB2404C5A01A218C4
:104E800091693F48AD010840C02189050143916106
:104E90003C4920686D187021083355615B011A5C2C
:104EA0008A43110040220A431A54F7BD022A5FD1F7
:104EB000354B8A00D058002802D003685B699847B8
:104EC000DA204000FEF744FC802204002B4E2F4BDA
:104ED0004660036052000021083000F05AFD2200B5
:104EE000B2210023FC324900D3605561136113667F
:104EF0009361D3615366635444316350043163500A
:104F000004316354B221FF316354FF202B0003406E
:104F10005901019371188F68194BAD003B40C027B0
:104F2000BF051F438F600727019B366808335B016D
:104F3000995DB9430F000321394399552300516905
:104F4000666801401D334901FF3371184B60636887
:104F500052691B68024052019B1801221B18997A62
:104F600020000A439A72FFF7BFFC074BEC509CE706
:104F700011002800FFF710FC97E7C046B409002095
:104F8000FFFFFF8F2805002000050020C0660000FD
:104F900070B505000124064BA200D258002A06D0A5
:104FA000210028000134FFF763FF0A2CF3D170BD04
:104FB000D40400200B4BCAB20B488901C918530115
:104FC000C318596199690832890B8903996103688B
:104FD00052019A180223D3715179823B0B435371CA
:104FE0007047C04628050020B4090020084B8A00FD
:104FF000D05810B5002803D003689B68984710BDAF
:10500000C9B2044B4901591888688004800CF6E73E
:1050100000050020B409002010B50C00FFF7E6FFE2
:1050200000280CD0064BE4B21B68083464011C193C
:10503000802362795B42134363710223E37110BDE5
:10504000B4090020F0B51C002A4B85B01B6807008E
:105050000D000292002B4AD0274B8A00D05800281E
:1050600008D0036822005B6802999847040020007A
:1050700005B0F0BD3800FFF7B9FF844204D929001C
:105080003800FFF7B3FF04000121EBB21B4E03937E
:105090005B010193F21893689B0B9B039360019A49
:1050A000336802989B18FF335A7A0A435A72144B9A
:1050B000A901C918220000F063FC002CD7D02900F8
:1050C0003800FFF793FF0028D1D14021039B3268BD
:1050D00008335B01D3181879014319710121D97183
:1050E000019BD318FF339A7A0A439A72BFE70124CF
:1050F0006442BCE7AC09002000050020B409002090
:10510000E806002013B56B46DC1D22000123FFF7E3
:1051100099FF012801D1207816BD01204042FBE70C
:1051200070B5CBB2124A13485C0189018918021983
:1051300051609168104D08330D4080214903294387
:10514000402591609168890B8903916001685A013B
:105150008A1816793543157195796D06FCD55B0172
:10516000C918CB79DB07FCD500198068C0B270BDC7
:10517000E8060020B4090020FF3F00F070B50D00E4
:1051800000211400FFF7CCFFA04200D9200000232B
:105190000349A34203D0CA5CEA540133F9E770BD66
:1051A000E8060020F0B51E003A4B85B01B680F00E2
:1051B0000192002B35D08023DB019E4231D800259F
:1051C000354B8A01D3180293002E2CD0334B1B6829
:1051D0000393FF233B401C0000930834039B6401AE
:1051E0001C19A379DB0921D02D4B2E49186800F03A
:1051F000F5FA2D4B1721584300F0F0FA2B4BE279CA
:10520000920713D4DA5D002A01D10138F7D20122C6
:10521000DA55009B5A01214B9B189A69920B920315
:105220009A6101256D42280005B0F0BD00221F4B98
:105230003400DA553F2E09D9009B40245A01174B00
:105240009B188022996912060A439A6122000199EB
:10525000029800F095FB009BA1045A010F4B890CAA
:105260009B18029A2D195A619A69361B920B920368
:105270000A439A61009B039A08335B01D318022208
:10528000DA715979823A0A435A71019B1B190193C9
:105290009AE7C046AC09002028050020B409002088
:1052A0000400002040420F00701101001D05002085
:1052B00070B50D001C000D4BAE01F618110030004A
:1052C000220000F05DFBEDB209496D014D196E61E0
:1052D000AB69084A20001340AB61AB69A2049B0B89
:1052E000920C9B031343AB6170BDC04628050020A0
:1052F000B4090020FF3F00F0F7B5104B01901B7878
:105300000F001500002B0CD10D4B16001C78002C43
:1053100009D00C4E0C4834882018641900F030FB7A
:1053200034802800FEBD002EFBD03A193300002146
:105330000198FFF7BDFF2418361AF4E7A8080020EB
:10534000A9090020AA090020A9080020F8B50F002B
:1053500016000024012A26D9100000F0FDFA0500ED
:10536000380000F0EBFB03230222013040002870DC
:105370006B7096420DD9397800290AD0531CDBB2E4
:105380000137A9549E4203D00232EC54D2B2F0E766
:10539000320029000548FFF7AFFF441EA041C4B208
:1053A000280000F0E3FA2000F8BDC046FC0400200D
:1053B000F0B50024012685B0184B0F0069461E7019
:1053C00005000094FFF745FC154B01A90B806A3BD3
:1053D000FF3BCB715A330B72009B8C7109334B80AE
:1053E0000E4B4E7108711C703A00092F0FD00D4FF3
:1053F00009223E700C4E280000943480FFF77CFF99
:1054000069462800FFF725FC328808493C702800CF
:10541000FFF772FF012005B0F0BDC046A8080020CC
:1054200009020000A9090020AA090020A9080020FB
:1054300070B5CE7892B005000C00022E0BD18B799E
:10544000C9792E4809021943FFF7B2FF411E88416E
:10545000C0B212B070BDFFF785F92100FFF716F951
:10546000002803D0C117081AC00FF2E7012E0ED191
:10547000E279A37912021A432149112A3CD8D2B207
:10548000002A39D02800FFF737FF0120E1E7032E7B
:10549000DFD1A378002B28D0022B08D1E279A379A1
:1054A000120218491A432800FFF750FFD1E7012BD9
:1054B00005D1E279A37912021A431349F3E7032BCA
:1054C000C7D10100412201A800F063FAFFF74AF9B1
:1054D00001A9FFF7EBF8002805D0E279A3791202C1
:1054E0001A4301A9DFE70378FFDEE279A37912020C
:1054F0001A430649032AC2D90A78C3E7FC040020EC
:10550000FC660000DC660000F0660000EC6600004F
:10551000CBB204495B01C9188B699B0B9B038B6160
:105520007047C046B409002037B5050048780C0024
:105530000B2810D800F048F9061B0F2B0F404561CF
:10554000494C5A5D097801AA002906D1022311802D
:105550002800FFF7ADFE01203EBD00231380284B3D
:105560001B78012B00D1137002230021F0E78A7809
:105570000023012A03D101AA1380224BF0E7204A1D
:105580001370214A93699B0B9B039361E3E78C782B
:10559000012C06D100211B4B01AA1C7011702300A5
:1055A000D6E70120002CD7D1154B174A1870936904
:1055B0009B0B9B039361CFE789782800FFF722FCC0
:1055C000C9E72800FFF734FFC6E701230F4ACCE7FD
:1055D0000B780020DB06BFD12800FFF7D9FCA278AA
:1055E0000A4B0B481A60FFF719F8CAE70123094A6A
:1055F000BBE78A78074B1A60C3E70020ACE7C046D8
:105600001C05002024050020B4090020AC0900205E
:1056100094040020B00900203B4BF7B51E7805002C
:10562000002E5FD1394C23689A8B12070DD50822C2
:1056300031009A833000FFF7AFF810222368FF3360
:10564000997A0A439A72324B1E6023689A8B5207EA
:1056500001D504229A83FF331A7A920603D52022B9
:10566000597A0A435A721A7AD20623D56946080033
:10567000284AC0CAC0C0A268920B9203A26040220E
:10568000587902435A7160230A7828001A422AD1B5
:10569000FFF74AFF2368FF33002827D0802299793B
:1056A00052420A439A711A7A520603D54022597A15
:1056B0000A435A727F2601252368FF331E722F008A
:1056C000236808377F01DB19DB79002B07D0124BE9
:1056D000AA00D05800280DD003681B6898470135F0
:1056E000082DECD1F7BDFFF7B1FBD3E720210B4A22
:1056F0009171D8E7FFF736F82900FEF7FAFF236823
:10570000DF19FE71EBE7C046A9090020B4090020AB
:10571000AC090020E806002000050020FF500041F1
:1057200010B50248FFF778FF10BDC046FC0400200A
:10573000014B024A1A607047B40900200050004132
:10574000F0B50C008BB01600002926D0931E222B3A
:105750002DD80A2A05D1002803DA0127404201ADDD
:105760000AE00027FBE7310000F0BEF8CBB20929C0
:1057700016D830332B7001352A000028F3D101AB45
:10578000AB42F0D02300002F02D02D21631C2170EA
:1057900001A98A4206D800221A7020000BB0F0BD81
:1057A0005733E7E7013A117819700133F0E7002425
:1057B000F3E710B5FFF7C4FF10BD0B0010B50100F3
:1057C000180000F097F810BD02B47146490849006E
:1057D000095C49008E4402BC7047C0460022430861
:1057E0008B4274D303098B425FD3030A8B4244D3A9
:1057F000030B8B4228D3030C8B420DD3FF220902EB
:1058000012BA030C8B4202D31212090265D0030BA9
:105810008B4219D300E0090AC30B8B4201D3CB039F
:10582000C01A5241830B8B4201D38B03C01A5241E1
:10583000430B8B4201D34B03C01A5241030B8B42E3
:1058400001D30B03C01A5241C30A8B4201D3CB02CE
:10585000C01A5241830A8B4201D38B02C01A5241B3
:10586000430A8B4201D34B02C01A5241030A8B42B6
:1058700001D30B02C01A5241CDD2C3098B4201D3CE
:10588000CB01C01A524183098B4201D38B01C01A4C
:10589000524143098B4201D34B01C01A52410309C3
:1058A0008B4201D30B01C01A5241C3088B4201D372
:1058B000CB00C01A524183088B4201D38B00C01A1F
:1058C000524143088B4201D34B00C01A5241411A46
:1058D00000D20146524110467047FFE701B5002053
:1058E00000F006F802BDC0460029F7D076E7704701
:1058F0007047C04610B5040004481300002804D0C7
:105900000A000220210000E000BF10BD00000000DE
:1059100070B500260C4D0D4C641BA410A64209D195
:10592000002600F065F90A4D0A4C641BA410A6423B
:1059300005D170BDB300EB5898470136EEE7B300D0
:10594000EB5898470136F2E78000002080000020E5
:1059500080000020A000002010B5034B0100186853
:1059600000F06AF810BDC0461C00002010B5034BC3
:105970000100186800F016F810BDC0461C00002099
:10598000002310B59A4200D110BDCC5CC454013341
:10599000F8E703001218934200D1704719700133E1
:1059A000F9E7000070B50500002910D00C1F23682E
:1059B000002B00DAE418280000F0DBF81D4A136819
:1059C000002B05D163601460280000F0D3F870BD8F
:1059D000A34209D9216860188342F3D118685B6833
:1059E00041182160EEE713005A68002A01D0A24254
:1059F000F9D919685818A0420BD12068091858180D
:105A000019608242E0D110685268411819605A60EA
:105A1000DAE7A04202D90C232B60D5E72168601891
:105A2000824203D1106852684118216062605C6054
:105A3000CAE7C046B80A0020032370B5CD1C9D43B9
:105A4000083506000C2D1ED20C25A9421DD83000A9
:105A500000F08FF8254A14682100002919D1244C40
:105A60002368002B03D1300000F04EF8206029009D
:105A7000300000F049F8431C2BD10C233000336078
:105A800000F078F803E0002DDFDA0C23336000200B
:105A900070BD0B685B1B19D40B2B03D90B60CC18A2
:105AA000256003E04B688C420DD11360300000F09C
:105AB00061F8200007220B30231D9043C31AE7D062
:105AC0005A42E250E4E763600C00EFE70C004968DB
:105AD000C3E70323C41C9C43A042E1D0211A300039
:105AE00000F012F8431CDBD1C7E7C046B80A00201B
:105AF000BC0A002010B5034B0A000100186800F032
:105B00003AF810BD1C000020002370B5064C0500BB
:105B10000800236000F05EF8431C03D12368002BCB
:105B200000D02B6070BDC046C40A002003000A7874
:105B300001311A700133002AF9D170470023C25C89
:105B40000133002AFBD1581E704730B50500002AEA
:105B500000D130BD0C78013A6B1C2C700131002C47
:105B600005D19A189A42F4D01C700133FAE71D004F
:105B7000EDE770477047F8B507000D0016000029E3
:105B800005D11100FFF758FF04002000F8BD002ADE
:105B900003D1FFF707FF3400F7E700F012F82C00FD
:105BA000B042F2D231003800FFF746FF041EECD0BD
:105BB00029003200FFF7E4FE29003800FFF7F2FE6B
:105BC000E3E70B1F1B68181F002B01DA0B58C018E6
:105BD00070470000044A1368002B00D1034B1818CB
:105BE000106018007047C046C00A0020C80A002094
:105BF000F8B5C046F8BC08BC9E467047F8B5C0462C
:105C0000F8BC08BC9E4670475468697320697320CD
:105C100061207465737420537472696E6721004645
:105C20006C61736820626567696E7321004164640A
:105C300072657373203D200044617461207772693E
:105C4000746520007375636365737366756C0066B5
:105C500061696C656400416464726573732000203F
:105C60003A200046756E6374696F6E2065786563CF
:105C700075746564207375636365737366756C6CA6
:105C80007900436865636B20796F7572207769725C
:105C9000696E672E20466C617368206368697020A6
:105CA0006973206E6F6E2D726573706F6E73697697
:105CB000652E002A636F6E7374727563746F725F02
:105CC0006F665F63686F6963652A2E626567696ED8
:105CD000282920776173206E6F742063616C6C6576
:105CE0006420696E20766F6964207365747570280E
:105CF0002900556E61626C6520746F206964656E61
:105D00007469667920636869702E20417265207914
:105D10006F75207375726520746869732063686994
:105D20007020697320737570706F727465643F00C2
:105D3000556E61626C6520746F206964656E74696C
:105D400066792063617061636974792E20497320DC
:105D5000746869732063686970206F666669636937
:105D6000616C6C7920737570706F727465643F201C
:105D70004966206E6F742C20706C656173652064B9
:105D80006566696E65206120604341504143495416
:105D9000596020636F6E7374616E7420616E64204D
:105DA000696E636C75646520697420696E20666C29
:105DB0006173682E626567696E28434150414349AB
:105DC0005459292E004368697020697320627573E5
:105DD000792E004D616B65207375726520616C6C66
:105DE0002070696E732068617665206265656E203B
:105DF000636F6E6E65637465642070726F70657238
:105E00006C790050616765206F766572666C6F779C
:105E100020686173206265656E2064697361626CDD
:105E2000656420616E6420746865206164647265D5
:105E300073732063616C6C65642065786365656469
:105E40007320746865206D656D6F727900556E61A1
:105E5000626C6520746F20456E61626C65205772BC
:105E60006974696E6720746F20636869702E0050D2
:105E70006C65617365206D616B652073757265205B
:105E800074686520484F4C44202620575249544599
:105E900050524F544543542070696E7320617265AF
:105EA0002070756C6C656420757020746F2056438B
:105EB00043005468697320736563746F7220616C6A
:105EC000726561647920636F6E7461696E732064BA
:105ED0006174612E00506C65617365206D616B6546
:105EE00020737572652074686520736563746F72C2
:105EF00073206265696E67207772697474656E20BD
:105F0000746F20617265206572617365642E00593B
:105F10006F75206172652072756E6E696E67206C98
:105F20006F77206F6E205352414D2E20506C65616B
:105F30007365206F7074696D69736520796F757210
:105F40002070726F6772616D20666F722062657477
:105F50007465722052414D20757361676500546805
:105F600069732066756E6374696F6E206973206E45
:105F70006F7420737570706F72746564206279201D
:105F800074686520666C617368206D656D6F7279E9
:105F90002068617264776172652E00556E61626C73
:105FA0006520746F2073757370656E642F726573EE
:105FB000756D65206F7065726174696F6E2E005724
:105FC000726974652046756E6374696F6E206861CE
:105FD00073206661696C6564206572726F726368B4
:105FE00065636B2E00556E61626C6520746F206571
:105FF0006E61626C6520342D627974652061646421
:1060000072657373696E672E00556E61626C6520F0
:10601000746F2064697361626C6520342D627974D9
:10602000652061646472657373696E672E005468DD
:106030006520636869702069732063757272656E8C
:10604000746C7920706F776572656420646F776E09
:106050002E0054686520466C61736820636869701F
:1060600020646F6573206E6F7420737570706F722B
:106070007420534644502E00556E61626C65207446
:106080006F20726561642045726173652050617292
:10609000616D65746572732066726F6D20636869E7
:1060A000702E20526576657274696E6720746F2059
:1060B0006C6962726172792064656661756C747373
:1060C0002E00556E61626C6520746F20726561648C
:1060D0002065726173652074696D65732066726FE7
:1060E0006D20666C617368206D656D6F72792E200E
:1060F000526576657274696E6720746F206C696290
:10610000726172792064656661756C74732E0055D6
:106110006E61626C6520746F2072656164207072BC
:106120006F6772616D2074696D65732066726F6D43
:1061300020666C617368206D656D6F72792E2052D8
:106140006576657274696E6720746F206C6962721F
:106150006172792064656661756C74732E004E6F90
:1061600020436869702053656C6563742070696EA4
:1061700020646566696E656420696E2074686520B8
:10618000637573746F6D2053504920417272617949
:106190002E00556E6B6E6F776E206572726F720097
:1061A0004966207468697320646F6573206E6F742C
:1061B0002068656C70207265736F6C76652F636CF8
:1061C0006172696679207468697320697373756593
:1061D0002C2000706C6561736520726169736520A5
:1061E000616E2069737375652061742068747470C2
:1061F0003A2F2F7777772E6769746875622E636FF1
:106200006D2F4D61727A6F67682F5350494D656DE0
:106210006F72792F6973737565732077697468205D
:106220007468652064657461696C73206F6620779B
:1062300068617420796F7572207765726520646F6C
:10624000696E67207768656E20746869732065726F
:10625000726F72206F636375727265640000000074
:10626000101112131415161718194142434B00014F
:1062700013370000000001000000020000000400CD
:106280000000080000001000000020000000400096
:10629000000080000000000100000002000020005B
:1062A00000004000000080000000800000000400AA
:1062B000000008000000400000000800EFBF011FC0
:1062C0002062C837C23020260000000016000000FF
:1062D000080000001C000000FF000004000406008D
:1062E0000000000017000000080000001C00000073
:1062F000FF00010401040700000000000A00000084
:10630000080000001C000000120000010001FF0056
:10631000000000000B000000080000001C0000004E
:10632000130001010101FF00010000000A0000004C
:10633000080000001C000000FF00000500050A0026
:10634000010000000B000000080000001C0000001D
:10635000FF00010501050B00000000001400000013
:10636000080000002C000000FF00020002000400F2
:106370000000000015000000080000002C000000D4
:10638000FF000300030005000000000010000000F3
:10639000020000001C000000FF00000200020000DC
:1063A00000000000110000000200000004000000D6
:1063B000FF00FFFFFFFF01000000000013000000CE
:1063C000020000001C000000FF0001030103FF00A9
:1063D0000000000008000000030000001C00000096
:1063E0001000000000001000000000000900000084
:1063F00003000000040000001100FFFFFFFFFF008A
:10640000010000001700000003000000040000006D
:10641000FF00FFFFFFFFFF0001000000160000006B
:106420000300000004000000FF00FFFFFFFFFF006B
:106430000000000002000000010000000600000053
:106440000000FFFFFFFFFF0001000000020000004E
:1064500001000000040000000A00FFFFFFFF02002F
:106460000100000003000000010000000400000023
:106470000B00FFFFFFFF030000000000040000000E
:10648000010000001C000000040000000000FF00EC
:106490000000000005000000010000001C000000DA
:1064A000050001000100FF000000000006000000E0
:1064B00001000000040000000600FFFFFFFFFF00D6
:1064C00000000000070000000100000004000000C0
:1064D0000700FFFFFFFFFF000000000018000000A2
:1064E0000600000000000000FF00FFFFFFFFFF00AC
:1064F000000000001900000006000000000000007D
:10650000FF00FFFFFFFFFF0000000000120000007F
:106510000800000004000000FF00FFFFFFFFFF0075
:10652000000000000300000008000000040000005C
:10653000FF00FFFFFFFFFF00000000000C00000055
:106540000300000000000000FF00FFFFFFFFFF004E
:10655000000000000D00000003000000000000002B
:10656000FF00FFFFFFFFFF00000000000E00000023
:106570000800000000000000FF00FFFFFFFFFF0019
:10658000000000000F0000000300000000000000F9
:10659000FF00FFFFFFFFFF00000000001B000000E6
:1065A0000800000000000000FF00FFFFFFFFFF00E9
:1065B000000000001C0000000800000000000000B7
:1065C000FF00FFFFFFFFFF000100000008000000C8
:1065D0000800000000000000FF00FFFFFFFFFF00B9
:1065E0000100000009000000080000000000000099
:1065F000FF00FFFFFFFF0900000000000000000097
:106600000800000000000000FF00FFFFFFFFFF0088
:106610000000000001000000080000000000000071
:10662000FF00FFFFFFFFFF000D0A00000000000059
:1066300000000000D13F000061370000F73E00007D
:10664000B33E0000CD3E000085400000953C0000B8
:10665000853C0000193D0000AF3C00007F3C00007D
:1066600000000000000000002F430000654500000E
:106670002B4300004945000029450000A1450000CA
:10668000854500005745000045430000AD4200002D
:1066900071440000D542000029430000F0FFFFFFD5
:1066A000000000001945000061440000C7450000DB
:1066B000C545000019430000000000000000000074
:1066C00025490000E14B0000C94B0000A74B00002A
:1066D000894700008B4700007948000041726475CB
:1066E000696E6F204D4B5231303030000403090485
:1066F00041726475696E6F204C4C430012010002B8
:10670000EF02014041234E8000010102030100001D
:106710000000000000000000000000000000000079
:106720000000000000000000000000000000000069
:106730000000000000000000000000000000000059
:106740000000000000000000000000000000000049
:106750000000000000000000000000000000000039
:106760000000000000000000000000000000000029
:046770000000000025
:106774000000000040420F00FFFFFFFFFFFFFFFF8C
:1067840000C2010000000800FFFFFFFF20000020FE
:106794000000000030670000506700001067000030
:1067A40000000000000000000000000000000000E5
:1067B40000000000000000000000000000000000D5
:1067C40000000000000000000000000000000000C5
:1067D40000000000000000000000000000000000B5
:1067E40000000000000000000000000000000000A5
:1067F400DD200000E9220000792400002D2600009D
:10680400C5300000F130000051460000315700004F
:10681400B52000000000000000000000000000009F
:04000003000031893F
:00000001FF
