:102000000080002009370000F1360000F1360000A2
:1020100000000000000000000000000000000000C0
:10202000000000000000000000000000F136000089
:102030000000000000000000F13600005D370000E5
:10204000F1360000F1360000F1360000F1360000F4
:10205000F1360000F1360000F1360000F5360000E0
:10206000F1360000F1360000F1360000F1360000D4
:10207000F1360000F136000061360000F136000054
:10208000F1360000F1360000F1360000F1360000B4
:1020900000000000F1360000F1360000F1360000CB
:1020A000F1360000F1360000F1360000F136000094
:1020B0000000000010B5064C2378002B07D1054B1B
:1020C000002B02D0044800E000BF0123237010BDA4
:1020D000100200200000000008C80000044B10B5EA
:1020E000002B03D00349044800E000BF10BDC046E8
:1020F000000000001402002008C8000010B5040011
:102100006068002804D04368636001F0E9FDF7E7E8
:10211000200010BD10B50400FA20800001F05CFB27
:102120000021200000F078FD0649200000F0A6FD07
:10213000002806D1200000F055FF0349034801F0B4
:102140002DFE10BDF8CA00005FB900000406002093
:10215000F0B589B00EAB0E00170006CB1B780091CE
:102160000192144904000393002502F08BFBBD4249
:102170001CDA210005A802F0D4FB00980199EB00BD
:10218000F3181A685B6805F067F802000B0005A8F1
:1021900002F043FC039902F02AFC0100200002F047
:1021A000B0FB05A802F024FB0135E0E7200009B0F0
:1021B000F0BDC04692C30000F0B587B000930CABF1
:1021C0001B780E001149040017000193002502F04E
:1021D00059FBBD4216DA210003A802F0A2FBAB00B6
:1021E000F158009B03A8594302F00CFC019902F03E
:1021F000FEFB0100200002F084FB03A802F0F8FAC5
:102200000135E6E7200007B0F0BDC04692C30000EC
:10221000F0B50500002489B00EAB0091019206CB09
:10222000029103921F78019B9C4223DA3900280017
:1022300002F027FC00220300290005A802F026FC7A
:1022400005A802F06AFC009BE6009E19029A039B17
:1022500004F0F8FB306071603900280002F011FCD6
:102260000021421C280002F035FC05A802F0C0FA4B
:102270000134D8E709B0F0BDF0B50500170000241F
:1022800087B001930CAB1E780091BC4220DA31007C
:10229000280002F0F6FB00220300290003A802F048
:1022A000F5FB03A802F030FC019903F0DDFE009B72
:1022B000A20098503100280002F0E3FB0021421CEC
:1022C000280002F007FC03A802F092FA0134DCE7D0
:1022D00007B0F0BD704770B5066804000D00082017
:1022E000002E09D101F0F4FC466005606060A0603A
:1022F00023680133236070BD01F0EAFC0023A2686B
:1023000043600560506023616368A060E360EFE7AD
:1023100070B50C0088B01E000CAB050003CB1B7819
:10232000009001910293210005A8FFF711FF0C21F5
:10233000280000F0A3FC01230400010005AA2800E6
:1023400000F022FD0028F2D021003000FFF7C3FF8B
:1023500005A802F04DFA08B070BD70B586B0050052
:102360000AA81E0008C80078009003A8FFF724FF01
:102370000C21280000F082FC01230400010003AAC4
:10238000280000F001FD0028F2D021003000FFF706
:10239000A2FF03A802F02CFA06B070BD03698B42BD
:1023A00003DD002303614368C36003698B4208DADD
:1023B0000268934205DAC268013352680361C26061
:1023C000F3E7704770B504002168002917DD012983
:1023D0000ED002392000FFF7E1FFE568686801F0E0
:1023E0007FFC00236B602368A560013B2360EBE763
:1023F000606801F075FC00236360A360F6E770BDC0
:10240000F0B58BB01E0010AB1B78119C03932368B2
:10241000070002911500002B23D0129A9A4220DA6D
:10242000114904A802F02EFA12992000FFF7B6FF16
:10243000E168002304AA0968380000F043FC04A9FD
:1024400007A802F06EFA039B2A000093029933005A
:1024500007A8FFF711FF07A802F0CAF904A802F0C5
:10246000C7F90BB0F0BDC04692C30000F0B58FB005
:1024700014AB0D00160006CB179C1B7807000793C2
:10248000236804910592002B26D0189A9A4223DAE9
:10249000124908A802F0F6F920001899FFF77EFF0C
:1024A000E168002308AA0968380000F00BFC08A9BD
:1024B0000BA802F036FA079B320002932900049B16
:1024C000059C0BA800930194FFF7A2FE0BA802F055
:1024D0008FF908A802F08CF90FB0F0BD92C300008C
:1024E000F0B5C7B006AFB148FFF714FEB049B14828
:1024F00002F0EEFCFA20800001F06EF91823F818C3
:10250000C0184022AC4905F0A5FDAC48FFF75AFFC2
:1025100000237B61A74CAA49200001F019FC0A2284
:102520007969200001F087FCA649200001F010FC29
:1025300006F0BAFA052103F007FF481C05F098FCE5
:10254000A14B002204F07EFA1823B860F960F91854
:10255000CD184033CE18286869689C4A9C4B04F01B
:102560007BFEBA68FB6803F051FF02000B000521F7
:10257000904C0CC52000009101F03AFD2C21200068
:1025800001F0EAFB9349200001F0E2FBB542E2D101
:10259000200001F0E7FB18212C230024874E8E4DEC
:1025A00078180293411833000094019508227F485F
:1025B000FFF7AEFE33683C607D60142B54D16B4650
:1025C0005020BB6001F088FB0023726834689C4295
:1025D00005DD15689900455052680133F7E796B05C
:1025E00006AC00222300210004C3503104C39942E9
:1025F000FCD10023C258E2500433502BFAD11825E5
:1026000098202C267D192D18280000964F3B142267
:102610002100FFF7D1FD18239820664DFA181118F4
:10262000280001F0B1FB6D49280001F091FB0A225E
:102630000C21280001F019FC6949280001F0AEFBCB
:102640000123142200932100664B01965748FFF79F
:1026500084FE5A48FFF7B6FE18239820FB18181876
:1026600002F0C6F8BB689D467B6901337B612D2B68
:1026700000D04FE700265B4C23689E4200DB8EE0D3
:1026800059494C4801F064FB0A222168494801F08D
:10269000D6FB5649474801F05BFB0A22310045480A
:1026A00001F0CDFB5249434801F052FB0A223100B0
:1026B000404801F0C0FB43493E4801F049FB20007F
:1026C0003100FFF76BFEE36810221968394801F00A
:1026D000D0FB18229823BA18D518002150222800C0
:1026E00005F0D4FC2C230194009330482B3B029638
:1026F00014222900FFF784FE1C230024F818FC6133
:102700003C627C62FFF75EFEA300E9581C230134A3
:10271000F818FFF7E0FD142CF6D100241C23F8185C
:10272000FB699C4237DA2C2303900494029318210E
:102730003A687B680092019358237918C9180822D7
:102740001A48FFF793FE1B4D2A49280001F000FBB1
:102750000A222100280001F06EFB2800194901F02F
:10276000F7FA00251821582279188A180521EB005C
:10277000D3181A685B680F48009101F039FC0135E5
:102780001D490C4801F0E4FA082DEBD1094801F08D
:10279000E9FA0134C2E7FFF7B1FC01366BE71749EC
:1027A000044801F0FBFABD4641B0F0BD38020020FC
:1027B00040420F000406002008B90000500300202A
:1027C00072B9000091B90000000024409A999999CB
:1027D0009999B93FF8C7000000408F4086B90000C2
:1027E00095B900003C0300209CB90000A2B900008C
:1027F000A8B90000B1B900002DBF0000BBB90000AE
:1028000070B50024104D114E11482A0031000460AB
:102810004460846003F016FC0E482A003100046016
:102820004460846003F00EFC0B4A21000B4800F06A
:10283000A1F90B4C0B49200002F024F82A000A49A8
:10284000200003F0FFFB70BD00000020FD20000011
:10285000500300203C0300206403002038020020C5
:102860002C02002048B90000F1470000037D002B36
:1028700004D14375837583610133037570477FB558
:10288000C36802AD04000E0002916A608B4203D15E
:10289000028AAB889A4218D02000062229000C3008
:1028A00005F0D8FB206801F0B4FC6B79227AE1795D
:1028B00000932068002301F04DFD20682979320043
:1028C00001F078FC206801F09AFC7FBD70B51826F5
:1028D0000400FFF7CBFF3300082120790D4D43435F
:1028E000EB18595601F072F933000821A0794343DF
:1028F000EB18595601F06AF9082160794643AD1981
:10290000695601F063F9044B200006CBFFF7B7FFCF
:1029100070BDC04624C000009C03002007B5437D65
:1029200000910192002B07D09A070AD5EFF310838C
:102930005A425341837572B60099019AFFF79FFF7F
:1029400007BDDB07F8D58369014A9BB29360F3E7C3
:1029500000180040437D002B05D09A0704D5837DE5
:10296000002B00D062B67047DB07FCD58369024AB2
:102970009BB2D360F7E7C0460018004010B500686E
:1029800001F050FC10BD70B506000C008D18AC4273
:1029900006D021783000FFF7F1FF20700134F6E710
:1029A00070BD0000104A114B114913600023537190
:1029B0001371104A104811601049D36091800921A9
:1029C00091710639537413741375D37111720C4AD3
:1029D00010600C48D36090801B20537413741375DF
:1029E0009071D371117270479C03002000093D0063
:1029F000E805002064030020F40500200A08000018
:102A0000800300201D1A00007047000010B5054C1F
:102A10000549200001F091F90449200001F0AAF9CC
:102A200010BDC04604060020FDBE000030BF0000FF
:102A300070B506000D003170002A14D02C4C1429FA
:102A40004CD8080003F006FB0B181A1C1E24262C79
:102A500032363810343A3C3E40424446480025491C
:102A6000200001F087F970BD2349200001F082F9B0
:102A70003000FFF7CBFFF6E72049F1E72049F4E704
:102A80002049EDE72049200001F074F91F49E7E7EC
:102A90001F49E5E71F49200001F06CF91E49E4E7F2
:102AA0001E49200001F066F91D49D9E71D49D7E705
:102AB0001D49D5E71D49D3E71D49D6E71D49CFE795
:102AC0001D49CDE71D49CBE71D49C9E71D49C7E7AA
:102AD0001D49C5E71D49C3E71D49C1E71D49200040
:102AE00001F048F904239D43022DC1D0BBE7C04645
:102AF00004060020C0B90000DFB9000010BA0000D1
:102B00004FBA00008DBA000022BB000030BB0000AD
:102B100060BB0000AABB0000CCBB00000FBC0000E3
:102B200032BC00006CBC0000BBBC0000F8BC000064
:102B30001CBD000042BD000066BD00008BBD000052
:102B4000AFBD0000D5BD00001FBE00006CBE000080
:102B5000BBBE0000EFBE000010B5034A03490448A5
:102B600003F070FA10BDC04600000020092A0000E2
:102B7000A4030020F8B5254B1600FF2203600023B4
:102B80000D00522142748274C2740275421C43715A
:102B90000371037243778377C377D3772A32117037
:102BA0000531517000220400194F8367C367026327
:102BB000390012229C3005F04DFA200039004822DD
:102BC0001431B03005F046FA2000390009225C319A
:102BD000F83005F03FFA3900A01C6531FF300322C0
:102BE00005F038FA0B4BE6609E420CD10A23280010
:102BF00063752574012100F071FF207C012100F034
:102C0000B9FF2000F8BD0B23F1E7C04600093D00E5
:102C1000BCBF00006403002070B5437D04000D00BC
:102C20000B2B02D0C068FFF751FE237A002B07D18F
:102C30001B226270643A2370A270E3702371637187
:102C40002900200000F054FC0500200000F010FBDB
:102C500000232000A37700F005FC280070BD0000D1
:102C600010B5054C2378002904D01900012200F08A
:102C7000DFFC2378180010BDA403002070B50A0003
:102C80000D00416F040000F0DDF90126002801D19C
:102C9000002070BD2A00616F200000F04FFA031E73
:102CA000606F0CD1E36B28186067A0679842F1D37E
:102CB000631CDA7F002AEBD16267DE77EAE72D1822
:102CC0006567E6E7F0B589B000AFB9603A607B6050
:102CD0000A0000230321040000F02EFB002804D189
:102CE00000263000BD4609B0F0BD7B680B21002BEB
:102CF00000D103210026200000F0F0F93500230068
:102D00002B3319780022200000F03CFAB04008363E
:102D10000543202EF3D1200000F0AAFA6A46EB1DED
:102D2000DB08DB00B968D31A9D4604312A00200075
:102D3000FB6000F087F90028D2D01249200000F093
:102D4000B7FA061ECCD07B680B21002B00D10321E3
:102D5000200000F0C3F92B00FA680321200000F0E6
:102D600017FA2000142400F083FAF968381901F0EA
:102D700089FD3919386801F0DEFD381901F038FD98
:102D8000AFE7C04600CA9A3BF0B58BB09668050025
:102D900010006A4600AFBB60731C7B620733DB0820
:102DA000DB00D31A9D467B61721C00230C00694630
:102DB00001F03EFE280000F06DFA3862002802D0D3
:102DC00000233B6276E004222100280000F03AF95B
:102DD0000028F5D0721D2100280000F0AFF900286E
:102DE000EED07F49280000F063FA0028E8D00121E6
:102DF000280000F083FA0028E2D00221280000F029
:102E00006DF93E6A7A6A2B00F2402C33FB61D2B234
:102E100019782800083600F0B5F9202EF2D10121EA
:102E2000287C00F0A7FE280000F022FA231D7A6A11
:102E3000190028003B6100F005F90028C0D068495E
:102E4000280000F035FA0028BAD00121280000F04F
:102E500055FA38620028B3D08023E4B25B001C1B13
:102E60007A6AA4B2944229D3287C002100F082FE21
:102E7000FB6902221978280000F084F9280000F08C
:102E800005F900247B6A9C420AD27B6928001A5DFE
:102E90002B002C331978013400F074F9A4B2F1E757
:102EA000287C012100F066FEBB68002B52D128006F
:102EB00000F0DEF9BD46386A0BB0F0BDBA8C7B601D
:102EC000FA610022BA61FB69BE8BA34200D9261CBD
:102ED000287C002100F04EFE2B002C3319780222B2
:102EE000280000F04FF9280000F0D0F87B69BA699B
:102EF000B6B29C18A319FB60FB68A34208D02B0054
:102F00002C3322781978280000F03CF90134F3E7DB
:102F1000287C012100F02EFEAB6F31499B19AB6775
:102F2000BB6928009B199BB2BB61FB699E1BB3B2B6
:102F3000FB6100F0BDF9002800D141E70121280024
:102F400000F0DCF9002800D13AE7FB697C68002B2F
:102F5000B9D1A9E76B4622492800FB6100F0A8F926
:102F60003862002838D06A463B69287CAB677B6AA8
:102F700000210733DB08DB00D31A9D4600F0FAFD81
:102F80002B002C3319780322280000F0FBF82800CE
:102F90006E4600F07BF800247B6A9C420AD22B002C
:102FA0002B3319780022280000F0ECF8305501345A
:102FB000E4B2F1E7280000F05BF900237A6A93425B
:102FC00007D27A69F15CD25C914205D10133DBB260
:102FD000F4E7FB699D466DE7FB699D46F0E6C04658
:102FE00000CA9A3B70B5040000F054F9002802D0E2
:102FF0000025280070BD0F49200000F059F9002875
:10300000F6D00121200000F079F9051EF0D0230050
:1030100065331978200000F061F8200000F028F9ED
:103020000126200000F0BFF83042FAD1200000F065
:103030001FF9DEE700CA9A3B10B5C068FFF79EFC97
:1030400010BD0000F8B50F00002105001600FFF7C5
:1030500007FEF72303400020032B08D0EC6B8442CB
:1030600006D1094822000121FFF7E2FC2000F8BD4B
:10307000BE19B44204D8361BEE67AF670120F6E7ED
:103080000023EB67F9E7C046A403002010B5C37F17
:103090000400002B04D003007B331978FFF7CCFF2A
:1030A00023007A3319782000FFF7C6FF2300793315
:1030B00019782000FFF7C0FF23007833197820002B
:1030C000FFF7BAFF012010BD10B504000168426887
:1030D000C068FFF723FC0120607710BD70B5437F07
:1030E00004000D00002B01D1FFF7EEFF207C002132
:1030F00000F040FD0B2D15D005D8022D09D0032D71
:1031000007D0290016E0522D03D0D82D01D0202D54
:10311000F7D129002000FFF78FFF2000FFF7B6FF4F
:10312000012070BD29002000FFF786FF2000FFF777
:10313000ADFFEE212000FFF77FFFF1E770B503211F
:10314000040016000025FFF7C9FFB54212D0002188
:10315000E068FFF713FCFF280AD0207C012100F073
:1031600009FD074800220721FFF762FC002070BD1F
:103170000135EAE7207C012100F0FCFC0120F6E7A4
:10318000A403002010B51100C068FFF7F7FB10BDC5
:10319000023920B51500012904D81A002900C06899
:1031A000FFF7F1FB20BD70B504000521FFF796FF86
:1031B0000021E068FFF7E2FB251DE877207C012174
:1031C00000F0D8FCE87F70BD70B504001521FFF752
:1031D00085FF0021E068FFF7D1FBA51DE877207C83
:1031E000012100F0C7FCE87F70BD000070B506004B
:1031F0000124FFF7E9FF20420ED1B7213000FFF78D
:103200006DFF307C210000F0B5FC3000FFF7DCFFE3
:103210002040051E02D0F477200070BD02000D2171
:103220000248FFF705FC2C00F6E7C046A403002087
:1032300070B505000124FFF7C7FF204212D0E92135
:103240002800FFF74BFF287C210000F093FC2800AA
:10325000FFF7BAFF204007D000220E210348FFF7F6
:10326000E7FB0024200070BDE877FBE7A403002003
:1032700010B504000121007C00F07CFCE37F002BF2
:1032800002D02000FFF7D4FFE068FFF763FB0023C4
:10329000637710BD10B5847F002C04D000220F216D
:1032A0000248FFF7C5FB200010BDC046A403002064
:1032B000F8B506000C002023013BFDD100F05CFABC
:1032C000012705003000FFF76EFF331DDB7F3B4217
:1032D00001D10120F8BD00F04FFA401BA042F1D30C
:1032E00000F04AFA401BA042F3D303480022042115
:1032F000FFF79EFB0020EDE7A403002070B504005B
:103300000D000621FFF7EAFE207C012100F032FCCF
:103310002000FFF748FF0224044009D1002D05D00A
:10332000220006210348FFF783FB2500280070BD1B
:103330000125FBE7A4030020F8B51E000300373386
:103340001B7804000F001500EF2B14D0022F1BD0A8
:10335000EF2F37D02000FFF79DFF002812D1320059
:1033600029002000FFF76EFE00280BD01B4920002B
:10337000FFF79EFF07E01A4B9A42E7D9FFF736FFA7
:103380000028E3D10020F8BD2000FFF783FF0028CC
:10339000F8D1320029002000FFF754FE0028F1D0B8
:1033A000320029002000FFF7C9FE0028EAD00B49AF
:1033B0002000FFF77DFF0028E4D001212000FFF767
:1033C0009DFFE0E72000FFF765FF0028DAD132001B
:1033D00029002000FFF736FEE7E7C04600CA9A3B07
:1033E000FFFFFF0010B504000421FFF777FE207CEB
:1033F000012100F0BFFB012010BD000070B517498E
:103400000400FFF755FF051E25D09F212000FFF780
:1034100065FE26000021E068FFF7B0FA373630700D
:103420000021E068FFF7AAFA230038331870002162
:10343000E068FFF7A3FA230039331870207C0121DC
:1034400000F098FB3478002C05D122000B210448B1
:10345000FFF7EEFA2500280070BDC04600CA9A3B6F
:10346000A4030020030070B538331B780400252B1B
:103470001CD1FFF798FE231DDD7F3C235021200047
:103480009D43FFF72BFE207C012100F073FB0121FF
:103490002000FFF723FE29002000FFF7CDFD207C50
:1034A000012100F067FB0125280070BD0125262BB6
:1034B000FAD10E49FFF7FCFE051EF5D001212000D0
:1034C000FFF71CFFA023013BFDD198212000FFF74F
:1034D00005FE207C012100F04DFBC8239B00013B31
:1034E000FDD12000FFF77EFFDEE7C04600CA9A3B11
:1034F0000200F8B5012364321370103A1370083AD1
:103500001370083A13700300202245331A703232C8
:103510001A7286321A74414B00228364404B0500B4
:103520000365404B6535836503005C331A70602387
:103530002B703D4B04008366030001327233FF326F
:103540001A800E00FFF75AFF2300A21C37331978A8
:10355000FF32C1331878884227D123000122353346
:103560001A70230022003833FF321B78907898427B
:1035700005D0D078984202D012799A4201D1C7235F
:103580002B70230035331D78002D32D027003937BA
:10359000C22911D13B78132B0BD0142B1BD0002246
:1035A00002212248FFF744FA06E001339342D1D1C9
:1035B000D7E78023DB03E36300233A7819009C31CB
:1035C000615C91420AD12C339B001B593434A360B7
:1035D0000123237012E080231B04ECE70133122B3C
:1035E000ECD1E36B002B08D1002E0FD0E66334340E
:1035F000EFE736342578002D02D001252800F8BDEC
:103600002A0002210948FFF713FAF7E732000321E5
:103610000648FFF70DFA3500F0E7C04600CA9A3BAE
:103620000050D6DC004059730000DD0EA4030020DA
:1036300010B50248FFF7FCF910BDC046A4030020F6
:103640007047000010B5034A0349044802F0FAFC31
:1036500010BDC0460000002041360000A503002038
:1036600010B5024800F0DDFF10BDC046A8030020E1
:1036700013B51249124800F013FD1249124800F028
:103680000FFD1249124800F00BFD1249124800F0DC
:1036900007FD1249124800F003FD124C12492000A8
:1036A00000F0FEFC01230193023300930D220B3343
:1036B00021000E4800F04AFF13BDC046000800423A
:1036C000E4050020000C0042E80500200010004244
:1036D000EC05002000140042F00500200018004214
:1036E000F4050020F8050020001C0042A80300207B
:1036F000FEE70000034B10B51B68002B00D0984775
:1037000010BDC046FC05002070B50F490F4CA1420A
:1037100004D100F089F800F0BBFAFEE70C4D00235D
:103720008D42F6D0CA18E818A24205D3094B82424E
:10373000EFD00949002204E0006804331060F1E78B
:1037400004C38B42FCD3E4E70000002010020020F9
:103750000CC8000010020020380C002010B500F04A
:1037600060F8002801D100F051F810BD014B18603D
:103770007047C046FC050020F7B513480122844677
:103780001249134C8E68636805689B0E13400192C2
:1037900088686268019F920E3A4067463F6893428C
:1037A0000ED1BD420CD186420AD35B19FA25486876
:1037B000AD00861B07486B437043000DC018FEBD6B
:1037C0003D0013000600E3E70006002010E000E0E3
:1037D00000ED00E05555000070B5041E10D0FFF755
:1037E000CBFF050000F01CF8FFF7C6FF054B401BA0
:1037F0009842F7D9FA23013C9B00ED18002CF3D135
:1038000070BDC046E70300007047000010B5034AD2
:1038100013680133136000F007FC10BD00060020A0
:1038200070470020704700001E2270B54648474987
:10383000436893431C3A1343436008238C69234332
:103840008B61434C434B9C829C8A14439C82DC6872
:103850001442FCD00124404A14701578254203D04C
:1038600055786DB2002DF8DB01249460547864B271
:10387000002CFBDB394C5460547864B2002CFBDB29
:103880008224E4015480547864B2002CFBDB0224CF
:103890009C840E34DD682542FCD0314CDC6210245F
:1038A000DD682542FCD09D8C2E4C2C439C8410243A
:1038B000DD682542FCD002249D8C80262C439C840C
:1038C0004024DD683542FCD0DD682542F9D0102463
:1038D000DD682542FCD000249460547864B2002C4A
:1038E000FBDB214C5460547864B2002CFBDB1C6A77
:1038F0001E4D2C4080251C621C6AAC431C620323B5
:1039000093601B4B536053785BB2002BFBDB0023AF
:10391000FF240B72174A4B728B72CB72164B1A60D4
:10392000164B174A1B6811689A065B01C90E2340A3
:10393000520F12020B431343124A1385802342682D
:103940001343436070BDC046004000410004004086
:103950000C06000000080040000C004001050100BA
:10396000B905FF7D040A000000070300FFFCFFFF0C
:1039700003060100006CDC020400002024608000CB
:103980002060800000400042FA21314B10B51868D9
:10399000890002F069FB2F4B0138984256D82E4916
:1039A0002E4A4860C020136A00061B021B0A03430C
:1039B0001362002407238C600B608021136A0906C0
:1039C0001B021B0A0B431362FC22254B196A0A4394
:1039D0001A62FC22196A92010A431A62A022196A29
:1039E000D2020A431A6220000021013400F076F866
:1039F000162CF8D11B4B1C005A7852B2002AFBDB64
:103A0000194A5A80194B1A00597EC9090129FBD05D
:103A1000E421C90099803F21D970537EDB09012B35
:103A2000FBD0C02300205B011361907000F024F8EC
:103A300063785BB2002BFBDB0D4B0E4A6380D379BE
:103A4000DB09012BFBD04123537010BDFEE7C046BC
:103A500004000020FFFFFF0010E000E000ED00E0A8
:103A600000040040000C00401E40000000400042E6
:103A70002140000000480042164A00B51300517E64
:103A8000C9090129FBD00138042816D81969124A3E
:103A90000A400F211A615A788A4302F0DBFA0308C0
:103AA000060B0300110001220A435A7000BD1100E9
:103AB0000322F9E711000222F6E7F02311691B0542
:103AC0000B430F21136153788B43190002230B43DF
:103AD0005370EBE700400042FFFFFFF0182330B5C2
:103AE0001D00040045430820204A5519285601307E
:103AF00014D0032912D808006343D156D31802F01A
:103B0000A9FA02280E1B5868CB010221184A9B18FB
:103B10001A1840321170012282405A6030BD586834
:103B2000CB010621124A9B181A184032117001224B
:103B300082405A609A61F1E75868CB0106210C4A2D
:103B40009B181A1840321170012282405A605A6143
:103B5000E4E75868CB010221054A9B181A18403245
:103B60001170012282409A60D8E7C04624C000004C
:103B7000004400411823F0B508245843114A131893
:103B80001C5701341BD0012635005F688356BD40A9
:103B90000D4ADB019A18906805420BD10C00601E9B
:103BA0008441D2194032107834400336A400B04327
:103BB00020431070044A9B18002901D15D61F0BDBB
:103BC0009D61FCE724C000000044004118224243EC
:103BD000F8B52C4E0300B218127A52B2140001321A
:103BE0000ED0481C00240C280AD802F033FA071F14
:103BF0001F1F1F1F1F1F1F0B0B0B0B0001246442F5
:103C00002000F8BD092905D100211800FFF766FF43
:103C10000024F5E70A2901D10839F6E700240B2929
:103C2000EED10A391800FFF759FFE9E7182253438C
:103C3000F218556801202C00F356134ADB016E0878
:103C40009B18C9B204409E19002C0DD00F243036A9
:103C50003278090122401143C9B25B1931704033F7
:103C60001A7810431870D3E732000F2730321678D5
:103C70005B19BE433143117040331A7810431870FA
:103C8000BEE7C04624C00000004400417047000069
:103C900010B5FFF779FE04F08FF9FFF7F7FF012069
:103CA000FFF79AFD084C200001F026FC200001F0EF
:103CB000D1FCFEF715FCFEF70DFB044B002BFAD0F0
:103CC00000E000BFF7E7C0466C06002000000000DF
:103CD00010B504F099F910BD10B504F095F910BDB8
:103CE00010B504F09BF910BDF7B506000D000C00EF
:103CF0008B180193019B671B9C4207D03368217886
:103D00001B683000984701340028F3D13800FEBD0D
:103D100070B5040008000D0004F04AFF236802009B
:103D200029005B682000984770BD10B50B1E02D0BB
:103D3000FFF7EEFF0300180010BD10B5FFF7F5FF09
:103D400010BD10B503688A685B680968984710BDA4
:103D500010B5FFF7EAFF10BD10B503681B68984760
:103D600010BD000010B50249FFF7D2FF10BDC046DC
:103D700090C3000070B50400FFF7D7FF05002000D6
:103D8000FFF7F0FF401970BD70B50500FFF7D9FFD0
:103D900004002800FFF7E6FF201870BD70B504008E
:103DA000FFF7C3FF05002000FFF7DCFF401970BDDF
:103DB000F0B58BB06B461500002205330600DA77AC
:103DC0000800012D00D80A2509AC290002F0D2F91B
:103DD000CAB2130037330700DBB2092902D8130037
:103DE0003033DBB2013C2370002FEED121003000D4
:103DF000FFF79BFF0BB0F0BDF8B506000C00151ED9
:103E000004D10368C9B21B689847F8BD0A2A0CD1CF
:103E100000290BDA2D21FFF79FFF614207002A00DE
:103E20003000FFF7C5FF3818EFE7D2B221003000AD
:103E3000FFF7BEFFE9E710B5FFF7DEFF10BD70B575
:103E40000400FFF7D9FF05002000FFF78BFF4019A2
:103E500070BD10B5002A04D10368C9B21B68984729
:103E600010BDD2B2FFF7A4FFFAE710B5FFF7F1FFDC
:103E700010BD70B50500FFF7ECFF04002800FFF748
:103E800071FF201870BD0000F7B51E0008AB1B784D
:103E900031000193050033001000170003F096FF76
:103EA0004B49002814D10122740064085242494B46
:103EB0003800210003F08AFF00280FD10122454B72
:103EC00052423800210002F065FA002806D142492A
:103ED0002800FFF71DFF04002000FEBDE0223F4B3D
:103EE00012063800310002F05FFA002801D03C4988
:103EF000EEE7E0223B4B12063800310002F040FAB8
:103F00000028F4D1002200233800310002F038FAF2
:103F1000041E07D02D212800FFF71EFF8023040078
:103F20001B06F618002300202F490093019B009ADE
:103F3000934208D02D4B002202F084FD009B0133F8
:103F4000DBB20093F2E733003A0002F05FFA0F00B1
:103F5000060002F03DFA0A22019001002800FFF756
:103F600027FF009B0419002BB6D0019803F0BAFF7D
:103F700002000B003000390003F0E0FB06000F00E8
:103F800028002E21FFF7E8FE2418009B013BDBB23E
:103F90000093FF2BA0D0154B00223000390003F016
:103FA0005BF90F00060002F013FA0A2201000190EB
:103FB0002800FFF7FDFE2418019803F093FF02008C
:103FC0000B003000390003F0B9FB06000F00DCE7FE
:103FD00084C30000FFFFEF7F88C30000FFFFEF41B5
:103FE0008CC30000FFFFEFC10000E03F0000244051
:103FF00037B51D00069BDBB200932B00FFF744FF93
:104000003EBD000010B50400FFF7FEFB014B1C6035
:1040100010BDC046080000200122024B52421A6027
:104020007047C04608000020164A10B51368591C96
:1040300026D0013B1360002B22D172B6124B134ADB
:104040000433934213D9124A01211000147D0C420B
:10405000FCD02021148BFF319B085B00214311838E
:10406000D3610C4B13800123027D1A42FCD0BFF3B5
:104070004F8F094B094ADA60BFF34F8FC046FDE707
:1040800010BDC04608000020002000000302000010
:104090000040004102A5FFFF00ED00E00400FA052A
:1040A000016070479446F0B59E1E721E96416246AE
:1040B000056892072F6836063A4332432A6007257F
:1040C00005AC24780068A4012940214342680024FB
:1040D000022B00D05C03114321434160F0BD30B599
:1040E000C0250368AD031C6812052A402243C02482
:1040F0000904A40221401143196003685A6814435B
:104100005C6030BD0123026811680B4313600368D3
:104110001A68D207FCD4DA69D207F9D470470223AF
:10412000026811680B4313600268D3699B07FCD4D3
:10413000704703681A7ED20702D41A7E9207FCD514
:104140007047002203685A8370470368187E40074F
:10415000C00F70470368187EC0097047802302684B
:104160005B42117E0B43137670470368588B8007C0
:10417000C00F704702230268518B0B435383704773
:104180000368187EC007C00F70470368188DC0B25F
:10419000704703681A7ED207FCD589B201201985C1
:1041A0007047012203689A757047012203681A75E7
:1041B0007047000070B5012604684B083340314059
:1041C000256809075B070B432B43236004685100F4
:1041D000034801F049FF0138C0B2207370BDC046EA
:1041E000006CDC020123026811680B431360036852
:1041F0001A68D207FCD4DA69D207F9D470470223CF
:10420000026811680B4313600268D3699B07FCD4F2
:1042100070470368DA699207FCD402211A688A435E
:104220001A6070470268936A5B0A5B0219439162E5
:1042300003681A7E5207FCD5986AC0B27047000026
:104240000368214A30B593422FD0204A93422FD0A1
:104250001F4A93422FD01F4A93422FD01E4A9342A7
:104260002FD01E4A93421FD10E231922012103256C
:1042700099401B48C024016099082B40AB40FC3595
:104280009D4089000918A4000859A843C0259D40F5
:104290002B0003430B518023DB011A43114B5A803F
:1042A0005A7852B2002AFBDB30BD09231422DDE725
:1042B0000A231522DAE70B231622D7E70C2317224D
:1042C000D4E70D231822D1E700080042000C004279
:1042D000001000420014004200180042001C00427E
:1042E00000E100E0000C0040F8B504000F001600EB
:1042F0001D00FFF7A5FF2000FFF704FF1C21BB00F6
:104300000B4071072268090C0B4313608423226859
:104310009375012F1AD11021012E00D008390C4BB2
:1043200069431868C00001F09FFE0722216802401F
:104330008B895203DB04DB0C13438B81226803045B
:104340009089DB0C400B400318439081F8BDC046B8
:1043500004000020F7B50600019308AB1F780D009C
:104360001400FFF73FFF3000FFF76AFFC02224056B
:1043700092031440BA070C2717433C43C027072277
:10438000BF022D0433683D4025431D60019B316809
:1043900013401A0080239B0213434B60F7BD01209A
:1043A0007047000010B50368014A1B6A984710BDAA
:1043B000130400000300FC33D9699A69914203D0C9
:1043C000DB69C018007D704701204042FBE710B553
:1043D00004000069FFF796FE22000023FC3293617F
:1043E000D36186229200A4186360A36010BDF02000
:1043F00001403039484248417047F0231B011940C1
:10440000802306209B0099420AD00133FF330130FC
:10441000994205D0802302385B00994200D00020E9
:1044200070470F2001400020012903D00239481EA7
:104430008141481C704700008923F0B5182685B0DB
:1044400002919B000400C05C330008214343324DBD
:104450001700EB185956FFF7B9FB304B0821E05C09
:1044600033004343EB185956FFF7B0FB2C4BE25C8B
:104470000393022A09D11133E05CFF2805D00821FB
:104480004643AE197156FFF7A1FB8A26B600A05D20
:10449000FF2819D00121FFF721FB1822A35D214934
:1044A0005A43AB56AD18DB0158188B218900605078
:1044B0001D4901225B188C218900635069688A407C
:1044C0008D21890062501A600122029B110020692F
:1044D000FFF70AFF39002000FFF78FFF39000500C2
:1044E0002000FFF79EFF390006002000FFF77FFF46
:1044F00033000090290020690122FFF7D3FD0B4B08
:104500002069E25C039BE15CFFF7E9FD2069FFF7AE
:1045100006FE05B0F0BDC04624C000002502000024
:104520002702000018440041144400412602000004
:10453000802210B504005200002103F0A7FD2300E3
:104540000022FC335A6020009A6010BDF7B51D00B0
:1045500008AB1B780400009309AB1B78160001938D
:1045600000234360FA239B008360114B0F00083344
:1045700003601430FFF7DCFF20001D30FF30FFF731
:10458000D7FF89236A469B002761E654094B1278BE
:10459000E554094B2000E2546A46084B1279E25474
:1045A0008A22293BFF3B9200A3541032A354FEBD44
:1045B00094C300002502000026020000270200002C
:1045C0000300FC3358689B68C01A01D50130FF30E6
:1045D000704710B5040020001D30FF30FFF7F0FFDA
:1045E0000028F8D12069FFF7A4FD10BD10B51430E4
:1045F000FFF7E6FF10BD0300FC3359689A6891424B
:1046000004DB5A689868801AFF30704798685B68C6
:10461000C01A0138F9E710B51D30FF30FFF7EBFF86
:1046200010BD10B504000069FFF79FFD002805D0FC
:104630002069FFF7AAFD2069FFF79CFD2069FFF7BD
:1046400084FD002820D02069FFF79FFD2200FC3266
:104650009369D1690133DBB28B4203D09169611850
:10466000087593618A239B00E35CFF2B0CD020002C
:104670001430FFF7C0FF092806DC8B238D229B0036
:104680009200E358A2581A602069FFF779FD0028CC
:104690001AD020001D30FF30FFF792FF002822D0F3
:1046A00086239B00E31899685A68914218D08E219E
:1046B0009A684900A218515C9A680132D2B29A6095
:1046C000C9B22069FFF765FD2069FFF743FD0028A7
:1046D00005D02069FFF742FD2069FFF732FD10BDCC
:1046E00001214942ECE72069FFF75FFDECE700009C
:1046F00070B5040000690D00FFF742FD00283ED1AF
:10470000FF2686239B00E3185A68996801323240DD
:104710008A4223D1EFF31083DB0710D41E4B5B6872
:10472000DB05DB0DEDD0103B5BB2002B10DA0F2266
:104730001340083B9B08194A9B009B181B68206983
:10474000FFF71EFD0028DCD02000FFF76AFFD8E746
:104750009B08C033124A9B009B58F0E75A6801320D
:1047600016409A68964205D08E215A684900A218D0
:1047700055545E602069FFF714FD012070BD2000D4
:104780001D30FF30FFF71CFF0028B9D12900206938
:10479000FFF7FFFCF1E7C04600ED00E01CED00E094
:1047A00000E100E0030070B5FC33D9699A690400A8
:1047B00091421AD0DA698218157DDA690132D2B2D3
:1047C000DA618A239B00E35CFF2B0CD020001430BD
:1047D000FFF711FF0A2806DD8C238D229B00920033
:1047E000E358A2581A60280070BD01256D42E8E721
:1047F00010B504000068002801D003F00FFC200071
:1048000010BD10B504000068002801D003F006FCBC
:1048100000232360A360636010BD70B504000D0029
:104820000068013104F072F9031E01D0012028C490
:1048300070BD036810B50400002B04D043688B42A0
:1048400001D3012010BD2000FFF7E7FF0028F9D0B9
:10485000A368002BF5D122681370F2E770B50E0043
:10486000110004001500FFF7E4FF002804D1200028
:10487000FFF7C7FF200070BDA5603100206804F07D
:104880008FF9F7E7002370B504000D000360436063
:104890008360994207D0080004F08AF929000200D9
:1048A0002000FFF7DBFF200070BD70B50500080099
:1048B0000C0004F07DF9210002002800FFF7CEFF74
:1048C00070BD70B5050000680C0000280FD00968A5
:1048D00000290AD06B68A268934206D304F060F9FD
:1048E000A368AB600023A36070BD03F097FB23684F
:1048F0002B6063686B60A368AB6000232360636018
:10490000F1E710B50B000400884205D009680029C2
:1049100004D09A68FFF7A2FF200010BDFFF771FFD7
:10492000FAE7002310B50400036043608360FFF7DB
:10493000E8FF200010BD10B50400884201D0FFF749
:10494000C0FF200010BD10B50400002903D0FFF700
:10495000ACFF200010BDFFF754FFFAE7F8B50400E4
:104960000F1E02D100263000F8BD0126002AFAD021
:104970008368D5182900FFF75CFF0028F2D0236870
:10498000A2683900981804F00BF9A560EBE707B5A9
:10499000002201AB19705A7019000132FFF7DEFFD7
:1049A0000EBD1FB504000A220800694601F00AFB8B
:1049B000684604F0FDF8694602002000FFF7CEFFCC
:1049C00004B010BD30B589B0190003AB05000093E9
:1049D00010000223042201F021FB040004F0E8F897
:1049E000210002002800FFF7B9FF09B030BD10B563
:1049F0000400FFF7CCFF002802D12000FFF701FFE1
:104A0000200010BD10B50400FFF7CBFF002802D135
:104A10002000FFF7F6FE200010BD10B50400FFF7E0
:104A2000D1FF002802D12000FFF7EBFE200010BDCF
:104A300070B50D00002A06D0002904D084689C427D
:104A400002D800230B7070BD013AE41A944200D9D9
:104A5000140001682200C918280004F0C1F80023DE
:104A60002B55F0E7836810B5934207D90468A01866
:104A700004F088F8002801D0001B10BD012040423E
:104A8000FBE710B50022FFF7EDFF10BDF7B50E00F4
:104A9000019014001D009A4201D92C0015000C4908
:104AA0000198FFF7EFFEB768A7420ED9AF4200D9D1
:104AB0002F00002233680198DB191D781A703368C3
:104AC0001919FFF740FF3368DD550198FEBDC04658
:104AD00092C3000070B5856804008D4213D9002A86
:104AE00011D06B1A934200D913002068ED1ACB182D
:104AF000C3186A1A4018A560190004F071F8002163
:104B00002268A368D15470BD0368002010B58342A9
:104B100002D0180003F03BFA10BD006810B5002861
:104B200002D003F02FFA10BD00200021FBE7002087
:104B3000704770B50F26CB1D013902003240D5B247
:104B40002C0000093034092A00DD07341C70013BB9
:104B50008B42F2D170BD000010B50C000B4B1868F1
:104B6000FFF7E7FF21000A4B08311868FFF7E1FF64
:104B70002100084B10311868FFF7DBFF2100064BBE
:104B800018311868FFF7D5FF202010BD0CA0800059
:104B900040A0800044A0800048A0800008B4024BE0
:104BA0009C46103808BC6047594B000070473F20B6
:104BB000704713B56B460268D97107335468190002
:104BC0000122A04716BD000070B50A260B7892B0EE
:104BD0006E44023305000B703C220021300003F0CC
:104BE00055FA394801AC0690384824210790062030
:104BF00020776846364AA1742281364A364BA28114
:104C0000FD3AFF3A8018C177684623390630C177EC
:104C100068460730C17702A8C1770720F2770326DC
:104C200008316944C87703A9CE7710212B366E442A
:104C30003170092621851F3169440E700CA9053E8B
:104C40000E7033212380022369440B7006360DA9B0
:104C50000E7022493536A1863B216E44307010A873
:104C60006274E27702703D3269446A440B701370DB
:104C700040210022E37023716371A37341336B44BD
:104C8000218719705A702B7DC039A370A372637786
:104C90000133DBB2A3776A7D0B200D006844154316
:104CA000C5773120684403703A23501C6B44187058
:104CB000412302320A436B441A7021004222084801
:104CC00000F05CFF12B070BD100104240206052440
:104CD0000904000001020000080B000007050000A5
:104CE0006C06002008B4024B9C46103808BC604794
:104CF000C94B000070B5027D0B790C0000259A426B
:104D00000BD10B784E78A12B09D1212E05D107228A
:104D10001F49204800F032FF0135280070BD212BCB
:104D2000FBD1202E2BD1072219491A4800F068FE2A
:104D3000174B1A785978090211439A7812041143D3
:104D4000DA7812060A439621C9008A421DD1DB791E
:104D5000DB071AD4FA20FFF755F900210D4801F0BE
:104D600019F80125232ED8D1E378A2781B0213432A
:104D7000094A00210748136001F00CF8CDE7222E04
:104D8000EFD18A78024BDA71D2E7FFF745F9E4E711
:104D9000100000206C0600200C00002008B4024B1C
:104DA0009C46103808BC6047F54C000010B5417DAA
:104DB000006A013100F05CFD034B1B6801335A1E91
:104DC0009341181810BDC0461800002010B5417D51
:104DD000006A023100F062FD10BD10B5417D006A2D
:104DE000023100F029FD10BD70B50D00417D0400B9
:104DF000130002312A00006A00F016FE002801D1DB
:104E00000123636070BD000010B5054C23685A1C77
:104E100004D103685B69984703002060180010BD47
:104E200018000020074A0300106810B5411C03D089
:104E300001235B42136010BD597D186A013100F0F7
:104E4000A3FDF8E71800002070470020704700001D
:104E5000FA239B0010B583600F4B0022C38203002E
:104E6000283383610D4B04004260C2611800443353
:104E700023610830631D21622060DA778323A362F7
:104E8000813BE3628033236300F0AEF821001031F0
:104E900000F07EF8200010BD03020000C8C300002F
:104EA000022110B5094B1A68437D5B01D318FF330B
:104EB0009C7A21439972437D0133DBB25B01D318A5
:104EC0000122FF33997A0A439A7210BD240B002005
:104ED0007047000010B502490248FFF7B9FF10BD46
:104EE0006C0600200406002070B50E000025446802
:104EF000002C0BD0236831005B6820009847002805
:104F000002DB2D18E468F3E701256D42280070BD2F
:104F100070B50D004468002C08D0236829009B68F8
:104F200020009847002802D1E468F4E7200070BD13
:104F300070B50D0000264468002C09D023682900B4
:104F400020001B69984736182D18F6B2E468F3E77D
:104F500030002C7070BD70B50D004468002C08D076
:104F6000236829001B6820009847002802D1E468C4
:104F7000F4E7200070BD70B50D004468002C06D029
:104F800023682000DB6829009847E468F6E770BDD5
:104F9000F0B58C79457803002A190020072A1FDC18
:104FA0005A68824216D159601A78C8790A71121863
:104FB0004D711A7000220B4DD0B284420FD98F6808
:104FC00058789600F75986000130775101325870B1
:104FD000F2E70200D0680028FBD1D160E4E70120AD
:104FE000F0BDC046440600200121064A10B51368F2
:104FF00005480B4004D180246400048043601160A4
:1050000010BDC046380600203C060020704710B591
:105010000400FEF765FE200010BD0000F0B58229F7
:1050200019D1C3B2294D5A01AA189169284C80019F
:105030000C40C0218905214391612649083340185D
:105040007021506128685B011A5C8A43110030228C
:105050000A431A54F0BD0029FCD1C026C1B21B4C32
:105060004B01E3189A681A4DB6052A4032439A60FC
:10507000194A800182185A600A00072724680832FA
:105080005201115DB9430F000121394311559F6948
:1050900010493D4040182E439E6158617020115DBB
:1050A0008143080010210143115599680B48A2184B
:1050B000084080214903014399609968890B89035D
:1050C0009960402311790B431371C3E7240B00202F
:1050D000FFFFFF8F9806002058080020FF3F00F0D8
:1050E000EFF3108303600123436072B670470368D7
:1050F000002B02D162B6BFF36F8F7047F7B5060081
:10510000FC36B3690400002B18D1B2277F00C55DBF
:105110006846FFF7E5FF019BEDB2013B02D3E55D79
:10512000EDB2FAE768460193FFF7E1FF002D01D1E8
:105130000020FEBD706E336EC01AFAE76846FFF7B6
:10514000CFFFD8220025019B5200013B02D3A55C72
:10515000EDB2FAE768460193FFF7C9FF002DE7D0EB
:10516000D6235B00E058043BE358E5E710B54468FC
:10517000FC3043690B48DBB25A01A218916808332E
:105180000840802149030143916091685B01890BCC
:10519000890391602268D318402219790A431A7151
:1051A00010BDC046FF3F00F0F7B50500FC356B6948
:1051B0004268DBB219000400083110684901411847
:1051C000C979C90711D55B01D21893689B049B0C60
:1051D0000CD12000FFF7CAFF63681A686B69DBB265
:1051E00008335B01D3187F22DA71F7BDE969002922
:1051F00023D16B66230001266933FF33EE616846D5
:105200005360B227FFF76CFF7F00B221019BFF3193
:10521000013B5A1C38D0D822E6555200A25C581ED9
:10522000D2B26254625C8446002A04D12000019309
:10523000FFF79CFFE9E76346EBE7D621490063509F
:105240000023EB6123001D33FF3353606846D826EB
:10525000FFF746FF01277600B221019BFF31013B9A
:105260005A1C11D0B222A7555200A25C581ED2B2CD
:105270006254625C8446002A04D120000193FFF747
:1052800075FFE9E76346EBE768460193FFF72FFFF9
:10529000A2E7F7B5060068463400FFF721FF0027B4
:1052A000FF22019BFC34013B0DD3E0682169884259
:1052B00004DBE7682069D71B3F18F4E72769E1683A
:1052C0007F1A013FEFE768460193FFF710FFA369DC
:1052D0006846002B52D1FFF703FFB221019B490022
:1052E000013B5A1C0CD0755C5A1EEDB2002D05D145
:1052F00068460193FFF7FBFE2800FEBD1300F0E7B0
:10530000684601930025FFF7F2FEFF22236EBD429F
:1053100014D0616E994211D9591CF3182166FF33DC
:10532000587FE36821690133C0B213408B4203D038
:10533000E16871180872E3600135E7E7626E9A422E
:10534000DAD1002323660133A3616846B224FFF754
:10535000C7FE6400B2220021019BFF32013B581CB2
:10536000C6D03155B05C5F1E002805D0B154300066
:105370000193FFF7FBFEEDE73B00F0E7FFF7B0FE20
:10538000D821019B4900013B5A1C06D0755C5A1E6E
:10539000EDB2002DACD01300F6E768460193FFF79D
:1053A000A6FED623D4225B0000259C465200B358AB
:1053B000BD4203D061467158994220D86246B25826
:1053C0009A4299D1D42200235200B3506846A36177
:1053D000D824FFF785FE6400B2220021019BFF3232
:1053E000013B581C00D183E73155B05C5F1E00289B
:1053F00019D0B15430000193FFF7B8FEECE7591C07
:10540000B150FF21F3186933FF331878E368C0B255
:1054100001330B4021698B4203D0E1687118087297
:10542000E3600135C3E73B00DBE710B50400FFF79D
:1054300030FF2300FC331969DA68914203D01B69FD
:10544000E418207A10BD01204042FBE710B50400AB
:10545000FC34FFF71EFFE0682369C01A01D5013054
:10546000FF3010BDF0B585B0019200910500FFF747
:1054700010FF02A8FFF734FE01200024FF26039B43
:1054800040425A1E531C1FD02B00FC3301998C4202
:1054900018D2D9681F69C91B01D50131FF31002914
:1054A00010D01969DF688C460100BC4506D0196927
:1054B0001F69691801373740097A1F61009F395504
:1054C0000134E3E7013ADDE702A80392FFF70FFE9C
:1054D000200005B0F0BD37B56B46DC1D00230D0084
:1054E0002370FFF781FD2100FFF7FEFC2B681818E1
:1054F000286020783EBD00002023F7B5474A05000C
:10550000D1690F200B43D361012245490B78134326
:105510000B70444B19788143197006211C78214384
:10552000197041490C7822430A701A7802401A70A7
:10553000602219780A431A703C4B3D4A5A805F78C2
:10554000FF09FCD13B48FEF711F901233A4C3B4ED1
:105550002268300011780B4313708022390052000A
:1055600002F094FD22689378DB07FCD456621F2674
:10557000334B1B68590B980C9B01314030405B0F3B
:10558000B14200D105211F2800D10238072B00D1DC
:10559000043B31408901178D01912A4930400F4069
:1055A000019939431185118D0700B1430800384333
:1055B0001085118D1803244B7F260B4003430C20CC
:1055C00013850823D17881430B430321D3702268CC
:1055D000D3788B4301390B43D3702268137833405F
:1055E0001370042322681678334313702268C12491
:1055F0001389A40083431548138103591B021B0A16
:10560000035180230360137811481943012311705B
:105610002B700021FFF75CFCF7BDC0460004004082
:10562000584400413C44004159440041000C0040B2
:1056300006400000A55F0000240B0020280B00207E
:10564000246080003FF8FFFFFF8FFFFF00E100E0D4
:10565000040600200078002810D00121084B1B68A8
:105660001A898A431A810822198B0A431A83042251
:10567000198B0A431A830022024B1A607047C046F6
:10568000240B00201C0B002010B50F4A93699B0BC4
:105690009B03936113680222FF331A729879823A4E
:1056A00002439A711A7A9207FCD57F24074A214057
:1056B000937A0800A3431900802301439172917AE1
:1056C0005B420B43937210BD240B0020005000413D
:1056D00010B50C00FFF788FC2100FFF73CFC002808
:1056E00004D1034A93699B0B9B03936110BDC04691
:1056F000240B0020F7B50D00832A19D1CBB2404C02
:105700005A01A21891693F48AD010840C02189059E
:10571000014391613C4920686D187021083355613F
:105720005B011A5C8A43110040220A431A54F7BDF8
:10573000022A5FD1354B8A00D058002802D0036876
:105740005B699847DA204000FEF7C2FA8022040025
:105750002B4E2F4B4660036052000021083002F0B0
:1057600095FC2200B2210023FC324900D360556130
:10577000136113669361D36153666354443163507C
:105780000431635004316354B221FF316354FF206C
:105790002B0003405901019371188F68194BAD001C
:1057A0003B40C027BF051F438F600727019B36681A
:1057B00008335B01995DB9430F00032139439955C3
:1057C00023005169666801401D334901FF33711898
:1057D0004B60636852691B68024052019B180122AA
:1057E0001B18997A20000A439A72FFF7BFFC074BF7
:1057F000EC509CE711002800FFF710FC97E7C0462B
:10580000240B0020FFFFFF8F980600207006002069
:1058100028C4000070B505000124064BA200D25830
:10582000002A06D0210028000134FFF763FF0A2C6C
:10583000F3D170BD440600200B4BCAB20B4889015E
:10584000C9185301C318596199690832890B890332
:105850009961036852019A180223D3715179823BEE
:105860000B4353717047C04698060020240B00205C
:10587000084B8A00D05810B5002803D003689B68F5
:10588000984710BDC9B2044B490159188868800473
:10589000800CF6E770060020240B002010B50C00E9
:1058A000FFF7E6FF00280CD0064BE4B21B68083473
:1058B00064011C19802362795B42134363710223E4
:1058C000E37110BD240B0020F0B51C002A4B85B0FD
:1058D0001B6807000D000292002B4AD0274B8A005C
:1058E000D058002808D0036822005B6802999847C6
:1058F0000400200005B0F0BD3800FFF7B9FF844276
:1059000004D929003800FFF7B3FF04000121EBB2EE
:105910001B4E03935B010193F21893689B0B9B034F
:105920009360019A336802989B18FF335A7A0A43AE
:105930005A72144BA901C918220002F08BFB002CEB
:10594000D7D029003800FFF793FF0028D1D140219C
:10595000039B326808335B01D3181879014319712E
:105960000121D971019BD318FF339A7A0A439A72A5
:10597000BFE701246442BCE71C0B00207006002036
:10598000240B00205808002013B56B46DC1D2200B4
:105990000123FFF799FF012801D1207816BD0120CE
:1059A0004042FBE770B5CBB2124A13485C01890153
:1059B0008918021951609168104D08330D408021FB
:1059C00049032943402591609168890B89039160BF
:1059D00001685A018A1816793543157195796D0653
:1059E000FCD55B01C918CB79DB07FCD500198068B1
:1059F000C0B270BD58080020240B0020FF3F00F00B
:105A000070B50D0000211400FFF7CCFFA04200D9B3
:105A1000200000230349A34203D0CA5CEA540133A7
:105A2000F9E770BD58080020F0B51E003A4B85B06C
:105A30001B680F000192002B35D08023DB019E42B2
:105A400031D80025354B8A01D3180293002E2CD073
:105A5000334B1B680393FF233B401C000093083427
:105A6000039B64011C19A379DB0921D02D4B2E491E
:105A7000186800F0F9FA2D4B1721584300F0F4FA9A
:105A80002B4BE279920713D4DA5D002A01D1013859
:105A9000F7D20122DA55009B5A01214B9B189A69D3
:105AA000920B92039A6101256D42280005B0F0BD6A
:105AB00000221F4B3400DA553F2E09D9009B4024A9
:105AC0005A01174B9B188022996912060A439A6162
:105AD00022000199029802F0BDFA009BA1045A012C
:105AE0000F4B890C9B18029A2D195A619A69361B23
:105AF000920B92030A439A61009B039A08335B015D
:105B0000D3180222DA715979823A0A435A71019BF9
:105B10001B1901939AE7C0461C0B00209806002031
:105B2000240B00200400002040420F0070110100EF
:105B30008D06002070B50D001C000D4BAE01F6184F
:105B400011003000220002F085FAEDB209496D0122
:105B50004D196E61AB69084A20001340AB61AB6917
:105B6000A2049B0B920C9B031343AB6170BDC04618
:105B700098060020240B0020FF3F00F0F7B5104BE3
:105B800001901B780F001500002B0CD10D4B160057
:105B90001C78002C09D00C4E0C483488201864194D
:105BA00002F058FA34802800FEBD002EFBD03A19CE
:105BB000330000210198FFF7BDFF2418361AF4E7DF
:105BC000180A0020190B00201A0B0020190A0020C7
:105BD000F8B50F0016000024012A26D9100002F0A3
:105BE00013FA0500380002F0E3FF0323022201301C
:105BF000400028706B7096420DD9397800290AD080
:105C0000531CDBB20137A9549E4203D00232EC543C
:105C1000D2B2F0E7320029000548FFF7AFFF441E7B
:105C2000A041C4B2280002F0F9F92000F8BDC04636
:105C30006C060020F0B50024012685B0184B0F003B
:105C400069461E7005000094FFF745FC154B01A93D
:105C50000B806A3BFF3BCB715A330B72009B8C71FC
:105C600009334B800E4B4E7108711C703A00092F9E
:105C70000FD00D4F09223E700C4E28000094348046
:105C8000FFF77CFF69462800FFF725FC32880849AA
:105C90003C702800FFF772FF012005B0F0BDC04640
:105CA000180A002009020000190B00201A0B00201E
:105CB000190A002070B5CE7892B005000C00022EB3
:105CC0000BD18B79C9792E4809021943FFF7B2FF2E
:105CD000411E8841C0B212B070BDFFF785F92100A6
:105CE000FFF716F9002803D0C117081AC00FF2E712
:105CF000012E0ED1E279A37912021A432149112A09
:105D00003CD8D2B2002A39D02800FFF737FF012053
:105D1000E1E7032EDFD1A378002B28D0022B08D196
:105D2000E279A379120218491A432800FFF750FFBD
:105D3000D1E7012B05D1E279A37912021A43134965
:105D4000F3E7032BC7D10100412201A802F09EF91D
:105D5000FFF74AF901A9FFF7EBF8002805D0E2792F
:105D6000A37912021A4301A9DFE70378FFDEE27983
:105D7000A37912021A430649032AC2D90A78C3E753
:105D80006C06002064C4000044C4000058C4000035
:105D900054C40000CBB204495B01C9188B699B0B4A
:105DA0009B038B617047C046240B002037B505006C
:105DB00048780C000B2810D800F04CF9061B0F2B6C
:105DC0000F404561494C5A5D097801AA002906D166
:105DD000022311802800FFF7ADFE01203EBD002305
:105DE0001380284B1B78012B00D113700223002154
:105DF000F0E78A780023012A03D101AA1380224BFD
:105E0000F0E7204A1370214A93699B0B9B0393612F
:105E1000E3E78C78012C06D100211B4B01AA1C70F2
:105E200011702300D6E70120002CD7D1154B174A5B
:105E3000187093699B0B9B039361CFE789782800C7
:105E4000FFF722FCC9E72800FFF734FFC6E701236C
:105E50000F4ACCE70B780020DB06BFD12800FFF704
:105E6000D9FCA2780A4B0B481A60FFF719F8CAE769
:105E70000123094ABBE78A78074B1A60C3E7002071
:105E8000ACE7C0468C06002094060020240B0020BE
:105E90001C0B002004060020200B00203B4BF7B514
:105EA0001E780500002E5FD1394C23689A8B1207AB
:105EB0000DD5082231009A833000FFF7AFF8102289
:105EC0002368FF33997A0A439A72324B1E60236823
:105ED0009A8B520701D504229A83FF331A7A9206CD
:105EE00003D52022597A0A435A721A7AD20623D548
:105EF00069460800284AC0CAC0C0A268920B920333
:105F0000A2604022587902435A7160230A7828001F
:105F10001A422AD1FFF74AFF2368FF33002827D00F
:105F20008022997952420A439A711A7A520603D50D
:105F30004022597A0A435A727F2601252368FF338B
:105F40001E722F00236808377F01DB19DB79002BD5
:105F500007D0124BAA00D05800280DD003681B6848
:105F600098470135082DECD1F7BDFFF7B1FBD3E71A
:105F700020210B4A9171D8E7FFF736F82900FEF788
:105F8000FAFF2368DF19FE71EBE7C046190B00200A
:105F9000240B00201C0B0020580800207006002055
:105FA000FF50004110B50248FFF778FF10BDC04612
:105FB0006C060020014B024A1A607047240B002037
:105FC00000500041F0B50D008BB0170000290ED035
:105FD000931E222B1FD801AC26002300002809D1D4
:105FE000A64207D02A00B34210D80023137028001D
:105FF0000BB0F0BD390000F0BDF8CBB2092903D8D1
:10600000303323700134E8E75733FAE7013B19785E
:1060100011700132E7E70025E9E7000030B5040020
:1060200087B00D00064901A802F08CFD22002B006C
:1060300001A90A9802F086FD0A9807B030BDC04653
:1060400076C400000B0010B50100180001F0A6FF97
:1060500010BD000002B4714649084900095C4900BE
:106060008E4402BC7047C046002243088B4274D362
:1060700003098B425FD3030A8B4244D3030B8B4249
:1060800028D3030C8B420DD3FF22090212BA030C52
:106090008B4202D31212090265D0030B8B4219D333
:1060A00000E0090AC30B8B4201D3CB03C01A524153
:1060B000830B8B4201D38B03C01A5241430B8B429B
:1060C00001D34B03C01A5241030B8B4201D30B0384
:1060D000C01A5241C30A8B4201D3CB02C01A5241AB
:1060E000830A8B4201D38B02C01A5241430A8B426E
:1060F00001D34B02C01A5241030A8B4201D30B0257
:10610000C01A5241CDD2C3098B4201D3CB01C01A70
:10611000524183098B4201D38B01C01A524143097A
:106120008B4201D34B01C01A524103098B4201D368
:106130000B01C01A5241C3088B4201D3CB00C01AD5
:10614000524183088B4201D38B00C01A524143084D
:106150008B4201D34B00C01A5241411A00D2014672
:10616000524110467047FFE701B5002000F0F0F8FB
:1061700002BDC0460029F7D076E7704703460B43BF
:106180007FD4002243088B4274D303098B425FD330
:10619000030A8B4244D3030B8B4228D3030C8B425C
:1061A0000DD3FF22090212BA030C8B4202D3121242
:1061B000090265D0030B8B4219D300E0090AC30B17
:1061C0008B4201D3CB03C01A5241830B8B4201D3C4
:1061D0008B03C01A5241430B8B4201D34B03C01AAD
:1061E0005241030B8B4201D30B03C01A5241C30A25
:1061F0008B4201D3CB02C01A5241830A8B4201D396
:106200008B02C01A5241430A8B4201D34B02C01A7F
:106210005241030A8B4201D30B02C01A5241CDD224
:10622000C3098B4201D3CB01C01A524183098B426F
:1062300001D38B01C01A524143098B4201D34B0158
:10624000C01A524103098B4201D30B01C01A5241BB
:10625000C3088B4201D3CB00C01A524183088B4242
:1062600001D38B00C01A524143088B4201D34B002B
:10627000C01A5241411A00D201465241104670479D
:106280005DE0CA0F00D04942031000D340425340A2
:1062900000229C4603098B422DD3030A8B4212D362
:1062A000FC22890112BA030A8B420CD38901921194
:1062B0008B4208D3890192118B4204D389013AD0D1
:1062C000921100E08909C3098B4201D3CB01C01AA6
:1062D000524183098B4201D38B01C01A52414309B9
:1062E0008B4201D34B01C01A524103098B4201D3A7
:1062F0000B01C01A5241C3088B4201D3CB00C01A14
:10630000524183088B4201D38B00C01A5241D9D22B
:1063100043088B4201D34B00C01A5241411A00D2AC
:106320000146634652415B10104601D34042002BA8
:1063300000D54942704763465B1000D3404201B527
:10634000002000F005F802BD0029F8D016E77047DC
:106350007047C0468446101C62468C46191C634632
:1063600000E0C0461FB500F00FFF002801D4002157
:10637000C8421FBD10B500F067FE4042013010BD9D
:1063800010B500F001FF002801DB002010BD012046
:1063900010BDC04610B500F0F7FE002801DD00205A
:1063A00010BD012010BDC04610B500F089FE0028C8
:1063B00001DC002010BD012010BDC04610B500F06A
:1063C0007FFE002801DA002010BD012010BDC0466C
:1063D00070B500220C4B04000D00FFF7EFFF002802
:1063E00004D12000290001F00DFD70BD064B0022F4
:1063F0002000290001F0A2F901F004FD80231B0612
:106400009C466044F1E7C0460000E041F0B54F46CD
:106410004646D6460C000903C0B5490A470F5E0040
:1064200039431F03DB0F9C4665007B0A570F1F4350
:106430006D0DE40F760DA146C000B846D200AB1B2F
:1064400064457BD0002B5FDD002E00D0A4E03E0031
:10645000164300D112E15E1E002E00D09EE1871A85
:106460004346B84280410125C91A4042091A0B022D
:1064700000D431E149024E0A002E00D16EE1300015
:1064800001F062FD0300083B1F2B00DD61E12022CB
:106490003900D21A9E40D1409F400E439D4200DDFC
:1064A00051E15D1B6B1C1F2B00DD7CE12021C91A13
:1064B0003D0030008F408840DD40791E8F41310023
:1064C00007222843D940002507433A40002A09D033
:1064D0000F233B40042B05D03B1DBB42BF417F42F5
:1064E000C9191F000B0200D426E26A1CC64B5505D1
:1064F0006D0D9A4200D106E1C44AFF080A405307D5
:1065000052023B43120B8EE0002B00D0B8E06B1C14
:106510005B055B0D012B00DC30E1871A4346B84276
:10652000B641CB1A76429E1B330200D54CE13B00AC
:106530003343A1D100220024002570E0002B00DCB1
:10654000E5E0002E00D183E0AF4EB54260D080265A
:1065500036043743B846382B00DC3EE1434613434C
:106560001F007A1E97413F18874280414042091818
:106570000B0200D4B0E0A44B01359D4200D1C3E032
:10658000A24A7B080A4001210F401F435108D3074C
:1065900007221F433A4099E79B4EB54238D08026E8
:1065A00036043743B846382B00DDDCE01F2B00DC17
:1065B00030E11E004746203EF740BC46202B04D069
:1065C0004026F31A46469E403243170063467A1E21
:1065D00097411F43CCE0002B00D104E24346134314
:1065E00000D159E14B07C00818438023C9081B0399
:1065F000194208D04546ED081D4204D14346D00853
:10660000590708432900420FC9007F4D1143C000BC
:106610004B07CA087C49C00803438D4268D0120367
:106620006D05120B6D0D002112031800130B0A0DDE
:1066300012051A43764B2D0513402B435B00E407EC
:106640005B08234319001CBC90469946A246F0BD46
:106650003E00164312D05E1E002E00D000E18718C7
:106660008742804141444042091801250B0233D53D
:10667000022585E764463300414610001D00C7E748
:10668000002D00D0DAE00C000443F3D05C1C00D1F4
:106690009FE15D4CA64200D12FE1DB43382B00DDAA
:1066A00066E11F2B00DD83E120240500E41A0F00C2
:1066B000DD40D940A0404346A7405B1A441EA0419C
:1066C00098462F433843171ABA42924143465242E2
:1066D000991A64463500CAE607223A40002A00D0DB
:1066E000F6E64B07CA084849FF083B438D4296D15E
:1066F0001900114300D19EE1802109030A431203CE
:10670000120B414D8FE71500002200238BE7002B71
:1067100000D0C7E06B1C5F057F0D012F00DCF1E0AE
:10672000394DAB4200D1B9E085180A008542894154
:106730004244494251180722CF076D082F434908A8
:106740003A401D00C2E607223049ED1A31403A4076
:10675000BCE63E002838864000279FE6380001F05E
:10676000F3FB20308EE6434613431F007A1E974109
:10677000C71BB84280414042091A78E60E003B0030
:1067800006431343002D61D1002E00D0F4E0002B0E
:1067900000D11BE164463900100039E71A4FBB42B3
:1067A0007AD03300FFE630001F3DE840202B03D0B5
:1067B0004021CB1A9E4037437B1E9F41072207434F
:1067C0003A400021002589E7171A4346BA42B641EC
:1067D000591A76428E1B64464EE61F2B00DDADE053
:1067E00020264746F61AB740B9461700B246DF40A2
:1067F0004E463E4337005646B240561EB2411743FE
:106800004246DA408918AEE6FF070000FFFF7FFF2F
:10681000FFFF0F8020264746F61AB740B9461700FB
:10682000B246DF404E463E4337005646B240561E03
:10683000B24117434246DA40891A99E77F4CA64293
:106840005BD0802424045B42214327E7002E0CD137
:10685000002B00D1CBE0644639001000774DD7E61D
:10686000764FBB4218D0330075E6002B14D04B078F
:10687000C00818438023C9081B03194207D0FC082D
:106880001C4204D17907D0080843E14621004C4658
:10689000420FC9001143C000684DB9E61D00002237
:1068A0000023C0E6002D5BD10D00054300D1E2E6D8
:1068B0005D1C00D1B0E0614DAE421FD0DB43382BF0
:1068C00071DC1F2B00DD96E020250F00ED1AAF4094
:1068D000B9460700AA46DF404D463D432F005546C6
:1068E000A840D940451EA84188440743BF18974295
:1068F00092415142414435003AE6644635004146F2
:10690000100085E60B000343002D00D063E6002B4A
:10691000F5D04346134300D17AE687188742804179
:1069200007224144404209183A400B0200D4D5E600
:10693000434B01351940C9E5380069E61E0047465A
:10694000203EF740BC46202B04D04026F31A464692
:106950009E403243170063467A1E97411F4302E66A
:10696000364DAE42CAD080252D045B422943A6E7AE
:106970000843411E8841A6E6002B00D148E6871A4D
:106980004346B842B641CB1A76429E1B33024BD5E2
:10699000171A4346BA429241591A5242891A07229B
:1069A00064463A4092E501430F00791E8F419DE70E
:1069B0001C000F00203CE740202B03D04024E31AAA
:1069C00099400843411E884138437CE60022002458
:1069D00025E6171A4346BA429241591A5242891A79
:1069E0006446350043E541461000144D10E6802210
:1069F0000024120380E61D000F00203DEF40BC463E
:106A0000202B03D04025EB1A99400843070063462A
:106A1000781E87411F4369E7871897429B4141448D
:106A20005B42C9183500A3E53B003343CED00722B3
:106A300031003A4052E600231A00F4E5FF07000057
:106A4000FFFF7FFFF0B55746DE464E464546E0B5B0
:106A5000834607000E03480085B092461C00360BA3
:106A6000400DCD0F002800D19DE0954B984239D0C4
:106A70008023F6001B041E43924A7B0F3343994642
:106A8000944603006344009300230026FF00029312
:106A900023031B0B98466300E40F52465B0D0194E1
:106AA00000D1B3E086498B4200D19EE04246D1003E
:106AB000802212040A435146490F11438B468149F3
:106AC00052468C4600996344CB1A0021D2000093B1
:106AD0002B0063409A460F2E00D905E17A4BB60091
:106AE0009B599F465B463343994600D0B8E002234A
:106AF0000826002700900293CAE7CB463A00029985
:106B00000195019B9A46022927D0032900D180E2F2
:106B1000012944D06D49009B8C4663441C00002C25
:106B200038DD530700D013E2D2085B46DB0109D5FC
:106B30005946674B19408B468021C9008C46009B03
:106B400063441C00634B9C4207DC5B4664055F07A3
:106B50005B0217431B0B620D02E000230027584A1B
:106B600000211B031C0B0B0D1B05234314055A4A64
:106B7000380013401C4353466400DB0764081C4381
:106B8000210005B03CBC90469946A246AB46F0BDFC
:106B90000122524201231B1B382B00DCADE10022F5
:106BA00000230027DCE75B46334399465ED0002E86
:106BB00000D18AE1300001F0C7F903000B3B1C2B28
:106BC00000DD7BE11D22D31A5A460100DA40083964
:106BD0008E4013005F46334399468F403F4B00265B
:106BE0001B1A00930023029352E7414653460B437E
:106BF0003B499B468C46009B634400935B46002BBD
:106C00003BD1022300221E43022161E74346134386
:106C10009B4637D04346002B00D162E1404601F04D
:106C200093F903000B3B1C2B00DD53E102004146AE
:106C3000083A914088461D21CB1A5146D9400B0095
:106C400041460B439B46534693401A00009B2549FF
:106C50009C46604403008C4663440093002137E760
:106C60000323B14600900C26029311E70023009302
:106C700001330426002702930AE70323C3461E4379
:106C8000032125E701331E430022012120E70023D1
:106C90009A46802300271B03094A61E7802349465F
:106CA0001B03194200D1E2E05946194200D0DEE050
:106CB0000B431B0317001B0BA246014A50E7C046BB
:106CC000FF07000001FCFFFF80C40000FF0300007D
:106CD000FFFFFFFEFE070000FFFF0F800DFCFFFF20
:106CE00001F8FFFFF3030000D94500D9CBE000D144
:106CF000C6E03C0048460027009B013B00935B46F2
:106D0000160E1B021E431302984633041B0C9946B1
:106D1000310C0191FFF72EFA4A4642430B04210C35
:106D2000050019438A4207D98919013D8E4203D8CB
:106D30008A4201D9851E8919881A0199FFF71AFA22
:106D400009048C464A46210464464243090C030068
:106D500021438A4204D98919013B8E4200D8F1E0CF
:106D60002D041D43AB464346891A4246280C1204A3
:106D70001D0C5B46140C22001B041B0C5A4303948D
:106D80006B434443029568431B19150CEB189C4256
:106D900003D980246402A44660441C0C15041B041F
:106DA0002D0C20185D19814277D373D00C1AA24A9A
:106DB0007D1BAF42BF419446009B7F426344E01B72
:106DC0001C00864200D1DBE00199FFF7D3F94A4667
:106DD00042430B04290C070019438A4207D9891939
:106DE000013F8E4203D88A4201D9871E8919881A29
:106DF0000199FFF7BFF909044A46894629044D461F
:106E00004243090C030029438A4207D98919013BEF
:106E10008E4203D88A4201D9831E89193F04891AF8
:106E20003A00039F1A43380013041B0C5843814651
:106E30000298150C6F43434345434846000C844673
:106E4000DB1963449F4203D9802040028446654495
:106E500048461F0C00041B04000C7D191818A94299
:106E600000D284E000D17FE001231A4357E680235B
:106E70004A461B0313431B031B0BAA466F4A6FE6CC
:106E8000BA4200D935E74B46DC0758087B081C435B
:106E9000FF0734E70024AF4289D247444745A44165
:106EA0005B466442A4196418013BA6421ED2A0426C
:106EB0006DD800D1B6E0241A9B4678E703005A4605
:106EC000283B9A400027914688E6584601F03CF856
:106ED000203072E603005246283B9A409346002237
:106EE000B4E6504601F030F820309AE6A642E2D1EE
:106EF000B845DCD9341A9B4659E71F2B65DC504C4A
:106F00000099A4465C46614408008C401100824010
:106F1000D940501E82410C4314435A46DA401300B4
:106F2000620709D00F222240042A05D02200141D36
:106F30009442894149425B181A0262D5012200231A
:106F400000270DE68A4200D80AE7831E891907E761
:106F50000F231340042B00D1E6E5171D9742924101
:106F600053429B44FA08E0E5002800D1D7E57118A8
:106F7000531EB14227D3A94215D358D01A0073E744
:106F8000002B00DC04E6012300229B44CDE5022314
:106F90004744474589415B429C46494289190C193F
:106FA000E344241A03E743465F0047459B41B84644
:106FB0005B429E19023A8919A94200D054E7404524
:106FC00000D051E7ABE51A00F6E71F215F464942C2
:106FD0000C1BE740202B07D01A49009B8C466344CA
:106FE00018005B4683401A43501E82413A430727EC
:106FF0000023174009D00F21002311401400042959
:1070000095D122005F075B021B0BD20817430022B9
:10701000A6E5802359461B030B431B0317001B0BDC
:10702000064A9DE5BD42B2D89B460024BFE6804596
:10703000B9D31A00C3E7C046FF030000FF070000F2
:107040001E0400003E040000F0B54F464646D646FA
:107050008446C0B58046194E18030F034D00000B3F
:107060005C0082463F0B6D0DC90F9146640DDB0F2E
:107070000120B5420AD0B44203D0A54201D1574500
:107080000CD01CBC90469946A246F0BD66463E43D5
:10709000F7D1AC42F5D154461443F2D10120C84592
:1070A000EFD1994207D0002DEBD163461F43380042
:1070B000471EB841E5E70020E3E7C046FF070000B0
:1070C000F0B54F464646D6464D00C0B50E03C90F33
:1070D0008A462C491F035C008046360B6D0D914695
:1070E0003F0B640DDB0F8D421ED08C4216D0002D5D
:1070F0001ED130438446002C01D13A4323D062464E
:10710000002A1AD09A4529D0514602200139084058
:1071100001381CBC90469946A246F0BD3900114387
:10712000E5D002204042F4E73043FAD1AC420FD020
:10713000002C0FD13A43E7D00CE00122013B9343EE
:1071400018000130E5E763460020002BE1D0DBE7C3
:107150003A43E6D19A45D7D1A542D5DCA54205DB15
:10716000BE42D1D808D00020BE42D2D25046012320
:10717000013898430130CCE7C845C5D80020C84540
:10718000F4D3C6E7FF070000F0B54F464646D646A3
:107190004D00C0B50E03C90F8A462E491F035C007F
:1071A0008046360B6D0D91463F0B640DDB0F8D4213
:1071B00018D08C4211D0002D18D130438446002CB9
:1071C0001ED13A431CD163460020002B30D05146DB
:1071D00002200139084001382AE039001143EAD081
:1071E000022025E03043FBD1AC4226D0002C26D132
:1071F0003A4324D15146022001390840013817E0B2
:107200006246002A0FD09A45E1D1A54205DBBE4275
:10721000DDD819D00020BE420AD2504601230138E1
:107220009843013004E00122013B934318000130F0
:107230001CBC90469946A246F0BD3A43D0D19A452F
:10724000C5D1A542C3DCE0E7C845C0D80020C84589
:10725000E3D3EDE7FF070000F0B55746DE464E46A4
:107260004546E0B5834606000F03480087B09246C6
:107270001D003F0B400DCC0F002800D16FE0DE4B0E
:10728000984238D08023FF001B041F43730F3B43F9
:107290000193DA4B0027994600239B46F600814470
:1072A0002B0369001B0B52469846490DED0F002930
:1072B00000D185E0D04B994200D173E04346DA001B
:1072C00080231B0413435246CC48520F8446134379
:1072D000524600206144D200894421006940009157
:1072E0008C46012149448A460F2F00D990E0C449B9
:1072F000BF00CF59BF465B463B43019300D06AE1D4
:1073000002230827002681469B46C9E732005846DB
:10731000019B61460091022800D175E0032800D14D
:10732000FEE1012800D02CE10023002700260025E3
:107330003F032A0D3F0BB34812053A4302401B0599
:107340001343009A5B00D1075B080B433000190020
:1073500007B03CBC90469946A246AB46F0BD5B46A2
:107360003B43019300D12FE1002F00D1A5E138006C
:1073700000F0EAFD03000B3B1C2B00DD96E11D2213
:10738000D31A5A460100DA405E4608398F4013008E
:107390008E403B4301939C4B00271B1A99460023C8
:1073A0009B467DE7414653460B4393498C46E14457
:1073B000002B00D01AE102220220174300228CE7A2
:1073C000134300D10DE14346002B00D181E140463B
:1073D00000F0BAFD02000B3A1C2A00DD72E1010048
:1073E000434608398B4098461D239A1A5346D3408A
:1073F0001A004346134352468A404946081A8249B6
:1074000089468144002068E77B4B002700268EE7F1
:10741000140C1204120C1100370C3604350C79438D
:1074200028008C462E00604360448346564321006A
:10743000300C80465846794340440291844506D931
:107440008846802149028C46E04441460291360438
:10745000010C360C00048B4681191E0C1B041B0CFE
:107460000391190079438C46280075436544A8466A
:107470005843050C45447743A94203D9802149026A
:107480008C466744290C8C4639000004000C2D04FE
:107490002D186144AB4405915946049101990F049C
:1074A0003F0C080C390051434243904602008C4681
:1074B000090C8B4662437C4344445C44A04503D999
:1074C0008021490288464244210C884661460904CD
:1074D000090C8C4639005943434370437E430F0CDB
:1074E000F6182404BE19644442448C46B34203D9BE
:1074F00080235B0298464044029B61469846049B69
:10750000370443449B46AB45AD416B420D0405999E
:107510002D0C8C467F196744FD18A8465D462D1931
:10752000A542A44193466442A446C344DC448F422E
:10753000BF4198459B4193459241A445A4415B427C
:107540007F421F43360C52426442BF192243BF1888
:10755000624638184302D20D039913436A020A4364
:10756000501E82416146ED0D2A434E023243D9013D
:1075700000D4B3E00126500832400243DE07324314
:107580005B08224C5444002C62DD510709D00F20C7
:107590001040042805D0101D9042924152429B1881
:1075A0000200D90104D580241948E4000340544462
:1075B0001848844200DD27E75E075B02D2081F0BF4
:1075C000630516435B0DB2E6002399460133042799
:1075D00000269B4664E60323019781460C279B46C1
:1075E0005EE6012201201743002276E603230320F2
:1075F0001F43434671E6C046FF07000001FCFFFF42
:10760000C0C40000FFFF0F800DFCFFFFFF03000060
:10761000FFFFFFFEFE0700000023802700933F03CB
:107620000026434B83E6019B3200A446584670E691
:10763000AC466EE6802701993F0339422DD03B428C
:107640002BD11F433F033F0B00951600384B6EE6CE
:1076500001252D1B382D00DD66E61F2D40DC354849
:107660001C005044160082408440EE40501E82416F
:1076700034431443EB40620709D00F222240042A0E
:1076800005D02200141D9442804140421B181A026A
:107690003ED501230027002649E68027019B3F03B2
:1076A0001F433F033F0B0094214B40E603005A4623
:1076B000283B9A40002601926DE6584600F044FCB3
:1076C000203057E603005246283B9A401300002220
:1076D00093E6504600F038FC20307BE6CA4650E77F
:1076E0001F201E004042041BE640202D03D0124CF8
:1076F0005444A3401A43501E8241324307260027B8
:10770000164009D00F200023104014000428B9D1DE
:1077100022005E075B021F0BD2081643002306E619
:1077200080273F031F433F033F0B1600004BFEE53E
:10773000FF0700001E0400003E040000F8B5574695
:107740004E464546DE460C000903E0B5490A460FA1
:107750005F0031431E03DB0F760A9B46530F334312
:10776000C84E6500C000E40FD2006D0DA2468146F0
:107770007F0D9C469046B74200D1B9E05B4601269A
:1077800073409B46EE1BA34500D183E0002E63DDD2
:10779000002F00D0B1E06346134300D123E1731EF4
:1077A000002B00D0BAE1861A6346B0428041012521
:1077B000C91A4042091A0B0200D447E149024B0A98
:1077C00098464346002B00D189E1404600F0BCFBBF
:1077D0000300083B1F2B00DD7CE120223000D21A81
:1077E0004146D040994002009E400A439D4200DD40
:1077F0006AE15D1B6B1C1F2B00DD94E12021100052
:107800003500C91A8E40DA408840DD40711E8E4135
:10781000110007222843002506433240002A09D0E0
:107820000F233340042B05D0331DB342B6417642BB
:1078300089191E000B0200D43DE26A1C914B5505CC
:107840006D0D9A4200D119E18F4AF6080A40570798
:1078500052023743120B9BE0002E00D0C5E06E1C95
:107860007605760D012E00DC48E16746861ACB1BB3
:10787000B042BF417F42B8461F004346FF1A3B005B
:10788000B8461B0200D55FE137439AD1002200249D
:10789000002579E0002E00DCFAE0002F00D18DE019
:1078A000784B9D4267D0802367461B041F43BC462C
:1078B000382E00DC52E1634613435A1E93411E18D2
:1078C00086428041404209180B0200D4BEE06D4B55
:1078D00001359D4200D1D2E06B4A73080A40012174
:1078E0000E401E435108D30707221E43324095E73E
:1078F0001E00164300D045E740E7624B9D423AD058
:10790000802367461B041F43BC46382E00DDEBE096
:107910001F2E00DC3AE133006746203BDF403B008E
:10792000202E05D04027BF1B6646BE4032439046FE
:107930004646721E96413343DAE0002B00D114E232
:107940006346134300D168E180234E07C008C9088D
:107950001B030643194208D06046C008184204D1F0
:1079600063460100D2085E071643F3009946C9003A
:10797000720F444D11434B46DE08424B4F073743CD
:10798000CA089D4200D16EE012036D05120B6D0D09
:1079900000211203130B0A0D12051A433B4B2D0550
:1079A00013402B435B00E4075B08234338001900B6
:1079B0003CBC90469946A246AB46F8BD634613438D
:1079C00011D0731E002B00D007E18618864280413B
:1079D00061444042091801250B0237D502257BE797
:1079E0003E00614691463500C5E75C46002D00D05B
:1079F000E1E00B000343F3D0731C00D1ACE1214B59
:107A00009F4200D13AE1F343382B00DD6FE11F2B99
:107A100000DD8CE120250E00ED1AAE40B0460600D8
:107A2000AA46DE40454635432E005546D940A8407B
:107A30006346451EA8415B1A9C463043161AB24263
:107A4000924163465242991A3D00B4E60722324001
:107A5000002A00D0E4E60B4BF6084F073743CA086C
:107A60009D4200D090E73B00134300D1A6E1802364
:107A70001B031A431203120B024D89E71500002263
:107A8000002785E7FF070000FFFF7FFFFFFF0F8054
:107A9000002E00D0C7E06B1C5E05760D012E00DCC9
:107AA000F0E0C84DAB4200D1B9E085180A0085422C
:107AB00089416244494251180722CE076D082E437E
:107AC000490832401D00A9E6BF49ED1A11400722BE
:107AD0003240A3E6320028388240002686E6300095
