:1020000000800020352300001D2300001D23000058
:1020100000000000000000000000000000000000C0
:102020000000000000000000000000001D23000070
:1020300000000000000000001D23000089230000B4
:102040001D2300001D2300001D2300001D23000090
:102050001D2300001D2300001D230000212300007C
:102060001D2300001D2300001D2300001D23000070
:102070001D2300001D2300008D2200001D230000F1
:102080001D2300001D2300001D2300001D23000050
:10209000000000001D2300001D2300001D23000080
:1020A0001D2300001D2300001D2300001D23000030
:1020B0000000000010B5064C2378002B07D1054B1B
:1020C000002B02D0044800E000BF0123237010BDA4
:1020D000B0000020000000002C6E0000044B10B582
:1020E000002B03D00349044800E000BF10BDC046E8
:1020F00000000000B40000202C6E0000962110B5F6
:102100008901044801F0E6FA0021102000F098FB54
:1021100010BDC0467003002073B5FA20800000F0A7
:1021200071F9274C2749200000F081FC0A2000F0BB
:10213000C3FA102000F018FB0500102000F014FB7B
:10214000214B0226584304F073F9204A204B03F038
:1021500063FB00221F4B03F05FFB00221E4B03F0CA
:10216000CDFD04F0E9F91D4B186004F093F90096D9
:1021700002000B00200000F043FD280004F058F995
:102180000022174B03F048FB0022124B03F044FBE4
:1021900004F0D2F904F07EF90022124B02F032FF73
:1021A00000220D4B03F0AAFD04F0C6F904F072F909
:1021B000009602000B00200000F022FD73BDC04617
:1021C00070030020E86800000C0D00009A999999AE
:1021D0009999B93F0000503F00107140CC00002099
:1021E000002AAA4000002440104A114B11491360F4
:1021F000002353711371104A104811601049D360C5
:102200009180092191710639537413741375D37138
:1022100011720C4A10600C48D36090801B205374DC
:10222000137413759071D3711172704708010020F7
:1022300000093D0054030020D0000020600300206E
:102240000A080000EC0000201D1A00007047000082
:1022500010B5034A0349044802F0BEFA10BDC04657
:10226000000000204D2200001001002070470000F7
:1022700010B5034A0349044802F0AEFA10BDC04647
:10228000000000206D2200001101002010B502485E
:1022900000F069FF10BDC0461401002013B51249BB
:1022A000124800F00BFD1249124800F007FD1249D8
:1022B000124800F003FD1249124800F0FFFC1249D9
:1022C000124800F0FBFC124C1249200000F0F6FC12
:1022D00001230193023300930D220B3321000E489A
:1022E00000F0D6FE13BDC046000800425003002097
:1022F000000C00425403002000100042580300204C
:10230000001400425C03002000180042600300201B
:1023100064030020001C004214010020FEE70000BE
:10232000034B10B51B68002B00D0984710BDC0466A
:102330006803002070B50F490F4CA14204D100F092
:1023400089F800F02BFBFEE70C4D00238D42F6D000
:10235000CA18E818A24205D3094B8242EFD00949B6
:10236000002204E0006804331060F1E704C38B42EC
:10237000FCD3E4E700000020B0000020306E000035
:10238000B0000020A409002010B500F060F800287B
:1023900001D100F051F810BD014B18607047C046E4
:1023A00068030020F7B51348012284461249134CF4
:1023B0008E68636805689B0E1340019288686268A6
:1023C000019F920E3A4067463F6893420ED1BD424C
:1023D0000CD186420AD35B19FA254868AD00861BEA
:1023E00007486B437043000DC018FEBD3D0013004D
:1023F0000600E3E76C03002010E000E000ED00E0E1
:102400005555000070B5041E10D0FFF7CBFF050036
:1024100000F01CF8FFF7C6FF054B401B9842F7D9A8
:10242000FA23013C9B00ED18002CF3D170BDC0468F
:10243000E70300007047000010B5034A136801333A
:10244000136000F0FFFB10BD6C03002070470020FC
:10245000704700001E2270B54648474943689343C1
:102460001C3A1343436008238C6923438B61434C1C
:10247000434B9C829C8A14439C82DC681442FCD0AF
:102480000124404A14701578254203D055786DB266
:10249000002DF8DB01249460547864B2002CFBDB3F
:1024A000394C5460547864B2002CFBDB8224E40184
:1024B0005480547864B2002CFBDB02249C840E34DC
:1024C000DD682542FCD0314CDC621024DD682542F9
:1024D000FCD09D8C2E4C2C439C841024DD6825421E
:1024E000FCD002249D8C80262C439C844024DD68F3
:1024F0003542FCD0DD682542F9D01024DD68254244
:10250000FCD000249460547864B2002CFBDB214C96
:102510005460547864B2002CFBDB1C6A1E4D2C40C6
:1025200080251C621C6AAC431C62032393601B4B16
:10253000536053785BB2002BFBDB0023FF240B724C
:10254000174A4B728B72CB72164B1A60164B174A96
:102550001B6811689A065B01C90E2340520F1202D4
:102560000B431343124A138580234268134343608D
:1025700070BDC04600400041000400400C06000051
:1025800000080040000C004001050100B905FF7D76
:10259000040A000000070300FFFCFFFF0306010020
:1025A000006CDC02040000202460800020608000B9
:1025B00000400042FA21314B10B51868890002F042
:1025C0001DF92F4B0138984256D82E492E4A4860A3
:1025D000C020136A00061B021B0A03431362002477
:1025E00007238C600B608021136A09061B021B0AFB
:1025F0000B431362FC22254B196A0A431A62FC2220
:10260000196A92010A431A62A022196AD2020A4385
:102610001A6220000021013400F012F9162CF8D1C2
:102620001B4B1C005A7852B2002AFBDB194A5A8015
:10263000194B1A00597EC9090129FBD0E421C900B0
:1026400099803F21D970537EDB09012BFBD0C02339
:1026500000205B011361907000F054F863785BB266
:10266000002BFBDB0D4B0E4A6380D379DB09012B7A
:10267000FBD04123537010BDFEE7C046040000208C
:10268000FFFFFF0010E000E000ED00E0000400406C
:10269000000C00401E4000000040004221400000AD
:1026A00000480042914202D002D98A1AD0407047B5
:1026B000521A9040FBE700000F4B302218600F4980
:1026C0000F4B0A2809DD988890439880243A0A60C5
:1026D0005A7ED209012AFBD07047082806DD988867
:1026E0009043202202439A800A22F0E7988802430E
:1026F0009A800822EBE7C0460C000020080000206A
:1027000000400042164A00B51300517EC909012954
:10271000FBD00138042816D81969124A0A400F2143
:102720001A615A788A4302F05FF80308060B030027
:10273000110001220A435A7000BD11000322F9E77B
:1027400011000222F6E7F02311691B050B430F214C
:10275000136153788B43190002230B435370EBE74B
:1027600000400042FFFFFFF010B504000E2800D823
:102770000F340121200000F0AFF81823102163432B
:102780002A4CE4186156002901D014290DD1284B98
:102790001800DA79D209012AFBD002241A78A24360
:1027A0001A70C379DB09012BFBD022480300427E5B
:1027B000D209012AFBD01F2402692140A2430A4307
:1027C00002615A7ED209012AFBD0022219780A43FB
:1027D0001A705A7ED209012AFBD00222197B0A43C1
:1027E0001A731A7ED207FCD501221A765A7ED209B4
:1027F000012AFBD00222197B0A431A731A7ED207E0
:10280000FCD5588B80B25A7ED209012AFBD0022116
:102810001A788A431A705A7ED209012AFBD0064BD5
:102820001A68064B1968FFF73DFF10BDF8680000F5
:1028300000480042004000420C0000200800002038
:10284000182330B51D00040045430820204A5519BF
:102850002856013014D0032912D808006343D156FA
:10286000D31801F0C1FF02280E1B5868CB010221CA
:10287000184A9B181A1840321170012282405A607F
:1028800030BD5868CB010621124A9B181A184032F5
:102890001170012282405A609A61F1E75868CB01B9
:1028A00006210C4A9B181A184032117001228240EE
:1028B0005A605A61E4E75868CB010221054A9B1827
:1028C0001A1840321170012282409A60D8E7C0463F
:1028D000F86800000044004118224243F8B52C4E2D
:1028E0000300B218127A52B2140001320ED0481C02
:1028F00000240C280AD801F077FF071F1F1F1F1F95
:102900001F1F1F0B0B0B0B00012464422000F8BD9E
:10291000092905D100211800FFF792FF0024F5E7EF
:102920000A2901D10839F6E700240B29EED10A392A
:102930001800FFF785FFE9E718225343F21855689E
:1029400001202C00F356134ADB016E089B18C9B214
:1029500004409E19002C0DD00F2430363278090126
:1029600022401143C9B25B19317040331A781043C9
:102970001870D3E732000F27303216785B19BE4348
:102980003143117040331A7810431870BEE7C046C7
:10299000F8680000004400417047000010B5FFF7E0
:1029A00009FE03F079FEFFF7F7FF0120FFF72AFD8C
:1029B000084C200001F0A2F9200001F04DFAFFF7C9
:1029C0009DFBFFF7A9FB044B002BFAD000E000BFF2
:1029D000F7E7C046D803002000000000F7B5060066
:1029E0000D000C008B180193019B671B9C4207D0C4
:1029F000336821781B683000984701340028F3D1F0
:102A00003800FEBD70B5040008000D0003F048FF5B
:102A10002368020029005B682000984770BD10B54C
:102A20000B1E02D0FFF7EEFF0300180010BD10B51B
:102A3000FFF7F5FF10BD10B503681B68984710BD80
:102A400010B50249FFF7DEFF10BDC046646C000000
:102A5000F0B58BB06B461500002205330600DA771F
:102A60000800012D00D80A2509AC290001F04CFF0F
:102A7000CAB2130037330700DBB2092902D81300AA
:102A80003033DBB2013C2370002FEED12100300047
:102A9000FFF7C5FF0BB0F0BDF7B51E0008AB1B7804
:102AA00031000193050033001000170003F06EFCA5
:102AB0004B49002814D10122740064085242494B4A
:102AC0003800210003F062FC00280FD10122454BA1
:102AD00052423800210001F03DFF002806D1424952
:102AE0002800FFF78FFF04002000FEBDE0223F4BCF
:102AF00012063800310001F037FF002801D03C49B0
:102B0000EEE7E0223B4B12063800310001F018FFDF
:102B10000028F4D1002200233800310001F010FF1A
:102B2000041E07D02D212800FFF785FF8023040015
:102B30001B06F618002300202F490093019B009AE2
:102B4000934208D02D4B002202F05CFA009B013327
:102B5000DBB20093F2E733003A0001F037FF0F00D9
:102B6000060001F015FF0A22019001002800FFF77E
:102B70006FFF009B0419002BB6D0019803F058FC9E
:102B800002000B003000390003F0B8F806000F0017
:102B900028002E21FFF74FFF2418009B013BDBB2DA
:102BA0000093FF2BA0D0154B00223000390002F01B
:102BB00033FE0F00060001F0EBFE0A220100019037
:102BC0002800FFF745FF2418019803F031FC0200AC
:102BD0000B003000390003F091F806000F00DCE72D
:102BE000586C0000FFFFEF7F5C6C0000FFFFEF41BF
:102BF000606C0000FFFFEFC10000E03F00002440D8
:102C000037B519000400069B2000DBB200930B00CF
:102C1000FFF742FF05002000FFF712FF40193EBDFD
:102C200010B50400FFF706FC014B1C6010BDC04648
:102C3000100000200122024B52421A607047C04629
:102C400010000020164A10B51368591C26D0013B0D
:102C50001360002B22D172B6124B134A04339342F5
:102C600013D9124A01211000147D0C42FCD02021FE
:102C7000148BFF319B085B0021431183D3610C4B04
:102C800013800123027D1A42FCD0BFF34F8F094B02
:102C9000094ADA60BFF34F8FC046FDE710BDC0465A
:102CA000100000200020000003020000004000414E
:102CB00002A5FFFF00ED00E00400FA050160704787
:102CC0009446F0B59E1E721E9641624605689207B4
:102CD0002F6836063A4332432A60072505AC24782C
:102CE0000068A4012940214342680024022B00D03F
:102CF0005C03114321434160F0BD30B5C02503683A
:102D0000AD031C6812052A402243C0240904A40212
:102D100021401143196003685A6814435C6030BD58
:102D20000123026811680B43136003681A68D20715
:102D3000FCD4DA69D207F9D470470223026811681B
:102D40000B4313600268D3699B07FCD47047036888
:102D50001A7ED20702D41A7E9207FCD57047002251
:102D600003685A8370470368187E4007C00F704796
:102D70000368187EC0097047802302685B42117E99
:102D80000B43137670470368588B8007C00F70475A
:102D900002230268518B0B43538370470368187EEC
:102DA000C007C00F70470368188DC0B27047036832
:102DB0001A7ED207FCD589B20120198570470122FD
:102DC00003689A757047012203681A7570470000FE
:102DD0000368214A30B593422FD0204A93422FD026
:102DE0001F4A93422FD01F4A93422FD01E4A93422C
:102DF0002FD01E4A93421FD10E23192201210325F1
:102E000099401B48C024016099082B40AB40FC3519
:102E10009D4089000918A4000859A843C0259D4079
:102E20002B0003430B518023DB011A43114B5A80C3
:102E30005A7852B2002AFBDB30BD09231422DDE7A9
:102E40000A231522DAE70B231622D7E70C231722D1
:102E5000D4E70D231822D1E700080042000C0042FD
:102E6000001000420014004200180042001C004202
:102E700000E100E0000C0040F8B504000F0016006F
:102E80001D00FFF7A5FF2000FFF74AFF1C21BB0034
:102E90000B4071072268090C0B43136084232268DE
:102EA0009375012F1AD11021012E00D008390C4B37
:102EB00069431868C00001F0A1FC072221680240A4
:102EC0008B895203DB04DB0C13438B8122680304E0
:102ED0009089DB0C400B400318439081F8BDC0463D
:102EE000040000200120704710B50368014A1B6AE6
:102EF000984710BD130400000300FC33D9699A6998
:102F0000914203D0DB69C018007D70470120404228
:102F1000FBE710B504000069FFF702FF2200002361
:102F2000FC329361D36186229200A4186360A3608F
:102F300010BDF02001403039484248417047F0232D
:102F40001B011940802306209B0099420AD00133BF
:102F5000FF330130994205D0802302385B0099424B
:102F600000D0002070470F2001400020012903D02D
:102F70000239481E8141481C704700008923F0B582
:102F8000182685B002919B000400C05C3300082124
:102F90004343324D1700EB185956FFF79DFC304B59
:102FA0000821E05C33004343EB185956FFF794FCCB
:102FB0002C4BE25C0393022A09D11133E05CFF2819
:102FC00005D008214643AE197156FFF785FC8A26C5
:102FD000B600A05DFF2819D00121FFF731FC1822AF
:102FE000A35D21495A43AB56AD18DB0158188B211C
:102FF000890060501D4901225B188C2189006350B3
:1030000069688A408D21890062501A600122029B02
:1030100011002069FFF730FF39002000FFF78FFF14
:10302000390005002000FFF79EFF39000600200050
:10303000FFF77FFF33000090290020690122FFF78E
:103040003FFE0B4B2069E25C039BE15CFFF755FE02
:103050002069FFF772FE05B0F0BDC046F8680000B9
:1030600025020000270200001844004114440041DA
:1030700026020000802210B504005200002103F057
:103080004CFB23000022FC335A6020009A6010BDE4
:10309000F7B51D0008AB1B780400009309AB1B7843
:1030A0001600019300234360FA239B008360114BB9
:1030B0000F00083303601430FFF7DCFF20001D30E1
:1030C000FF30FFF7D7FF89236A469B002761E6544C
:1030D000094B1278E554094B2000E2546A46084B2C
:1030E0001279E2548A22293BFF3B9200A35410320A
:1030F000A354FEBD686C00002502000026020000FB
:10310000270200000300FC3358689B68C01A01D5F1
:103110000130FF30704710B5040020001D30FF3033
:10312000FFF7F0FF0028F8D12069FFF710FE10BD6F
:1031300010B51430FFF7E6FF10BD0300FC335968EB
:103140009A68914204DB5A689868801AFF30704789
:1031500098685B68C01A0138F9E710B51D30FF3078
:10316000FFF7EBFF10BD10B504000069FFF70BFE81
:10317000002805D02069FFF716FE2069FFF708FE3A
:103180002069FFF7F0FD002820D02069FFF70BFE33
:103190002200FC329369D1690133DBB28B4203D048
:1031A00091696118087593618A239B00E35CFF2B8A
:1031B0000CD020001430FFF7C0FF092806DC8B2359
:1031C0008D229B009200E358A2581A602069FFF7F5
:1031D000E5FD00281AD020001D30FF30FFF792FFD8
:1031E000002822D086239B00E31899685A689142F0
:1031F00018D08E219A684900A218515C9A68013251
:10320000D2B29A60C9B22069FFF7D1FD2069FFF7F9
:10321000AFFD002805D02069FFF7AEFD2069FFF75C
:103220009EFD10BD01214942ECE72069FFF7CBFD6F
:10323000ECE7000070B5040000690D00FFF7AEFD7B
:1032400000283ED1FF2686239B00E3185A68996820
:10325000013232408A4223D1EFF31083DB0710D4CE
:103260001E4B5B68DB05DB0DEDD0103B5BB2002B2A
:1032700010DA0F221340083B9B08194A9B009B1849
:103280001B682069FFF78AFD0028DCD02000FFF7CB
:103290006AFFD8E79B08C033124A9B009B58F0E7AF
:1032A0005A68013216409A68964205D08E215A68B3
:1032B0004900A21855545E602069FFF780FD012087
:1032C00070BD20001D30FF30FFF71CFF0028B9D172
:1032D00029002069FFF76BFDF1E7C04600ED00E033
:1032E0001CED00E000E100E0030070B5FC33D9699B
:1032F0009A69040091421AD0DA698218157DDA6958
:103300000132D2B2DA618A239B00E35CFF2B0CD03E
:1033100020001430FFF711FF0A2806DD8C238D22D0
:103320009B009200E358A2581A60280070BD012546
:103330006D42E8E70020704770B50F26CB1D0139BC
:1033400002003240D5B22C0000093034092A00DDD9
:1033500007341C70013B8B42F2D170BD10B50C00DC
:103360000B4B1868FFF7E8FF21000A4B083118687B
:10337000FFF7E2FF2100084B10311868FFF7DCFF70
:103380002100064B18311868FFF7D6FF202010BD2A
:103390000CA0800040A0800044A0800048A08000D5
:1033A00008B4024B9C46103808BC60475D330000EF
:1033B00070473F20704713B56B460268D9710733D9
:1033C000546819000122A04716BD000070B50A26F6
:1033D0000B7892B06E44023305000B703C22002142
:1033E000300003F09AF9394801AC0690384824219E
:1033F0000790062020776846364AA1742281364A13
:10340000364BA281FD3AFF3A8018C17768462339CE
:103410000630C17768460730C17702A8C177072018
:10342000F277032608316944C87703A9CE771021C3
:103430002B366E443170092621851F3169440E7088
:103440000CA9053E0E7033212380022369440B70C2
:1034500006360DA90E7022493536A1863B216E44F1
:10346000307010A86274E27702703D3269446A4499
:103470000B70137040210022E37023716371A373FA
:1034800041336B44218719705A702B7DC039A3706A
:10349000A37263770133DBB2A3776A7D0B200D0043
:1034A00068441543C5773120684403703A23501CA3
:1034B0006B441870412302320A436B441A70210096
:1034C0004222084800F05CFF12B070BD10010424D5
:1034D000020605240904000001020000080B000098
:1034E00007050000D803002008B4024B9C461038A2
:1034F00008BC6047CD33000070B5027D0B790C002D
:1035000000259A420BD10B784E78A12B09D1212EA0
:1035100005D107221F49204800F032FF013528005D
:1035200070BD212BFBD1202E2BD1072219491A481F
:1035300000F068FE174B1A785978090211439A78FF
:1035400012041143DA7812060A439621C9008A420E
:103550001DD1DB79DB071AD4FA20FFF761FB0021CC
:103560000D4801F019F80125232ED8D1E378A2786F
:103570001B021343094A00210748136001F00CF8AD
:10358000CDE7222EEFD18A78024BDA71D2E7FFF72E
:1035900051FBE4E718000020D803002014000020AD
:1035A00008B4024B9C46103808BC6047F934000050
:1035B00010B5417D006A013100F05CFD034B1B68D2
:1035C00001335A1E9341181810BDC0462000002038
:1035D00010B5417D006A023100F062FD10BD10B5EA
:1035E000417D006A023100F029FD10BD70B50D006B
:1035F000417D0400130002312A00006A00F016FE2B
:10360000002801D10123636070BD000010B5054C96
:1036100023685A1C04D103685B6998470300206043
:10362000180010BD20000020074A0300106810B5E4
:10363000411C03D001235B42136010BD597D186A01
:10364000013100F0A3FDF8E72000002070470020C2
:1036500070470000FA239B0010B583600F4B0022D7
:10366000C3820300283383610D4B04004260C261B2
:103670001800443323610830631D21622060DA772B
:103680008323A362813BE3628033236300F0AEF8BF
:103690002100103100F07EF8200010BD0302000070
:1036A0009C6C0000022110B5094B1A68437D5B0138
:1036B000D318FF339C7A21439972437D0133DBB2E7
:1036C0005B01D3180122FF33997A0A439A7210BD25
:1036D000900800207047000010B502490248FFF72B
:1036E000B9FF10BDD80300207003002070B50E0094
:1036F00000254468002C0BD0236831005B68200053
:103700009847002802DB2D18E468F3E701256D4295
:10371000280070BD70B50D004468002C08D02368E7
:1037200029009B6820009847002802D1E468F4E74C
:10373000200070BD70B50D0000264468002C09D033
:103740002368290020001B69984736182D18F6B207
:10375000E468F3E730002C7070BD70B50D0044686C
:10376000002C08D0236829001B68200098470028F7
:1037700002D1E468F4E7200070BD70B50D00446824
:10378000002C06D023682000DB6829009847E468F5
:10379000F6E770BDF0B58C79457803002A19002052
:1037A000072A1FDC5A68824216D159601A78C879F4
:1037B0000A7112184D711A7000220B4DD0B284425A
:1037C0000FD98F6858789600F759860001307751E5
:1037D00001325870F2E70200D0680028FBD1D160B6
:1037E000E4E70120F0BDC046B00300200121064AF5
:1037F00010B5136805480B4004D180246400048090
:103800004360116010BDC046A4030020A80300203F
:10381000704710B5040000F0DBFF200010BD000071
:10382000F0B5822919D1C3B2294D5A01AA1891695C
:10383000284C80010C40C021890521439161264913
:10384000083340187021506128685B011A5C8A4374
:10385000110030220A431A54F0BD0029FCD1C026C1
:10386000C1B21B4C4B01E3189A681A4DB6052A40A9
:1038700032439A60194A800182185A600A00072769
:10388000246808325201115DB9430F000121394308
:1038900011559F6910493D4040182E439E61586163
:1038A0007020115D81430800102101431155996872
:1038B0000B48A21808408021490301439960996888
:1038C000890B89039960402311790B431371C3E776
:1038D00090080020FFFFFF8F04040020C405002093
:1038E000FF3F00F0EFF3108303600123436072B6E3
:1038F00070470368002B02D162B6BFF36F8F704729
:10390000F7B50600FC36B3690400002B18D1B227C6
:103910007F00C55D6846FFF7E5FF019BEDB2013B07
:1039200002D3E55DEDB2FAE768460193FFF7E1FFE8
:10393000002D01D10020FEBD706E336EC01AFAE773
:103940006846FFF7CFFFD8220025019B5200013BBC
:1039500002D3A55CEDB2FAE768460193FFF7C9FF11
:10396000002DE7D0D6235B00E058043BE358E5E7A1
:1039700010B54468FC3043690B48DBB25A01A21809
:1039800091680833084080214903014391609168A0
:103990005B01890B890391602268D3184022197951
:1039A0000A431A7110BDC046FF3F00F0F7B505008D
:1039B000FC356B694268DBB21900040008311068FD
:1039C00049014118C979C90711D55B01D21893681B
:1039D0009B049B0C0CD12000FFF7CAFF63681A6898
:1039E0006B69DBB208335B01D3187F22DA71F7BD54
:1039F000E969002923D16B66230001266933FF336F
:103A0000EE6168465360B227FFF76CFF7F00B2217A
:103A1000019BFF31013B5A1C38D0D822E655520099
:103A2000A25C581ED2B26254625C8446002A04D161
:103A300020000193FFF79CFFE9E76346EBE7D621FF
:103A4000490063500023EB6123001D33FF335360B3
:103A50006846D826FFF746FF01277600B221019B72
:103A6000FF31013B5A1C11D0B222A7555200A25C73
:103A7000581ED2B26254625C8446002A04D12000EF
:103A80000193FFF775FFE9E76346EBE768460193AB
:103A9000FFF72FFFA2E7F7B5060068463400FFF7EF
:103AA00021FF0027FF22019BFC34013B0DD3E0687E
:103AB0002169884204DBE7682069D71B3F18F4E7D7
:103AC0002769E1687F1A013FEFE768460193FFF736
:103AD00010FFA3696846002B52D1FFF703FFB22104
:103AE000019B4900013B5A1C0CD0755C5A1EEDB27B
:103AF000002D05D168460193FFF7FBFE2800FEBDAF
:103B00001300F0E7684601930025FFF7F2FEFF225D
:103B1000236EBD4214D0616E994211D9591CF3181D
:103B20002166FF33587FE36821690133C0B2134037
:103B30008B4203D0E16871180872E3600135E7E752
:103B4000626E9A42DAD1002323660133A36168468C
:103B5000B224FFF7C7FE6400B2220021019BFF32AE
:103B6000013B581CC6D03155B05C5F1E002805D003
:103B7000B15430000193FFF7FBFEEDE73B00F0E7A7
:103B8000FFF7B0FED821019B4900013B5A1C06D02B
:103B9000755C5A1EEDB2002DACD01300F6E76846F6
:103BA0000193FFF7A6FED623D4225B0000259C4696
:103BB0005200B358BD4203D061467158994220D893
:103BC0006246B2589A4299D1D42200235200B3508F
:103BD0006846A361D824FFF785FE6400B222002165
:103BE000019BFF32013B581C00D183E73155B05C8B
:103BF0005F1E002819D0B15430000193FFF7B8FEC2
:103C0000ECE7591CB150FF21F3186933FF331878E2
:103C1000E368C0B201330B4021698B4203D0E168F5
:103C200071180872E3600135C3E73B00DBE710B5AC
:103C30000400FFF730FF2300FC331969DA68914272
:103C400003D01B69E418207A10BD01204042FBE735
:103C500010B50400FC34FFF71EFFE0682369C01AAA
:103C600001D50130FF3010BDF0B585B00192009153
:103C70000500FFF710FF02A8FFF734FE0120002423
:103C8000FF26039B40425A1E531C1FD02B00FC33BF
:103C900001998C4218D2D9681F69C91B01D501311D
:103CA000FF31002910D01969DF688C460100BC453E
:103CB00006D019691F69691801373740097A1F61F1
:103CC000009F39550134E3E7013ADDE702A803928A
:103CD000FFF70FFE200005B0F0BD37B56B46DC1DC9
:103CE00000230D002370FFF781FD2100FFF7FEFC8C
:103CF0002B681818286020783EBD00002023F7B5F7
:103D0000474A0500D1690F200B43D3610122454981
:103D10000B7813430B70444B1978814319700621BB
:103D20001C782143197041490C7822430A701A7893
:103D300002401A70602219780A431A703C4B3D4ABF
:103D40005A805F78FF09FCD13B48FEF725FB012331
:103D50003A4C3B4E2268300011780B43137080229E
:103D60003900520002F0D9FC22689378DB07FCD4BA
:103D700056621F26334B1B68590B980C9B01314030
:103D800030405B0FB14200D105211F2800D102381D
:103D9000072B00D1043B31408901178D01912A493D
:103DA00030400F40019939431185118D0700B1430F
:103DB000080038431085118D1803244B7F260B40D3
:103DC00003430C2013850823D17881430B4303213F
:103DD000D3702268D3788B4301390B43D3702268A8
:103DE000137833401370042322681678334313701A
:103DF0002268C1241389A400834315481381035901
:103E00001B021B0A035180230360137811481943D6
:103E1000012311702B700021FFF75CFCF7BDC04639
:103E200000040040584400413C44004159440041D2
:103E3000000C004006400000A94700009008002048
:103E400094080020246080003FF8FFFFFF8FFFFFF1
:103E500000E100E0700300200078002810D001216C
:103E6000084B1B681A898A431A810822198B0A4356
:103E70001A830422198B0A431A830022024B1A6008
:103E80007047C046900800208808002010B50F4AEF
:103E900093699B0B9B03936113680222FF331A7291
:103EA0009879823A02439A711A7A9207FCD57F2454
:103EB000074A2140937A0800A34319008023014355
:103EC0009172917A5B420B43937210BD900800206F
:103ED0000050004110B50C00FFF788FC2100FFF7EF
:103EE0003CFC002804D1034A93699B0B9B0393611C
:103EF00010BDC04690080020F7B50D00832A19D1E7
:103F0000CBB2404C5A01A21891693F48AD0108401C
:103F1000C0218905014391613C4920686D187021D9
:103F2000083355615B011A5C8A43110040220A4341
:103F30001A54F7BD022A5FD1354B8A00D0580028A9
:103F400002D003685B699847DA20400000F03CFC2F
:103F5000802204002B4E2F4B46600360520000214C
:103F6000083002F0DAFB2200B2210023FC324900C3
:103F7000D3605561136113669361D36153666354D3
:103F8000443163500431635004316354B221FF3132
:103F90006354FF202B0003405901019371188F686F
:103FA000194BAD003B40C027BF051F438F6007275B
:103FB000019B366808335B01995DB9430F0003210B
:103FC0003943995523005169666801401D33490101
:103FD000FF3371184B60636852691B6802405201DD
:103FE0009B1801221B18997A20000A439A72FFF746
:103FF000BFFC074BEC509CE711002800FFF710FCBA
:1040000097E7C04690080020FFFFFF8F04040020C0
:10401000DC030020FC6C000070B505000124064B99
:10402000A200D258002A06D0210028000134FFF750
:1040300063FF0A2CF3D170BDB00300200B4BCAB252
:104040000B488901C9185301C3185961996908328D
:10405000890B89039961036852019A180223D3716D
:104060005179823B0B4353717047C04604040020D2
:1040700090080020084B8A00D05810B5002803D0C3
:1040800003689B68984710BDC9B2044B4901591891
:1040900088688004800CF6E7DC030020900800208C
:1040A00010B50C00FFF7E6FF00280CD0064BE4B279
:1040B0001B68083464011C19802362795B42134336
:1040C00063710223E37110BD90080020F0B51C005D
:1040D0002A4B85B01B6807000D000292002B4AD0C6
:1040E000274B8A00D058002808D0036822005B685C
:1040F000029998470400200005B0F0BD3800FFF792
:10410000B9FF844204D929003800FFF7B3FF040047
:104110000121EBB21B4E03935B010193F2189368EC
:104120009B0B9B039360019A336802989B18FF33A3
:104130005A7A0A435A72144BA901C918220002F094
:10414000E3FA002CD7D029003800FFF793FF0028AE
:10415000D1D14021039B326808335B01D318187911
:10416000014319710121D971019BD318FF339A7A48
:104170000A439A72BFE701246442BCE78808002022
:10418000DC03002090080020C405002013B56B4616
:10419000DC1D22000123FFF799FF012801D12078BF
:1041A00016BD01204042FBE770B5CBB2124A13485E
:1041B0005C0189018918021951609168104D08331A
:1041C0000D40802149032943402591609168890B66
:1041D0008903916001685A018A181679354315716F
:1041E00095796D06FCD55B01C918CB79DB07FCD549
:1041F00000198068C0B270BDC4050020900800207E
:10420000FF3F00F070B50D0000211400FFF7CCFF58
:10421000A04200D9200000230349A34203D0CA5C76
:10422000EA540133F9E770BDC4050020F0B51E0063
:104230003A4B85B01B680F000192002B35D08023CC
:10424000DB019E4231D80025354B8A01D3180293F9
:10425000002E2CD0334B1B680393FF233B401C00E4
:1042600000930834039B64011C19A379DB0921D056
:104270002D4B2E49186800F0C1FA2D4B17215843D9
:1042800000F0BCFA2B4BE279920713D4DA5D002AD6
:1042900001D10138F7D20122DA55009B5A01214B96
:1042A0009B189A69920B92039A6101256D4228002E
:1042B00005B0F0BD00221F4B3400DA553F2E09D95E
:1042C000009B40245A01174B9B18802299691206C3
:1042D0000A439A6122000199029802F015FA009BA4
:1042E000A1045A010F4B890C9B18029A2D195A618F
:1042F0009A69361B920B92030A439A61009B039AB8
:1043000008335B01D3180222DA715979823A0A43E1
:104310005A71019B1B1901939AE7C0468808002037
:1043200004040020900800200400002040420F00F8
:1043300070110100F903002070B50D001C000D4B39
:10434000AE01F61811003000220002F0DDF9EDB2E6
:1043500009496D014D196E61AB69084A200013408F
:10436000AB61AB69A2049B0B920C9B031343AB6143
:1043700070BDC0460404002090080020FF3F00F0FC
:10438000F7B5104B01901B780F001500002B0CD1D6
:104390000D4B16001C78002C09D00C4E0C483488AC
:1043A0002018641902F0B0F934802800FEBD002EF8
:1043B000FBD03A19330000210198FFF7BDFF241804
:1043C000361AF4E7840700208508002086080020BC
:1043D00085070020F8B50F0016000024012A26D911
:1043E000100002F07DF90500380002F059FA0323AD
:1043F00002220130400028706B7096420DD9397846
:1044000000290AD0531CDBB20137A9549E4203D0C5
:104410000232EC54D2B2F0E7320029000548FFF72F
:10442000AFFF441EA041C4B2280002F063F920008F
:10443000F8BDC046D8030020F0B50024012685B0A1
:10444000184B0F0069461E7005000094FFF745FCED
:10445000154B01A90B806A3BFF3BCB715A330B72A2
:10446000009B8C7109334B800E4B4E7108711C7090
:104470003A00092F0FD00D4F09223E700C4E280034
:1044800000943480FFF77CFF69462800FFF725FC85
:10449000328808493C702800FFF772FF012005B000
:1044A000F0BDC046840700200902000085080020F6
:1044B000860800208507002070B5CE7892B00500F0
:1044C0000C00022E0BD18B79C9792E4809021943B1
:1044D000FFF7B2FF411E8841C0B212B070BDFFF7B6
:1044E00085F92100FFF716F9002803D0C117081A33
:1044F000C00FF2E7012E0ED1E279A37912021A431E
:104500002149112A3CD8D2B2002A39D02800FFF71D
:1045100037FF0120E1E7032EDFD1A378002B28D05D
:10452000022B08D1E279A379120218491A43280014
:10453000FFF750FFD1E7012B05D1E279A3791202F1
:104540001A431349F3E7032BC7D10100412201A805
:1045500002F0E3F8FFF74AF901A9FFF7EBF80028AA
:1045600005D0E279A37912021A4301A9DFE70378A3
:10457000FFDEE279A37912021A430649032AC2D95F
:104580000A78C3E7D8030020386D0000186D0000DA
:104590002C6D0000286D0000CBB204495B01C918E6
:1045A0008B699B0B9B038B617047C0469008002072
:1045B00037B5050048780C000B2810D800F014F926
:1045C000061B0F2B0F404561494C5A5D097801AA23
:1045D000002906D1022311802800FFF7ADFE01203B
:1045E0003EBD00231380284B1B78012B00D1137094
:1045F00002230021F0E78A780023012A03D101AACF
:104600001380224BF0E7204A1370214A93699B0BD9
:104610009B039361E3E78C78012C06D100211B4BAF
:1046200001AA1C7011702300D6E70120002CD7D1FD
:10463000154B174A187093699B0B9B039361CFE747
:1046400089782800FFF722FCC9E72800FFF734FF2C
:10465000C6E701230F4ACCE70B780020DB06BFD169
:104660002800FFF7D9FCA2780A4B0B481A60FFF725
:1046700019F8CAE70123094ABBE78A78074B1A6091
:10468000C3E70020ACE7C046F80300200004002088
:104690009008002088080020700300208C0800206B
:1046A0003B4BF7B51E780500002E5FD1394C2368CF
:1046B0009A8B12070DD5082231009A833000FFF73C
:1046C000AFF810222368FF33997A0A439A72324B6B
:1046D0001E6023689A8B520701D504229A83FF3308
:1046E0001A7A920603D52022597A0A435A721A7A04
:1046F000D20623D569460800284AC0CAC0C0A268AD
:10470000920B9203A2604022587902435A716023AF
:104710000A7828001A422AD1FFF74AFF2368FF339C
:10472000002827D08022997952420A439A711A7A36
:10473000520603D54022597A0A435A727F26012530
:104740002368FF331E722F00236808377F01DB19AF
:10475000DB79002B07D0124BAA00D05800280DD0CF
:1047600003681B6898470135082DECD1F7BDFFF7AA
:10477000B1FBD3E720210B4A9171D8E7FFF736F858
:104780002900FEF7FAFF2368DF19FE71EBE7C04648
:10479000850800209008002088080020C40500201B
:1047A000DC030020FF50004110B50248FFF778FFFE
:1047B00010BDC046D8030020014B024A1A60704762
:1047C000900800200050004110B501F089FF10BD95
:1047D00010B501F08FFF10BD0B0010B501001800DF
:1047E00001F04CFF10BD000002B4714649084900B9
:1047F000095C49008E4402BC7047C0460022430851
:104800008B4274D303098B425FD3030A8B4244D398
:10481000030B8B4228D3030C8B420DD3FF220902DA
:1048200012BA030C8B4202D31212090265D0030B99
:104830008B4219D300E0090AC30B8B4201D3CB038F
:10484000C01A5241830B8B4201D38B03C01A5241D1
:10485000430B8B4201D34B03C01A5241030B8B42D3
:1048600001D30B03C01A5241C30A8B4201D3CB02BE
:10487000C01A5241830A8B4201D38B02C01A5241A3
:10488000430A8B4201D34B02C01A5241030A8B42A6
:1048900001D30B02C01A5241CDD2C3098B4201D3BE
:1048A000CB01C01A524183098B4201D38B01C01A3C
:1048B000524143098B4201D34B01C01A52410309B3
:1048C0008B4201D30B01C01A5241C3088B4201D362
:1048D000CB00C01A524183088B4201D38B00C01A0F
:1048E000524143088B4201D34B00C01A5241411A36
:1048F00000D20146524110467047FFE701B5002043
:1049000000F006F802BDC0460029F7D076E77047F0
:104910007047C0468446101C62468C46191C63468C
:1049200000E0C0461FB500F00FFF002801D40021B1
:10493000C8421FBD10B500F067FE4042013010BDF7
:1049400010B500F001FF002801DB002010BD0120A0
:1049500010BDC04610B500F0F7FE002801DD0020B4
:1049600010BD012010BDC04610B500F089FE002822
:1049700001DC002010BD012010BDC04610B500F0C4
:104980007FFE002801DA002010BD012010BDC046C6
:1049900070B500220C4B04000D00FFF7EFFF00285C
:1049A00004D12000290001F00DFD70BD064B00224E
:1049B0002000290001F0A2F901F004FD80231B066C
:1049C0009C466044F1E7C0460000E041F0B54F4628
:1049D0004646D6460C000903C0B5490A470F5E009B
:1049E00039431F03DB0F9C4665007B0A570F1F43AB
:1049F0006D0DE40F760DA146C000B846D200AB1B8A
:104A000064457BD0002B5FDD002E00D0A4E03E008B
:104A1000164300D112E15E1E002E00D09EE1871ADF
:104A20004346B84280410125C91A4042091A0B0287
:104A300000D431E149024E0A002E00D16EE130006F
:104A400001F0FEFD0300083B1F2B00DD61E1202289
:104A50003900D21A9E40D1409F400E439D4200DD56
:104A600051E15D1B6B1C1F2B00DD7CE12021C91A6D
:104A70003D0030008F408840DD40791E8F4131007D
:104A800007222843D940002507433A40002A09D08D
:104A90000F233B40042B05D03B1DBB42BF417F424F
:104AA000C9191F000B0200D426E26A1CC64B55052B
:104AB0006D0D9A4200D106E1C44AFF080A4053072F
:104AC00052023B43120B8EE0002B00D0B8E06B1C6F
:104AD0005B055B0D012B00DC30E1871A4346B842D1
:104AE000B641CB1A76429E1B330200D54CE13B0007
:104AF0003343A1D100220024002570E0002B00DC0C
:104B0000E5E0002E00D183E0AF4EB54260D08026B4
:104B100036043743B846382B00DC3EE143461343A6
:104B20001F007A1E97413F18874280414042091872
:104B30000B0200D4B0E0A44B01359D4200D1C3E08C
:104B4000A24A7B080A4001210F401F435108D307A6
:104B500007221F433A4099E79B4EB54238D0802642
:104B600036043743B846382B00DDDCE01F2B00DC71
:104B700030E11E004746203EF740BC46202B04D0C3
:104B80004026F31A46469E403243170063467A1E7B
:104B900097411F43CCE0002B00D104E2434613436E
:104BA00000D159E14B07C00818438023C9081B03F3
:104BB000194208D04546ED081D4204D14346D008AD
:104BC000590708432900420FC9007F4D1143C00017
:104BD0004B07CA087C49C00803438D4268D01203C2
:104BE0006D05120B6D0D002112031800130B0A0D39
:104BF00012051A43764B2D0513402B435B00E40747
:104C00005B08234319001CBC90469946A246F0BDA0
:104C10003E00164312D05E1E002E00D000E1871821
:104C20008742804141444042091801250B0233D597
:104C3000022585E764463300414610001D00C7E7A2
:104C4000002D00D0DAE00C000443F3D05C1C00D14E
:104C50009FE15D4CA64200D12FE1DB43382B00DD04
:104C600066E11F2B00DD83E120240500E41A0F001C
:104C7000DD40D940A0404346A7405B1A441EA041F6
:104C800098462F433843171ABA429241434652423C
:104C9000991A64463500CAE607223A40002A00D035
:104CA000F6E64B07CA084849FF083B438D4296D1B8
:104CB0001900114300D19EE1802109030A43120328
:104CC000120B414D8FE71500002200238BE7002BCC
:104CD00000D0C7E06B1C5F057F0D012F00DCF1E009
:104CE000394DAB4200D1B9E085180A0085428941AF
:104CF0004244494251180722CF076D082F43490803
:104D00003A401D00C2E607223049ED1A31403A40D0
:104D1000BCE63E002838864000279FE6380001F0B8
:104D20008FFC20308EE6434613431F007A1E9741C6
:104D3000C71BB84280414042091A78E60E003B008A
:104D400006431343002D61D1002E00D0F4E0002B68
:104D500000D11BE164463900100039E71A4FBB420D
:104D60007AD03300FFE630001F3DE840202B03D00F
:104D70004021CB1A9E4037437B1E9F4107220743A9
:104D80003A400021002589E7171A4346BA42B64146
:104D9000591A76428E1B64464EE61F2B00DDADE0AD
:104DA00020264746F61AB740B9461700B246DF40FC
:104DB0004E463E4337005646B240561EB241174358
:104DC0004246DA408918AEE6FF070000FFFF7FFF8A
:104DD000FFFF0F8020264746F61AB740B946170056
:104DE000B246DF404E463E4337005646B240561E5E
:104DF000B24117434246DA40891A99E77F4CA642EE
:104E00005BD0802424045B42214327E7002E0CD191
:104E1000002B00D1CBE0644639001000774DD7E677
:104E2000764FBB4218D0330075E6002B14D04B07E9
:104E3000C00818438023C9081B03194207D0FC0887
:104E40001C4204D17907D0080843E14621004C46B2
:104E5000420FC9001143C000684DB9E61D00002291
:104E60000023C0E6002D5BD10D00054300D1E2E632
:104E70005D1C00D1B0E0614DAE421FD0DB43382B4A
:104E800071DC1F2B00DD96E020250F00ED1AAF40EE
:104E9000B9460700AA46DF404D463D432F00554620
:104EA000A840D940451EA84188440743BF189742EF
:104EB00092415142414435003AE66446350041464C
:104EC000100085E60B000343002D00D063E6002BA5
:104ED000F5D04346134300D17AE6871887428041D4
:104EE00007224144404209183A400B0200D4D5E65B
:104EF000434B01351940C9E5380069E61E004746B5
:104F0000203EF740BC46202B04D04026F31A4646EC
:104F10009E403243170063467A1E97411F4302E6C4
:104F2000364DAE42CAD080252D045B422943A6E708
:104F30000843411E8841A6E6002B00D148E6871AA7
:104F40004346B842B641CB1A76429E1B33024BD53C
:104F5000171A4346BA429241591A5242891A0722F5
:104F600064463A4092E501430F00791E8F419DE768
:104F70001C000F00203CE740202B03D04024E31A04
:104F800099400843411E884138437CE600220024B2
:104F900025E6171A4346BA429241591A5242891AD3
:104FA0006446350043E541461000144D10E680226A
:104FB0000024120380E61D000F00203DEF40BC4698
:104FC000202B03D04025EB1A994008430700634685
:104FD000781E87411F4369E7871897429B414144E8
:104FE0005B42C9183500A3E53B003343CED007220E
:104FF00031003A4052E600231A00F4E5FF070000B2
:10500000FFFF7FFFF0B55746DE464E464546E0B50A
:10501000834607000E03480085B092461C00360BFD
:10502000400DCD0F002800D19DE0954B984239D01E
:105030008023F6001B041E43924A7B0F334399469C
:10504000944603006344009300230026FF0002936C
:1050500023031B0B98466300E40F52465B0D01943B
:1050600000D1B3E086498B4200D19EE04246D10098
:10507000802212040A435146490F11438B4681494D
:1050800052468C4600996344CB1A0021D20000930B
:105090002B0063409A460F2E00D905E17A4BB600EB
:1050A0009B599F465B463343994600D0B8E00223A4
:1050B0000826002700900293CAE7CB463A000299DF
:1050C0000195019B9A46022927D0032900D180E24D
:1050D000012944D06D49009B8C4663441C00002C80
:1050E00038DD530700D013E2D2085B46DB0109D557
:1050F0005946674B19408B468021C9008C46009B5E
:1051000063441C00634B9C4207DC5B4664055F07FD
:105110005B0217431B0B620D02E000230027584A75
:1051200000211B031C0B0B0D1B05234314055A4ABE
:10513000380013401C4353466400DB0764081C43DB
:10514000210005B03CBC90469946A246AB46F0BD56
:105150000122524201231B1B382B00DCADE100224F
:1051600000230027DCE75B46334399465ED0002EE0
:1051700000D18AE1300001F063FA03000B3B1C2BE5
:1051800000DD7BE11D22D31A5A460100DA400839BE
:105190008E4013005F46334399468F403F4B0026B5
:1051A0001B1A00930023029352E7414653460B43D8
:1051B0003B499B468C46009B634400935B46002B17
:1051C0003BD1022300221E43022161E743461343E1
:1051D0009B4637D04346002B00D162E1404601F0A8
:1051E0002FFA03000B3B1C2B00DD53E1020041466C
:1051F000083A914088461D21CB1A5146D9400B00F0
:1052000041460B439B46534693401A00009B254959
:105210009C46604403008C4663440093002137E7BA
:105220000323B14600900C26029311E7002300935C
:1052300001330426002702930AE70323C3461E43D3
:10524000032125E701331E430022012120E700232B
:105250009A46802300271B03094A61E780234946B9
:105260001B03194200D1E2E05946194200D0DEE0AA
:105270000B431B0317001B0BA246014A50E7C04615
:10528000FF07000001FCFFFF4C6D0000FF03000062
:10529000FFFFFFFEFE070000FFFF0F800DFCFFFF7A
:1052A00001F8FFFFF3030000D94500D9CBE000D19E
:1052B000C6E03C0048460027009B013B00935B464C
:1052C000160E1B021E431302984633041B0C99460C
:1052D000310C0191FFF718FB4A4642430B04210CA5
:1052E000050019438A4207D98919013D8E4203D826
:1052F0008A4201D9851E8919881A0199FFF704FB92
:1053000009048C464A46210464464243090C0300C2
:1053100021438A4204D98919013B8E4200D8F1E029
:105320002D041D43AB464346891A4246280C1204FD
:105330001D0C5B46140C22001B041B0C5A430394E7
:105340006B434443029568431B19150CEB189C42B0
:1053500003D980246402A44660441C0C15041B0479
:105360002D0C20185D19814277D373D00C1AA24AF4
:105370007D1BAF42BF419446009B7F426344E01BCC
:105380001C00864200D1DBE00199FFF7BDFA4A46D6
:1053900042430B04290C070019438A4207D9891993
:1053A000013F8E4203D88A4201D9871E8919881A83
:1053B0000199FFF7A9FA09044A46894629044D468E
:1053C0004243090C030029438A4207D98919013B4A
:1053D0008E4203D88A4201D9831E89193F04891A53
:1053E0003A00039F1A43380013041B0C58438146AC
:1053F0000298150C6F43434345434846000C8446CE
:10540000DB1963449F4203D98020400284466544EF
:1054100048461F0C00041B04000C7D191818A942F3
:1054200000D284E000D17FE001231A4357E68023B5
:105430004A461B0313431B031B0BAA466F4A6FE626
:10544000BA4200D935E74B46DC0758087B081C43B5
:10545000FF0734E70024AF4289D247444745A441BF
:105460005B466442A4196418013BA6421ED2A042C6
:105470006DD800D1B6E0241A9B4678E703005A465F
:10548000283B9A400027914688E6584601F0D8F814
:10549000203072E603005246283B9A409346002291
:1054A000B4E6504601F0CCF820309AE6A642E2D1AC
:1054B000B845DCD9341A9B4659E71F2B65DC504CA4
:1054C0000099A4465C46614408008C40110082406B
:1054D000D940501E82410C4314435A46DA4013000F
:1054E000620709D00F222240042A05D02200141D91
:1054F0009442894149425B181A0262D50122002375
:1055000000270DE68A4200D80AE7831E891907E7BB
:105510000F231340042B00D1E6E5171D974292415B
:1055200053429B44FA08E0E5002800D1D7E5711802
:10553000531EB14227D3A94215D358D01A0073E79E
:10554000002B00DC04E6012300229B44CDE502236E
:105550004744474589415B429C46494289190C1999
:10556000E344241A03E743465F0047459B41B8469E
:105570005B429E19023A8919A94200D054E740457E
:1055800000D051E7ABE51A00F6E71F215F4649421C
:105590000C1BE740202B07D01A49009B8C46634424
:1055A00018005B4683401A43501E82413A43072746
:1055B0000023174009D00F210023114014000429B3
:1055C00095D122005F075B021B0BD2081743002214
:1055D000A6E5802359461B030B431B0317001B0B37
:1055E000064A9DE5BD42B2D89B460024BFE68045F1
:1055F000B9D31A00C3E7C046FF030000FF0700004D
:105600001E0400003E040000F0B54F464646D64654
:105610008446C0B58046194E18030F034D00000B99
:105620005C0082463F0B6D0DC90F9146640DDB0F88
:105630000120B5420AD0B44203D0A54201D157455A
:105640000CD01CBC90469946A246F0BD66463E432F
:10565000F7D1AC42F5D154461443F2D10120C845EC
:10566000EFD1994207D0002DEBD163461F4338009C
:10567000471EB841E5E70020E3E7C046FF0700000A
:10568000F0B54F464646D6464D00C0B50E03C90F8D
:105690008A462C491F035C008046360B6D0D9146EF
:1056A0003F0B640DDB0F8D421ED08C4216D0002DB7
:1056B0001ED130438446002C01D13A4323D06246A8
:1056C000002A1AD09A4529D05146022001390840B3
:1056D00001381CBC90469946A246F0BD39001143E2
:1056E000E5D002204042F4E73043FAD1AC420FD07B
:1056F000002C0FD13A43E7D00CE00122013B934349
:1057000018000130E5E763460020002BE1D0DBE71D
:105710003A43E6D19A45D7D1A542D5DCA54205DB6F
:10572000BE42D1D808D00020BE42D2D2504601237A
:10573000013898430130CCE7C845C5D80020C8459A
:10574000F4D3C6E7FF070000F0B54F464646D646FD
:105750004D00C0B50E03C90F8A462E491F035C00D9
:105760008046360B6D0D91463F0B640DDB0F8D426D
:1057700018D08C4211D0002D18D130438446002C13
:105780001ED13A431CD163460020002B30D0514635
:1057900002200139084001382AE039001143EAD0DB
:1057A000022025E03043FBD1AC4226D0002C26D18C
:1057B0003A4324D15146022001390840013817E00C
:1057C0006246002A0FD09A45E1D1A54205DBBE42D0
:1057D000DDD819D00020BE420AD25046012301383C
:1057E0009843013004E00122013B9343180001304B
:1057F0001CBC90469946A246F0BD3A43D0D19A458A
:10580000C5D1A542C3DCE0E7C845C0D80020C845E3
:10581000E3D3EDE7FF070000F0B55746DE464E46FE
:105820004546E0B5834606000F03480087B0924620
:105830001D003F0B400DCC0F002800D16FE0DE4B68
:10584000984238D08023FF001B041F43730F3B4353
:105850000193DA4B0027994600239B46F6008144CA
:105860002B0369001B0B52469846490DED0F00298A
:1058700000D185E0D04B994200D173E04346DA0075
:1058800080231B0413435246CC48520F84461343D3
:10589000524600206144D2008944210069400091B1
:1058A0008C46012149448A460F2F00D990E0C44913
:1058B000BF00CF59BF465B463B43019300D06AE12E
:1058C00002230827002681469B46C9E73200584636
:1058D000019B61460091022800D175E0032800D1A8
:1058E000FEE1012800D02CE100230027002600253E
:1058F0003F032A0D3F0BB34812053A4302401B05F4
:105900001343009A5B00D1075B080B43300019007A
:1059100007B03CBC90469946A246AB46F0BD5B46FC
:105920003B43019300D12FE1002F00D1A5E13800C6
:1059300000F086FE03000B3B1C2B00DD96E11D22D0
:10594000D31A5A460100DA405E4608398F401300E8
:105950008E403B4301939C4B00271B1A9946002322
:105960009B467DE7414653460B4393498C46E144B1
:10597000002B00D01AE102220220174300228CE7FC
:10598000134300D10DE14346002B00D181E1404695
:1059900000F056FE02000B3A1C2A00DD72E1010005
:1059A000434608398B4098461D239A1A5346D340E4
:1059B0001A004346134352468A404946081A824910
:1059C00089468144002068E77B4B002700268EE74C
:1059D000140C1204120C1100370C3604350C7943E8
:1059E00028008C462E0060436044834656432100C5
:1059F000300C80465846794340440291844506D98C
:105A00008846802149028C46E04441460291360492
:105A1000010C360C00048B4681191E0C1B041B0C58
:105A20000391190079438C46280075436544A846C4
:105A30005843050C45447743A94203D980214902C4
:105A40008C466744290C8C4639000004000C2D0458
:105A50002D186144AB4405915946049101990F04F6
:105A60003F0C080C390051434243904602008C46DB
:105A7000090C8B4662437C4344445C44A04503D9F3
:105A80008021490288464244210C88466146090427
:105A9000090C8C4639005943434370437E430F0C35
:105AA000F6182404BE19644442448C46B34203D918
:105AB00080235B0298464044029B61469846049BC3
:105AC000370443449B46AB45AD416B420D040599F9
:105AD0002D0C8C467F196744FD18A8465D462D198C
:105AE000A542A44193466442A446C344DC448F4289
:105AF000BF4198459B4193459241A445A4415B42D7
:105B00007F421F43360C52426442BF192243BF18E2
:105B1000624638184302D20D039913436A020A43BE
:105B2000501E82416146ED0D2A434E023243D90197
:105B300000D4B3E00126500832400243DE0732436E
:105B40005B08224C5444002C62DD510709D00F2021
:105B50001040042805D0101D9042924152429B18DB
:105B60000200D90104D580241948E40003405444BC
:105B70001848844200DD27E75E075B02D2081F0B4E
:105B8000630516435B0DB2E60023994601330427F3
:105B900000269B4664E60323019781460C279B461B
:105BA0005EE6012201201743002276E6032303204C
:105BB0001F43434671E6C046FF07000001FCFFFF9C
:105BC0008C6D0000FFFF0F800DFCFFFFFF03000046
:105BD000FFFFFFFEFE0700000023802700933F0326
:105BE0000026434B83E6019B3200A446584670E6EC
:105BF000AC466EE6802701993F0339422DD03B42E7
:105C00002BD11F433F033F0B00951600384B6EE628
:105C100001252D1B382D00DD66E61F2D40DC3548A3
:105C20001C005044160082408440EE40501E8241C9
:105C300034431443EB40620709D00F222240042A68
:105C400005D02200141D9442804140421B181A02C4
:105C50003ED501230027002649E68027019B3F030C
:105C60001F433F033F0B0094214B40E603005A467D
:105C7000283B9A40002601926DE6584600F0E0FC71
:105C8000203057E603005246283B9A40130000227A
:105C900093E6504600F0D4FC20307BE6CA4650E73D
:105CA0001F201E004042041BE640202D03D0124C52
:105CB0005444A3401A43501E824132430726002712
:105CC000164009D00F200023104014000428B9D139
:105CD00022005E075B021F0BD2081643002306E674
:105CE00080273F031F433F033F0B1600004BFEE599
:105CF000FF0700001E0400003E040000F8B55746F0
:105D00004E464546DE460C000903E0B5490A460FFB
:105D10005F0031431E03DB0F760A9B46530F33436C
:105D2000C84E6500C000E40FD2006D0DA24681464A
:105D30007F0D9C469046B74200D1B9E05B460126F4
:105D400073409B46EE1BA34500D183E0002E63DD2C
:105D5000002F00D0B1E06346134300D123E1731E4E
:105D6000002B00D0BAE1861A6346B042804101257B
:105D7000C91A4042091A0B0200D447E149024B0AF2
:105D800098464346002B00D189E1404600F058FC7C
:105D90000300083B1F2B00DD7CE120223000D21ADB
:105DA0004146D040994002009E400A439D4200DD9A
:105DB0006AE15D1B6B1C1F2B00DD94E120211000AC
:105DC0003500C91A8E40DA408840DD40711E8E4190
:105DD000110007222843002506433240002A09D03B
:105DE0000F233340042B05D0331DB342B641764216
:105DF00089191E000B0200D43DE26A1C914B550527
:105E00006D0D9A4200D119E18F4AF6080A405707F2
:105E100052023743120B9BE0002E00D0C5E06E1CEF
:105E20007605760D012E00DC48E16746861ACB1B0D
:105E3000B042BF417F42B8461F004346FF1A3B00B5
:105E4000B8461B0200D55FE137439AD100220024F7
:105E5000002579E0002E00DCFAE0002F00D18DE073
:105E6000784B9D4267D0802367461B041F43BC4686
:105E7000382E00DC52E1634613435A1E93411E182C
:105E800086428041404209180B0200D4BEE06D4BAF
:105E900001359D4200D1D2E06B4A73080A400121CE
:105EA0000E401E435108D30707221E43324095E798
:105EB0001E00164300D045E740E7624B9D423AD0B2
:105EC000802367461B041F43BC46382E00DDEBE0F1
:105ED0001F2E00DC3AE133006746203BDF403B00E9
:105EE000202E05D04027BF1B6646BE403243904659
:105EF0004646721E96413343DAE0002B00D114E28D
:105F00006346134300D168E180234E07C008C908E7
:105F10001B030643194208D06046C008184204D14A
:105F200063460100D2085E071643F3009946C90094
:105F3000720F444D11434B46DE08424B4F07374327
:105F4000CA089D4200D16EE012036D05120B6D0D63
:105F500000211203130B0A0D12051A433B4B2D05AA
:105F600013402B435B00E4075B0823433800190010
:105F70003CBC90469946A246AB46F8BD63461343E7
:105F800011D0731E002B00D007E186188642804195
:105F900061444042091801250B0237D502257BE7F1
:105FA0003E00614691463500C5E75C46002D00D0B5
:105FB000E1E00B000343F3D0731C00D1ACE1214BB3
:105FC0009F4200D13AE1F343382B00DD6FE11F2BF4
:105FD00000DD8CE120250E00ED1AAE40B046060033
:105FE000AA46DE40454635432E005546D940A840D6
:105FF0006346451EA8415B1A9C463043161AB242BE
:10600000924163465242991A3D00B4E6072232405B
:10601000002A00D0E4E60B4BF6084F073743CA08C6
:106020009D4200D090E73B00134300D1A6E18023BE
:106030001B031A431203120B024D89E715000022BD
:10604000002785E7FF070000FFFF7FFFFFFF0F80AE
:10605000002E00D0C7E06B1C5E05760D012E00DC23
:10606000F0E0C84DAB4200D1B9E085180A00854286
:1060700089416244494251180722CE076D082E43D8
:10608000490832401D00A9E6BF49ED1A1140072218
:106090003240A3E6320028388240002686E63000EF
:1060A00000F0CEFA203073E6634613435A1E934144
:1060B000C61AB04280414042091A5CE60E006746AB
:1060C00006431743002D5ED1002E00D0F3E0002FD1
:1060D00000D11EE15C46614691462CE7A94FBE42C5
:1060E0007BD01E00F1E610001F3DE840202B03D0BE
:1060F0004021CB1A9A401643731E9E410722064345
:1061000032400021002583E7161A6346B2428041DF
:10611000591A40420B1A98465C4632E61F2E00DDA3
:10612000ABE02027BB1B9A4663465746BB409946C7
:1061300013004F46F3401F433B005746BA40571EDB
:10614000BA4113436246F240891898E62027BB1BE8
:106150009A4663465746BB40994613004F46F34064
:106160001F433B005746BA40571EBA41134362468D
:10617000F240891A9CE7834B9F425FD080252D0413
:106180007342294320E7002E0CD1002F00D1D0E02C
:106190005C46614691467B4DCDE67A4FBE421CD0AF
:1061A0001E0065E6002F18D0C0084E070643802069
:1061B000C9080003014208D06346DC08044204D148
:1061C0002100DA46D2085E071643F30099460124FF
:1061D0005346C900720F11431C406A4DABE61D00C7
:1061E00000220027B4E6002D59D10B00034300D153
:1061F000D6E6731C00D1B2E0624B9F421ED0F3433F
:10620000382B6FDC1F2B00DD97E020250E00ED1AE8
:10621000AE40B0460600AA46DE40454635432E0055
:106220005546A840D940451EA8418C440643B6189F
:1062300096429241514261443D0025E63D0061464F
:10624000914678E60B000343002D00D055E6002B65
:10625000F5D06346134300D16DE68618864280412F
:1062600061444042091800220B0200D4D0E6464B9C
:1062700001351940B2E5B1465DE633006746203B83
:10628000DF403B00202E05D04027BF1B6646BE40A6
:10629000324390464646721E96413343EFE5394BF2
:1062A0009F42CBD080252D0473422943A8E70843A1
:1062B000411E8841A2E6002F00D13CE66346861AC3
:1062C000CF1AB0429B415B42FB1A98461B024ED547
:1062D000161A6346B2429241591A5242891A5C46D2
:1062E00000227BE501430E00711E8E419FE71D00D9
:1062F0000E00203DEE40B046202B04D04025EB1A86
:1063000099400843814648464346411E8841184308
:1063100074E60022002417E6161A6346B242924140
:10632000591A5242891A3D0025E561469146154D9C
:1063300001E680220024120379E61D000E00203DB4
:10634000EE40B046202B04D04025EB1A994008437C
:1063500081464E464346711E8E411E4367E78618AE
:1063600096429B4161445B42C9183D008CE547461B
:106370003743CED007224146324049E600273A0053
:10638000E6E5C046FF070000FFFF7FFF70B50C4E3B
:106390000D031C0349005B002D0B490D240B5B0D05
:1063A000B14208D0064900208B4203D1144320009B
:1063B000441EA04170BD05430120002DFAD1F1E734
:1063C000FF07000030B5144D0A034B00120B5B0DA4
:1063D000C90F0024AB4211DD104CA34210DC802415
:1063E000640322430E4CE41A1F2C0CDD0D48C31A23
:1063F000DA4013005C42002900D11C00200030BDAF
:10640000094BCC18FAE7094DE040AC4663449A408A
:1064100013000343EEE7C046FE0300001D04000026
:106420003304000013040000FFFFFF7FEDFBFFFFBC
:1064300010B5041E25D000F003F9144B1B1A5B05A0
:106440005B0D0A2812DD0B38844000222403240B44
:106450000021100024030A0D240B120522430C4CCA
:106460001B05224013435B00590810BD02002100A8
:10647000153291400A000B21081AC4402403240B52
:10648000E6E7002300240022E2E7C0461E040000E5
:10649000FFFF0F804100090E4B1C70B5DBB24602B6
:1064A000750AC40F012B14DDE0239B006D07360B2A
:1064B000CB1800210A0D280012051C4D32435B0544
:1064C0002A405B0813435B00E4075B082343190081
:1064D00070BD002914D1002D1ED0280000F0B0F8A6
:1064E0000A281CDC0B232A001B1ADA400300153390
:1064F0009D400F4B12031B1A5B05160B5B0DD8E773
:10650000002D06D0320B802636036D071643094B4B
:10651000CFE7084B0026CCE700230026C9E703009D
:106520002A000B3B9A400025E3E7C046FFFF0F809F
:1065300089030000FF070000F0B54C00640D0B0359
:10654000621C5B0A460F5205C90F1E43C500520D5F
:10655000012A29DD374BE718FE2F1CDC002F3BDD1D
:106560008001431E98410722F3006D0F03432B4324
:106570001A40002A04D00F221A40042A00D0043303
:106580008022D2041A4024D00137FAB2FF2F02D061
:106590009B01580A01E0FF2200204002D205400A78
:1065A000C90710430843F0BD3543002C04D1002D2A
:1065B0000AD100220020F0E7002DECD08020C0039B
:1065C0003043FF22E9E7002400235B02580AE2B2CD
:1065D000E3E7DB083C00F8E73B001733F3DB8023FD
:1065E0001B0433431E26F61B1F2E14DD02225242CB
:1065F000D71B1A00FA401700202E04D00E4A9446EA
:106600006444A3401D432B005D1EAB4107223B4366
:106610001A400027ADE7094A2800A2189540934088
:106620006C1EA541F04007222B4303431A4000276C
:106630009FE7C04680FCFFFFA2FCFFFF82FCFFFF3C
:106640001C2101231B04984201D3000C10391B0AA2
:10665000984201D3000A08391B09984201D3000966
:10666000043902A2105C40187047C04604030202BD
:1066700001010101000000000000000010B504004D
:1066800004481300002804D00A000220210000E082
:1066900000BF10BD0000000070B500260C4D0D4C71
:1066A000641BA410A64209D1002600F011F90A4D7E
:1066B0000A4C641BA410A64205D170BDB300EB5870
:1066C00098470136EEE7B300EB5898470136F2E7FA
:1066D000880000208800002088000020A4000020FE
:1066E00010B5034B0100186800F06AF810BDC046F1
:1066F0002400002010B5034B0100186800F016F8C4
:1067000010BDC04624000020002310B59A4200D1DD
:1067100010BDCC5CC4540133F8E703001218934257
:1067200000D1704719700133F9E7000070B505001A
:10673000002910D00C1F2368002B00DAE418280071
:1067400000F0B5F81D4A1368002B05D16360146092
:10675000280000F0ADF870BDA34209D92168601887
:106760008342F3D118685B6841182160EEE713009B
:106770005A68002A01D0A242F9D919685818A042D3
:106780000BD120680918581819608242E0D11068AE
:106790005268411819605A60DAE7A04202D90C2306
:1067A0002B60D5E721686018824203D110685268D7
:1067B0004118216062605C60CAE7C046940900200D
:1067C000032370B5CD1C9D43083506000C2D1ED249
:1067D0000C25A9421DD8300000F069F8254A14683C
:1067E0002100002919D1244C2368002B03D130004B
:1067F00000F044F820602900300000F03FF8431C0E
:106800002BD10C233000336000F052F803E0002D50
:10681000DFDA0C233360002070BD0B685B1B19D4DA
:106820000B2B03D90B60CC18256003E04B688C421E
:106830000DD11360300000F03BF8200007220B3030
:10684000231D9043C31AE7D05A42E250E4E7636045
:106850000C00EFE70C004968C3E70323C41C9C430A
:10686000A042E1D0211A300000F008F8431CDBD12F
:10687000C7E7C0469409002098090020002370B59E
:10688000064C05000800236000F014F8431C03D1F7
:106890002368002B00D02B6070BDC046A0090020EB
:1068A0000023C25C0133002AFBD1581E7047704799
:1068B00070470000044A1368002B00D1034B1818DE
:1068C000106018007047C0469C090020A4090020F1
:1068D000F8B5C046F8BC08BC9E467047F8B5C0463F
:1068E000F8BC08BC9E46704754656D706572617453
:1068F000757265203D2000000000000016000000B9
:10690000080000001C000000FF0000040004060056
:106910000000000017000000080000001C0000003C
:10692000FF00010401040700000000000A0000004D
:10693000080000001C000000120000010001FF0020
:10694000000000000B000000080000001C00000018
:10695000130001010101FF00010000000A00000016
:10696000080000001C000000FF00000500050A00F0
:10697000010000000B000000080000001C000000E7
:10698000FF00010501050B000000000014000000DD
:10699000080000002C000000FF00020002000400BC
:1069A0000000000015000000080000002C0000009E
:1069B000FF000300030005000000000010000000BD
:1069C000020000001C000000FF00000200020000A6
:1069D00000000000110000000200000004000000A0
:1069E000FF00FFFFFFFF0100000000001300000098
:1069F000020000001C000000FF0001030103FF0073
:106A00000000000008000000030000001C0000005F
:106A1000100000000000100000000000090000004D
:106A200003000000040000001100FFFFFFFFFF0053
:106A30000100000017000000030000000400000037
:106A4000FF00FFFFFFFFFF00010000001600000035
:106A50000300000004000000FF00FFFFFFFFFF0035
:106A6000000000000200000001000000060000001D
:106A70000000FFFFFFFFFF00010000000200000018
:106A800001000000040000000A00FFFFFFFF0200F9
:106A900001000000030000000100000004000000ED
:106AA0000B00FFFFFFFF03000000000004000000D8
:106AB000010000001C000000040000000000FF00B6
:106AC0000000000005000000010000001C000000A4
:106AD000050001000100FF000000000006000000AA
:106AE00001000000040000000600FFFFFFFFFF00A0
:106AF000000000000700000001000000040000008A
:106B00000700FFFFFFFFFF0000000000180000006B
:106B10000600000000000000FF00FFFFFFFFFF0075
:106B20000000000019000000060000000000000046
:106B3000FF00FFFFFFFFFF00000000001200000049
:106B40000800000004000000FF00FFFFFFFFFF003F
:106B50000000000003000000080000000400000026
:106B6000FF00FFFFFFFFFF00000000000C0000001F
:106B70000300000000000000FF00FFFFFFFFFF0018
:106B8000000000000D0000000300000000000000F5
:106B9000FF00FFFFFFFFFF00000000000E000000ED
:106BA0000800000000000000FF00FFFFFFFFFF00E3
:106BB000000000000F0000000300000000000000C3
:106BC000FF00FFFFFFFFFF00000000001B000000B0
:106BD0000800000000000000FF00FFFFFFFFFF00B3
:106BE000000000001C000000080000000000000081
:106BF000FF00FFFFFFFFFF00010000000800000092
:106C00000800000000000000FF00FFFFFFFFFF0082
:106C10000100000009000000080000000000000062
:106C2000FF00FFFFFFFF0900000000000000000060
:106C30000800000000000000FF00FFFFFFFFFF0052
:106C4000000000000100000008000000000000003B
:106C5000FF00FFFFFFFFFF006E616E00696E6600C0
:106C60006F7666000D0A00000000000000000000C2
:106C700035320000DD2900005B31000017310000D3
:106C800031310000E9320000F92E0000E92E000049
:106C90007D2F0000132F0000E52E000000000000F3
:106CA00000000000B7330000ED350000B3330000F2
:106CB000D1350000B1350000293600000D36000046
:106CC000DF350000CD33000035330000F93400001B
:106CD0005D330000B1330000F0FFFFFF0000000053
:106CE000A1350000E93400004F3600004D360000A9
:106CF000A13300000000000000000000AD390000DA
:106D0000693C0000513C00002F3C0000113800009D
:106D1000133800000139000041726475696E6F20FC
:106D20004D4B523130303000040309044172647518
:106D3000696E6F204C4C430012010002EF020140CB
:106D400041234E800001010203010000A85200000F
:106D50001A5100005E510000C25000005E51000058
:106D60004E5200005E510000C25000001A51000057
:106D70001A5100004E520000C2500000BA500000EC
:106D8000BA500000BA5000005C520000D059000018
:106D9000D2580000D2580000F05B0000CC58000030
:106DA000CC580000D85B0000F05B0000CC5800001D
:106DB000D85B0000CC580000F05B0000E65B0000F0
:106DC000E65B0000E65B0000F45B000000000000F2
:106DD00000000000000000000000000000000000B3
:106DE00000000000000000000000000000000000A3
:106DF0000000000000000000000000000000000093
:106E00000000000000000000000000000000000082
:106E10000000000000000000000000000000000072
:106E20000000000000000000000000000000000062
:106E30000000000040420F000A0000000A000000AD
:106E4000FFFFFFFFFFFFFFFF00C20100000008007F
:106E5000FFFFFFFF2800002000000000EC6D000095
:106E60000C6E0000CC6D000000000000000000006F
:106E70000000000000000000000000000000000012
:106E80000000000000000000000000000000000002
:106E900000000000000000000000000000000000F2
:106EA00000000000000000000000000000000000E2
:106EB0000000000000000000DD200000E9210000CB
:106EC00051220000712200009D220000D9360000EE
:106ED000B9470000B52000000000000000000000DD
:0400000300002335A1
�  
  �                                          	  M  �L#x +�K +�H � �##p�\       �  �K +�HI � �Hh +�K + ИG��F    �  `   X       JKx )	�Ix	xAɲp� I@�ax1ɲpx�)�x	)	�Ix@B��px	xAɲpxx�Bр"KR�apGx           D A��i���h$�C`�i#B��h#C`h����i#B���i�@B��KC`�iZ���#�C`���i���h"C`�  @~����pG  ~#Q��B�B�B��@B�B��B�K"p ���pG�Fy   p�h��!�2B&Ѐ ���r#Sp@!K�qPq^hM� .@�C^`^i5@(CXaH`Ha]hH(@�%�(CX`Xh��X` #Qq#q�z��  ��� yp��  �����     �? � #qCqK`�`x"CppG�F�  8�6K !�i 
C�a4K$xCp2K"x�Cpx!Cp/Ix Cpx
@px`!
Cp+K+JZ�ZxR� *��)K!x
Cp�x���&HhQ"@�B �!@��"I)@!C�h�
@* �"�!
@�C"C�h!�
@�B �"
@�J@
C�x"
@px!H
CpXb�!�C��!�C� !�"�F�8�  @XD A<D AYD A  @@   P A$`� ?��������  ��J_��Xi'@ @03�@��"Yh
CZ`	�/{�AK��8"���H5BaRi����
CZaYiJ
@Zak�"�qYy�"RB
CZqk��y��� ���    �? ���N3x +�KJdZl��ZdXlJ@Zd�#[ �\@ C�T#3pH'�7�]#@�KZl���B�\l��"I��#�U #3p � ��z   �  �   �? ��0�y " ) �"C�qpG  K�0Zi��Za#r�y�#[BC�qz���pG�F�  �#[BCɲ�rpGp��#"[ �TKJ\l�!@�CF%\d�5@$DUM0&d�%m FU]k@)C�%Ycm �!AU	Mc�%m DU\o"@Zg�#[ �Tp��F�  �����   X  K[x[� +��pG  @K�h���pG�F  @��*K"Yh�C"CY`'K(I����
C���h'#L;B��#M#�`����"Kk`�����#�k��������"�C������K�b������JC��������C���h��K�hZ�� $�����`����Kk`����KJ�!Z`J	j  
Cb"�``���F @ A  @    @ ��}
    � ��   � ����
���������JH8��B�JK�B�
�
L�B�� #��B���X3
`�� ���B�� !�����    \   �  \   �  8�0Kh2!�.J`ٲ )�,Jx"@+J
�h+I�B�`�`)I9 )��`"h����"�C%J�`K[hG��:�b� �� �O� K�"R�`KJZ`J�!j	  
Cb "�`"`�h �GK (�"px *�   �� ����x +�� ��� (��  �~� ������F      8 @�  5�sH�  � � D A� ��  {   ����� �����KL#`��n� !h��\� � P A  p��� ��@ jF#0Sppv#�:xZ  )�(iF #����@�p��B��hF�R3��  ���Jhx�I'�7 8rpSx�H�Np�x3��x3�	C3�y�K�Qy�	C��y�I��y�C
�@"zq�O:x�O8xC�H�FbE ��� ܀!I �B �n�	܁* ђ�* ѕ�* �d��#[ �B ��� �X��#� �B �W�K�B �O�R�#�Bi���#� �B"Ј#�BiР#� �B �@� ����1�(h������;�K�B �/� �1�K�B ��K�B �)�3�kq"�3�
+��"(h�B�
���~I�3�
+��C"(h�B�
���yI�3�
+ ��3�۲+� +�+ ���
�(hҲpI�"�oI �5�;�"(h�B�:������
�(hiIҲ�����3� +q���� ������)�"��aI #�(h"��^I "
��P"@\Jp� 0@��( ���x�3[��y *Л ����(h"���"�CNJɲp�!@�1� ) У�� ) џ��) ٛ�x�3[� *� "Zq��!Yq���#�C<KҲp�"
@�2� * Ѐ�� * �|��* �x�x +��3[��y�j�� "3[�q�3[��y_]��@"3[��q�"3[���3[��y�J��"3[�q�3[��y�=�� "3[��q�"3[�q0��F�   }   �   �   �   �       !   �!  !"  �     �  �  �  ~   |   �"(h�B�
���I #���� ����� !�������FH   �K"��h��	� ��F  �KlF4h!"��C� x��F  �L ���  �B�"hH#�3�\#@�  �Jh#"���� �  p�L 
���� #�B� h1*���p�  ��L ���� #'4�B
� ,�)"8h����$-��3���F  ��GKd"���F�   (�KJ`Kp� (�JK`pG�  0  �   |  0�
I��	x )*�*� h�*� � � xR ��;��B�!@	)�0%)C �71p 	;���0#px#Kp
 ��p
 �pK2h�h�I	h�h�����0��F�   �  r����J`h���ChGpG�F�  K� *��:���K� *��:���pG�F�   �   𵑰��J1�1�Q�Q�`�`��K�H�hz%RR� RX�I`�h��bC`�I $
`�J`�L%p�L�M#h(i@!�G (��Kd"��K "`�K`�K�M�O`*h;h�B�ҼKhx�* ��#* ���N3x +бK�Ih"�h��-��KxS+<�;h*h�BٮH2*`��Khh1`�N�B�2` �3`�H2h h� ���3h)hZ*`�Jh�`�Jp+h;+`�Kh:`�K�Jxh�B
�"h�H� h�i�G (ВKd"��F��R+
ъH�J#h hh[i��Gd"�K
�O+фK�Jhhpx�H+рK�Jhh�p�W+�|K�Jhh`h�o+�xK!h�h+�uK~Hh!�`����W�w+�oKyHh!h`��G+�uKh��	�wKh���b�uKx + �>�fK hh�G8�T+�#3paKhd�N+�3x +�]KcIh"�h���� #3p"�V+W�#hdI�h"��y�#hbI�h"��s�aM#h)�h"��l�#h^I�h
"��f�#h)�h"��`�KOLMXI #9`+`:(h^`x� +�h3`��>N*h3h�h��G�3hJI�h"��A��)`JI9`:JhX`x +�7Kh2`��3h*h�h��,�3h�h3I"��3JX+�$N&M6hh*h� �B
�MX�a8H(�M(}���[�� K4Ih�h��Y+y�hK1I *�h`l�MhhkhN�%�C�s` *a�*KM+�N3}��� #
M-h���B�$MN5�F�B�Н FY3NQ��   @ AD  <  8  �  4  �  H  �   ,  0  @  �   p  �  �  (  �   �  �   L  u  N  �  P  \  ���e  �   D������?N5}��՝ I@���<K<Ih�h.�Z+/�:Khh &��B�(x1 ��5��1K4Ih"�h��y�#"2@6	01	* �1 �jF�T;��#h��h"��d�#h'I�h"��^�%Kz"p%K "`$Kx�B-�K#Ih"�h��M�%�09ȲK	(�h*C`�A9)�h7:1�a9)�hW:
C�,*�
Jh`�I
p "`
Kh2`Kh2�� @ A�  i  �  m  o  4  �  �   s  @  0  �K x$CpK"x�Cpx!CpIx Cpx
@px !
CpK!j
CbKJZ�ZxR� *���"HI���`�J #pJpJpJpJpJp�JD A5D AKD A  @  @@    B*�  �  #  �  �  $  !  ���H��_� ��F  BK~@�pG�F  B����� (��H��P���F  B����� #�B�����#;ZBSA�p�
F�B� x����4��(p������ p �
X@K@ �Z	H@��pG�F�  �� $&�B �����K��x� +�1����
K� *�Jx* )��j)p�/��9�4����0 � ��!  �  "  �>N�� "�2p<K�B�"�:I�p#BЀ4�C��~�3x�� +� %5p��v�3x���B6�C(�q(S�(��# � ��U� ���R� ��%�C����L�� '�$J� +�!I�	x )����=�9���y�= -�� 
����1�����.���>�3x +
�5p��;	x���3�����(� ��3۲�1 ��<� ,�� ������K%p � %(��!  "  �  �8L�� #�#p�B�#�4J�4Jd&pC ����2O���� (� /�?�� /�> .��M�%����#x +8����(�(=� ����9��!0�����!���#x� +�����������#x?��+
���B�3x�B��Crx۲�B� ���� #� �����"x *� &&p�+��k�2ݲ���J #p&0��!  �  "   5 � #�B��\�T3�����B�p3��pG #�\3 *��XpG���F����FpG���F����FpG	Arduino LLC Arduino MKR1000    @A#N               @   �            �  �  �  �    �  �  v   Apr 11 2019 13:09:51 X

 Y

 Z #

 > 2.0    %  A  ]  �  �  �  �  [Arduino:XYZ]   !B c0�@�P�`�p�)�J�k���������1s2R"�R�B�r�b9��{�Z��Ӝ�����b$C4 �d�t�D�Tj�K�(�	������ō�S6r&0�v�f�V�F[�z��8�����׼��H�X�h�x@a(#8���َ��H�i�
�+��Z�J�z�jqP
3:*���˿���y�X�;���l�|�L�\",<`A�������*��h�I��~�n�^�N>2.Qp���������:�Y�x�����ʱ��-�N�o�� �0� P%@Fpg`������ڳ=���^���"�25BRwbVr�˥����n�O�,�
��4�$��ftGd$TDۧ������_�~��<��&�6��WfvvF4VL�m��/�ș鉊���DXeHx'h���8�(}�\�?����؛����uJTZ7jz�
��*�:.��l�Mͪ����ɍ&|ld\EL�<�,���>�]�|ߛ���ُ��n6~UNt^�.�>��        	C  �2	    $ $ $ $ � �	 
   �@  @    �    i   A       