:102000000080002079240000612400006124000089
:1020100000000000000000000000000000000000C0
:10202000000000000000000000000000612400002B
:10203000000000000000000061240000CD2400002A
:10204000612400006124000061240000612400007C
:102050006124000061240000612400006524000068
:10206000612400006124000061240000612400005C
:102070006124000061240000D123000061240000DD
:10208000612400006124000061240000612400003C
:1020900000000000612400006124000061240000B1
:1020A000612400006124000061240000612400001C
:1020B0000000000010B5064C2378002B07D1054B1B
:1020C000002B02D0044800E000BF0123237010BDA4
:1020D000B00000200000000064510000044B10B567
:1020E000002B03D00349044800E000BF10BDC046E8
:1020F00000000000B40000206451000010B504008E
:102100006068002804D04368636000F09DFCF7E736
:10211000200010BD704770B5066804000D0008204F
:10212000002E09D100F08CFC466005606060A06064
:1021300023680133236070BD00F082FC0023A26895
:1021400043600560506023616368A060E360EFE76F
:1021500070B505000024210028000134FFF7DBFFE3
:10216000642CF8D170BD03698B4203DD0023036149
:102170004368C36003698B4208DA0268934205DA58
:10218000C268013352680361C260F3E77047000020
:10219000962170B5224D8901280001F0B9FAFA2084
:1021A000800000F0D1F91F4C00262000FFF7D0FF7F
:1021B0001D49280000F075FC0A222168280000F063
:1021C000CEFC1A49280000F07DFC23689E420BDA01
:1021D00031002000FFF7C7FFE3680A2219682800D2
:1021E00000F0D3FC0136F0E72168002917DD012952
:1021F0000ED002392000FFF7B6FFE568686800F0EE
:1022000023FC00236B602368A560013B2360EBE7A0
:10221000606800F019FC00236360A360F6E770BDFE
:1022200090040020DC010020434C00004B4C0000D7
:1022300070B500240C4D0D482A000D49046044601F
:10224000846002F0DFFA0B4A21000B4800F05EF8D0
:102250000A4C0B49200001F077F82A0009492000B8
:1022600002F0D0FA70BDC04600000020DC01002062
:10227000FD200000F0010020D8000020CC0000204C
:102280002C4C0000B5320000104A114B114913606C
:10229000002353711371104A104811601049D36024
:1022A0009180092191710639537413741375D37198
:1022B00011720C4A10600C48D36090801B2053743C
:1022C000137413759071D371117270472802002036
:1022D00000093D0074040020F0010020800400206B
:1022E0000A0800000C0200201D1A000070470000C0
:1022F00010B5034A0349044802F084FA10BDC046F1
:1023000000000020ED22000030020020F8B5254B2F
:102310001600FF22036000230D00522142748274D4
:10232000C2740275421C4371037103724377837751
:10233000C377D3772A32117005315170002204001F
:10234000194F8367C3670263390012229C3002F081
:102350003DFB2000390048221431B03002F036FB3A
:102360002000390009225C31F83002F02FFB3900DF
:10237000A01C6531FF30032202F028FB0B4BE66006
:102380009E420CD10A23280063752574012100F0B8
:102390005DFA207C012100F0A5FA2000F8BD0B2396
:1023A000F1E7C04600093D00544C0000F001002058
:1023B0007047000010B5034A0349044802F022FAAE
:1023C00010BDC04600000020B123000031020020F3
:1023D00010B5024800F087FE10BDC0463402002050
:1023E00013B51249124800F029FC1249124800F0B6
:1023F00025FC1249124800F021FC1249124800F055
:102400001DFC1249124800F019FC124C1249200020
:1024100000F014FC01230193023300930D220B33CF
:1024200021000E4800F0F4FD13BDC0460008004234
:1024300070040020000C00427404002000100042D0
:1024400078040020001400427C04002000180042A0
:102450008004002084040020001C0042340200207C
:10246000FEE70000034B10B51B68002B00D0984717
:1024700010BDC0468804002070B50F490F4CA14222
:1024800004D100F089F800F0BBFAFEE70C4D002300
:102490008D42F6D0CA18E818A24205D3094B8242F1
:1024A000EFD00949002204E0006804331060F1E72E
:1024B00004C38B42FCD3E4E700000020B0000020FE
:1024C00068510000B0000020C40A002010B500F0E0
:1024D00060F8002801D100F051F810BD014B1860E0
:1024E0007047C04688040020F7B51348012284468F
:1024F0001249134C8E68636805689B0E1340019265
:1025000088686268019F920E3A4067463F6893422E
:102510000ED1BD420CD186420AD35B19FA25486818
:10252000AD00861B07486B437043000DC018FEBD0D
:102530003D0013000600E3E78C04002010E000E0FB
:1025400000ED00E05555000070B5041E10D0FFF7F7
:10255000CBFF050000F01CF8FFF7C6FF054B401B42
:102560009842F7D9FA23013C9B00ED18002CF3D1D7
:1025700070BDC046E70300007047000010B5034A75
:1025800013680133136000F01DFB10BD8C040020A4
:1025900070470020704700001E2270B5464847492A
:1025A000436893431C3A1343436008238C692343D5
:1025B0008B61434C434B9C829C8A14439C82DC6815
:1025C0001442FCD00124404A14701578254203D0EF
:1025D00055786DB2002DF8DB01249460547864B214
:1025E000002CFBDB394C5460547864B2002CFBDBCC
:1025F0008224E4015480547864B2002CFBDB022472
:102600009C840E34DD682542FCD0314CDC62102401
:10261000DD682542FCD09D8C2E4C2C439C841024DC
:10262000DD682542FCD002249D8C80262C439C84AE
:102630004024DD683542FCD0DD682542F9D0102405
:10264000DD682542FCD000249460547864B2002CEC
:10265000FBDB214C5460547864B2002CFBDB1C6A19
:102660001E4D2C4080251C621C6AAC431C62032357
:1026700093601B4B536053785BB2002BFBDB002352
:10268000FF240B72174A4B728B72CB72164B1A6077
:10269000164B174A1B6811689A065B01C90E234046
:1026A000520F12020B431343124A138580234268D0
:1026B0001343436070BDC046004000410004004029
:1026C0000C06000000080040000C0040010501005D
:1026D000B905FF7D040A000000070300FFFCFFFFAF
:1026E00003060100006CDC0204000020246080006E
:1026F0002060800000400042FA21314B10B518687C
:10270000890002F091F82F4B0138984256D82E4993
:102710002E4A4860C020136A00061B021B0A0343AE
:102720001362002407238C600B608021136A090662
:102730001B021B0A0B431362FC22254B196A0A4336
:102740001A62FC22196A92010A431A62A022196ACB
:10275000D2020A431A6220000021013400F076F808
:10276000162CF8D11B4B1C005A7852B2002AFBDB06
:10277000194A5A80194B1A00597EC9090129FBD000
:10278000E421C90099803F21D970537EDB09012BD8
:10279000FBD0C02300205B011361907000F024F88F
:1027A00063785BB2002BFBDB0D4B0E4A6380D37961
:1027B000DB09012BFBD04123537010BDFEE7C0465F
:1027C00004000020FFFFFF0010E000E000ED00E04B
:1027D00000040040000C00401E4000000040004289
:1027E0002140000000480042164A00B51300517E07
:1027F000C9090129FBD00138042816D81969124AE1
:102800000A400F211A615A788A4302F003F803083C
:10281000060B0300110001220A435A7000BD11008B
:102820000322F9E711000222F6E7F02311691B05E4
:102830000B430F21136153788B43190002230B4381
:102840005370EBE700400042FFFFFFF0182330B564
:102850001D00040045430820204A55192856013020
:1028600014D0032912D808006343D156D31801F0BD
:10287000D1FF02280E1B5868CB010221184A9B1871
:102880001A1840321170012282405A6030BD5868D7
:10289000CB010621124A9B181A18403211700122EE
:1028A00082405A609A61F1E75868CB0106210C4AD0
:1028B0009B181A1840321170012282405A605A61E6
:1028C000E4E75868CB010221054A9B181A184032E8
:1028D0001170012282409A60D8E7C046BC4C0000CB
:1028E000004400411823F0B508245843114A131836
:1028F0001C5701341BD0012635005F688356BD404C
:102900000D4ADB019A18906805420BD10C00601E3D
:102910008441D2194032107834400336A400B043C9
:1029200020431070044A9B18002901D15D61F0BD5D
:102930009D61FCE7BC4C000000440041182242436A
:10294000F8B52C4E0300B218127A52B214000132BC
:102950000ED0481C00240C280AD801F05BFF071F8A
:102960001F1F1F1F1F1F1F0B0B0B0B000124644297
:102970002000F8BD092905D100211800FFF766FFE6
:102980000024F5E70A2901D10839F6E700240B29CC
:10299000EED10A391800FFF759FFE9E7182253432F
:1029A000F218556801202C00F356134ADB016E081B
:1029B0009B18C9B204409E19002C0DD00F2430364C
:1029C0003278090122401143C9B25B19317040339A
:1029D0001A7810431870D3E732000F273032167878
:1029E0005B19BE433143117040331A78104318709D
:1029F000BEE7C046BC4C00000044004170470000E8
:102A000010B5FFF779FE01F0A9FFFFF7F7FF0120EE
:102A1000FFF79AFD084C200001F08EF9200001F02C
:102A200039FAFFF7B5FBFFF775FB044B002BFAD023
:102A300000E000BFF7E7C046F804002000000000F7
:102A400010B501F0AFFF10BD10B501F0B5FF10BD1E
:102A5000F7B506000D000C008B180193019B671B56
:102A60009C4207D0336821781B68300098470134B6
:102A70000028F3D13800FEBD70B5040008000D0039
:102A800002F082F82368020029005B682000984762
:102A900070BD10B50B1E02D0FFF7EEFF030018004B
:102AA00010BD10B5FFF7F5FF10BD10B503681B682A
:102AB000984710BD10B50249FFF7DEFF10BDC046B4
:102AC0001C50000070B50400FFF7E3FF0500200074
:102AD000FFF7F0FF401970BDF0B58BB06B461500E5
:102AE000002205330600DA770800012D00D80A25F8
:102AF00009AC290001F01EFFCAB2130037330700EA
:102B0000DBB2092902D813003033DBB2013C237059
:102B1000002FEED121003000FFF7BBFF0BB0F0BD5E
:102B2000F8B506000C00151E04D10368C9B21B6875
:102B30009847F8BD0A2A0CD100290BDA2D21FFF79E
:102B4000B4FF614207002A003000FFF7C5FF3818C4
:102B5000EFE7D2B221003000FFF7BEFFE9E770B522
:102B60000400FFF7DDFF05002000FFF7A3FF401979
:102B700070BD10B5002A04D10368C9B21B6898471C
:102B800010BDD2B2FFF7A8FFFAE770B50500FFF756
:102B9000F0FF04002800FFF78DFF201870BD000033
:102BA00010B50400FFF7E8FC014B1C6010BDC046E7
:102BB000080000200122024B52421A607047C046B2
:102BC00008000020164A10B51368591C26D0013B96
:102BD0001360002B22D172B6124B134A0433934276
:102BE00013D9124A01211000147D0C42FCD020217F
:102BF000148BFF319B085B0021431183D3610C4B85
:102C000013800123027D1A42FCD0BFF34F8F094B82
:102C1000094ADA60BFF34F8FC046FDE710BDC046DA
:102C200008000020002000000302000000400041D6
:102C300002A5FFFF00ED00E00400FA050160704707
:102C40009446F0B59E1E721E964162460568920734
:102C50002F6836063A4332432A60072505AC2478AC
:102C60000068A4012940214342680024022B00D0BF
:102C70005C03114321434160F0BD30B5C0250368BA
:102C8000AD031C6812052A402243C0240904A40293
:102C900021401143196003685A6814435C6030BDD9
:102CA0000123026811680B43136003681A68D20796
:102CB000FCD4DA69D207F9D470470223026811689C
:102CC0000B4313600268D3699B07FCD47047036809
:102CD0001A7ED20702D41A7E9207FCD570470022D2
:102CE00003685A8370470368187E4007C00F704717
:102CF0000368187EC0097047802302685B42117E1A
:102D00000B43137670470368588B8007C00F7047DA
:102D100002230268518B0B43538370470368187E6C
:102D2000C007C00F70470368188DC0B270470368B2
:102D30001A7ED207FCD589B201201985704701227D
:102D400003689A757047012203681A75704700007E
:102D50000368214A30B593422FD0204A93422FD0A6
:102D60001F4A93422FD01F4A93422FD01E4A9342AC
:102D70002FD01E4A93421FD10E2319220121032571
:102D800099401B48C024016099082B40AB40FC359A
:102D90009D4089000918A4000859A843C0259D40FA
:102DA0002B0003430B518023DB011A43114B5A8044
:102DB0005A7852B2002AFBDB30BD09231422DDE72A
:102DC0000A231522DAE70B231622D7E70C23172252
:102DD000D4E70D231822D1E700080042000C00427E
:102DE000001000420014004200180042001C004283
:102DF00000E100E0000C0040F8B504000F001600F0
:102E00001D00FFF7A5FF2000FFF74AFF1C21BB00B4
:102E10000B4071072268090C0B431360842322685E
:102E20009375012F1AD11021012E00D008390C4BB7
:102E300069431868C00001F0F7FC072221680240CE
:102E40008B895203DB04DB0C13438B812268030460
:102E50009089DB0C400B400318439081F8BDC046BD
:102E6000040000200120704710B50368014A1B6A66
:102E7000984710BD130400000300FC33D9699A6918
:102E8000914203D0DB69C018007D704701204042A9
:102E9000FBE710B504000069FFF702FF22000023E2
:102EA000FC329361D36186229200A4186360A36010
:102EB00010BDF02001403039484248417047F023AE
:102EC0001B011940802306209B0099420AD0013340
:102ED000FF330130994205D0802302385B009942CC
:102EE00000D0002070470F2001400020012903D0AE
:102EF0000239481E8141481C704700008923F0B503
:102F0000182685B002919B000400C05C33000821A4
:102F10004343324D1700EB185956FFF70FFD304B66
:102F20000821E05C33004343EB185956FFF706FDD8
:102F30002C4BE25C0393022A09D11133E05CFF2899
:102F400005D008214643AE197156FFF7F7FC8A26D3
:102F5000B600A05DFF2819D00121FFF777FC1822E9
:102F6000A35D21495A43AB56AD18DB0158188B219C
:102F7000890060501D4901225B188C218900635033
:102F800069688A408D21890062501A600122029B83
:102F900011002069FFF730FF39002000FFF78FFF95
:102FA000390005002000FFF79EFF390006002000D1
:102FB000FFF77FFF33000090290020690122FFF70F
:102FC0003FFE0B4B2069E25C039BE15CFFF755FE83
:102FD0002069FFF772FE05B0F0BDC046BC4C000092
:102FE000250200002702000018440041144400415B
:102FF00026020000802210B504005200002101F0DA
:10300000EEFC23000022FC335A6020009A6010BDC1
:10301000F7B51D0008AB1B780400009309AB1B78C3
:103020001600019300234360FA239B008360114B39
:103030000F00083303601430FFF7DCFF20001D3061
:10304000FF30FFF7D7FF89236A469B002761E654CC
:10305000094B1278E554094B2000E2546A46084BAC
:103060001279E2548A22293BFF3B9200A35410328A
:10307000A354FEBD205000002502000026020000DF
:10308000270200000300FC3358689B68C01A01D572
:103090000130FF30704710B5040020001D30FF30B4
:1030A000FFF7F0FF0028F8D12069FFF710FE10BDF0
:1030B00010B51430FFF7E6FF10BD0300FC3359686C
:1030C0009A68914204DB5A689868801AFF3070470A
:1030D00098685B68C01A0138F9E710B51D30FF30F9
:1030E000FFF7EBFF10BD10B504000069FFF70BFE02
:1030F000002805D02069FFF716FE2069FFF708FEBB
:103100002069FFF7F0FD002820D02069FFF70BFEB3
:103110002200FC329369D1690133DBB28B4203D0C8
:1031200091696118087593618A239B00E35CFF2B0A
:103130000CD020001430FFF7C0FF092806DC8B23D9
:103140008D229B009200E358A2581A602069FFF775
:10315000E5FD00281AD020001D30FF30FFF792FF58
:10316000002822D086239B00E31899685A68914270
:1031700018D08E219A684900A218515C9A680132D1
:10318000D2B29A60C9B22069FFF7D1FD2069FFF77A
:10319000AFFD002805D02069FFF7AEFD2069FFF7DD
:1031A0009EFD10BD01214942ECE72069FFF7CBFDF0
:1031B000ECE7000070B5040000690D00FFF7AEFDFC
:1031C00000283ED1FF2686239B00E3185A689968A1
:1031D000013232408A4223D1EFF31083DB0710D44F
:1031E0001E4B5B68DB05DB0DEDD0103B5BB2002BAB
:1031F00010DA0F221340083B9B08194A9B009B18CA
:103200001B682069FFF78AFD0028DCD02000FFF74B
:103210006AFFD8E79B08C033124A9B009B58F0E72F
:103220005A68013216409A68964205D08E215A6833
:103230004900A21855545E602069FFF780FD012007
:1032400070BD20001D30FF30FFF71CFF0028B9D1F2
:1032500029002069FFF76BFDF1E7C04600ED00E0B3
:103260001CED00E000E100E0030070B5FC33D9691B
:103270009A69040091421AD0DA698218157DDA69D8
:103280000132D2B2DA618A239B00E35CFF2B0CD0BF
:1032900020001430FFF711FF0A2806DD8C238D2251
:1032A0009B009200E358A2581A60280070BD0125C7
:1032B0006D42E8E710B504000068002801D001F075
:1032C0007BFB200010BD10B504000068002801D071
:1032D00001F072FB00232360A360636010BD70B532
:1032E00004000D000068013101F02AFC031E01D02A
:1032F000012028C470BD036810B50400002B04D061
:1033000043688B4201D3012010BD2000FFF7E7FF87
:103310000028F9D0A368002BF5D122681370F2E7DA
:1033200070B50E00110004001500FFF7E4FF00283F
:1033300004D12000FFF7C7FF200070BDA560310059
:10334000206801F019FCF7E7002370B504000D00B8
:10335000036043608360994207D0080001F014FCC9
:10336000290002002000FFF7DBFF200070BD0020D5
:10337000704770B50F26CB1D013902003240D5B21F
:103380002C0000093034092A00DD07341C70013B91
:103390008B42F2D170BD000010B50C000B4B1868C9
:1033A000FFF7E7FF21000A4B08311868FFF7E1FF3C
:1033B0002100084B10311868FFF7DBFF2100064B96
:1033C00018311868FFF7D5FF202010BD0CA0800031
:1033D00040A0800044A0800048A0800008B4024BB8
:1033E0009C46103808BC60479933000070473F2066
:1033F000704713B56B460268D971073354681900DA
:103400000122A04716BD000070B50A260B7892B0C5
:103410006E44023305000B703C220021300001F0A5
:10342000DEFA394801AC069038482421079006207E
:1034300020776846364AA1742281364A364BA281EB
:10344000FD3AFF3A8018C177684623390630C177C4
:1034500068460730C17702A8C1770720F2770326B4
:1034600008316944C87703A9CE7710212B366E4402
:103470003170092621851F3169440E700CA9053E63
:103480000E7033212380022369440B7006360DA988
:103490000E7022493536A1863B216E44307010A84B
:1034A0006274E27702703D3269446A440B701370B3
:1034B00040210022E37023716371A37341336B4495
:1034C000218719705A702B7DC039A370A37263775E
:1034D0000133DBB2A3776A7D0B200D0068441543EE
:1034E000C5773120684403703A23501C6B44187030
:1034F000412302320A436B441A70210042220848D9
:1035000000F05CFF12B070BD100104240206052417
:103510000904000001020000080B0000070500007C
:10352000F804002008B4024B9C46103808BC6047E1
:103530000934000070B5027D0B790C0000259A4219
:103540000BD10B784E78A12B09D1212E05D1072262
:103550001F49204800F032FF0135280070BD212BA3
:10356000FBD1202E2BD1072219491A4800F068FE02
:10357000174B1A785978090211439A7812041143AB
:10358000DA7812060A439621C9008A421DD1DB79F6
:10359000DB071AD4FA20FFF703FB00210D4801F0E6
:1035A00019F80125232ED8D1E378A2781B02134302
:1035B000094A00210748136001F00CF8CDE7222EDC
:1035C000EFD18A78024BDA71D2E7FFF7F3FAE4E73A
:1035D00010000020F80400200C00002008B4024B6A
:1035E0009C46103808BC60473535000010B5417D59
:1035F000006A013100F05CFD034B1B6801335A1E69
:103600009341181810BDC0461800002010B5417D28
:10361000006A023100F062FD10BD10B5417D006A04
:10362000023100F029FD10BD70B50D00417D040090
:10363000130002312A00006A00F016FE002801D1B2
:103640000123636070BD000010B5054C23685A1C4F
:1036500004D103685B69984703002060180010BD1F
:1036600018000020074A0300106810B5411C03D061
:1036700001235B42136010BD597D186A013100F0CF
:10368000A3FDF8E7180000207047002070470000F5
:10369000FA239B0010B583600F4B0022C382030006
:1036A000283383610D4B04004260C261180044332B
:1036B00023610830631D21622060DA778323A362CF
:1036C000813BE3628033236300F0AEF821001031C8
:1036D00000F07EF8200010BD0302000054500000EE
:1036E000022110B5094B1A68437D5B01D318FF33E3
:1036F0009C7A21439972437D0133DBB25B01D3187D
:103700000122FF33997A0A439A7210BDB009002052
:103710007047000010B502490248FFF7B9FF10BD1D
:10372000F80400209004002070B50E0000254468C5
:10373000002C0BD0236831005B68200098470028DC
:1037400002DB2D18E468F3E701256D42280070BD07
:1037500070B50D004468002C08D0236829009B68D0
:1037600020009847002802D1E468F4E7200070BDEB
:1037700070B50D0000264468002C09D0236829008C
:1037800020001B69984736182D18F6B2E468F3E755
:1037900030002C7070BD70B50D004468002C08D04E
:1037A000236829001B6820009847002802D1E4689C
:1037B000F4E7200070BD70B50D004468002C06D001
:1037C00023682000DB6829009847E468F6E770BDAD
:1037D000F0B58C79457803002A190020072A1FDCF0
:1037E0005A68824216D159601A78C8790A7112183B
:1037F0004D711A7000220B4DD0B284420FD98F68E0
:1038000058789600F7598600013077510132587088
:10381000F2E70200D0680028FBD1D160E4E7012084
:10382000F0BDC046D00400200121064A10B513683F
:1038300005480B4004D1802464000480436011607B
:1038400010BDC046C4040020C8040020704710B555
:103850000400FFF7F9F8200010BD0000F0B5822940
:1038600019D1C3B2294D5A01AA189169284C800177
:103870000C40C02189052143916126490833401835
:103880007021506128685B011A5C8A431100302264
:103890000A431A54F0BD0029FCD1C026C1B21B4C0A
:1038A0004B01E3189A681A4DB6052A4032439A60D4
:1038B000194A800182185A600A00072724680832D2
:1038C0005201115DB9430F000121394311559F6920
:1038D00010493D4040182E439E6158617020115D93
:1038E0008143080010210143115599680B48A21823
:1038F000084080214903014399609968890B890335
:103900009960402311790B431371C3E7B00900207C
:10391000FFFFFF8F24050020E4060020FF3F00F09A
:10392000EFF3108303600123436072B670470368AE
:10393000002B02D162B6BFF36F8F7047F7B5060058
:10394000FC36B3690400002B18D1B2277F00C55D97
:103950006846FFF7E5FF019BEDB2013B02D3E55D51
:10396000EDB2FAE768460193FFF7E1FF002D01D1C0
:103970000020FEBD706E336EC01AFAE76846FFF78E
:10398000CFFFD8220025019B5200013B02D3A55C4A
:10399000EDB2FAE768460193FFF7C9FF002DE7D0C3
:1039A000D6235B00E058043BE358E5E710B54468D4
:1039B000FC3043690B48DBB25A01A2189168083306
:1039C0000840802149030143916091685B01890BA4
:1039D000890391602268D318402219790A431A7129
:1039E00010BDC046FF3F00F0F7B50500FC356B6920
:1039F0004268DBB21900040008311068490141181F
:103A0000C979C90711D55B01D21893689B049B0C37
:103A10000CD12000FFF7CAFF63681A686B69DBB23C
:103A200008335B01D3187F22DA71F7BDE9690029F9
:103A300023D16B66230001266933FF33EE616846AC
:103A40005360B227FFF76CFF7F00B221019BFF316B
:103A5000013B5A1C38D0D822E6555200A25C581EB1
:103A6000D2B26254625C8446002A04D120000193E1
:103A7000FFF79CFFE9E76346EBE7D6214900635077
:103A80000023EB6123001D33FF3353606846D826C3
:103A9000FFF746FF01277600B221019BFF31013B72
:103AA0005A1C11D0B222A7555200A25C581ED2B2A5
:103AB0006254625C8446002A04D120000193FFF71F
:103AC00075FFE9E76346EBE768460193FFF72FFFD1
:103AD000A2E7F7B5060068463400FFF721FF00278C
:103AE000FF22019BFC34013B0DD3E0682169884231
:103AF00004DBE7682069D71B3F18F4E72769E16812
:103B00007F1A013FEFE768460193FFF710FFA369B3
:103B10006846002B52D1FFF703FFB221019B4900F9
:103B2000013B5A1C0CD0755C5A1EEDB2002D05D11C
:103B300068460193FFF7FBFE2800FEBD1300F0E787
:103B4000684601930025FFF7F2FEFF22236EBD4277
:103B500014D0616E994211D9591CF3182166FF33B4
:103B6000587FE36821690133C0B213408B4203D010
:103B7000E16871180872E3600135E7E7626E9A4206
:103B8000DAD1002323660133A3616846B224FFF72C
:103B9000C7FE6400B2220021019BFF32013B581C8A
:103BA000C6D03155B05C5F1E002805D0B15430003E
:103BB0000193FFF7FBFEEDE73B00F0E7FFF7B0FEF8
:103BC000D821019B4900013B5A1C06D0755C5A1E46
:103BD000EDB2002DACD01300F6E768460193FFF775
:103BE000A6FED623D4225B0000259C465200B35883
:103BF000BD4203D061467158994220D86246B258FE
:103C00009A4299D1D42200235200B3506846A3614E
:103C1000D824FFF785FE6400B2220021019BFF3209
:103C2000013B581C00D183E73155B05C5F1E002872
:103C300019D0B15430000193FFF7B8FEECE7591CDE
:103C4000B150FF21F3186933FF331878E368C0B22D
:103C500001330B4021698B4203D0E168711808726F
:103C6000E3600135C3E73B00DBE710B50400FFF775
:103C700030FF2300FC331969DA68914203D01B69D5
:103C8000E418207A10BD01204042FBE710B5040083
:103C9000FC34FFF71EFFE0682369C01A01D501302C
:103CA000FF3010BDF0B585B0019200910500FFF71F
:103CB00010FF02A8FFF734FE01200024FF26039B1B
:103CC00040425A1E531C1FD02B00FC3301998C42DA
:103CD00018D2D9681F69C91B01D50131FF310029EC
:103CE00010D01969DF688C460100BC4506D01969FF
:103CF0001F69691801373740097A1F61009F3955DC
:103D00000134E3E7013ADDE702A80392FFF70FFE73
:103D1000200005B0F0BD37B56B46DC1D00230D005B
:103D20002370FFF781FD2100FFF7FEFC2B681818B8
:103D3000286020783EBD00002023F7B5474A0500E3
:103D4000D1690F200B43D361012245490B781343FE
:103D50000B70444B19788143197006211C7821435C
:103D6000197041490C7822430A701A7802401A707F
:103D7000602219780A431A703C4B3D4A5A805F789A
:103D8000FF09FCD13B48FEF7A9FB01233A4C3B4E0F
:103D90002268300011780B431370802239005200E2
:103DA00000F01DFE22689378DB07FCD456621F26C4
:103DB000334B1B68590B980C9B01314030405B0F13
:103DC000B14200D105211F2800D10238072B00D1B4
:103DD000043B31408901178D01912A4930400F4041
:103DE000019939431185118D0700B143080038430B
:103DF0001085118D1803244B7F260B4003430C20A4
:103E000013850823D17881430B430321D3702268A3
:103E1000D3788B4301390B43D37022681378334036
:103E20001370042322681678334313702268C12468
:103E30001389A40083431548138103591B021B0AED
:103E40000351802303601378114819430123117033
:103E50002B700021FFF75CFCF7BDC046000400405A
:103E6000584400413C44004159440041000C00408A
:103E700006400000E5470000B0090020B40900201A
:103E8000246080003FF8FFFFFF8FFFFF00E100E0AC
:103E9000900400200078002810D00121084B1B68F6
:103EA0001A898A431A810822198B0A431A83042229
:103EB000198B0A431A830022024B1A607047C046CE
:103EC000B0090020A809002010B50F4A93699B0B88
:103ED0009B03936113680222FF331A729879823A26
:103EE00002439A711A7A9207FCD57F24074A21402F
:103EF000937A0800A3431900802301439172917AB9
:103F00005B420B43937210BDB0090020005000418A
:103F100010B50C00FFF788FC2100FFF73CFC0028DF
:103F200004D1034A93699B0B9B03936110BDC04668
:103F3000B0090020F7B50D00832A19D1CBB2404C4F
:103F40005A01A21891693F48AD010840C021890576
:103F5000014391613C4920686D1870210833556117
:103F60005B011A5C8A43110040220A431A54F7BDD0
:103F7000022A5FD1354B8A00D058002802D003684E
:103F80005B699847DA204000FEF75AFD8022040062
:103F90002B4E2F4B4660036052000021083000F08A
:103FA0001EFD2200B2210023FC324900D36055617E
:103FB000136113669361D361536663544431635054
:103FC0000431635004316354B221FF316354FF2044
:103FD0002B0003405901019371188F68194BAD00F4
:103FE0003B40C027BF051F438F600727019B3668F2
:103FF00008335B01995DB9430F000321394399559B
:1040000023005169666801401D334901FF3371186F
:104010004B60636852691B68024052019B18012281
:104020001B18997A20000A439A72FFF7BFFC074BCE
:10403000EC509CE711002800FFF710FC97E7C04602
:10404000B0090020FFFFFF8F24050020FC040020A2
:10405000B450000070B505000124064BA200D258F0
:10406000002A06D0210028000134FFF763FF0A2C44
:10407000F3D170BDD00400200B4BCAB20B488901AC
:10408000C9185301C318596199690832890B89030A
:104090009961036852019A180223D3715179823BC6
:1040A0000B4353717047C04624050020B00900201F
:1040B000084B8A00D05810B5002803D003689B68CD
:1040C000984710BDC9B2044B49015918886880044B
:1040D000800CF6E7FC040020B009002010B50C00AD
:1040E000FFF7E6FF00280CD0064BE4B21B6808344B
:1040F00064011C19802362795B42134363710223BC
:10410000E37110BDB0090020F0B51C002A4B85B04A
:104110001B6807000D000292002B4AD0274B8A0033
:10412000D058002808D0036822005B68029998479D
:104130000400200005B0F0BD3800FFF7B9FF84424D
:1041400004D929003800FFF7B3FF04000121EBB2C6
:104150001B4E03935B010193F21893689B0B9B0327
:104160009360019A336802989B18FF335A7A0A4386
:104170005A72144BA901C918220000F027FC002C28
:10418000D7D029003800FFF793FF0028D1D1402174
:10419000039B326808335B01D31818790143197106
:1041A0000121D971019BD318FF339A7A0A439A727D
:1041B000BFE701246442BCE7A8090020FC040020FA
:1041C000B0090020E406002013B56B46DC1D220078
:1041D0000123FFF799FF012801D1207816BD0120A6
:1041E0004042FBE770B5CBB2124A13485C0189012B
:1041F0008918021951609168104D08330D408021D3
:1042000049032943402591609168890B8903916096
:1042100001685A018A1816793543157195796D062A
:10422000FCD55B01C918CB79DB07FCD50019806888
:10423000C0B270BDE4060020B0090020FF3F00F0CE
:1042400070B50D0000211400FFF7CCFFA04200D98B
:10425000200000230349A34203D0CA5CEA5401337F
:10426000F9E770BDE4060020F0B51E003A4B85B0BA
:104270001B680F000192002B35D08023DB019E428A
:1042800031D80025354B8A01D3180293002E2CD04B
:10429000334B1B680393FF233B401C0000930834FF
:1042A000039B64011C19A379DB0921D02D4B2E49F6
:1042B000186800F0B9FA2D4B1721584300F0B4FAF2
:1042C0002B4BE279920713D4DA5D002A01D1013831
:1042D000F7D20122DA55009B5A01214B9B189A69AB
:1042E000920B92039A6101256D42280005B0F0BD42
:1042F00000221F4B3400DA553F2E09D9009B402481
:104300005A01174B9B188022996912060A439A6139
:1043100022000199029800F059FB009BA1045A0168
:104320000F4B890C9B18029A2D195A619A69361BFA
:10433000920B92030A439A61009B039A08335B0134
:10434000D3180222DA715979823A0A435A71019BD1
:104350001B1901939AE7C046A809002024050020F4
:10436000B00900200400002040420F00701101003D
:104370001905002070B50D001C000D4BAE01F6189C
:1043800011003000220000F021FBEDB209496D015F
:104390004D196E61AB69084A20001340AB61AB69EF
:1043A000A2049B0B920C9B031343AB6170BDC046F0
:1043B00024050020B0090020FF3F00F0F7B5104BA6
:1043C00001901B780F001500002B0CD10D4B16002F
:1043D0001C78002C09D00C4E0C4834882018641925
:1043E00000F0F4FA34802800FEBD002EFBD03A190C
:1043F000330000210198FFF7BDFF2418361AF4E7B7
:10440000A4080020A5090020A6090020A508002076
:10441000F8B50F0016000024012A26D9100000F07C
:10442000C1FA0500380000F0AFFB0323022201307F
:10443000400028706B7096420DD9397800290AD057
:10444000531CDBB20137A9549E4203D00232EC5414
:10445000D2B2F0E7320029000548FFF7AFFF441E53
:10446000A041C4B2280000F0A7FA2000F8BDC04661
:10447000F8040020F0B50024012685B0184B0F0089
:1044800069461E7005000094FFF745FC154B01A915
:104490000B806A3BFF3BCB715A330B72009B8C71D4
:1044A00009334B800E4B4E7108711C703A00092F76
:1044B0000FD00D4F09223E700C4E2800009434801E
:1044C000FFF77CFF69462800FFF725FC3288084982
:1044D0003C702800FFF772FF012005B0F0BDC04618
:1044E000A408002009020000A5090020A609002058
:1044F000A508002070B5CE7892B005000C00022E01
:104500000BD18B79C9792E4809021943FFF7B2FF05
:10451000411E8841C0B212B070BDFFF785F921007D
:10452000FFF716F9002803D0C117081AC00FF2E7E9
:10453000012E0ED1E279A37912021A432149112AE0
:104540003CD8D2B2002A39D02800FFF737FF01202B
:10455000E1E7032EDFD1A378002B28D0022B08D16E
:10456000E279A379120218491A432800FFF750FF95
:10457000D1E7012B05D1E279A37912021A4313493D
:10458000F3E7032BC7D10100412201A800F027FA6D
:10459000FFF74AF901A9FFF7EBF8002805D0E27907
:1045A000A37912021A4301A9DFE70378FFDEE2795B
:1045B000A37912021A430649032AC2D90A78C3E72B
:1045C000F8040020F0500000D0500000E45000003B
:1045D000E0500000CBB204495B01C9188B699B0B0A
:1045E0009B038B617047C046B009002037B50500BA
:1045F00048780C000B2810D800F00CF9061B0F2B84
:104600000F404561494C5A5D097801AA002906D13D
:10461000022311802800FFF7ADFE01203EBD0023DC
:104620001380284B1B78012B00D11370022300212B
:10463000F0E78A780023012A03D101AA1380224BD4
:10464000F0E7204A1370214A93699B0B9B03936107
:10465000E3E78C78012C06D100211B4B01AA1C70CA
:1046600011702300D6E70120002CD7D1154B174A33
:10467000187093699B0B9B039361CFE7897828009F
:10468000FFF722FCC9E72800FFF734FFC6E7012344
:104690000F4ACCE70B780020DB06BFD12800FFF7DC
:1046A000D9FCA2780A4B0B481A60FFF719F8CAE741
:1046B0000123094ABBE78A78074B1A60C3E7002049
:1046C000ACE7C0461805002020050020B0090020F6
:1046D000A809002090040020AC0900203B4BF7B54E
:1046E0001E780500002E5FD1394C23689A8B120783
:1046F0000DD5082231009A833000FFF7AFF8102261
:104700002368FF33997A0A439A72324B1E602368FA
:104710009A8B520701D504229A83FF331A7A9206A4
:1047200003D52022597A0A435A721A7AD20623D51F
:1047300069460800284AC0CAC0C0A268920B92030A
:10474000A2604022587902435A7160230A782800F7
:104750001A422AD1FFF74AFF2368FF33002827D0E7
:104760008022997952420A439A711A7A520603D5E5
:104770004022597A0A435A727F2601252368FF3363
:104780001E722F00236808377F01DB19DB79002BAD
:1047900007D0124BAA00D05800280DD003681B6820
:1047A00098470135082DECD1F7BDFFF7B1FBD3E7F2
:1047B00020210B4A9171D8E7FFF736F82900FEF760
:1047C000FAFF2368DF19FE71EBE7C046A509002058
:1047D000B0090020A8090020E4060020FC04002005
:1047E000FF50004110B50248FFF778FF10BDC046EA
:1047F000F8040020014B024A1A607047B0090020FB
:10480000005000410B0010B50100180000F098F8AE
:1048100010BD000002B4714649084900095C490016
:104820008E4402BC7047C046002243088B4274D3BA
:1048300003098B425FD3030A8B4244D3030B8B42A1
:1048400028D3030C8B420DD3FF22090212BA030CAA
:104850008B4202D31212090265D0030B8B4219D38B
:1048600000E0090AC30B8B4201D3CB03C01A5241AB
:10487000830B8B4201D38B03C01A5241430B8B42F3
:1048800001D34B03C01A5241030B8B4201D30B03DC
:10489000C01A5241C30A8B4201D3CB02C01A524103
:1048A000830A8B4201D38B02C01A5241430A8B42C6
:1048B00001D34B02C01A5241030A8B4201D30B02AF
:1048C000C01A5241CDD2C3098B4201D3CB01C01AC9
:1048D000524183098B4201D38B01C01A52414309D3
:1048E0008B4201D34B01C01A524103098B4201D3C1
:1048F0000B01C01A5241C3088B4201D3CB00C01A2E
:10490000524183088B4201D38B00C01A52414308A5
:104910008B4201D34B00C01A5241411A00D20146CA
:10492000524110467047FFE701B5002000F006F83D
:1049300002BDC0460029F7D076E770477047C046F1
:1049400010B5040004481300002804D00A00022017
:10495000210000E000BF10BD0000000070B500267F
:104960000C4D0D4C641BA410A64209D1002600F08A
:1049700051F90A4D0A4C641BA410A64205D170BD22
:10498000B300EB5898470136EEE7B300EB58984771
:104990000136F2E780000020800000208000002027
:1049A000A000002010B5034B0100186800F06AF861
:1049B00010BDC0461C00002010B5034B0100186854
:1049C00000F016F810BDC0461C000020002310B5F2
:1049D0009A4200D110BDCC5CC4540133F8E7030007
:1049E0001218934200D1704719700133F9E70000A3
:1049F00070B50500002910D00C1F2368002B00DAC9
:104A0000E418280000F0C7F81D4A1368002B05D1F0
:104A100063601460280000F0BFF870BDA34209D99C
:104A2000216860188342F3D118685B6841182160DF
:104A3000EEE713005A68002A01D0A242F9D919689A
:104A40005818A0420BD120680918581819608242E2
:104A5000E0D110685268411819605A60DAE7A04244
:104A600002D90C232B60D5E721686018824203D15C
:104A7000106852684118216062605C60CAE7C046F5
:104A8000B40A0020032370B5CD1C9D4308350600F1
:104A90000C2D1ED20C25A9421DD8300000F07BF849
:104AA000254A14682100002919D1244C2368002BC1
:104AB00003D1300000F04EF820602900300000F0F3
:104AC00049F8431C2BD10C233000336000F064F80C
:104AD00003E0002DDFDA0C233360002070BD0B688B
:104AE0005B1B19D40B2B03D90B60CC18256003E09A
:104AF0004B688C420DD11360300000F04DF820005F
:104B000007220B30231D9043C31AE7D05A42E250CC
:104B1000E4E763600C00EFE70C004968C3E7032398
:104B2000C41C9C43A042E1D0211A300000F012F8CE
:104B3000431CDBD1C7E7C046B40A0020B80A0020F6
:104B400010B5034B0A000100186800F026F810BDEC
:104B50001C000020002370B5064C050008002360EF
:104B600000F04AF8431C03D12368002B00D02B60CF
:104B700070BDC046C00A002003000A7801311A70D7
:104B80000133002AF9D170470023C25C0133002AA7
:104B9000FBD1581E704770477047F8B507000D00ED
:104BA0001600002905D11100FFF76CFF040020005A
:104BB000F8BD002A03D1FFF71BFF3400F7E700F030
:104BC00012F82C00B042F2D231003800FFF75AFF41
:104BD000041EECD029003200FFF7F8FE290038004F
:104BE000FFF706FFE3E70B1F1B68181F002B01DA16
:104BF0000B58C01870470000044A1368002B00D1FE
:104C0000034B1818106018007047C046BC0A0020FB
:104C1000C40A0020F8B5C046F8BC08BC9E467047E0
:104C2000F8B5C046F8BC08BC9E4670475468697326
:104C30002069732061207465737420537472696EE7
:104C400067210053697A65203A200056616C7565CA
:104C500073203A0010111213141516171819414237
:104C6000434B000113370000000001000000020068
:104C700000000400000008000000100000002000F8
:104C80000000400000008000000000010000000261
:104C900000002000000040000000800000008000B4
:104CA00000000400000008000000400000000800B0
:104CB000EFBF011F2062C837C2302026000000006D
:104CC00016000000080000001C000000FF000004A7
:104CD00000040600000000001700000008000000AB
:104CE0001C000000FF000104010407000000000098
:104CF0000A000000080000001C0000001200000173
:104D00000001FF00000000000B0000000800000090
:104D10001C000000130001010101FF000100000060
:104D20000A000000080000001C000000FF00000551
:104D300000050A00010000000B0000000800000050
:104D40001C000000FF00010501050B000000000031
:104D500014000000080000002C000000FF0002000A
:104D60000200040000000000150000000800000020
:104D70002C000000FF0003000300050000000000FD
:104D800010000000020000001C000000FF000002F4
:104D900000020000000000001100000002000000FE
:104DA00004000000FF00FFFFFFFF01000000000003
:104DB00013000000020000001C000000FF000103BF
:104DC0000103FF00000000000800000003000000D5
:104DD0001C00000010000000000010000000000097
:104DE0000900000003000000040000001100FFFFA4
:104DF000FFFFFF000100000017000000030000009B
:104E000004000000FF00FFFFFFFFFF0001000000A3
:104E1000160000000300000004000000FF00FFFF78
:104E2000FFFFFF0000000000020000000100000082
:104E3000060000000000FFFFFFFFFF000100000070
:104E40000200000001000000040000000A00FFFF53
:104E5000FFFF02000100000003000000010000004D
:104E6000040000000B00FFFFFFFF03000000000034
:104E700004000000010000001C000000040000000D
:104E80000000FF000000000005000000010000001D
:104E90001C000000050001000100FF0000000000F0
:104EA0000600000001000000040000000600FFFFF3
:104EB000FFFFFF00000000000700000001000000ED
:104EC000040000000700FFFFFFFFFF0000000000DC
:104ED000180000000600000000000000FF00FFFFB7
:104EE000FFFFFF00000000001900000006000000A6
:104EF00000000000FF00FFFFFFFFFF0000000000B8
:104F0000120000000800000004000000FF00FFFF86
:104F1000FFFFFF0000000000030000000800000089
:104F200004000000FF00FFFFFFFFFF000000000083
:104F30000C0000000300000000000000FF00FFFF65
:104F4000FFFFFF00000000000D0000000300000054
:104F500000000000FF00FFFFFFFFFF000000000057
:104F60000E0000000800000000000000FF00FFFF2E
:104F7000FFFFFF00000000000F0000000300000022
:104F800000000000FF00FFFFFFFFFF000000000027
:104F90001B0000000800000000000000FF00FFFFF1
:104FA000FFFFFF00000000001C00000008000000E0
:104FB00000000000FF00FFFFFFFFFF0001000000F6
:104FC000080000000800000000000000FF00FFFFD4
:104FD000FFFFFF00010000000900000008000000C2
:104FE00000000000FF00FFFFFFFF090000000000BD
:104FF000000000000800000000000000FF00FFFFAC
:10500000FFFFFF000000000001000000080000009A
:1050100000000000FF00FFFFFFFFFF000D0A00007F
:105020000000000000000000B5310000512A00001F
:10503000DB30000097300000B13000006932000022
:10504000792E0000692E0000FD2E0000932E000036
:10505000652E00000000000000000000F333000097
:1050600029360000EF3300000D360000ED3500005A
:1050700065360000493600001B3600000934000088
:105080006F3300003535000099330000ED33000028
:10509000F0FFFFFF00000000DD35000025350000B7
:1050A0008B36000089360000DD3300000000000070
:1050B00000000000E9390000A53C00008D3C000024
:1050C0006B3C00004D3800004F3800003D390000B7
:1050D00041726475696E6F204D4B52313030300033
:1050E0000403090441726475696E6F204C4C4300DF
:1050F00012010002EF02014041234E800001010233
:10510000030100000000000000000000000000009B
:10511000000000000000000000000000000000008F
:10512000000000000000000000000000000000007F
:10513000000000000000000000000000000000006F
:10514000000000000000000000000000000000005F
:10515000000000000000000000000000000000004F
:08516000000000000000000047
:105168000000000040420F00FFFFFFFFFFFFFFFFAE
:1051780000C2010000000800FFFFFFFF2000002020
:1051880000000000245100004451000004510000B8
:105198000000000000000000000000000000000007
:1051A80000000000000000000000000000000000F7
:1051B80000000000000000000000000000000000E7
:1051C80000000000000000000000000000000000D7
:1051D80000000000000000000000000000000000C7
:1051E800DD2000003122000089220000F1220000A9
:1051F800B5230000E123000015370000F547000043
:10520800B5200000000000000000000000000000C1
:04000003000024795C
�  
  �                                          	  M  �L#x +�K +�H � �##p�\       �  �K +�HI � �Hh +�K + ИG��F    �  `   X       JKx )	�Ix	xAɲp� I@�ax1ɲpx�)�x	)	�Ix@B��px	xAɲpxx�Bр"KR�apGx           D A��i���h$�C`�i#B��h#C`h����i#B���i�@B��KC`�iZ���#�C`���i���h"C`�  @~����pG  ~#Q��B�B�B��@B�B��B�K"p ���pG�Fy   p�h��!�2B&Ѐ ���r#Sp@!K�qPq^hM� .@�C^`^i5@(CXaH`Ha]hH(@�%�(CX`Xh��X` #Qq#q�z��  ��� yp��  �����     �? � #qCqK`�`x"CppG�F�  8�6K !�i 
C�a4K$xCp2K"x�Cpx!Cp/Ix Cpx
@px`!
Cp+K+JZ�ZxR� *��)K!x
Cp�x���&HhQ"@�B �!@��"I)@!C�h�
@* �"�!
@�C"C�h!�
@�B �"
@�J@
C�x"
@px!H
CpXb�!�C��!�C� !�"�F�8�  @XD A<D AYD A  @@   P A$`� ?��������  ��J_��Xi'@ @03�@��"Yh
CZ`	�/{�AK��8"���H5BaRi����
CZaYiJ
@Zak�"�qYy�"RB
CZqk��y��� ���    �? ���N3x +�KJdZl��ZdXlJ@Zd�#[ �\@ C�T#3pH'�7�]#@�KZl���B�\l��"I��#�U #3p � ��z   �  �   �? ��0�y " ) �"C�qpG  K�0Zi��Za#r�y�#[BC�qz���pG�F�  �#[BCɲ�rpGp��#"[ �TKJ\l�!@�CF%\d�5@$DUM0&d�%m FU]k@)C�%Ycm �!AU	Mc�%m DU\o"@Zg�#[ �Tp��F�  �����   X  K[x[� +��pG  @K�h���pG�F  @��*K"Yh�C"CY`'K(I����
C���h'#L;B��#M#�`����"Kk`�����#�k��������"�C������K�b������JC��������C���h��K�hZ�� $�����`����Kk`����KJ�!Z`J	j  
Cb"�``���F @ A  @    @ ��}
    � ��   � ����
���������JH8��B�JK�B�
�
L�B�� #��B���X3
`�� ���B�� !�����    \   �  \   �  8�0Kh2!�.J`ٲ )�,Jx"@+J
�h+I�B�`�`)I9 )��`"h����"�C%J�`K[hG��:�b� �� �O� K�"R�`KJZ`J�!j	  
Cb "�`"`�h �GK (�"px *�   �� ����x +�� ��� (��  �~� ������F      8 @�  5�sH�  � � D A� ��  {   ����� �����KL#`��n� !h��\� � P A  p��� ��@ jF#0Sppv#�:xZ  )�(iF #����@�p��B��hF�R3��  ���Jhx�I'�7 8rpSx�H�Np�x3��x3�	C3�y�K�Qy�	C��y�I��y�C
�@"zq�O:x�O8xC�H�FbE ��� ܀!I �B �n�	܁* ђ�* ѕ�* �d��#[ �B ��� �X��#� �B �W�K�B �O�R�#�Bi���#� �B"Ј#�BiР#� �B �@� ����1�(h������;�K�B �/� �1�K�B ��K�B �)�3�kq"�3�
+��"(h�B�
���~I�3�
+��C"(h�B�
���yI�3�
+ ��3�۲+� +�+ ���
�(hҲpI�"�oI �5�;�"(h�B�:������
�(hiIҲ�����3� +q���� ������)�"��aI #�(h"��^I "
��P"@\Jp� 0@��( ���x�3[��y *Л ����(h"���"�CNJɲp�!@�1� ) У�� ) џ��) ٛ�x�3[� *� "Zq��!Yq���#�C<KҲp�"
@�2� * Ѐ�� * �|��* �x�x +��3[��y�j�� "3[�q�3[��y_]��@"3[��q�"3[���3[��y�J��"3[�q�3[��y�=�� "3[��q�"3[�q0��F�   }   �   �   �   �       !   �!  !"  �     �  �  �  ~   |   �"(h�B�
���I #���� ����� !�������FH   �K"��h��	� ��F  �KlF4h!"��C� x��F  �L ���  �B�"hH#�3�\#@�  �Jh#"���� �  p�L 
���� #�B� h1*���p�  ��L ���� #'4�B
� ,�)"8h����$-��3���F  ��GKd"���F�   (�KJ`Kp� (�JK`pG�  0  �   |  0�
I��	x )*�*� h�*� � � xR ��;��B�!@	)�0%)C �71p 	;���0#px#Kp
 ��p
 �pK2h�h�I	h�h�����0��F�   �  r����J`h���ChGpG�F�  K� *��:���K� *��:���pG�F�   �   𵑰��J1�1�Q�Q�`�`��K�H�hz%RR� RX�I`�h��bC`�I $
`�J`�L%p�L�M#h(i@!�G (��Kd"��K "`�K`�K�M�O`*h;h�B�ҼKhx�* ��#* ���N3x +бK�Ih"�h��-��KxS+<�;h*h�BٮH2*`��Khh1`�N�B�2` �3`�H2h h� ���3h)hZ*`�Jh�`�Jp+h;+`�Kh:`�K�Jxh�B
�"h�H� h�i�G (ВKd"��F��R+
ъH�J#h hh[i��Gd"�K
�O+фK�Jhhpx�H+рK�Jhh�p�W+�|K�Jhh`h�o+�xK!h�h+�uK~Hh!�`����W�w+�oKyHh!h`��G+�uKh��	�wKh���b�uKx + �>�fK hh�G8�T+�#3paKhd�N+�3x +�]KcIh"�h���� #3p"�V+W�#hdI�h"��y�#hbI�h"��s�aM#h)�h"��l�#h^I�h
"��f�#h)�h"��`�KOLMXI #9`+`:(h^`x� +�h3`��>N*h3h�h��G�3hJI�h"��A��)`JI9`:JhX`x +�7Kh2`��3h*h�h��,�3h�h3I"��3JX+�$N&M6hh*h� �B
�MX�a8H(�M(}���[�� K4Ih�h��Y+y�hK1I *�h`l�MhhkhN�%�C�s` *a�*KM+�N3}��� #
M-h���B�$MN5�F�B�Н FY3NQ��   @ AD  <  8  �  4  �  H  �   ,  0  @  �   p  �  �  (  �   �  �   L  u  N  �  P  \  ���e  �   D������?N5}��՝ I@���<K<Ih�h.�Z+/�:Khh &��B�(x1 ��5��1K4Ih"�h��y�#"2@6	01	* �1 �jF�T;��#h��h"��d�#h'I�h"��^�%Kz"p%K "`$Kx�B-�K#Ih"�h��M�%�09ȲK	(�h*C`�A9)�h7:1�a9)�hW:
C�,*�
Jh`�I
p "`
Kh2`Kh2�� @ A�  i  �  m  o  4  �  �   s  @  0  �K x$CpK"x�Cpx!CpIx Cpx
@px !
CpK!j
CbKJZ�ZxR� *���"HI���`�J #pJpJpJpJpJp�JD A5D AKD A  @  @@    B*�  �  #  �  �  $  !  ���H��_� ��F  BK~@�pG�F  B����� (��H��P���F  B����� #�B�����#;ZBSA�p�
F�B� x����4��(p������ p �
X@K@ �Z	H@��pG�F�  �� $&�B �����K��x� +�1����
K� *�Jx* )��j)p�/��9�4����0 � ��!  �  "  �>N�� "�2p<K�B�"�:I�p#BЀ4�C��~�3x�� +� %5p��v�3x���B6�C(�q(S�(��# � ��U� ���R� ��%�C����L�� '�$J� +�!I�	x )����=�9���y�= -�� 
����1�����.���>�3x +
�5p��;	x���3�����(� ��3۲�1 ��<� ,�� ������K%p � %(��!  "  �  �8L�� #�#p�B�#�4J�4Jd&pC ����2O���� (� /�?�� /�> .��M�%����#x +8����(�(=� ����9��!0�����!���#x� +�����������#x?��+
���B�3x�B��Crx۲�B� ���� #� �����"x *� &&p�+��k�2ݲ���J #p&0��!  �  "   5 � #�B��\�T3�����B�p3��pG #�\3 *��XpG���F����FpG���F����FpG	Arduino LLC Arduino MKR1000    @A#N               @   �            �  �  �  �    �  �  v   Apr 11 2019 13:09:51 X

 Y

 Z #

 > 2.0    %  A  ]  �  �  �  �  [Arduino:XYZ]   !B c0�@�P�`�p�)�J�k���������1s2R"�R�B�r�b9��{�Z��Ӝ�����b$C4 �d�t�D�Tj�K�(�	������ō�S6r&0�v�f�V�F[�z��8�����׼��H�X�h�x@a(#8���َ��H�i�
�+��Z�J�z�jqP
3:*���˿���y�X�;���l�|�L�\",<`A�������*��h�I��~�n�^�N>2.Qp���������:�Y�x�����ʱ��-�N�o�� �0� P%@Fpg`������ڳ=���^���"�25BRwbVr�˥����n�O�,�
��4�$��ftGd$TDۧ������_�~��<��&�6��WfvvF4VL�m��/�ș鉊���DXeHx'h���8�(}�\�?����؛����uJTZ7jz�
��*�:.��l�Mͪ����ɍ&|ld\EL�<�,���>�]�|ߛ���ُ��n6~UNt^�.�>��        	C  �2	    $ $ $ $ � �	 
   �@  @    �    i   A       